{
  "transactions": [
    {
      "hash": "0xfe2c5051807c2b87d47fbb4ffd56f5e3b65e5ea9a6f1a285cb8a1ade87d900bc",
      "transactionType": "CREATE",
      "contractName": "TokenFaucet",
      "contractAddress": "0xc8ee210c8c925b921cbe6114a8e0a5432c1024c1",
      "function": null,
      "arguments": [
        "0x47A94537Cd5169dD0D7E8B86B65372794C9Ff8e8",
        "1000000"
      ],
      "transaction": {
        "from": "0xf7c7ddd2ed3ea7b745786951713f4ffef428adef",
        "gas": "0x76e60",
        "value": "0x0",
        "input": "0x60c03461011a57601f61068438819003918201601f19168301916001600160401b0383118484101761011e57808492604094855283398101031261011a5780516001600160a01b038116919082900361011a57602001513315610107575f8054336001600160a01b0319821681178355604051949290916001600160a01b0316907f8be0079c531659141344cd1fd0a4f28419497f9722a3daafe3b4186f6b6457e09080a380156100f85781156100e95760805260a052610551908161013382396080518181816101590152818161024d01526102bb015260a0518181816102fd01526104410152f35b63353c3eb760e11b5f5260045ffd5b6375e3b50160e01b5f5260045ffd5b631e4fbdf760e01b5f525f60045260245ffd5b5f80fd5b634e487b7160e01b5f52604160045260245ffdfe6080806040526004361015610012575f80fd5b5f3560e01c90816303822d3b14610464575080633214cb361461042a5780634451d89f1461027c5780636f307dc314610238578063715018a6146101e15780638da5cb5b146101ba578063b6b55f25146101015763f2fde38b14610074575f80fd5b346100fd5760203660031901126100fd576004356001600160a01b038116908190036100fd576100a26104d3565b80156100ea575f80546001600160a01b03198116831782556001600160a01b0316907f8be0079c531659141344cd1fd0a4f28419497f9722a3daafe3b4186f6b6457e09080a3005b631e4fbdf760e01b5f525f60045260245ffd5b5f80fd5b346100fd5760203660031901126100fd5760043561011d6104d3565b80156101ab5761017d6040516323b872dd60e01b60208201523360248201523060448201528260648201526064815261015760848261049d565b7f00000000000000000000000000000000000000000000000000000000000000006104f9565b6040519081527f59062170a285eb80e8c6b8ced60428442a51910635005233fc4ce084a475845e60203392a2005b63353c3eb760e11b5f5260045ffd5b346100fd575f3660031901126100fd575f546040516001600160a01b039091168152602090f35b346100fd575f3660031901126100fd576101f96104d3565b5f80546001600160a01b0319811682556001600160a01b03167f8be0079c531659141344cd1fd0a4f28419497f9722a3daafe3b4186f6b6457e08280a3005b346100fd575f3660031901126100fd576040517f00000000000000000000000000000000000000000000000000000000000000006001600160a01b03168152602090f35b346100fd575f3660031901126100fd57335f52600160205260405f205480151580610415575b6103e2576040516370a0823160e01b81523060048201527f00000000000000000000000000000000000000000000000000000000000000006020826024816001600160a01b0385165afa9182156103d7575f926103a3575b507f00000000000000000000000000000000000000000000000000000000000000008092106103945761036690335f5260016020524260405f20556040519063a9059cbb60e01b60208301523360248301528360448301526044825261036160648361049d565b6104f9565b6040519081527fe42df0d9493dfd0d7f69902c895b94c190a53e8c27876a86f45e7c997d9d8f7c60203392a2005b63e4bef6cd60e01b5f5260045ffd5b9091506020813d6020116103cf575b816103bf6020938361049d565b810103126100fd575190826102fa565b3d91506103b2565b6040513d5f823e3d90fd5b62015180810180911161040157631d33f47560e21b5f5260045260245ffd5b634e487b7160e01b5f52601160045260245ffd5b508042034281116104015762015180116102a2565b346100fd575f3660031901126100fd5760206040517f00000000000000000000000000000000000000000000000000000000000000008152f35b346100fd5760203660031901126100fd576004356001600160a01b03811691908290036100fd576020915f526001825260405f20548152f35b90601f8019910116810190811067ffffffffffffffff8211176104bf57604052565b634e487b7160e01b5f52604160045260245ffd5b5f546001600160a01b031633036104e657565b63118cdaa760e01b5f523360045260245ffd5b905f602091828151910182855af1156103d7575f513d61054857506001600160a01b0381163b155b6105285750565b635274afe760e01b5f9081526001600160a01b0391909116600452602490fd5b600114156105215600000000000000000000000047a94537cd5169dd0d7e8b86b65372794c9ff8e800000000000000000000000000000000000000000000000000000000000f4240",
        "nonce": "0x14f4",
        "chainId": "0x14a34"
      },
      "additionalContracts": [],
      "isFixedGasLimit": false
    },
    {
      "hash": "0x464af6c1092c070402e80e2ba4cf6c0a8acb8849eba617f579b520bd9fe608fb",
      "transactionType": "CALL",
      "contractName": "MockERC20",
      "contractAddress": "0x47a94537cd5169dd0d7e8b86b65372794c9ff8e8",
      "function": "mint(address,uint256)",
      "arguments": [
        "0xf7c7DDD2eD3EA7B745786951713f4FfeF428adef",
        "50000000000"
      ],
      "transaction": {
        "from": "0xf7c7ddd2ed3ea7b745786951713f4ffef428adef",
        "to": "0x47a94537cd5169dd0d7e8b86b65372794c9ff8e8",
        "gas": "0x11305",
        "value": "0x0",
        "input": "0x40c10f19000000000000000000000000f7c7ddd2ed3ea7b745786951713f4ffef428adef0000000000000000000000000000000000000000000000000000000ba43b7400",
        "nonce": "0x14f5",
        "chainId": "0x14a34"
      },
      "additionalContracts": [],
      "isFixedGasLimit": false
    },
    {
      "hash": "0xed7cd1c2b655670243e444e8dbceb099434eda1d31b92e7faa1d45123d202ac7",
      "transactionType": "CALL",
      "contractName": "MockERC20",
      "contractAddress": "0x47a94537cd5169dd0d7e8b86b65372794c9ff8e8",
      "function": "approve(address,uint256)",
      "arguments": [
        "0xc8ee210C8c925B921cBE6114a8e0A5432C1024C1",
        "50000000000"
      ],
      "transaction": {
        "from": "0xf7c7ddd2ed3ea7b745786951713f4ffef428adef",
        "to": "0x47a94537cd5169dd0d7e8b86b65372794c9ff8e8",
        "gas": "0xf7d3",
        "value": "0x0",
        "input": "0x095ea7b3000000000000000000000000c8ee210c8c925b921cbe6114a8e0a5432c1024c10000000000000000000000000000000000000000000000000000000ba43b7400",
        "nonce": "0x14f6",
        "chainId": "0x14a34"
      },
      "additionalContracts": [],
      "isFixedGasLimit": false
    },
    {
      "hash": "0x32cd76840cec0e663def86813e64b0fa3af75159c68f9d68057c02e946f5303c",
      "transactionType": "CALL",
      "contractName": "TokenFaucet",
      "contractAddress": "0xc8ee210c8c925b921cbe6114a8e0a5432c1024c1",
      "function": "deposit(uint256)",
      "arguments": [
        "50000000000"
      ],
      "transaction": {
        "from": "0xf7c7ddd2ed3ea7b745786951713f4ffef428adef",
        "to": "0xc8ee210c8c925b921cbe6114a8e0a5432c1024c1",
        "gas": "0x1315a",
        "value": "0x0",
        "input": "0xb6b55f250000000000000000000000000000000000000000000000000000000ba43b7400",
        "nonce": "0x14f7",
        "chainId": "0x14a34"
      },
      "additionalContracts": [],
      "isFixedGasLimit": false
    },
    {
      "hash": "0xc27b9c2cbab49ffd835db34713c75f17f4336135ba9f386a0c389b135e0f0464",
      "transactionType": "CREATE",
      "contractName": "TokenFaucet",
      "contractAddress": "0x25883610d91abedac216f4531594a74fc4c3d96a",
      "function": null,
      "arguments": [
        "0x119000192D6C783d355aC50320670F8140D051d0",
        "100000000000000000"
      ],
      "transaction": {
        "from": "0xf7c7ddd2ed3ea7b745786951713f4ffef428adef",
        "gas": "0x76e7f",
        "value": "0x0",
        "input": "0x60c03461011a57601f61068438819003918201601f19168301916001600160401b0383118484101761011e57808492604094855283398101031261011a5780516001600160a01b038116919082900361011a57602001513315610107575f8054336001600160a01b0319821681178355604051949290916001600160a01b0316907f8be0079c531659141344cd1fd0a4f28419497f9722a3daafe3b4186f6b6457e09080a380156100f85781156100e95760805260a052610551908161013382396080518181816101590152818161024d01526102bb015260a0518181816102fd01526104410152f35b63353c3eb760e11b5f5260045ffd5b6375e3b50160e01b5f5260045ffd5b631e4fbdf760e01b5f525f60045260245ffd5b5f80fd5b634e487b7160e01b5f52604160045260245ffdfe6080806040526004361015610012575f80fd5b5f3560e01c90816303822d3b14610464575080633214cb361461042a5780634451d89f1461027c5780636f307dc314610238578063715018a6146101e15780638da5cb5b146101ba578063b6b55f25146101015763f2fde38b14610074575f80fd5b346100fd5760203660031901126100fd576004356001600160a01b038116908190036100fd576100a26104d3565b80156100ea575f80546001600160a01b03198116831782556001600160a01b0316907f8be0079c531659141344cd1fd0a4f28419497f9722a3daafe3b4186f6b6457e09080a3005b631e4fbdf760e01b5f525f60045260245ffd5b5f80fd5b346100fd5760203660031901126100fd5760043561011d6104d3565b80156101ab5761017d6040516323b872dd60e01b60208201523360248201523060448201528260648201526064815261015760848261049d565b7f00000000000000000000000000000000000000000000000000000000000000006104f9565b6040519081527f59062170a285eb80e8c6b8ced60428442a51910635005233fc4ce084a475845e60203392a2005b63353c3eb760e11b5f5260045ffd5b346100fd575f3660031901126100fd575f546040516001600160a01b039091168152602090f35b346100fd575f3660031901126100fd576101f96104d3565b5f80546001600160a01b0319811682556001600160a01b03167f8be0079c531659141344cd1fd0a4f28419497f9722a3daafe3b4186f6b6457e08280a3005b346100fd575f3660031901126100fd576040517f00000000000000000000000000000000000000000000000000000000000000006001600160a01b03168152602090f35b346100fd575f3660031901126100fd57335f52600160205260405f205480151580610415575b6103e2576040516370a0823160e01b81523060048201527f00000000000000000000000000000000000000000000000000000000000000006020826024816001600160a01b0385165afa9182156103d7575f926103a3575b507f00000000000000000000000000000000000000000000000000000000000000008092106103945761036690335f5260016020524260405f20556040519063a9059cbb60e01b60208301523360248301528360448301526044825261036160648361049d565b6104f9565b6040519081527fe42df0d9493dfd0d7f69902c895b94c190a53e8c27876a86f45e7c997d9d8f7c60203392a2005b63e4bef6cd60e01b5f5260045ffd5b9091506020813d6020116103cf575b816103bf6020938361049d565b810103126100fd575190826102fa565b3d91506103b2565b6040513d5f823e3d90fd5b62015180810180911161040157631d33f47560e21b5f5260045260245ffd5b634e487b7160e01b5f52601160045260245ffd5b508042034281116104015762015180116102a2565b346100fd575f3660031901126100fd5760206040517f00000000000000000000000000000000000000000000000000000000000000008152f35b346100fd5760203660031901126100fd576004356001600160a01b03811691908290036100fd576020915f526001825260405f20548152f35b90601f8019910116810190811067ffffffffffffffff8211176104bf57604052565b634e487b7160e01b5f52604160045260245ffd5b5f546001600160a01b031633036104e657565b63118cdaa760e01b5f523360045260245ffd5b905f602091828151910182855af1156103d7575f513d61054857506001600160a01b0381163b155b6105285750565b635274afe760e01b5f9081526001600160a01b0391909116600452602490fd5b6001141561052156000000000000000000000000119000192d6c783d355ac50320670f8140d051d0000000000000000000000000000000000000000000000000016345785d8a0000",
        "nonce": "0x14f8",
        "chainId": "0x14a34"
      },
      "additionalContracts": [],
      "isFixedGasLimit": false
    },
    {
      "hash": "0xf983f26583abbd65b5992e43577404f429ce966153fb9f91d77d77478b9e53a5",
      "transactionType": "CALL",
      "contractName": "MockERC20",
      "contractAddress": "0x119000192d6c783d355ac50320670f8140d051d0",
      "function": "mint(address,uint256)",
      "arguments": [
        "0xf7c7DDD2eD3EA7B745786951713f4FfeF428adef",
        "10000000000000000000000"
      ],
      "transaction": {
        "from": "0xf7c7ddd2ed3ea7b745786951713f4ffef428adef",
        "to": "0x119000192d6c783d355ac50320670f8140d051d0",
        "gas": "0x1852a",
        "value": "0x0",
        "input": "0x40c10f19000000000000000000000000f7c7ddd2ed3ea7b745786951713f4ffef428adef00000000000000000000000000000000000000000000021e19e0c9bab2400000",
        "nonce": "0x14f9",
        "chainId": "0x14a34"
      },
      "additionalContracts": [],
      "isFixedGasLimit": false
    },
    {
      "hash": "0xf5ad2f03750aca17c8051a3320487f648b8a71912df50d718d1e11dd9a21fd8d",
      "transactionType": "CALL",
      "contractName": "MockERC20",
      "contractAddress": "0x119000192d6c783d355ac50320670f8140d051d0",
      "function": "approve(address,uint256)",
      "arguments": [
        "0x25883610d91ABeDAC216f4531594a74FC4c3d96a",
        "10000000000000000000000"
      ],
      "transaction": {
        "from": "0xf7c7ddd2ed3ea7b745786951713f4ffef428adef",
        "to": "0x119000192d6c783d355ac50320670f8140d051d0",
        "gas": "0xf816",
        "value": "0x0",
        "input": "0x095ea7b300000000000000000000000025883610d91abedac216f4531594a74fc4c3d96a00000000000000000000000000000000000000000000021e19e0c9bab2400000",
        "nonce": "0x14fa",
        "chainId": "0x14a34"
      },
      "additionalContracts": [],
      "isFixedGasLimit": false
    },
    {
      "hash": "0xfc0b6087d441b5d1015b49c7d27d3d86adf299e9d6f56e270dae8449cc69a6d7",
      "transactionType": "CALL",
      "contractName": "TokenFaucet",
      "contractAddress": "0x25883610d91abedac216f4531594a74fc4c3d96a",
      "function": "deposit(uint256)",
      "arguments": [
        "10000000000000000000000"
      ],
      "transaction": {
        "from": "0xf7c7ddd2ed3ea7b745786951713f4ffef428adef",
        "to": "0x25883610d91abedac216f4531594a74fc4c3d96a",
        "gas": "0x131a0",
        "value": "0x0",
        "input": "0xb6b55f2500000000000000000000000000000000000000000000021e19e0c9bab2400000",
        "nonce": "0x14fb",
        "chainId": "0x14a34"
      },
      "additionalContracts": [],
      "isFixedGasLimit": false
    },
    {
      "hash": "0x1321893f570e1a2a8e507234c03a1136984e8109ab6fef75f3c56f177e14b5c0",
      "transactionType": "CREATE",
      "contractName": "TokenFaucet",
      "contractAddress": "0xc3f61721d4a0bc5984f1392c9d7ebb32b1ce4f37",
      "function": null,
      "arguments": [
        "0xF32B34Dfc110BF618a0Ff148afBAd8C3915c45aB",
        "1000000000"
      ],
      "transaction": {
        "from": "0xf7c7ddd2ed3ea7b745786951713f4ffef428adef",
        "gas": "0x76e60",
        "value": "0x0",
        "input": "0x60c03461011a57601f61068438819003918201601f19168301916001600160401b0383118484101761011e57808492604094855283398101031261011a5780516001600160a01b038116919082900361011a57602001513315610107575f8054336001600160a01b0319821681178355604051949290916001600160a01b0316907f8be0079c531659141344cd1fd0a4f28419497f9722a3daafe3b4186f6b6457e09080a380156100f85781156100e95760805260a052610551908161013382396080518181816101590152818161024d01526102bb015260a0518181816102fd01526104410152f35b63353c3eb760e11b5f5260045ffd5b6375e3b50160e01b5f5260045ffd5b631e4fbdf760e01b5f525f60045260245ffd5b5f80fd5b634e487b7160e01b5f52604160045260245ffdfe6080806040526004361015610012575f80fd5b5f3560e01c90816303822d3b14610464575080633214cb361461042a5780634451d89f1461027c5780636f307dc314610238578063715018a6146101e15780638da5cb5b146101ba578063b6b55f25146101015763f2fde38b14610074575f80fd5b346100fd5760203660031901126100fd576004356001600160a01b038116908190036100fd576100a26104d3565b80156100ea575f80546001600160a01b03198116831782556001600160a01b0316907f8be0079c531659141344cd1fd0a4f28419497f9722a3daafe3b4186f6b6457e09080a3005b631e4fbdf760e01b5f525f60045260245ffd5b5f80fd5b346100fd5760203660031901126100fd5760043561011d6104d3565b80156101ab5761017d6040516323b872dd60e01b60208201523360248201523060448201528260648201526064815261015760848261049d565b7f00000000000000000000000000000000000000000000000000000000000000006104f9565b6040519081527f59062170a285eb80e8c6b8ced60428442a51910635005233fc4ce084a475845e60203392a2005b63353c3eb760e11b5f5260045ffd5b346100fd575f3660031901126100fd575f546040516001600160a01b039091168152602090f35b346100fd575f3660031901126100fd576101f96104d3565b5f80546001600160a01b0319811682556001600160a01b03167f8be0079c531659141344cd1fd0a4f28419497f9722a3daafe3b4186f6b6457e08280a3005b346100fd575f3660031901126100fd576040517f00000000000000000000000000000000000000000000000000000000000000006001600160a01b03168152602090f35b346100fd575f3660031901126100fd57335f52600160205260405f205480151580610415575b6103e2576040516370a0823160e01b81523060048201527f00000000000000000000000000000000000000000000000000000000000000006020826024816001600160a01b0385165afa9182156103d7575f926103a3575b507f00000000000000000000000000000000000000000000000000000000000000008092106103945761036690335f5260016020524260405f20556040519063a9059cbb60e01b60208301523360248301528360448301526044825261036160648361049d565b6104f9565b6040519081527fe42df0d9493dfd0d7f69902c895b94c190a53e8c27876a86f45e7c997d9d8f7c60203392a2005b63e4bef6cd60e01b5f5260045ffd5b9091506020813d6020116103cf575b816103bf6020938361049d565b810103126100fd575190826102fa565b3d91506103b2565b6040513d5f823e3d90fd5b62015180810180911161040157631d33f47560e21b5f5260045260245ffd5b634e487b7160e01b5f52601160045260245ffd5b508042034281116104015762015180116102a2565b346100fd575f3660031901126100fd5760206040517f00000000000000000000000000000000000000000000000000000000000000008152f35b346100fd5760203660031901126100fd576004356001600160a01b03811691908290036100fd576020915f526001825260405f20548152f35b90601f8019910116810190811067ffffffffffffffff8211176104bf57604052565b634e487b7160e01b5f52604160045260245ffd5b5f546001600160a01b031633036104e657565b63118cdaa760e01b5f523360045260245ffd5b905f602091828151910182855af1156103d7575f513d61054857506001600160a01b0381163b155b6105285750565b635274afe760e01b5f9081526001600160a01b0391909116600452602490fd5b6001141561052156000000000000000000000000f32b34dfc110bf618a0ff148afbad8c3915c45ab000000000000000000000000000000000000000000000000000000003b9aca00",
        "nonce": "0x14fc",
        "chainId": "0x14a34"
      },
      "additionalContracts": [],
      "isFixedGasLimit": false
    },
    {
      "hash": "0x0d41f6d41f115c5e6e9cd5c32273c37c88bcb206547c6b4736a3b48b41ac7a4c",
      "transactionType": "CALL",
      "contractName": null,
      "contractAddress": "0xf32b34dfc110bf618a0ff148afbad8c3915c45ab",
      "function": "mint(address,uint256)",
      "arguments": [
        "0xf7c7DDD2eD3EA7B745786951713f4FfeF428adef",
        "100000000000000"
      ],
      "transaction": {
        "from": "0xf7c7ddd2ed3ea7b745786951713f4ffef428adef",
        "to": "0xf32b34dfc110bf618a0ff148afbad8c3915c45ab",
        "gas": "0xb6d2",
        "value": "0x0",
        "input": "0x40c10f19000000000000000000000000f7c7ddd2ed3ea7b745786951713f4ffef428adef00000000000000000000000000000000000000000000000000005af3107a4000",
        "nonce": "0x14fd",
        "chainId": "0x14a34"
      },
      "additionalContracts": [],
      "isFixedGasLimit": false
    },
    {
      "hash": "0xef8f7b2d4d251f68c848090410731f1fafef9b48a443722718f9166c608661bf",
      "transactionType": "CALL",
      "contractName": null,
      "contractAddress": "0xf32b34dfc110bf618a0ff148afbad8c3915c45ab",
      "function": "approve(address,uint256)",
      "arguments": [
        "0xC3f61721d4A0Bc5984f1392c9D7ebB32B1cE4f37",
        "100000000000000"
      ],
      "transaction": {
        "from": "0xf7c7ddd2ed3ea7b745786951713f4ffef428adef",
        "to": "0xf32b34dfc110bf618a0ff148afbad8c3915c45ab",
        "gas": "0x1067a",
        "value": "0x0",
        "input": "0x095ea7b3000000000000000000000000c3f61721d4a0bc5984f1392c9d7ebb32b1ce4f3700000000000000000000000000000000000000000000000000005af3107a4000",
        "nonce": "0x14fe",
        "chainId": "0x14a34"
      },
      "additionalContracts": [],
      "isFixedGasLimit": false
    },
    {
      "hash": "0xcb7be9d9b2a05756eeeba23d0ed9e8603de300a788a06e8ea5a7ccb4e5437a9a",
      "transactionType": "CALL",
      "contractName": "TokenFaucet",
      "contractAddress": "0xc3f61721d4a0bc5984f1392c9d7ebb32b1ce4f37",
      "function": "deposit(uint256)",
      "arguments": [
        "100000000000000"
      ],
      "transaction": {
        "from": "0xf7c7ddd2ed3ea7b745786951713f4ffef428adef",
        "to": "0xc3f61721d4a0bc5984f1392c9d7ebb32b1ce4f37",
        "gas": "0x13a59",
        "value": "0x0",
        "input": "0xb6b55f2500000000000000000000000000000000000000000000000000005af3107a4000",
        "nonce": "0x14ff",
        "chainId": "0x14a34"
      },
      "additionalContracts": [],
      "isFixedGasLimit": false
    },
    {
      "hash": "0xfd9e9336dffdde2bcfe091471661a2f5f99a836929b4e6723eaa4d8a8920fa6f",
      "transactionType": "CREATE",
      "contractName": "TokenFaucet",
      "contractAddress": "0xa385996739e9d048e05cc91b66f1e18b92d7ae33",
      "function": null,
      "arguments": [
        "0x9aFE68A4A330e8eA3ebB997Fe4B27aa802b7F076",
        "500000000000000000000"
      ],
      "transaction": {
        "from": "0xf7c7ddd2ed3ea7b745786951713f4ffef428adef",
        "gas": "0x76e9f",
        "value": "0x0",
        "input": "0x60c03461011a57601f61068438819003918201601f19168301916001600160401b0383118484101761011e57808492604094855283398101031261011a5780516001600160a01b038116919082900361011a57602001513315610107575f8054336001600160a01b0319821681178355604051949290916001600160a01b0316907f8be0079c531659141344cd1fd0a4f28419497f9722a3daafe3b4186f6b6457e09080a380156100f85781156100e95760805260a052610551908161013382396080518181816101590152818161024d01526102bb015260a0518181816102fd01526104410152f35b63353c3eb760e11b5f5260045ffd5b6375e3b50160e01b5f5260045ffd5b631e4fbdf760e01b5f525f60045260245ffd5b5f80fd5b634e487b7160e01b5f52604160045260245ffdfe6080806040526004361015610012575f80fd5b5f3560e01c90816303822d3b14610464575080633214cb361461042a5780634451d89f1461027c5780636f307dc314610238578063715018a6146101e15780638da5cb5b146101ba578063b6b55f25146101015763f2fde38b14610074575f80fd5b346100fd5760203660031901126100fd576004356001600160a01b038116908190036100fd576100a26104d3565b80156100ea575f80546001600160a01b03198116831782556001600160a01b0316907f8be0079c531659141344cd1fd0a4f28419497f9722a3daafe3b4186f6b6457e09080a3005b631e4fbdf760e01b5f525f60045260245ffd5b5f80fd5b346100fd5760203660031901126100fd5760043561011d6104d3565b80156101ab5761017d6040516323b872dd60e01b60208201523360248201523060448201528260648201526064815261015760848261049d565b7f00000000000000000000000000000000000000000000000000000000000000006104f9565b6040519081527f59062170a285eb80e8c6b8ced60428442a51910635005233fc4ce084a475845e60203392a2005b63353c3eb760e11b5f5260045ffd5b346100fd575f3660031901126100fd575f546040516001600160a01b039091168152602090f35b346100fd575f3660031901126100fd576101f96104d3565b5f80546001600160a01b0319811682556001600160a01b03167f8be0079c531659141344cd1fd0a4f28419497f9722a3daafe3b4186f6b6457e08280a3005b346100fd575f3660031901126100fd576040517f00000000000000000000000000000000000000000000000000000000000000006001600160a01b03168152602090f35b346100fd575f3660031901126100fd57335f52600160205260405f205480151580610415575b6103e2576040516370a0823160e01b81523060048201527f00000000000000000000000000000000000000000000000000000000000000006020826024816001600160a01b0385165afa9182156103d7575f926103a3575b507f00000000000000000000000000000000000000000000000000000000000000008092106103945761036690335f5260016020524260405f20556040519063a9059cbb60e01b60208301523360248301528360448301526044825261036160648361049d565b6104f9565b6040519081527fe42df0d9493dfd0d7f69902c895b94c190a53e8c27876a86f45e7c997d9d8f7c60203392a2005b63e4bef6cd60e01b5f5260045ffd5b9091506020813d6020116103cf575b816103bf6020938361049d565b810103126100fd575190826102fa565b3d91506103b2565b6040513d5f823e3d90fd5b62015180810180911161040157631d33f47560e21b5f5260045260245ffd5b634e487b7160e01b5f52601160045260245ffd5b508042034281116104015762015180116102a2565b346100fd575f3660031901126100fd5760206040517f00000000000000000000000000000000000000000000000000000000000000008152f35b346100fd5760203660031901126100fd576004356001600160a01b03811691908290036100fd576020915f526001825260405f20548152f35b90601f8019910116810190811067ffffffffffffffff8211176104bf57604052565b634e487b7160e01b5f52604160045260245ffd5b5f546001600160a01b031633036104e657565b63118cdaa760e01b5f523360045260245ffd5b905f602091828151910182855af1156103d7575f513d61054857506001600160a01b0381163b155b6105285750565b635274afe760e01b5f9081526001600160a01b0391909116600452602490fd5b60011415610521560000000000000000000000009afe68a4a330e8ea3ebb997fe4b27aa802b7f07600000000000000000000000000000000000000000000001b1ae4d6e2ef500000",
        "nonce": "0x1500",
        "chainId": "0x14a34"
      },
      "additionalContracts": [],
      "isFixedGasLimit": false
    },
    {
      "hash": "0xd6c4c23cacb2dacf9d1531702facfb2f8d85787eab7530250542b8534ed87712",
      "transactionType": "CALL",
      "contractName": null,
      "contractAddress": "0x9afe68a4a330e8ea3ebb997fe4b27aa802b7f076",
      "function": "mint(address,uint256)",
      "arguments": [
        "0xf7c7DDD2eD3EA7B745786951713f4FfeF428adef",
        "10000000000000000000000000"
      ],
      "transaction": {
        "from": "0xf7c7ddd2ed3ea7b745786951713f4ffef428adef",
        "to": "0x9afe68a4a330e8ea3ebb997fe4b27aa802b7f076",
        "gas": "0x1852a",
        "value": "0x0",
        "input": "0x40c10f19000000000000000000000000f7c7ddd2ed3ea7b745786951713f4ffef428adef000000000000000000000000000000000000000000084595161401484a000000",
        "nonce": "0x1501",
        "chainId": "0x14a34"
      },
      "additionalContracts": [],
      "isFixedGasLimit": false
    },
    {
      "hash": "0xdf398a0511e4f1296b34609375515e26aa94dcdb8b348a48da70d55b3f483f0c",
      "transactionType": "CALL",
      "contractName": null,
      "contractAddress": "0x9afe68a4a330e8ea3ebb997fe4b27aa802b7f076",
      "function": "approve(address,uint256)",
      "arguments": [
        "0xA385996739E9D048e05CC91B66F1E18b92d7Ae33",
        "10000000000000000000000000"
      ],
      "transaction": {
        "from": "0xf7c7ddd2ed3ea7b745786951713f4ffef428adef",
        "to": "0x9afe68a4a330e8ea3ebb997fe4b27aa802b7f076",
        "gas": "0xf816",
        "value": "0x0",
        "input": "0x095ea7b3000000000000000000000000a385996739e9d048e05cc91b66f1e18b92d7ae33000000000000000000000000000000000000000000084595161401484a000000",
        "nonce": "0x1502",
        "chainId": "0x14a34"
      },
      "additionalContracts": [],
      "isFixedGasLimit": false
    },
    {
      "hash": "0xf4adfa44f47bc5e11e35bd79d8b620d2193aaa258d2be8b0ef86734b3c5a6f88",
      "transactionType": "CALL",
      "contractName": "TokenFaucet",
      "contractAddress": "0xa385996739e9d048e05cc91b66f1e18b92d7ae33",
      "function": "deposit(uint256)",
      "arguments": [
        "10000000000000000000000000"
      ],
      "transaction": {
        "from": "0xf7c7ddd2ed3ea7b745786951713f4ffef428adef",
        "to": "0xa385996739e9d048e05cc91b66f1e18b92d7ae33",
        "gas": "0x131a0",
        "value": "0x0",
        "input": "0xb6b55f25000000000000000000000000000000000000000000084595161401484a000000",
        "nonce": "0x1503",
        "chainId": "0x14a34"
      },
      "additionalContracts": [],
      "isFixedGasLimit": false
    },
    {
      "hash": "0xda660348d1265c7cb802ec6b41d112f7a17387e772b5ff7362f9b219cbb705cc",
      "transactionType": "CREATE",
      "contractName": "TokenFaucet",
      "contractAddress": "0x105e4786b5c3816ddf5f132d0c07e6b73756e654",
      "function": null,
      "arguments": [
        "0x50108c7CCdfDf341baEC1c1f4A94B42A764628EF",
        "1000000000000000000000"
      ],
      "transaction": {
        "from": "0xf7c7ddd2ed3ea7b745786951713f4ffef428adef",
        "gas": "0x76e9f",
        "value": "0x0",
        "input": "0x60c03461011a57601f61068438819003918201601f19168301916001600160401b0383118484101761011e57808492604094855283398101031261011a5780516001600160a01b038116919082900361011a57602001513315610107575f8054336001600160a01b0319821681178355604051949290916001600160a01b0316907f8be0079c531659141344cd1fd0a4f28419497f9722a3daafe3b4186f6b6457e09080a380156100f85781156100e95760805260a052610551908161013382396080518181816101590152818161024d01526102bb015260a0518181816102fd01526104410152f35b63353c3eb760e11b5f5260045ffd5b6375e3b50160e01b5f5260045ffd5b631e4fbdf760e01b5f525f60045260245ffd5b5f80fd5b634e487b7160e01b5f52604160045260245ffdfe6080806040526004361015610012575f80fd5b5f3560e01c90816303822d3b14610464575080633214cb361461042a5780634451d89f1461027c5780636f307dc314610238578063715018a6146101e15780638da5cb5b146101ba578063b6b55f25146101015763f2fde38b14610074575f80fd5b346100fd5760203660031901126100fd576004356001600160a01b038116908190036100fd576100a26104d3565b80156100ea575f80546001600160a01b03198116831782556001600160a01b0316907f8be0079c531659141344cd1fd0a4f28419497f9722a3daafe3b4186f6b6457e09080a3005b631e4fbdf760e01b5f525f60045260245ffd5b5f80fd5b346100fd5760203660031901126100fd5760043561011d6104d3565b80156101ab5761017d6040516323b872dd60e01b60208201523360248201523060448201528260648201526064815261015760848261049d565b7f00000000000000000000000000000000000000000000000000000000000000006104f9565b6040519081527f59062170a285eb80e8c6b8ced60428442a51910635005233fc4ce084a475845e60203392a2005b63353c3eb760e11b5f5260045ffd5b346100fd575f3660031901126100fd575f546040516001600160a01b039091168152602090f35b346100fd575f3660031901126100fd576101f96104d3565b5f80546001600160a01b0319811682556001600160a01b03167f8be0079c531659141344cd1fd0a4f28419497f9722a3daafe3b4186f6b6457e08280a3005b346100fd575f3660031901126100fd576040517f00000000000000000000000000000000000000000000000000000000000000006001600160a01b03168152602090f35b346100fd575f3660031901126100fd57335f52600160205260405f205480151580610415575b6103e2576040516370a0823160e01b81523060048201527f00000000000000000000000000000000000000000000000000000000000000006020826024816001600160a01b0385165afa9182156103d7575f926103a3575b507f00000000000000000000000000000000000000000000000000000000000000008092106103945761036690335f5260016020524260405f20556040519063a9059cbb60e01b60208301523360248301528360448301526044825261036160648361049d565b6104f9565b6040519081527fe42df0d9493dfd0d7f69902c895b94c190a53e8c27876a86f45e7c997d9d8f7c60203392a2005b63e4bef6cd60e01b5f5260045ffd5b9091506020813d6020116103cf575b816103bf6020938361049d565b810103126100fd575190826102fa565b3d91506103b2565b6040513d5f823e3d90fd5b62015180810180911161040157631d33f47560e21b5f5260045260245ffd5b634e487b7160e01b5f52601160045260245ffd5b508042034281116104015762015180116102a2565b346100fd575f3660031901126100fd5760206040517f00000000000000000000000000000000000000000000000000000000000000008152f35b346100fd5760203660031901126100fd576004356001600160a01b03811691908290036100fd576020915f526001825260405f20548152f35b90601f8019910116810190811067ffffffffffffffff8211176104bf57604052565b634e487b7160e01b5f52604160045260245ffd5b5f546001600160a01b031633036104e657565b63118cdaa760e01b5f523360045260245ffd5b905f602091828151910182855af1156103d7575f513d61054857506001600160a01b0381163b155b6105285750565b635274afe760e01b5f9081526001600160a01b0391909116600452602490fd5b600114156105215600000000000000000000000050108c7ccdfdf341baec1c1f4a94b42a764628ef00000000000000000000000000000000000000000000003635c9adc5dea00000",
        "nonce": "0x1504",
        "chainId": "0x14a34"
      },
      "additionalContracts": [],
      "isFixedGasLimit": false
    },
    {
      "hash": "0xd81b83230e202d47017cb17052cf5d9296737fe6f3390401942019fea986d3ee",
      "transactionType": "CALL",
      "contractName": "MockERC20",
      "contractAddress": "0x47a94537cd5169dd0d7e8b86b65372794c9ff8e8",
      "function": "mint(address,uint256)",
      "arguments": [
        "0xf7c7DDD2eD3EA7B745786951713f4FfeF428adef",
        "10000000000"
      ],
      "transaction": {
        "from": "0xf7c7ddd2ed3ea7b745786951713f4ffef428adef",
        "to": "0x47a94537cd5169dd0d7e8b86b65372794c9ff8e8",
        "gas": "0x11305",
        "value": "0x0",
        "input": "0x40c10f19000000000000000000000000f7c7ddd2ed3ea7b745786951713f4ffef428adef00000000000000000000000000000000000000000000000000000002540be400",
        "nonce": "0x1505",
        "chainId": "0x14a34"
      },
      "additionalContracts": [],
      "isFixedGasLimit": false
    },
    {
      "hash": "0x82373dcba696ab251d601f10dc02b577648c6dd3572ca10077ed7c556f6c1397",
      "transactionType": "CALL",
      "contractName": "MockERC20",
      "contractAddress": "0x47a94537cd5169dd0d7e8b86b65372794c9ff8e8",
      "function": "approve(address,uint256)",
      "arguments": [
        "0x033ea50dEaa8b064958fC40E34F994C154D27FFf",
        "10000000000"
      ],
      "transaction": {
        "from": "0xf7c7ddd2ed3ea7b745786951713f4ffef428adef",
        "to": "0x47a94537cd5169dd0d7e8b86b65372794c9ff8e8",
        "gas": "0xa4b8",
        "value": "0x0",
        "input": "0x095ea7b3000000000000000000000000033ea50deaa8b064958fc40e34f994c154d27fff00000000000000000000000000000000000000000000000000000002540be400",
        "nonce": "0x1506",
        "chainId": "0x14a34"
      },
      "additionalContracts": [],
      "isFixedGasLimit": false
    },
    {
      "hash": "0xbf334e88eafa1aab928bffbd21f2d3b48da8d8c7d0a0fc935555f959fb5236bd",
      "transactionType": "CALL",
      "contractName": null,
      "contractAddress": "0x033ea50deaa8b064958fc40e34f994c154d27fff",
      "function": "borrow(address,uint256,address,uint256,address)",
      "arguments": [
        "0x50108c7CCdfDf341baEC1c1f4A94B42A764628EF",
        "5000000000000000000000000",
        "0x47A94537Cd5169dD0D7E8B86B65372794C9Ff8e8",
        "10000000000",
        "0xf7c7DDD2eD3EA7B745786951713f4FfeF428adef"
      ],
      "transaction": {
        "from": "0xf7c7ddd2ed3ea7b745786951713f4ffef428adef",
        "to": "0x033ea50deaa8b064958fc40e34f994c154d27fff",
        "gas": "0x413c5",
        "value": "0x0",
        "input": "0xb071d32c00000000000000000000000050108c7ccdfdf341baec1c1f4a94b42a764628ef0000000000000000000000000000000000000000000422ca8b0a00a42500000000000000000000000000000047a94537cd5169dd0d7e8b86b65372794c9ff8e800000000000000000000000000000000000000000000000000000002540be400000000000000000000000000f7c7ddd2ed3ea7b745786951713f4ffef428adef",
        "nonce": "0x1507",
        "chainId": "0x14a34"
      },
      "additionalContracts": [],
      "isFixedGasLimit": false
    },
    {
      "hash": "0x6f5717c9cb1ef5028bcac9461e55237b0a034fca7129ef539f610cbdfa087472",
      "transactionType": "CALL",
      "contractName": "ERC1967Proxy",
      "contractAddress": "0x50108c7ccdfdf341baec1c1f4a94b42a764628ef",
      "function": null,
      "arguments": null,
      "transaction": {
        "from": "0xf7c7ddd2ed3ea7b745786951713f4ffef428adef",
        "to": "0x50108c7ccdfdf341baec1c1f4a94b42a764628ef",
        "gas": "0x12281",
        "value": "0x0",
        "input": "0x095ea7b3000000000000000000000000105e4786b5c3816ddf5f132d0c07e6b73756e6540000000000000000000000000000000000000000000422ca8b0a00a425000000",
        "nonce": "0x1508",
        "chainId": "0x14a34"
      },
      "additionalContracts": [],
      "isFixedGasLimit": false
    },
    {
      "hash": "0x31456ea1c346e33d060dc624d08ad5123dd6dec143a2c00b6382a50263dd7277",
      "transactionType": "CALL",
      "contractName": "TokenFaucet",
      "contractAddress": "0x105e4786b5c3816ddf5f132d0c07e6b73756e654",
      "function": "deposit(uint256)",
      "arguments": [
        "5000000000000000000000000"
      ],
      "transaction": {
        "from": "0xf7c7ddd2ed3ea7b745786951713f4ffef428adef",
        "to": "0x105e4786b5c3816ddf5f132d0c07e6b73756e654",
        "gas": "0x2ca12",
        "value": "0x0",
        "input": "0xb6b55f250000000000000000000000000000000000000000000422ca8b0a00a425000000",
        "nonce": "0x1509",
        "chainId": "0x14a34"
      },
      "additionalContracts": [],
      "isFixedGasLimit": false
    }
  ],
  "receipts": [
    {
      "status": "0x1",
      "cumulativeGasUsed": "0x1e5592",
      "logs": [
        {
          "address": "0xc8ee210c8c925b921cbe6114a8e0a5432c1024c1",
          "topics": [
            "0x8be0079c531659141344cd1fd0a4f28419497f9722a3daafe3b4186f6b6457e0",
            "0x0000000000000000000000000000000000000000000000000000000000000000",
            "0x000000000000000000000000f7c7ddd2ed3ea7b745786951713f4ffef428adef"
          ],
          "data": "0x",
          "blockHash": "0xc400fe517fda4b0ce4fe95c1ecf948cd153a186311f036c4108740e6f7f87f1a",
          "blockNumber": "0x2082875",
          "blockTimestamp": "0x6923afca",
          "transactionHash": "0xfe2c5051807c2b87d47fbb4ffd56f5e3b65e5ea9a6f1a285cb8a1ade87d900bc",
          "transactionIndex": "0xa",
          "logIndex": "0x30",
          "removed": false
        }
      ],
      "logsBloom": "0x00000000000000000000000000000000000000000000000000800000000000000000000000000000000000000000000000008000000000000000000000008000000000000000000000000000000000000001000000000000000004000000000000000000020000000000000000000800000000000000000000000000000000400000000000000000000000000000000000000000000000000000000000000000000000000000000000000000000000000000000000000000000000000000000000000000000000000000000000001200000000000000000000000000000020000000000000000000000000000000000000000000000000000000000001000000",
      "type": "0x2",
      "transactionHash": "0xfe2c5051807c2b87d47fbb4ffd56f5e3b65e5ea9a6f1a285cb8a1ade87d900bc",
      "transactionIndex": "0xa",
      "blockHash": "0xc400fe517fda4b0ce4fe95c1ecf948cd153a186311f036c4108740e6f7f87f1a",
      "blockNumber": "0x2082875",
      "gasUsed": "0x5b75e",
      "effectiveGasPrice": "0x124f80",
      "blobGasUsed": "0x4c188",
      "from": "0xf7c7ddd2ed3ea7b745786951713f4ffef428adef",
      "to": null,
      "contractAddress": "0xc8ee210c8c925b921cbe6114a8e0a5432c1024c1",
      "daFootprintGasScalar": "0x138",
      "l1BaseFeeScalar": "0x44d",
      "l1BlobBaseFee": "0x1",
      "l1BlobBaseFeeScalar": "0xa118b",
      "l1Fee": "0x50",
      "l1GasPrice": "0x8",
      "l1GasUsed": "0x3e7b"
    },
    {
      "status": "0x1",
      "cumulativeGasUsed": "0x1f1caf",
      "logs": [
        {
          "address": "0x47a94537cd5169dd0d7e8b86b65372794c9ff8e8",
          "topics": [
            "0xddf252ad1be2c89b69c2b068fc378daa952ba7f163c4a11628f55a4df523b3ef",
            "0x0000000000000000000000000000000000000000000000000000000000000000",
            "0x000000000000000000000000f7c7ddd2ed3ea7b745786951713f4ffef428adef"
          ],
          "data": "0x0000000000000000000000000000000000000000000000000000000ba43b7400",
          "blockHash": "0x35598ffd5efb1c6ecf7f51ef62d7ce6cae837e0a88883b7b3be546fd6cc111dc",
          "blockNumber": "0x2082875",
          "blockTimestamp": "0x6923afca",
          "transactionHash": "0x464af6c1092c070402e80e2ba4cf6c0a8acb8849eba617f579b520bd9fe608fb",
          "transactionIndex": "0xb",
          "logIndex": "0x31",
          "removed": false
        }
      ],
      "logsBloom": "0x00000000000000000000000000000000000000000000000000000000000000000000000000000000000000000000000000000000000000000000000000008000000000000000000000000008000000000000000000000000000000100000000000200000020000000000000000000800000000000000000000000010000000000000000000000000000000000000000000000000000000001000000000000000000000000000000000000000000000000000000000000000000000000000000000000002000000000000000000000200000000000000000000000000000020000000000000000000000000000000000000000000000000000000000001000000",
      "type": "0x2",
      "transactionHash": "0x464af6c1092c070402e80e2ba4cf6c0a8acb8849eba617f579b520bd9fe608fb",
      "transactionIndex": "0xb",
      "blockHash": "0x35598ffd5efb1c6ecf7f51ef62d7ce6cae837e0a88883b7b3be546fd6cc111dc",
      "blockNumber": "0x2082875",
      "gasUsed": "0xc71d",
      "effectiveGasPrice": "0x124f80",
      "blobGasUsed": "0x79e0",
      "from": "0xf7c7ddd2ed3ea7b745786951713f4ffef428adef",
      "to": "0x47a94537cd5169dd0d7e8b86b65372794c9ff8e8",
      "contractAddress": null,
      "daFootprintGasScalar": "0x138",
      "l1BaseFeeScalar": "0x44d",
      "l1BlobBaseFee": "0x1",
      "l1BlobBaseFeeScalar": "0xa118b",
      "l1Fee": "0x50",
      "l1GasPrice": "0x8",
      "l1GasUsed": "0x640"
    },
    {
      "status": "0x1",
      "cumulativeGasUsed": "0x1fd01c",
      "logs": [
        {
          "address": "0x47a94537cd5169dd0d7e8b86b65372794c9ff8e8",
          "topics": [
            "0x8c5be1e5ebec7d5bd14f71427d1e84f3dd0314c0f7b2291e5b200ac8c7c3b925",
            "0x000000000000000000000000f7c7ddd2ed3ea7b745786951713f4ffef428adef",
            "0x000000000000000000000000c8ee210c8c925b921cbe6114a8e0a5432c1024c1"
          ],
          "data": "0x0000000000000000000000000000000000000000000000000000000ba43b7400",
          "blockHash": "0xc400fe517fda4b0ce4fe95c1ecf948cd153a186311f036c4108740e6f7f87f1a",
          "blockNumber": "0x2082875",
          "blockTimestamp": "0x6923afca",
          "transactionHash": "0xed7cd1c2b655670243e444e8dbceb099434eda1d31b92e7faa1d45123d202ac7",
          "transactionIndex": "0xc",
          "logIndex": "0x32",
          "removed": false
        }
      ],
      "logsBloom": "0x00000000000000000000000000000000000000000000000000000000000000000000000000000000000000000000000000000000010000000000000000208000000000000000000000000000000000000000000000000000000000100000000000200000000000000000000000000000000000000000000000000000000000000000000000000000000000000000000000000000000000001004000000400000020000000000000000000000000000000000000000000000000000000000000000000000000000000000000000000200000000000000000000000000000000000010000000000000000000000000000000000000000000000000000001000000",
      "type": "0x2",
      "transactionHash": "0xed7cd1c2b655670243e444e8dbceb099434eda1d31b92e7faa1d45123d202ac7",
      "transactionIndex": "0xc",
      "blockHash": "0xc400fe517fda4b0ce4fe95c1ecf948cd153a186311f036c4108740e6f7f87f1a",
      "blockNumber": "0x2082875",
      "gasUsed": "0xb36d",
      "effectiveGasPrice": "0x124f80",
      "blobGasUsed": "0x79e0",
      "from": "0xf7c7ddd2ed3ea7b745786951713f4ffef428adef",
      "to": "0x47a94537cd5169dd0d7e8b86b65372794c9ff8e8",
      "contractAddress": null,
      "daFootprintGasScalar": "0x138",
      "l1BaseFeeScalar": "0x44d",
      "l1BlobBaseFee": "0x1",
      "l1BlobBaseFeeScalar": "0xa118b",
      "l1Fee": "0x50",
      "l1GasPrice": "0x8",
      "l1GasUsed": "0x640"
    },
    {
      "status": "0x1",
      "cumulativeGasUsed": "0x20a0e6",
      "logs": [
        {
          "address": "0x47a94537cd5169dd0d7e8b86b65372794c9ff8e8",
          "topics": [
            "0xddf252ad1be2c89b69c2b068fc378daa952ba7f163c4a11628f55a4df523b3ef",
            "0x000000000000000000000000f7c7ddd2ed3ea7b745786951713f4ffef428adef",
            "0x000000000000000000000000c8ee210c8c925b921cbe6114a8e0a5432c1024c1"
          ],
          "data": "0x0000000000000000000000000000000000000000000000000000000ba43b7400",
          "blockHash": "0xc400fe517fda4b0ce4fe95c1ecf948cd153a186311f036c4108740e6f7f87f1a",
          "blockNumber": "0x2082875",
          "blockTimestamp": "0x6923afca",
          "transactionHash": "0x32cd76840cec0e663def86813e64b0fa3af75159c68f9d68057c02e946f5303c",
          "transactionIndex": "0xd",
          "logIndex": "0x33",
          "removed": false
        },
        {
          "address": "0xc8ee210c8c925b921cbe6114a8e0a5432c1024c1",
          "topics": [
            "0x59062170a285eb80e8c6b8ced60428442a51910635005233fc4ce084a475845e",
            "0x000000000000000000000000f7c7ddd2ed3ea7b745786951713f4ffef428adef"
          ],
          "data": "0x0000000000000000000000000000000000000000000000000000000ba43b7400",
          "blockHash": "0xc400fe517fda4b0ce4fe95c1ecf948cd153a186311f036c4108740e6f7f87f1a",
          "blockNumber": "0x2082875",
          "blockTimestamp": "0x6923afca",
          "transactionHash": "0x32cd76840cec0e663def86813e64b0fa3af75159c68f9d68057c02e946f5303c",
          "transactionIndex": "0xd",
          "logIndex": "0x34",
          "removed": false
        }
      ],
      "logsBloom": "0x00000000000000000000000000000000000000000000000000000000000000000000000000000000000000000000000000008000010000000000000000008000000000000000000000000008000000000000200000000000000004100000000000200000000000000000000000000400000000000000000000000010000000000000000000000000000000000000000000000000000000001004000000400000000000000000000000000000000000000000000000000000000000000000000000000002000000004000000000001200000000000000000000000000000000000000000000000000000000000000000000000000000000000000000001000000",
      "type": "0x2",
      "transactionHash": "0x32cd76840cec0e663def86813e64b0fa3af75159c68f9d68057c02e946f5303c",
      "transactionIndex": "0xd",
      "blockHash": "0xc400fe517fda4b0ce4fe95c1ecf948cd153a186311f036c4108740e6f7f87f1a",
      "blockNumber": "0x2082875",
      "gasUsed": "0xd0ca",
      "effectiveGasPrice": "0x124f80",
      "blobGasUsed": "0x79e0",
      "from": "0xf7c7ddd2ed3ea7b745786951713f4ffef428adef",
      "to": "0xc8ee210c8c925b921cbe6114a8e0a5432c1024c1",
      "contractAddress": null,
      "daFootprintGasScalar": "0x138",
      "l1BaseFeeScalar": "0x44d",
      "l1BlobBaseFee": "0x1",
      "l1BlobBaseFeeScalar": "0xa118b",
      "l1Fee": "0x50",
      "l1GasPrice": "0x8",
      "l1GasUsed": "0x640"
    },
    {
      "status": "0x1",
      "cumulativeGasUsed": "0x26585c",
      "logs": [
        {
          "address": "0x25883610d91abedac216f4531594a74fc4c3d96a",
          "topics": [
            "0x8be0079c531659141344cd1fd0a4f28419497f9722a3daafe3b4186f6b6457e0",
            "0x0000000000000000000000000000000000000000000000000000000000000000",
            "0x000000000000000000000000f7c7ddd2ed3ea7b745786951713f4ffef428adef"
          ],
          "data": "0x",
          "blockHash": "0x35598ffd5efb1c6ecf7f51ef62d7ce6cae837e0a88883b7b3be546fd6cc111dc",
          "blockNumber": "0x2082875",
          "blockTimestamp": "0x6923afca",
          "transactionHash": "0xc27b9c2cbab49ffd835db34713c75f17f4336135ba9f386a0c389b135e0f0464",
          "transactionIndex": "0xe",
          "logIndex": "0x35",
          "removed": false
        }
      ],
      "logsBloom": "0x00000004000000000000000000000000000000000000000000800000000000000000000000000000000000000000000000000000000000000000000000008000000000000000000000000000000000000001001000000000000000000000000000000000020000000000000000000800000000000000000000000000000000400000000000000000000000000000000000000000000000000000100000000000000000000000000000000000000000000000000000000000000000000000000000000000000000000000000000000200000000000000000000000000000020000000000000000000000000000000000000000000000000000000000001000000",
      "type": "0x2",
      "transactionHash": "0xc27b9c2cbab49ffd835db34713c75f17f4336135ba9f386a0c389b135e0f0464",
      "transactionIndex": "0xe",
      "blockHash": "0x35598ffd5efb1c6ecf7f51ef62d7ce6cae837e0a88883b7b3be546fd6cc111dc",
      "blockNumber": "0x2082875",
      "gasUsed": "0x5b776",
      "effectiveGasPrice": "0x124f80",
      "blobGasUsed": "0x4c668",
      "from": "0xf7c7ddd2ed3ea7b745786951713f4ffef428adef",
      "to": null,
      "contractAddress": "0x25883610d91abedac216f4531594a74fc4c3d96a",
      "daFootprintGasScalar": "0x138",
      "l1BaseFeeScalar": "0x44d",
      "l1BlobBaseFee": "0x1",
      "l1BlobBaseFeeScalar": "0xa118b",
      "l1Fee": "0x323",
      "l1GasPrice": "0x8",
      "l1GasUsed": "0x3ebe"
    },
    {
      "status": "0x1",
      "cumulativeGasUsed": "0x276275",
      "logs": [
        {
          "address": "0x119000192d6c783d355ac50320670f8140d051d0",
          "topics": [
            "0xddf252ad1be2c89b69c2b068fc378daa952ba7f163c4a11628f55a4df523b3ef",
            "0x0000000000000000000000000000000000000000000000000000000000000000",
            "0x000000000000000000000000f7c7ddd2ed3ea7b745786951713f4ffef428adef"
          ],
          "data": "0x00000000000000000000000000000000000000000000021e19e0c9bab2400000",
          "blockHash": "0xc400fe517fda4b0ce4fe95c1ecf948cd153a186311f036c4108740e6f7f87f1a",
          "blockNumber": "0x2082875",
          "blockTimestamp": "0x6923afca",
          "transactionHash": "0xf983f26583abbd65b5992e43577404f429ce966153fb9f91d77d77478b9e53a5",
          "transactionIndex": "0xf",
          "logIndex": "0x36",
          "removed": false
        }
      ],
      "logsBloom": "0x00000000000000000000000000000000000000000000000000000000000000000000000100000000000000000000000000000000000000000000000000008000000000000000000000000008000000000000000000000000000000000000000000000080020000000000000000000800000000000000000000000010000000000000000000000000000000000000000000000000000000000000000000000000000000000000000000000000000000000000000000000000000000000000100000000002000000000000000000000200000000000000000000000000000020000000000000000000000000000000000000000000000000000000000001000000",
      "type": "0x2",
      "transactionHash": "0xf983f26583abbd65b5992e43577404f429ce966153fb9f91d77d77478b9e53a5",
      "transactionIndex": "0xf",
      "blockHash": "0xc400fe517fda4b0ce4fe95c1ecf948cd153a186311f036c4108740e6f7f87f1a",
      "blockNumber": "0x2082875",
      "gasUsed": "0x10a19",
      "effectiveGasPrice": "0x124f80",
      "blobGasUsed": "0x79e0",
      "from": "0xf7c7ddd2ed3ea7b745786951713f4ffef428adef",
      "to": "0x119000192d6c783d355ac50320670f8140d051d0",
      "contractAddress": null,
      "daFootprintGasScalar": "0x138",
      "l1BaseFeeScalar": "0x44d",
      "l1BlobBaseFee": "0x1",
      "l1BlobBaseFeeScalar": "0xa118b",
      "l1Fee": "0x50",
      "l1GasPrice": "0x8",
      "l1GasUsed": "0x640"
    },
    {
      "status": "0x1",
      "cumulativeGasUsed": "0x281612",
      "logs": [
        {
          "address": "0x119000192d6c783d355ac50320670f8140d051d0",
          "topics": [
            "0x8c5be1e5ebec7d5bd14f71427d1e84f3dd0314c0f7b2291e5b200ac8c7c3b925",
            "0x000000000000000000000000f7c7ddd2ed3ea7b745786951713f4ffef428adef",
            "0x00000000000000000000000025883610d91abedac216f4531594a74fc4c3d96a"
          ],
          "data": "0x00000000000000000000000000000000000000000000021e19e0c9bab2400000",
          "blockHash": "0x35598ffd5efb1c6ecf7f51ef62d7ce6cae837e0a88883b7b3be546fd6cc111dc",
          "blockNumber": "0x2082875",
          "blockTimestamp": "0x6923afca",
          "transactionHash": "0xf5ad2f03750aca17c8051a3320487f648b8a71912df50d718d1e11dd9a21fd8d",
          "transactionIndex": "0x10",
          "logIndex": "0x37",
          "removed": false
        }
      ],
      "logsBloom": "0x00000000000000000000000000000000000000000000000000000000000000000000000100000000000000000000000000000000000000100000000000208000000000000000000000000000000000000000000000000000000000000000000000000080000000000000000000000000000000000000000000000000000000000100000000000000000000000000000000000000000000000000000000000000020000000000000000000000000000000000000000000000000000000000100000000000000000000000000000000600000000000000000000000000000000000010000000000000000000000000000000000000000000000000000001000000",
      "type": "0x2",
      "transactionHash": "0xf5ad2f03750aca17c8051a3320487f648b8a71912df50d718d1e11dd9a21fd8d",
      "transactionIndex": "0x10",
      "blockHash": "0x35598ffd5efb1c6ecf7f51ef62d7ce6cae837e0a88883b7b3be546fd6cc111dc",
      "blockNumber": "0x2082875",
      "gasUsed": "0xb39d",
      "effectiveGasPrice": "0x124f80",
      "blobGasUsed": "0x79e0",
      "from": "0xf7c7ddd2ed3ea7b745786951713f4ffef428adef",
      "to": "0x119000192d6c783d355ac50320670f8140d051d0",
      "contractAddress": null,
      "daFootprintGasScalar": "0x138",
      "l1BaseFeeScalar": "0x44d",
      "l1BlobBaseFee": "0x1",
      "l1BlobBaseFeeScalar": "0xa118b",
      "l1Fee": "0x50",
      "l1GasPrice": "0x8",
      "l1GasUsed": "0x640"
    },
    {
      "status": "0x1",
      "cumulativeGasUsed": "0x8822b1",
      "logs": [
        {
          "address": "0x119000192d6c783d355ac50320670f8140d051d0",
          "topics": [
            "0xddf252ad1be2c89b69c2b068fc378daa952ba7f163c4a11628f55a4df523b3ef",
            "0x000000000000000000000000f7c7ddd2ed3ea7b745786951713f4ffef428adef",
            "0x00000000000000000000000025883610d91abedac216f4531594a74fc4c3d96a"
          ],
          "data": "0x00000000000000000000000000000000000000000000021e19e0c9bab2400000",
          "blockHash": "0x35598ffd5efb1c6ecf7f51ef62d7ce6cae837e0a88883b7b3be546fd6cc111dc",
          "blockNumber": "0x2082875",
          "blockTimestamp": "0x6923afca",
          "transactionHash": "0xfc0b6087d441b5d1015b49c7d27d3d86adf299e9d6f56e270dae8449cc69a6d7",
          "transactionIndex": "0x14",
          "logIndex": "0x3a",
          "removed": false
        },
        {
          "address": "0x25883610d91abedac216f4531594a74fc4c3d96a",
          "topics": [
            "0x59062170a285eb80e8c6b8ced60428442a51910635005233fc4ce084a475845e",
            "0x000000000000000000000000f7c7ddd2ed3ea7b745786951713f4ffef428adef"
          ],
          "data": "0x00000000000000000000000000000000000000000000021e19e0c9bab2400000",
          "blockHash": "0x35598ffd5efb1c6ecf7f51ef62d7ce6cae837e0a88883b7b3be546fd6cc111dc",
          "blockNumber": "0x2082875",
          "blockTimestamp": "0x6923afca",
          "transactionHash": "0xfc0b6087d441b5d1015b49c7d27d3d86adf299e9d6f56e270dae8449cc69a6d7",
          "transactionIndex": "0x14",
          "logIndex": "0x3b",
          "removed": false
        }
      ],
      "logsBloom": "0x00000004000000000000000000000000000000000000000000000000000000000000000100000000000000000000000000000000000000100000000000008000000000000000000000000008000000000000201000000000000000000000000000000080000000000000000000000400000000000000000000000010000000000100000000000000000000000000000000000000000000000000100000000000000000000000000000000000000000000000000000000000000000000000100000000002000000004000000000000600000000000000000000000000000000000000000000000000000000000000000000000000000000000000000001000000",
      "type": "0x2",
      "transactionHash": "0xfc0b6087d441b5d1015b49c7d27d3d86adf299e9d6f56e270dae8449cc69a6d7",
      "transactionIndex": "0x14",
      "blockHash": "0x35598ffd5efb1c6ecf7f51ef62d7ce6cae837e0a88883b7b3be546fd6cc111dc",
      "blockNumber": "0x2082875",
      "gasUsed": "0xd0fa",
      "effectiveGasPrice": "0x124f80",
      "blobGasUsed": "0x79e0",
      "from": "0xf7c7ddd2ed3ea7b745786951713f4ffef428adef",
      "to": "0x25883610d91abedac216f4531594a74fc4c3d96a",
      "contractAddress": null,
      "daFootprintGasScalar": "0x138",
      "l1BaseFeeScalar": "0x44d",
      "l1BlobBaseFee": "0x1",
      "l1BlobBaseFeeScalar": "0xa118b",
      "l1Fee": "0x50",
      "l1GasPrice": "0x8",
      "l1GasUsed": "0x640"
    },
    {
      "status": "0x1",
      "cumulativeGasUsed": "0x8dda0f",
      "logs": [
        {
          "address": "0xc3f61721d4a0bc5984f1392c9d7ebb32b1ce4f37",
          "topics": [
            "0x8be0079c531659141344cd1fd0a4f28419497f9722a3daafe3b4186f6b6457e0",
            "0x0000000000000000000000000000000000000000000000000000000000000000",
            "0x000000000000000000000000f7c7ddd2ed3ea7b745786951713f4ffef428adef"
          ],
          "data": "0x",
          "blockHash": "0x35598ffd5efb1c6ecf7f51ef62d7ce6cae837e0a88883b7b3be546fd6cc111dc",
          "blockNumber": "0x2082875",
          "blockTimestamp": "0x6923afca",
          "transactionHash": "0x1321893f570e1a2a8e507234c03a1136984e8109ab6fef75f3c56f177e14b5c0",
          "transactionIndex": "0x15",
          "logIndex": "0x3c",
          "removed": false
        }
      ],
      "logsBloom": "0x00000000000001000000000000000000000000000000000000800000000000000000000000000000000000000000000000000000000000000000000000008000000000000000000000000000000000000001000000000000000000000000000000000000020000000000000000000800000000000000000000000000000000400000000000000000000000000000000000000000000000000000000000000000000000000000000000000000000000000000000000000000000000000000000000000000000200000000000000000200000000000000000000000000000020000000000000000000000040000000000000000000000000000000000001000000",
      "type": "0x2",
      "transactionHash": "0x1321893f570e1a2a8e507234c03a1136984e8109ab6fef75f3c56f177e14b5c0",
      "transactionIndex": "0x15",
      "blockHash": "0x35598ffd5efb1c6ecf7f51ef62d7ce6cae837e0a88883b7b3be546fd6cc111dc",
      "blockNumber": "0x2082875",
      "gasUsed": "0x5b75e",
      "effectiveGasPrice": "0x124f80",
      "blobGasUsed": "0x4c2c0",
      "from": "0xf7c7ddd2ed3ea7b745786951713f4ffef428adef",
      "to": null,
      "contractAddress": "0xc3f61721d4a0bc5984f1392c9d7ebb32b1ce4f37",
      "daFootprintGasScalar": "0x138",
      "l1BaseFeeScalar": "0x44d",
      "l1BlobBaseFee": "0x1",
      "l1BlobBaseFeeScalar": "0xa118b",
      "l1Fee": "0x321",
      "l1GasPrice": "0x8",
      "l1GasUsed": "0x3e88"
    },
    {
      "status": "0x1",
      "cumulativeGasUsed": "0x8e5e6c",
      "logs": [
        {
          "address": "0xf32b34dfc110bf618a0ff148afbad8c3915c45ab",
          "topics": [
            "0xddf252ad1be2c89b69c2b068fc378daa952ba7f163c4a11628f55a4df523b3ef",
            "0x0000000000000000000000000000000000000000000000000000000000000000",
            "0x000000000000000000000000f7c7ddd2ed3ea7b745786951713f4ffef428adef"
          ],
          "data": "0x00000000000000000000000000000000000000000000000000005af3107a4000",
          "blockHash": "0x35598ffd5efb1c6ecf7f51ef62d7ce6cae837e0a88883b7b3be546fd6cc111dc",
          "blockNumber": "0x2082875",
          "blockTimestamp": "0x6923afca",
          "transactionHash": "0x0d41f6d41f115c5e6e9cd5c32273c37c88bcb206547c6b4736a3b48b41ac7a4c",
          "transactionIndex": "0x16",
          "logIndex": "0x3d",
          "removed": false
        }
      ],
      "logsBloom": "0x00000000000000000000000000000000000000000000000000000000000000000000000000000000000000000000000000000000000000000000000000008400000000000000000000000008000000000000000000000000000000000000000000000000020000000000000000000800000000000000000000000010000000000000000000000000000000000000000000000000000000000000000000000000000000000000000000000000000000000000000010000000000000000000000000000002000000000000000000000200000000000000000000010000000020000000000000000000000000000000000000000000000000000000000001000000",
      "type": "0x2",
      "transactionHash": "0x0d41f6d41f115c5e6e9cd5c32273c37c88bcb206547c6b4736a3b48b41ac7a4c",
      "transactionIndex": "0x16",
      "blockHash": "0x35598ffd5efb1c6ecf7f51ef62d7ce6cae837e0a88883b7b3be546fd6cc111dc",
      "blockNumber": "0x2082875",
      "gasUsed": "0x845d",
      "effectiveGasPrice": "0x124f80",
      "blobGasUsed": "0x79e0",
      "from": "0xf7c7ddd2ed3ea7b745786951713f4ffef428adef",
      "to": "0xf32b34dfc110bf618a0ff148afbad8c3915c45ab",
      "contractAddress": null,
      "daFootprintGasScalar": "0x138",
      "l1BaseFeeScalar": "0x44d",
      "l1BlobBaseFee": "0x1",
      "l1BlobBaseFeeScalar": "0xa118b",
      "l1Fee": "0x50",
      "l1GasPrice": "0x8",
      "l1GasUsed": "0x640"
    },
    {
      "status": "0x1",
      "cumulativeGasUsed": "0x8f11e5",
      "logs": [
        {
          "address": "0xf32b34dfc110bf618a0ff148afbad8c3915c45ab",
          "topics": [
            "0x8c5be1e5ebec7d5bd14f71427d1e84f3dd0314c0f7b2291e5b200ac8c7c3b925",
            "0x000000000000000000000000f7c7ddd2ed3ea7b745786951713f4ffef428adef",
            "0x000000000000000000000000c3f61721d4a0bc5984f1392c9d7ebb32b1ce4f37"
          ],
          "data": "0x00000000000000000000000000000000000000000000000000005af3107a4000",
          "blockHash": "0x0e59e91392eb1c6fe8ac2199b581e67fd2741bfcb6c92f35f6d2561dd1537cef",
          "blockNumber": "0x2082875",
          "blockTimestamp": "0x6923afca",
          "transactionHash": "0xef8f7b2d4d251f68c848090410731f1fafef9b48a443722718f9166c608661bf",
          "transactionIndex": "0x17",
          "logIndex": "0x3e",
          "removed": false
        }
      ],
      "logsBloom": "0x00000000000000000000000000000000000000000000000000000000000000000000000000000000000000000000000000000000000000000000000000208400000000000000000000000000000000000000000000000000000000000000000000000000000000000000000000000000000000020000000000000000000000000000000000000000000000000000000000000000200000000000000000000000020000000000000000000000000000000000000010000000000000000000000000000000000000000000000000000200000000000020000000010000000000000010000000000000000000000000000000000000000000000000000001000000",
      "type": "0x2",
      "transactionHash": "0xef8f7b2d4d251f68c848090410731f1fafef9b48a443722718f9166c608661bf",
      "transactionIndex": "0x17",
      "blockHash": "0x0e59e91392eb1c6fe8ac2199b581e67fd2741bfcb6c92f35f6d2561dd1537cef",
      "blockNumber": "0x2082875",
      "gasUsed": "0xb379",
      "effectiveGasPrice": "0x124f80",
      "blobGasUsed": "0x79e0",
      "from": "0xf7c7ddd2ed3ea7b745786951713f4ffef428adef",
      "to": "0xf32b34dfc110bf618a0ff148afbad8c3915c45ab",
      "contractAddress": null,
      "daFootprintGasScalar": "0x138",
      "l1BaseFeeScalar": "0x44d",
      "l1BlobBaseFee": "0x1",
      "l1BlobBaseFeeScalar": "0xa118b",
      "l1Fee": "0x50",
      "l1GasPrice": "0x8",
      "l1GasUsed": "0x640"
    },
    {
      "status": "0x1",
      "cumulativeGasUsed": "0x8ff57b",
      "logs": [
        {
          "address": "0xf32b34dfc110bf618a0ff148afbad8c3915c45ab",
          "topics": [
            "0xddf252ad1be2c89b69c2b068fc378daa952ba7f163c4a11628f55a4df523b3ef",
            "0x000000000000000000000000f7c7ddd2ed3ea7b745786951713f4ffef428adef",
            "0x000000000000000000000000c3f61721d4a0bc5984f1392c9d7ebb32b1ce4f37"
          ],
          "data": "0x00000000000000000000000000000000000000000000000000005af3107a4000",
          "blockHash": "0x35598ffd5efb1c6ecf7f51ef62d7ce6cae837e0a88883b7b3be546fd6cc111dc",
          "blockNumber": "0x2082875",
          "blockTimestamp": "0x6923afca",
          "transactionHash": "0xcb7be9d9b2a05756eeeba23d0ed9e8603de300a788a06e8ea5a7ccb4e5437a9a",
          "transactionIndex": "0x18",
          "logIndex": "0x3f",
          "removed": false
        },
        {
          "address": "0xc3f61721d4a0bc5984f1392c9d7ebb32b1ce4f37",
          "topics": [
            "0x59062170a285eb80e8c6b8ced60428442a51910635005233fc4ce084a475845e",
            "0x000000000000000000000000f7c7ddd2ed3ea7b745786951713f4ffef428adef"
          ],
          "data": "0x00000000000000000000000000000000000000000000000000005af3107a4000",
          "blockHash": "0x35598ffd5efb1c6ecf7f51ef62d7ce6cae837e0a88883b7b3be546fd6cc111dc",
          "blockNumber": "0x2082875",
          "blockTimestamp": "0x6923afca",
          "transactionHash": "0xcb7be9d9b2a05756eeeba23d0ed9e8603de300a788a06e8ea5a7ccb4e5437a9a",
          "transactionIndex": "0x18",
          "logIndex": "0x40",
          "removed": false
        }
      ],
      "logsBloom": "0x00000000000001000000000000000000000000000000000000000000000000000000000000000000000000000000000000000000000000000000000000008400000000000000000000000008000000000000200000000000000000000000000000000000000000000000000000000400000000020000000000000010000000000000000000000000000000000000000000000000200000000000000000000000000000000000000000000000000000000000000010000000000000000000000000000002000200004000000000000200000000000020000000010000000000000000000000000000000040000000000000000000000000000000000001000000",
      "type": "0x2",
      "transactionHash": "0xcb7be9d9b2a05756eeeba23d0ed9e8603de300a788a06e8ea5a7ccb4e5437a9a",
      "transactionIndex": "0x18",
      "blockHash": "0x35598ffd5efb1c6ecf7f51ef62d7ce6cae837e0a88883b7b3be546fd6cc111dc",
      "blockNumber": "0x2082875",
      "gasUsed": "0xe396",
      "effectiveGasPrice": "0x124f80",
      "blobGasUsed": "0x79e0",
      "from": "0xf7c7ddd2ed3ea7b745786951713f4ffef428adef",
      "to": "0xc3f61721d4a0bc5984f1392c9d7ebb32b1ce4f37",
      "contractAddress": null,
      "daFootprintGasScalar": "0x138",
      "l1BaseFeeScalar": "0x44d",
      "l1BlobBaseFee": "0x1",
      "l1BlobBaseFeeScalar": "0xa118b",
      "l1Fee": "0x50",
      "l1GasPrice": "0x8",
      "l1GasUsed": "0x640"
    },
    {
      "status": "0x1",
      "cumulativeGasUsed": "0x95ad09",
      "logs": [
        {
          "address": "0xa385996739e9d048e05cc91b66f1e18b92d7ae33",
          "topics": [
            "0x8be0079c531659141344cd1fd0a4f28419497f9722a3daafe3b4186f6b6457e0",
            "0x0000000000000000000000000000000000000000000000000000000000000000",
            "0x000000000000000000000000f7c7ddd2ed3ea7b745786951713f4ffef428adef"
          ],
          "data": "0x",
          "blockHash": "0x0e59e91392eb1c6fe8ac2199b581e67fd2741bfcb6c92f35f6d2561dd1537cef",
          "blockNumber": "0x2082875",
          "blockTimestamp": "0x6923afca",
          "transactionHash": "0xfd9e9336dffdde2bcfe091471661a2f5f99a836929b4e6723eaa4d8a8920fa6f",
          "transactionIndex": "0x19",
          "logIndex": "0x41",
          "removed": false
        }
      ],
      "logsBloom": "0x00000000000000000000000000000000000000000000000000800000000000000000000000000000000000000000000000000000000000000000000000008000000000000000000000000000000000000001000000000000000000000000000000000000020080000000000000000800000000000008000000000000000000400000000000000000000000000000000000000000000000000000000000000000000000000000000000000000000000000000000000000000000000000000000000000000000000000000000100000200000000000000000000000000000020000000000000000000000000000000000000000000000000000000000001000000",
      "type": "0x2",
      "transactionHash": "0xfd9e9336dffdde2bcfe091471661a2f5f99a836929b4e6723eaa4d8a8920fa6f",
      "transactionIndex": "0x19",
      "blockHash": "0x0e59e91392eb1c6fe8ac2199b581e67fd2741bfcb6c92f35f6d2561dd1537cef",
      "blockNumber": "0x2082875",
      "gasUsed": "0x5b78e",
      "effectiveGasPrice": "0x124f80",
      "blobGasUsed": "0x4c7a0",
      "from": "0xf7c7ddd2ed3ea7b745786951713f4ffef428adef",
      "to": null,
      "contractAddress": "0xa385996739e9d048e05cc91b66f1e18b92d7ae33",
      "daFootprintGasScalar": "0x138",
      "l1BaseFeeScalar": "0x44d",
      "l1BlobBaseFee": "0x1",
      "l1BlobBaseFeeScalar": "0xa118b",
      "l1Fee": "0x50",
      "l1GasPrice": "0x8",
      "l1GasUsed": "0x3ecb"
    },
    {
      "status": "0x1",
      "cumulativeGasUsed": "0x96b722",
      "logs": [
        {
          "address": "0x9afe68a4a330e8ea3ebb997fe4b27aa802b7f076",
          "topics": [
            "0xddf252ad1be2c89b69c2b068fc378daa952ba7f163c4a11628f55a4df523b3ef",
            "0x0000000000000000000000000000000000000000000000000000000000000000",
            "0x000000000000000000000000f7c7ddd2ed3ea7b745786951713f4ffef428adef"
          ],
          "data": "0x000000000000000000000000000000000000000000084595161401484a000000",
          "blockHash": "0x35598ffd5efb1c6ecf7f51ef62d7ce6cae837e0a88883b7b3be546fd6cc111dc",
          "blockNumber": "0x2082875",
          "blockTimestamp": "0x6923afca",
          "transactionHash": "0xd6c4c23cacb2dacf9d1531702facfb2f8d85787eab7530250542b8534ed87712",
          "transactionIndex": "0x1a",
          "logIndex": "0x42",
          "removed": false
        }
      ],
      "logsBloom": "0x00000000000000000000000000000000000000000000000000000000000000000000000000000000000000000000000000000000000000000000000000008000000000000000000000000008000000000000000000000000000000000000000000000000020000000000000000000800000000000000080000000010000000000000000000000000000000000000000000000000000000000000000000000000000000000000000000000000000000000000000000000000000000000000000000000002000000000000000000200200000000000000000000000000000020000000000000000000000000000000000000000020000000000000000001000000",
      "type": "0x2",
      "transactionHash": "0xd6c4c23cacb2dacf9d1531702facfb2f8d85787eab7530250542b8534ed87712",
      "transactionIndex": "0x1a",
      "blockHash": "0x35598ffd5efb1c6ecf7f51ef62d7ce6cae837e0a88883b7b3be546fd6cc111dc",
      "blockNumber": "0x2082875",
      "gasUsed": "0x10a19",
      "effectiveGasPrice": "0x124f80",
      "blobGasUsed": "0x79e0",
      "from": "0xf7c7ddd2ed3ea7b745786951713f4ffef428adef",
      "to": "0x9afe68a4a330e8ea3ebb997fe4b27aa802b7f076",
      "contractAddress": null,
      "daFootprintGasScalar": "0x138",
      "l1BaseFeeScalar": "0x44d",
      "l1BlobBaseFee": "0x1",
      "l1BlobBaseFeeScalar": "0xa118b",
      "l1Fee": "0x50",
      "l1GasPrice": "0x8",
      "l1GasUsed": "0x640"
    },
    {
      "status": "0x1",
      "cumulativeGasUsed": "0x208b3",
      "logs": [
        {
          "address": "0x9afe68a4a330e8ea3ebb997fe4b27aa802b7f076",
          "topics": [
            "0x8c5be1e5ebec7d5bd14f71427d1e84f3dd0314c0f7b2291e5b200ac8c7c3b925",
            "0x000000000000000000000000f7c7ddd2ed3ea7b745786951713f4ffef428adef",
            "0x000000000000000000000000a385996739e9d048e05cc91b66f1e18b92d7ae33"
          ],
          "data": "0x000000000000000000000000000000000000000000084595161401484a000000",
          "blockHash": "0x52c4751b05d664b8bcfa61e9c780e667a335ff15adf38c2e89383cd44f07759d",
          "blockNumber": "0x2082876",
          "blockTimestamp": "0x6923afcc",
          "transactionHash": "0xdf398a0511e4f1296b34609375515e26aa94dcdb8b348a48da70d55b3f483f0c",
          "transactionIndex": "0x2",
          "logIndex": "0x1",
          "removed": false
        }
      ],
      "logsBloom": "0x00000000000000000000000000000000000000000000000000000000000000000000000000000000000000000000000000000000000000000000000000208000000000000000000000000000000000000000000000000000000000000080000000000000000000000000000000000000000000000000080000000000000000000000000000000000000000000000000000000000000000000000000002000000020000000000000000000000000000000000000000000000000000000000000000000000000000000000000000200200000000000000000000800000000000000010000000000000000000000000000000000020000000000000000001000000",
      "type": "0x2",
      "transactionHash": "0xdf398a0511e4f1296b34609375515e26aa94dcdb8b348a48da70d55b3f483f0c",
      "transactionIndex": "0x2",
      "blockHash": "0x52c4751b05d664b8bcfa61e9c780e667a335ff15adf38c2e89383cd44f07759d",
      "blockNumber": "0x2082876",
      "gasUsed": "0xb39d",
      "effectiveGasPrice": "0x124f80",
      "blobGasUsed": "0x79e0",
      "from": "0xf7c7ddd2ed3ea7b745786951713f4ffef428adef",
      "to": "0x9afe68a4a330e8ea3ebb997fe4b27aa802b7f076",
      "contractAddress": null,
      "daFootprintGasScalar": "0x138",
      "l1BaseFeeScalar": "0x44d",
      "l1BlobBaseFee": "0x1",
      "l1BlobBaseFeeScalar": "0xa118b",
      "l1Fee": "0x50",
      "l1GasPrice": "0x8",
      "l1GasUsed": "0x640"
    },
    {
      "status": "0x1",
      "cumulativeGasUsed": "0x2d9ad",
      "logs": [
        {
          "address": "0x9afe68a4a330e8ea3ebb997fe4b27aa802b7f076",
          "topics": [
            "0xddf252ad1be2c89b69c2b068fc378daa952ba7f163c4a11628f55a4df523b3ef",
            "0x000000000000000000000000f7c7ddd2ed3ea7b745786951713f4ffef428adef",
            "0x000000000000000000000000a385996739e9d048e05cc91b66f1e18b92d7ae33"
          ],
          "data": "0x000000000000000000000000000000000000000000084595161401484a000000",
          "blockHash": "0x52c4751b05d664b8bcfa61e9c780e667a335ff15adf38c2e89383cd44f07759d",
          "blockNumber": "0x2082876",
          "blockTimestamp": "0x6923afcc",
          "transactionHash": "0xf4adfa44f47bc5e11e35bd79d8b620d2193aaa258d2be8b0ef86734b3c5a6f88",
          "transactionIndex": "0x3",
          "logIndex": "0x2",
          "removed": false
        },
        {
          "address": "0xa385996739e9d048e05cc91b66f1e18b92d7ae33",
          "topics": [
            "0x59062170a285eb80e8c6b8ced60428442a51910635005233fc4ce084a475845e",
            "0x000000000000000000000000f7c7ddd2ed3ea7b745786951713f4ffef428adef"
          ],
          "data": "0x000000000000000000000000000000000000000000084595161401484a000000",
          "blockHash": "0x52c4751b05d664b8bcfa61e9c780e667a335ff15adf38c2e89383cd44f07759d",
          "blockNumber": "0x2082876",
          "blockTimestamp": "0x6923afcc",
          "transactionHash": "0xf4adfa44f47bc5e11e35bd79d8b620d2193aaa258d2be8b0ef86734b3c5a6f88",
          "transactionIndex": "0x3",
          "logIndex": "0x3",
          "removed": false
        }
      ],
      "logsBloom": "0x00000000000000000000000000000000000000000000000000000000000000000000000000000000000000000000000000000000000000000000000000008000000000000000000000000008000000000000200000000000000000000080000000000000000080000000000000000400000000000008080000000010000000000000000000000000000000000000000000000000000000000000000002000000000000000000000000000000000000000000000000000000000000000000000000000002000000004000000100200200000000000000000000800000000000000000000000000000000000000000000000000020000000000000000001000000",
      "type": "0x2",
      "transactionHash": "0xf4adfa44f47bc5e11e35bd79d8b620d2193aaa258d2be8b0ef86734b3c5a6f88",
      "transactionIndex": "0x3",
      "blockHash": "0x52c4751b05d664b8bcfa61e9c780e667a335ff15adf38c2e89383cd44f07759d",
      "blockNumber": "0x2082876",
      "gasUsed": "0xd0fa",
      "effectiveGasPrice": "0x124f80",
      "blobGasUsed": "0x79e0",
      "from": "0xf7c7ddd2ed3ea7b745786951713f4ffef428adef",
      "to": "0xa385996739e9d048e05cc91b66f1e18b92d7ae33",
      "contractAddress": null,
      "daFootprintGasScalar": "0x138",
      "l1BaseFeeScalar": "0x44d",
      "l1BlobBaseFee": "0x1",
      "l1BlobBaseFeeScalar": "0xa118b",
      "l1Fee": "0x50",
      "l1GasPrice": "0x8",
      "l1GasUsed": "0x640"
    },
    {
      "status": "0x1",
      "cumulativeGasUsed": "0x8913b",
      "logs": [
        {
          "address": "0x105e4786b5c3816ddf5f132d0c07e6b73756e654",
          "topics": [
            "0x8be0079c531659141344cd1fd0a4f28419497f9722a3daafe3b4186f6b6457e0",
            "0x0000000000000000000000000000000000000000000000000000000000000000",
            "0x000000000000000000000000f7c7ddd2ed3ea7b745786951713f4ffef428adef"
          ],
          "data": "0x",
          "blockHash": "0x52c4751b05d664b8bcfa61e9c780e667a335ff15adf38c2e89383cd44f07759d",
          "blockNumber": "0x2082876",
          "blockTimestamp": "0x6923afcc",
          "transactionHash": "0xda660348d1265c7cb802ec6b41d112f7a17387e772b5ff7362f9b219cbb705cc",
          "transactionIndex": "0x4",
          "logIndex": "0x4",
          "removed": false
        }
      ],
      "logsBloom": "0x00000000000000000000000000000000000000000000000000800000000000000000000000000000000000000000000000000000000000000000000000008000000000000000000000000000000000000001000000000000000000000000000000000000020000000000000000000800000000000000000000000000000000400010000000000000000000000000000000000000000000000000000000000000000000000000000000000000000000000000000000000000000000000000000000000000000000000000000800000200000000002000000000000000000020000000000000000000000000000000000000000000000000000000000001000000",
      "type": "0x2",
      "transactionHash": "0xda660348d1265c7cb802ec6b41d112f7a17387e772b5ff7362f9b219cbb705cc",
      "transactionIndex": "0x4",
      "blockHash": "0x52c4751b05d664b8bcfa61e9c780e667a335ff15adf38c2e89383cd44f07759d",
      "blockNumber": "0x2082876",
      "gasUsed": "0x5b78e",
      "effectiveGasPrice": "0x124f80",
      "blobGasUsed": "0x4c7a0",
      "from": "0xf7c7ddd2ed3ea7b745786951713f4ffef428adef",
      "to": null,
      "contractAddress": "0x105e4786b5c3816ddf5f132d0c07e6b73756e654",
      "daFootprintGasScalar": "0x138",
      "l1BaseFeeScalar": "0x44d",
      "l1BlobBaseFee": "0x1",
      "l1BlobBaseFeeScalar": "0xa118b",
      "l1Fee": "0x50",
      "l1GasPrice": "0x8",
      "l1GasUsed": "0x3ecb"
    },
    {
      "status": "0x1",
      "cumulativeGasUsed": "0x95858",
      "logs": [
        {
          "address": "0x47a94537cd5169dd0d7e8b86b65372794c9ff8e8",
          "topics": [
            "0xddf252ad1be2c89b69c2b068fc378daa952ba7f163c4a11628f55a4df523b3ef",
            "0x0000000000000000000000000000000000000000000000000000000000000000",
            "0x000000000000000000000000f7c7ddd2ed3ea7b745786951713f4ffef428adef"
          ],
          "data": "0x00000000000000000000000000000000000000000000000000000002540be400",
          "blockHash": "0x52c4751b05d664b8bcfa61e9c780e667a335ff15adf38c2e89383cd44f07759d",
          "blockNumber": "0x2082876",
          "blockTimestamp": "0x6923afcc",
          "transactionHash": "0xd81b83230e202d47017cb17052cf5d9296737fe6f3390401942019fea986d3ee",
          "transactionIndex": "0x5",
          "logIndex": "0x5",
          "removed": false
        }
      ],
      "logsBloom": "0x00000000000000000000000000000000000000000000000000000000000000000000000000000000000000000000000000000000000000000000000000008000000000000000000000000008000000000000000000000000000000100000000000200000020000000000000000000800000000000000000000000010000000000000000000000000000000000000000000000000000000001000000000000000000000000000000000000000000000000000000000000000000000000000000000000002000000000000000000000200000000000000000000000000000020000000000000000000000000000000000000000000000000000000000001000000",
      "type": "0x2",
      "transactionHash": "0xd81b83230e202d47017cb17052cf5d9296737fe6f3390401942019fea986d3ee",
      "transactionIndex": "0x5",
      "blockHash": "0x52c4751b05d664b8bcfa61e9c780e667a335ff15adf38c2e89383cd44f07759d",
      "blockNumber": "0x2082876",
      "gasUsed": "0xc71d",
      "effectiveGasPrice": "0x124f80",
      "blobGasUsed": "0x79e0",
      "from": "0xf7c7ddd2ed3ea7b745786951713f4ffef428adef",
      "to": "0x47a94537cd5169dd0d7e8b86b65372794c9ff8e8",
      "contractAddress": null,
      "daFootprintGasScalar": "0x138",
      "l1BaseFeeScalar": "0x44d",
      "l1BlobBaseFee": "0x1",
      "l1BlobBaseFeeScalar": "0xa118b",
      "l1Fee": "0x50",
      "l1GasPrice": "0x8",
      "l1GasUsed": "0x640"
    },
    {
      "status": "0x1",
      "cumulativeGasUsed": "0x9c8f9",
      "logs": [
        {
          "address": "0x47a94537cd5169dd0d7e8b86b65372794c9ff8e8",
          "topics": [
            "0x8c5be1e5ebec7d5bd14f71427d1e84f3dd0314c0f7b2291e5b200ac8c7c3b925",
            "0x000000000000000000000000f7c7ddd2ed3ea7b745786951713f4ffef428adef",
            "0x000000000000000000000000033ea50deaa8b064958fc40e34f994c154d27fff"
          ],
          "data": "0x00000000000000000000000000000000000000000000000000000002540be400",
          "blockHash": "0x52c4751b05d664b8bcfa61e9c780e667a335ff15adf38c2e89383cd44f07759d",
          "blockNumber": "0x2082876",
          "blockTimestamp": "0x6923afcc",
          "transactionHash": "0x82373dcba696ab251d601f10dc02b577648c6dd3572ca10077ed7c556f6c1397",
          "transactionIndex": "0x6",
          "logIndex": "0x6",
          "removed": false
        }
      ],
      "logsBloom": "0x00000000000000000000000000000000000100000000000000000000000000000000000000000000000000000000000000000000000000000000000000208000000000008000000000000000000000000000000000000000000000100000000000200000000000000000000000000000000000000000000000000000000000000000000000000000000000000000000000000000000000001000000000000000020000000000000000000000000000000000000000000000000000000000000000000000000000000000000000000200000000000000000000000000000000000010000000000000000000800000000000000000000000000000000001000000",
      "type": "0x2",
      "transactionHash": "0x82373dcba696ab251d601f10dc02b577648c6dd3572ca10077ed7c556f6c1397",
      "transactionIndex": "0x6",
      "blockHash": "0x52c4751b05d664b8bcfa61e9c780e667a335ff15adf38c2e89383cd44f07759d",
      "blockNumber": "0x2082876",
      "gasUsed": "0x70a1",
      "effectiveGasPrice": "0x124f80",
      "blobGasUsed": "0x79e0",
      "from": "0xf7c7ddd2ed3ea7b745786951713f4ffef428adef",
      "to": "0x47a94537cd5169dd0d7e8b86b65372794c9ff8e8",
      "contractAddress": null,
      "daFootprintGasScalar": "0x138",
      "l1BaseFeeScalar": "0x44d",
      "l1BlobBaseFee": "0x1",
      "l1BlobBaseFeeScalar": "0xa118b",
      "l1Fee": "0x50",
      "l1GasPrice": "0x8",
      "l1GasUsed": "0x640"
    },
    {
      "status": "0x1",
      "cumulativeGasUsed": "0xcbca6",
      "logs": [
        {
          "address": "0x47a94537cd5169dd0d7e8b86b65372794c9ff8e8",
          "topics": [
            "0xddf252ad1be2c89b69c2b068fc378daa952ba7f163c4a11628f55a4df523b3ef",
            "0x000000000000000000000000f7c7ddd2ed3ea7b745786951713f4ffef428adef",
            "0x000000000000000000000000033ea50deaa8b064958fc40e34f994c154d27fff"
          ],
          "data": "0x00000000000000000000000000000000000000000000000000000002540be400",
          "blockHash": "0x52c4751b05d664b8bcfa61e9c780e667a335ff15adf38c2e89383cd44f07759d",
          "blockNumber": "0x2082876",
          "blockTimestamp": "0x6923afcc",
          "transactionHash": "0xbf334e88eafa1aab928bffbd21f2d3b48da8d8c7d0a0fc935555f959fb5236bd",
          "transactionIndex": "0x7",
          "logIndex": "0x7",
          "removed": false
        },
        {
          "address": "0x50108c7ccdfdf341baec1c1f4a94b42a764628ef",
          "topics": [
            "0xddf252ad1be2c89b69c2b068fc378daa952ba7f163c4a11628f55a4df523b3ef",
            "0x0000000000000000000000000000000000000000000000000000000000000000",
            "0x000000000000000000000000f7c7ddd2ed3ea7b745786951713f4ffef428adef"
          ],
          "data": "0x0000000000000000000000000000000000000000000422ca8b0a00a425000000",
          "blockHash": "0x52c4751b05d664b8bcfa61e9c780e667a335ff15adf38c2e89383cd44f07759d",
          "blockNumber": "0x2082876",
          "blockTimestamp": "0x6923afcc",
          "transactionHash": "0xbf334e88eafa1aab928bffbd21f2d3b48da8d8c7d0a0fc935555f959fb5236bd",
          "transactionIndex": "0x7",
          "logIndex": "0x8",
          "removed": false
        },
        {
          "address": "0x033ea50deaa8b064958fc40e34f994c154d27fff",
          "topics": [
            "0x96bf4d524a427510fe8ab2fc75ba6f1a56af9e8b6c33cdcc4f05ecc04e2b25fa",
            "0x000000000000000000000000f7c7ddd2ed3ea7b745786951713f4ffef428adef",
            "0x00000000000000000000000047a94537cd5169dd0d7e8b86b65372794c9ff8e8",
            "0x00000000000000000000000050108c7ccdfdf341baec1c1f4a94b42a764628ef"
          ],
          "data": "0x00000000000000000000000000000000000000000000000000000002540be4000000000000000000000000000000000000000000000422ca8b0a00a425000000",
          "blockHash": "0x52c4751b05d664b8bcfa61e9c780e667a335ff15adf38c2e89383cd44f07759d",
          "blockNumber": "0x2082876",
          "blockTimestamp": "0x6923afcc",
          "transactionHash": "0xbf334e88eafa1aab928bffbd21f2d3b48da8d8c7d0a0fc935555f959fb5236bd",
          "transactionIndex": "0x7",
          "logIndex": "0x9",
          "removed": false
        }
      ],
      "logsBloom": "0x000000000000000000000000000000000201000000000000000000000000000000000001000000000000000000000000000000000000200000000000000080000010010080000000000000080000000000000000000000000400001000100000002000000200202000000000000008000000000000000000000200100000000000000000000000000000000000000000000000a0000000001000000000000000000000000000000000000000000000008000000000000000000000000000000000000002000000000000000000000200000000000002000000000000000020000000000000000000000000800000000000000000000000000000000001200000",
      "type": "0x2",
      "transactionHash": "0xbf334e88eafa1aab928bffbd21f2d3b48da8d8c7d0a0fc935555f959fb5236bd",
      "transactionIndex": "0x7",
      "blockHash": "0x52c4751b05d664b8bcfa61e9c780e667a335ff15adf38c2e89383cd44f07759d",
      "blockNumber": "0x2082876",
      "gasUsed": "0x2f3ad",
      "effectiveGasPrice": "0x124f80",
      "blobGasUsed": "0xae48",
      "from": "0xf7c7ddd2ed3ea7b745786951713f4ffef428adef",
      "to": "0x033ea50deaa8b064958fc40e34f994c154d27fff",
      "contractAddress": null,
      "daFootprintGasScalar": "0x138",
      "l1BaseFeeScalar": "0x44d",
      "l1BlobBaseFee": "0x1",
      "l1BlobBaseFeeScalar": "0xa118b",
      "l1Fee": "0x50",
      "l1GasPrice": "0x8",
      "l1GasUsed": "0x8ff"
    },
    {
      "status": "0x1",
      "cumulativeGasUsed": "0xd8349",
      "logs": [
        {
          "address": "0x50108c7ccdfdf341baec1c1f4a94b42a764628ef",
          "topics": [
            "0x8c5be1e5ebec7d5bd14f71427d1e84f3dd0314c0f7b2291e5b200ac8c7c3b925",
            "0x000000000000000000000000f7c7ddd2ed3ea7b745786951713f4ffef428adef",
            "0x000000000000000000000000105e4786b5c3816ddf5f132d0c07e6b73756e654"
          ],
          "data": "0x0000000000000000000000000000000000000000000422ca8b0a00a425000000",
          "blockHash": "0x52c4751b05d664b8bcfa61e9c780e667a335ff15adf38c2e89383cd44f07759d",
          "blockNumber": "0x2082876",
          "blockTimestamp": "0x6923afcc",
          "transactionHash": "0x6f5717c9cb1ef5028bcac9461e55237b0a034fca7129ef539f610cbdfa087472",
          "transactionIndex": "0x8",
          "logIndex": "0xa",
          "removed": false
        }
      ],
      "logsBloom": "0x00000000000000000000000000000000000000000000000000000000000000000000000000000000000000000000000000000000000000000000000000208000001000000002000000000000000000000000000000000000000000000010000000000000000020000000000000000000000000000000000000000000000000000000000000000000000008000000000000000000000080000000000000000000020000000000000000000000000000000000000000000000000000000000000000000000000000000000000000000200000000000000000000000000000000000010000000000000000000000000000000000000000000000000000001000000",
      "type": "0x2",
      "transactionHash": "0x6f5717c9cb1ef5028bcac9461e55237b0a034fca7129ef539f610cbdfa087472",
      "transactionIndex": "0x8",
      "blockHash": "0x52c4751b05d664b8bcfa61e9c780e667a335ff15adf38c2e89383cd44f07759d",
      "blockNumber": "0x2082876",
      "gasUsed": "0xc6a3",
      "effectiveGasPrice": "0x124f80",
      "blobGasUsed": "0x79e0",
      "from": "0xf7c7ddd2ed3ea7b745786951713f4ffef428adef",
      "to": "0x50108c7ccdfdf341baec1c1f4a94b42a764628ef",
      "contractAddress": null,
      "daFootprintGasScalar": "0x138",
      "l1BaseFeeScalar": "0x44d",
      "l1BlobBaseFee": "0x1",
      "l1BlobBaseFeeScalar": "0xa118b",
      "l1Fee": "0x50",
      "l1GasPrice": "0x8",
      "l1GasUsed": "0x640"
    },
    {
      "status": "0x1",
      "cumulativeGasUsed": "0x1301c4",
      "logs": [
        {
          "address": "0x50108c7ccdfdf341baec1c1f4a94b42a764628ef",
          "topics": [
            "0x8c5be1e5ebec7d5bd14f71427d1e84f3dd0314c0f7b2291e5b200ac8c7c3b925",
            "0x000000000000000000000000f7c7ddd2ed3ea7b745786951713f4ffef428adef",
            "0x000000000000000000000000105e4786b5c3816ddf5f132d0c07e6b73756e654"
          ],
          "data": "0x0000000000000000000000000000000000000000000000000000000000000000",
          "blockHash": "0x2c2954f1b506edfa88fb729aed50325816fe93ddda1855efe036d8ff769dd8a9",
          "blockNumber": "0x2082876",
          "blockTimestamp": "0x6923afcc",
          "transactionHash": "0x31456ea1c346e33d060dc624d08ad5123dd6dec143a2c00b6382a50263dd7277",
          "transactionIndex": "0xb",
          "logIndex": "0x11",
          "removed": false
        },
        {
          "address": "0x50108c7ccdfdf341baec1c1f4a94b42a764628ef",
          "topics": [
            "0xddf252ad1be2c89b69c2b068fc378daa952ba7f163c4a11628f55a4df523b3ef",
            "0x000000000000000000000000f7c7ddd2ed3ea7b745786951713f4ffef428adef",
            "0x000000000000000000000000105e4786b5c3816ddf5f132d0c07e6b73756e654"
          ],
          "data": "0x0000000000000000000000000000000000000000000422ca8b0a00a425000000",
          "blockHash": "0x2c2954f1b506edfa88fb729aed50325816fe93ddda1855efe036d8ff769dd8a9",
          "blockNumber": "0x2082876",
          "blockTimestamp": "0x6923afcc",
          "transactionHash": "0x31456ea1c346e33d060dc624d08ad5123dd6dec143a2c00b6382a50263dd7277",
          "transactionIndex": "0xb",
          "logIndex": "0x12",
          "removed": false
        },
        {
          "address": "0x105e4786b5c3816ddf5f132d0c07e6b73756e654",
          "topics": [
            "0x59062170a285eb80e8c6b8ced60428442a51910635005233fc4ce084a475845e",
            "0x000000000000000000000000f7c7ddd2ed3ea7b745786951713f4ffef428adef"
          ],
          "data": "0x0000000000000000000000000000000000000000000422ca8b0a00a425000000",
          "blockHash": "0x2c2954f1b506edfa88fb729aed50325816fe93ddda1855efe036d8ff769dd8a9",
          "blockNumber": "0x2082876",
          "blockTimestamp": "0x6923afcc",
          "transactionHash": "0x31456ea1c346e33d060dc624d08ad5123dd6dec143a2c00b6382a50263dd7277",
          "transactionIndex": "0xb",
          "logIndex": "0x13",
          "removed": false
        }
      ],
      "logsBloom": "0x00000000000000000000000000000000000000000000000000000000000000000000000000000000000000000000000000000000000000000000000000208000001000000002000000000008000000000000200000000000000000000010000000000000000020000000000000000400000000000000000000000010000000000010000000000000000008000000000000000000000080000000000000000000020000000000000000000000000000000000000000000000000000000000000000000002000000004000000800000200000000002000000000000000000000000010000000000000000000000000000000000000000000000000000001000000",
      "type": "0x2",
      "transactionHash": "0x31456ea1c346e33d060dc624d08ad5123dd6dec143a2c00b6382a50263dd7277",
      "transactionIndex": "0xb",
      "blockHash": "0x2c2954f1b506edfa88fb729aed50325816fe93ddda1855efe036d8ff769dd8a9",
      "blockNumber": "0x2082876",
      "gasUsed": "0x1e841",
      "effectiveGasPrice": "0x124f80",
      "blobGasUsed": "0x79e0",
      "from": "0xf7c7ddd2ed3ea7b745786951713f4ffef428adef",
      "to": "0x105e4786b5c3816ddf5f132d0c07e6b73756e654",
      "contractAddress": null,
      "daFootprintGasScalar": "0x138",
      "l1BaseFeeScalar": "0x44d",
      "l1BlobBaseFee": "0x1",
      "l1BlobBaseFeeScalar": "0xa118b",
      "l1Fee": "0x50",
      "l1GasPrice": "0x8",
      "l1GasUsed": "0x640"
    }
  ],
  "libraries": [],
  "pending": [],
  "returns": {},
  "timestamp": 1763946567122,
  "chain": 84532,
  "commit": "d4cf53e"
}