{
  "transactions": [
    {
      "hash": "0x1ce576554edcce8f8b0041937fbc8d4309e4d50c6d71c4df2c08987b7c36a35e",
      "transactionType": "CALL",
      "contractName": null,
      "contractAddress": "0x033ea50deaa8b064958fc40e34f994c154d27fff",
      "function": "updateAssetMaxSupply(address,uint256)",
      "arguments": [
        "0x430Ad0BF065d3c677D833646e629d69EB99b7AfA",
        "50000000000000000000"
      ],
      "transaction": {
        "from": "0xf7c7ddd2ed3ea7b745786951713f4ffef428adef",
        "to": "0x033ea50deaa8b064958fc40e34f994c154d27fff",
        "gas": "0x10410",
        "value": "0x0",
        "input": "0x98282a61000000000000000000000000430ad0bf065d3c677d833646e629d69eb99b7afa000000000000000000000000000000000000000000000002b5e3af16b1880000",
        "nonce": "0x150f",
        "chainId": "0x14a34"
      },
      "additionalContracts": [],
      "isFixedGasLimit": false
    },
    {
      "hash": "0x353ec19f9cde95a6c2ffdd499d99e4bdbd08a0fd12ff7d43c494ea2e31b23f79",
      "transactionType": "CALL",
      "contractName": null,
      "contractAddress": "0x033ea50deaa8b064958fc40e34f994c154d27fff",
      "function": "updateAssetMaxSupply(address,uint256)",
      "arguments": [
        "0x4f24bdFE9f375E8BA9aCA6247DAAa8624cc4A02E",
        "1500000000000000000000"
      ],
      "transaction": {
        "from": "0xf7c7ddd2ed3ea7b745786951713f4ffef428adef",
        "to": "0x033ea50deaa8b064958fc40e34f994c154d27fff",
        "gas": "0x10410",
        "value": "0x0",
        "input": "0x98282a610000000000000000000000004f24bdfe9f375e8ba9aca6247daaa8624cc4a02e00000000000000000000000000000000000000000000005150ae84a8cdf00000",
        "nonce": "0x1510",
        "chainId": "0x14a34"
      },
      "additionalContracts": [],
      "isFixedGasLimit": false
    },
    {
      "hash": "0xe5d0c435355b8434e63a7a3b725da65f98692c8471292ac37b162bc617d80cb9",
      "transactionType": "CALL",
      "contractName": null,
      "contractAddress": "0x033ea50deaa8b064958fc40e34f994c154d27fff",
      "function": "updateAssetMaxSupply(address,uint256)",
      "arguments": [
        "0x6bDe934737AbD8E5cbBF37d2aDb726CeF6cd7a22",
        "31000000000000000000000"
      ],
      "transaction": {
        "from": "0xf7c7ddd2ed3ea7b745786951713f4ffef428adef",
        "to": "0x033ea50deaa8b064958fc40e34f994c154d27fff",
        "gas": "0xf5ae",
        "value": "0x0",
        "input": "0x98282a610000000000000000000000006bde934737abd8e5cbbf37d2adb726cef6cd7a22000000000000000000000000000000000000000000000690836c0af5f5600000",
        "nonce": "0x1511",
        "chainId": "0x14a34"
      },
      "additionalContracts": [],
      "isFixedGasLimit": false
    },
    {
      "hash": "0x50b0373570347eee10dbfed290ad6d5cc1ab0344a3666d97e193c8db5a06d629",
      "transactionType": "CALL",
      "contractName": null,
      "contractAddress": "0x033ea50deaa8b064958fc40e34f994c154d27fff",
      "function": "updateAssetMaxSupply(address,uint256)",
      "arguments": [
        "0x24Aab2A5c9aB642162E230f29b2057f66a24C03a",
        "15000000000000000000000"
      ],
      "transaction": {
        "from": "0xf7c7ddd2ed3ea7b745786951713f4ffef428adef",
        "to": "0x033ea50deaa8b064958fc40e34f994c154d27fff",
        "gas": "0xf5ae",
        "value": "0x0",
        "input": "0x98282a6100000000000000000000000024aab2a5c9ab642162e230f29b2057f66a24c03a00000000000000000000000000000000000000000000032d26d12e980b600000",
        "nonce": "0x1512",
        "chainId": "0x14a34"
      },
      "additionalContracts": [],
      "isFixedGasLimit": false
    },
    {
      "hash": "0x5853425606d507b28fafb564b5e8e069218f2369db475f6518f606a4dee6f617",
      "transactionType": "CALL",
      "contractName": null,
      "contractAddress": "0x033ea50deaa8b064958fc40e34f994c154d27fff",
      "function": "updateAssetMaxSupply(address,uint256)",
      "arguments": [
        "0x4972567d733dC15419FDe35c81a2a6cbbA21436d",
        "14000000000000000000000"
      ],
      "transaction": {
        "from": "0xf7c7ddd2ed3ea7b745786951713f4ffef428adef",
        "to": "0x033ea50deaa8b064958fc40e34f994c154d27fff",
        "gas": "0xf5ae",
        "value": "0x0",
        "input": "0x98282a610000000000000000000000004972567d733dc15419fde35c81a2a6cbba21436d0000000000000000000000000000000000000000000002f6f10780d22cc00000",
        "nonce": "0x1513",
        "chainId": "0x14a34"
      },
      "additionalContracts": [],
      "isFixedGasLimit": false
    },
    {
      "hash": "0x0814efa8f6b3d52ee889932f12785d26e171decb99a5eb6e47b90ce8ee3a5392",
      "transactionType": "CALL",
      "contractName": null,
      "contractAddress": "0x033ea50deaa8b064958fc40e34f994c154d27fff",
      "function": "updateAssetMaxSupply(address,uint256)",
      "arguments": [
        "0x9093Fb36F7f9d29D295a2E83CCC113AA5065a52F",
        "3400000000000000000000"
      ],
      "transaction": {
        "from": "0xf7c7ddd2ed3ea7b745786951713f4ffef428adef",
        "to": "0x033ea50deaa8b064958fc40e34f994c154d27fff",
        "gas": "0x10410",
        "value": "0x0",
        "input": "0x98282a610000000000000000000000009093fb36f7f9d29d295a2e83ccc113aa5065a52f0000000000000000000000000000000000000000000000b8507a820728200000",
        "nonce": "0x1514",
        "chainId": "0x14a34"
      },
      "additionalContracts": [],
      "isFixedGasLimit": false
    },
    {
      "hash": "0x46229512a2ae9d560296d4adec363764414694498656752b3fc794349c49cfff",
      "transactionType": "CALL",
      "contractName": null,
      "contractAddress": "0x033ea50deaa8b064958fc40e34f994c154d27fff",
      "function": "updateAssetMaxSupply(address,uint256)",
      "arguments": [
        "0x21743096381b0469e9Ed414F1fBb71014e122145",
        "8000000000000000000000"
      ],
      "transaction": {
        "from": "0xf7c7ddd2ed3ea7b745786951713f4ffef428adef",
        "to": "0x033ea50deaa8b064958fc40e34f994c154d27fff",
        "gas": "0x10410",
        "value": "0x0",
        "input": "0x98282a6100000000000000000000000021743096381b0469e9ed414f1fbb71014e1221450000000000000000000000000000000000000000000001b1ae4d6e2ef5000000",
        "nonce": "0x1515",
        "chainId": "0x14a34"
      },
      "additionalContracts": [],
      "isFixedGasLimit": false
    },
    {
      "hash": "0x5cb55785d08b6ca9b14a7f34a348ab8a2fc9f705a3bb111828f606dfe62e4b4a",
      "transactionType": "CALL",
      "contractName": null,
      "contractAddress": "0x033ea50deaa8b064958fc40e34f994c154d27fff",
      "function": "updateAssetMaxSupply(address,uint256)",
      "arguments": [
        "0xce8b6EBe3636BAEb14e4d0295C8Cd0C21e84685B",
        "9600000000000000000000"
      ],
      "transaction": {
        "from": "0xf7c7ddd2ed3ea7b745786951713f4ffef428adef",
        "to": "0x033ea50deaa8b064958fc40e34f994c154d27fff",
        "gas": "0x10410",
        "value": "0x0",
        "input": "0x98282a61000000000000000000000000ce8b6ebe3636baeb14e4d0295c8cd0c21e84685b0000000000000000000000000000000000000000000002086ac3510526000000",
        "nonce": "0x1516",
        "chainId": "0x14a34"
      },
      "additionalContracts": [],
      "isFixedGasLimit": false
    },
    {
      "hash": "0x888dda4c60d46cab403e773757d983a452875349257eeed2eac09ac8cd3bfc84",
      "transactionType": "CALL",
      "contractName": null,
      "contractAddress": "0x033ea50deaa8b064958fc40e34f994c154d27fff",
      "function": "updateAssetMaxSupply(address,uint256)",
      "arguments": [
        "0x39D9D2593f8Bb52Bfe12Bd3733c87e4978F242Be",
        "23000000000000000000000"
      ],
      "transaction": {
        "from": "0xf7c7ddd2ed3ea7b745786951713f4ffef428adef",
        "to": "0x033ea50deaa8b064958fc40e34f994c154d27fff",
        "gas": "0x10410",
        "value": "0x0",
        "input": "0x98282a6100000000000000000000000039d9d2593f8bb52bfe12bd3733c87e4978f242be0000000000000000000000000000000000000000000004ded51e9cc700600000",
        "nonce": "0x1517",
        "chainId": "0x14a34"
      },
      "additionalContracts": [],
      "isFixedGasLimit": false
    },
    {
      "hash": "0x1146e022323d2a5604e410371d2620475ecd8262e95417536e420db6569837af",
      "transactionType": "CALL",
      "contractName": null,
      "contractAddress": "0x033ea50deaa8b064958fc40e34f994c154d27fff",
      "function": "updateAssetMaxSupply(address,uint256)",
      "arguments": [
        "0x2f677b84AebE104D5F559e3f2A4D6463C4A14B36",
        "23000000000000000000000"
      ],
      "transaction": {
        "from": "0xf7c7ddd2ed3ea7b745786951713f4ffef428adef",
        "to": "0x033ea50deaa8b064958fc40e34f994c154d27fff",
        "gas": "0x10410",
        "value": "0x0",
        "input": "0x98282a610000000000000000000000002f677b84aebe104d5f559e3f2a4d6463c4a14b360000000000000000000000000000000000000000000004ded51e9cc700600000",
        "nonce": "0x1518",
        "chainId": "0x14a34"
      },
      "additionalContracts": [],
      "isFixedGasLimit": false
    },
    {
      "hash": "0xb5adbbbeaf26eda91b2bc82ec1a353383f91f9562de7bfcc5928c3dcfdb28cce",
      "transactionType": "CALL",
      "contractName": null,
      "contractAddress": "0x033ea50deaa8b064958fc40e34f994c154d27fff",
      "function": "updateAssetMaxSupply(address,uint256)",
      "arguments": [
        "0x733b737320F0bd3fE347F02257F77E7A7807bC3E",
        "24000000000000000000000"
      ],
      "transaction": {
        "from": "0xf7c7ddd2ed3ea7b745786951713f4ffef428adef",
        "to": "0x033ea50deaa8b064958fc40e34f994c154d27fff",
        "gas": "0x10410",
        "value": "0x0",
        "input": "0x98282a61000000000000000000000000733b737320f0bd3fe347f02257f77e7a7807bc3e0000000000000000000000000000000000000000000005150ae84a8cdf000000",
        "nonce": "0x1519",
        "chainId": "0x14a34"
      },
      "additionalContracts": [],
      "isFixedGasLimit": false
    },
    {
      "hash": "0x76f787b257b59ab8df8b69baa4ff31789a71df1f4ee5b7387f121ebb103cbdd0",
      "transactionType": "CALL",
      "contractName": null,
      "contractAddress": "0x033ea50deaa8b064958fc40e34f994c154d27fff",
      "function": "updateAssetMaxSupply(address,uint256)",
      "arguments": [
        "0xa185A6f1Dc798a57D42c9CD13b93e72718682321",
        "6400000000000000000000"
      ],
      "transaction": {
        "from": "0xf7c7ddd2ed3ea7b745786951713f4ffef428adef",
        "to": "0x033ea50deaa8b064958fc40e34f994c154d27fff",
        "gas": "0x10410",
        "value": "0x0",
        "input": "0x98282a61000000000000000000000000a185a6f1dc798a57d42c9cd13b93e7271868232100000000000000000000000000000000000000000000015af1d78b58c4000000",
        "nonce": "0x151a",
        "chainId": "0x14a34"
      },
      "additionalContracts": [],
      "isFixedGasLimit": false
    },
    {
      "hash": "0x511d336092616d63eb8a5786221587ab0b722fe7c27fa53caa8dd9397716e607",
      "transactionType": "CALL",
      "contractName": null,
      "contractAddress": "0x033ea50deaa8b064958fc40e34f994c154d27fff",
      "function": "updateAssetMaxSupply(address,uint256)",
      "arguments": [
        "0x8Db4f2aD2c4B07a6c5D5bBe0784Df5DB0E072706",
        "89000000000000000000000"
      ],
      "transaction": {
        "from": "0xf7c7ddd2ed3ea7b745786951713f4ffef428adef",
        "to": "0x033ea50deaa8b064958fc40e34f994c154d27fff",
        "gas": "0xf5ae",
        "value": "0x0",
        "input": "0x98282a610000000000000000000000008db4f2ad2c4b07a6c5d5bbe0784df5db0e0727060000000000000000000000000000000000000000000012d8b31d69ca65a00000",
        "nonce": "0x151b",
        "chainId": "0x14a34"
      },
      "additionalContracts": [],
      "isFixedGasLimit": false
    },
    {
      "hash": "0xa4a178b91a63f72af0e78b3c38209a90ef2624601ecbb1581dc5890ce56a53f3",
      "transactionType": "CALL",
      "contractName": null,
      "contractAddress": "0x033ea50deaa8b064958fc40e34f994c154d27fff",
      "function": "updateAssetMaxSupply(address,uint256)",
      "arguments": [
        "0x57d086092eCD0F5653a9956019C0E0fA584A246A",
        "160000000000000000000000"
      ],
      "transaction": {
        "from": "0xf7c7ddd2ed3ea7b745786951713f4ffef428adef",
        "to": "0x033ea50deaa8b064958fc40e34f994c154d27fff",
        "gas": "0x10410",
        "value": "0x0",
        "input": "0x98282a6100000000000000000000000057d086092ecd0f5653a9956019c0e0fa584a246a0000000000000000000000000000000000000000000021e19e0c9bab24000000",
        "nonce": "0x151c",
        "chainId": "0x14a34"
      },
      "additionalContracts": [],
      "isFixedGasLimit": false
    },
    {
      "hash": "0x6ce8032594f8f414c930762c63ccfc3645b897e6bd1989693d07339a59ad19d5",
      "transactionType": "CALL",
      "contractName": null,
      "contractAddress": "0x033ea50deaa8b064958fc40e34f994c154d27fff",
      "function": "updateAssetMaxSupply(address,uint256)",
      "arguments": [
        "0xbA9aa9fDBAE1040D9D74612A899dF2455957aA22",
        "16000000000000000000000"
      ],
      "transaction": {
        "from": "0xf7c7ddd2ed3ea7b745786951713f4ffef428adef",
        "to": "0x033ea50deaa8b064958fc40e34f994c154d27fff",
        "gas": "0x10410",
        "value": "0x0",
        "input": "0x98282a61000000000000000000000000ba9aa9fdbae1040d9d74612a899df2455957aa220000000000000000000000000000000000000000000003635c9adc5dea000000",
        "nonce": "0x151d",
        "chainId": "0x14a34"
      },
      "additionalContracts": [],
      "isFixedGasLimit": false
    },
    {
      "hash": "0xb23561e2cc20cf453469626f8ccc227d7b4b9377ed91799404c9da7cec5a281d",
      "transactionType": "CALL",
      "contractName": null,
      "contractAddress": "0x033ea50deaa8b064958fc40e34f994c154d27fff",
      "function": "updateAssetMaxSupply(address,uint256)",
      "arguments": [
        "0x84D82024e8B7D504Ca33f237C64B7f218eee607f",
        "200000000000000000000000"
      ],
      "transaction": {
        "from": "0xf7c7ddd2ed3ea7b745786951713f4ffef428adef",
        "to": "0x033ea50deaa8b064958fc40e34f994c154d27fff",
        "gas": "0x10410",
        "value": "0x0",
        "input": "0x98282a6100000000000000000000000084d82024e8b7d504ca33f237c64b7f218eee607f000000000000000000000000000000000000000000002a5a058fc295ed000000",
        "nonce": "0x151e",
        "chainId": "0x14a34"
      },
      "additionalContracts": [],
      "isFixedGasLimit": false
    },
    {
      "hash": "0xb131b75eb9617019b1f756c3045908a7c035e6639fb0ef0ef1eb7b6ab6800dda",
      "transactionType": "CALL",
      "contractName": null,
      "contractAddress": "0x033ea50deaa8b064958fc40e34f994c154d27fff",
      "function": "updateAssetMaxSupply(address,uint256)",
      "arguments": [
        "0x1317BD6371749e911c96F01d0305A9E23Ef3ABfe",
        "20000000000000000000000"
      ],
      "transaction": {
        "from": "0xf7c7ddd2ed3ea7b745786951713f4ffef428adef",
        "to": "0x033ea50deaa8b064958fc40e34f994c154d27fff",
        "gas": "0xf5ae",
        "value": "0x0",
        "input": "0x98282a610000000000000000000000001317bd6371749e911c96f01d0305a9e23ef3abfe00000000000000000000000000000000000000000000043c33c1937564800000",
        "nonce": "0x151f",
        "chainId": "0x14a34"
      },
      "additionalContracts": [],
      "isFixedGasLimit": false
    },
    {
      "hash": "0x03bb91fa9bd37318142ea060ec4afb7d0a78694248a46dbe55a4425218a13f42",
      "transactionType": "CALL",
      "contractName": null,
      "contractAddress": "0x033ea50deaa8b064958fc40e34f994c154d27fff",
      "function": "updateAssetMaxSupply(address,uint256)",
      "arguments": [
        "0xDef987Ab8663288e4D50124781Bf2aD12681db50",
        "100000000000000000000000"
      ],
      "transaction": {
        "from": "0xf7c7ddd2ed3ea7b745786951713f4ffef428adef",
        "to": "0x033ea50deaa8b064958fc40e34f994c154d27fff",
        "gas": "0xf5ae",
        "value": "0x0",
        "input": "0x98282a61000000000000000000000000def987ab8663288e4d50124781bf2ad12681db5000000000000000000000000000000000000000000000152d02c7e14af6800000",
        "nonce": "0x1520",
        "chainId": "0x14a34"
      },
      "additionalContracts": [],
      "isFixedGasLimit": false
    },
    {
      "hash": "0x0b9b1edb81fe231f6d3b74b35be74e8b95f44ccf787b0559d962bfe9a485bdc6",
      "transactionType": "CALL",
      "contractName": null,
      "contractAddress": "0x033ea50deaa8b064958fc40e34f994c154d27fff",
      "function": "updateAssetMaxSupply(address,uint256)",
      "arguments": [
        "0x5fe0Ed58e69A16A897943ebad7C88C3aA65D6bFc",
        "8600000000000000000000"
      ],
      "transaction": {
        "from": "0xf7c7ddd2ed3ea7b745786951713f4ffef428adef",
        "to": "0x033ea50deaa8b064958fc40e34f994c154d27fff",
        "gas": "0xf5ae",
        "value": "0x0",
        "input": "0x98282a610000000000000000000000005fe0ed58e69a16a897943ebad7c88c3aa65d6bfc0000000000000000000000000000000000000000000001d234f9a33f47600000",
        "nonce": "0x1521",
        "chainId": "0x14a34"
      },
      "additionalContracts": [],
      "isFixedGasLimit": false
    },
    {
      "hash": "0xa6c0e49d7016837fa0282467d0760cf5f5472114d87281cc42b6855187eba5be",
      "transactionType": "CALL",
      "contractName": null,
      "contractAddress": "0x033ea50deaa8b064958fc40e34f994c154d27fff",
      "function": "updateAssetMaxSupply(address,uint256)",
      "arguments": [
        "0xA8411Ea314e74AFCB6e2B990e7c708E28Ad585Ea",
        "16000000000000000000000"
      ],
      "transaction": {
        "from": "0xf7c7ddd2ed3ea7b745786951713f4ffef428adef",
        "to": "0x033ea50deaa8b064958fc40e34f994c154d27fff",
        "gas": "0x10410",
        "value": "0x0",
        "input": "0x98282a61000000000000000000000000a8411ea314e74afcb6e2b990e7c708e28ad585ea0000000000000000000000000000000000000000000003635c9adc5dea000000",
        "nonce": "0x1522",
        "chainId": "0x14a34"
      },
      "additionalContracts": [],
      "isFixedGasLimit": false
    },
    {
      "hash": "0x7338d4a7f69283f6280621add3eea682bdac62e598984aaeb392eff0e9c39f20",
      "transactionType": "CALL",
      "contractName": null,
      "contractAddress": "0x033ea50deaa8b064958fc40e34f994c154d27fff",
      "function": "updateAssetMaxSupply(address,uint256)",
      "arguments": [
        "0x556edf4dE518210219d6c978f30aaFb55eb6906D",
        "40000000000000000000000"
      ],
      "transaction": {
        "from": "0xf7c7ddd2ed3ea7b745786951713f4ffef428adef",
        "to": "0x033ea50deaa8b064958fc40e34f994c154d27fff",
        "gas": "0x10410",
        "value": "0x0",
        "input": "0x98282a61000000000000000000000000556edf4de518210219d6c978f30aafb55eb6906d000000000000000000000000000000000000000000000878678326eac9000000",
        "nonce": "0x1523",
        "chainId": "0x14a34"
      },
      "additionalContracts": [],
      "isFixedGasLimit": false
    },
    {
      "hash": "0x968f308562a303783e5ee2cd786f1660ab227e835934cb5e37c67d2b683e1178",
      "transactionType": "CALL",
      "contractName": null,
      "contractAddress": "0x033ea50deaa8b064958fc40e34f994c154d27fff",
      "function": "updateAssetMaxSupply(address,uint256)",
      "arguments": [
        "0xDaBD1E1E6A6b772Fa424f5F72E49Cb89aA47DD14",
        "20000000000000000000000"
      ],
      "transaction": {
        "from": "0xf7c7ddd2ed3ea7b745786951713f4ffef428adef",
        "to": "0x033ea50deaa8b064958fc40e34f994c154d27fff",
        "gas": "0xf5ae",
        "value": "0x0",
        "input": "0x98282a61000000000000000000000000dabd1e1e6a6b772fa424f5f72e49cb89aa47dd1400000000000000000000000000000000000000000000043c33c1937564800000",
        "nonce": "0x1524",
        "chainId": "0x14a34"
      },
      "additionalContracts": [],
      "isFixedGasLimit": false
    },
    {
      "hash": "0x93e3b6e4fa85bf90d02fe56089fa7e5f5099dbc79353f5f86cce4d67bd1a0832",
      "transactionType": "CALL",
      "contractName": null,
      "contractAddress": "0x033ea50deaa8b064958fc40e34f994c154d27fff",
      "function": "updateAssetMaxSupply(address,uint256)",
      "arguments": [
        "0x6f6BA9a74160BB02F2EA43F58A24bD90CCd30f2F",
        "50000000000000000000000"
      ],
      "transaction": {
        "from": "0xf7c7ddd2ed3ea7b745786951713f4ffef428adef",
        "to": "0x033ea50deaa8b064958fc40e34f994c154d27fff",
        "gas": "0xf5ae",
        "value": "0x0",
        "input": "0x98282a610000000000000000000000006f6ba9a74160bb02f2ea43f58a24bd90ccd30f2f000000000000000000000000000000000000000000000a968163f0a57b400000",
        "nonce": "0x1525",
        "chainId": "0x14a34"
      },
      "additionalContracts": [],
      "isFixedGasLimit": false
    },
    {
      "hash": "0x81d88ef207348310fd353d86eccacc40d74bbb56f7157d4077a238065262cf00",
      "transactionType": "CALL",
      "contractName": null,
      "contractAddress": "0x033ea50deaa8b064958fc40e34f994c154d27fff",
      "function": "updateAssetMaxSupply(address,uint256)",
      "arguments": [
        "0x57475ec3590A24A0B791372545280252610f254B",
        "7700000000000000000000"
      ],
      "transaction": {
        "from": "0xf7c7ddd2ed3ea7b745786951713f4ffef428adef",
        "to": "0x033ea50deaa8b064958fc40e34f994c154d27fff",
        "gas": "0xf5ae",
        "value": "0x0",
        "input": "0x98282a6100000000000000000000000057475ec3590a24a0b791372545280252610f254b0000000000000000000000000000000000000000000001a16af753a6cbd00000",
        "nonce": "0x1526",
        "chainId": "0x14a34"
      },
      "additionalContracts": [],
      "isFixedGasLimit": false
    },
    {
      "hash": "0x6389f43a450d1b55fd738cf3ecf8c878077aa3050493c418bbc3904a8854bf52",
      "transactionType": "CALL",
      "contractName": null,
      "contractAddress": "0x033ea50deaa8b064958fc40e34f994c154d27fff",
      "function": "updateAssetMaxSupply(address,uint256)",
      "arguments": [
        "0x36ee8B10Caed9AfC24654b8a082A8A8Eb081F8B4",
        "9100000000000000000000"
      ],
      "transaction": {
        "from": "0xf7c7ddd2ed3ea7b745786951713f4ffef428adef",
        "to": "0x033ea50deaa8b064958fc40e34f994c154d27fff",
        "gas": "0xf5ae",
        "value": "0x0",
        "input": "0x98282a6100000000000000000000000036ee8b10caed9afc24654b8a082a8a8eb081f8b40000000000000000000000000000000000000000000001ed4fde7a2236b00000",
        "nonce": "0x1527",
        "chainId": "0x14a34"
      },
      "additionalContracts": [],
      "isFixedGasLimit": false
    },
    {
      "hash": "0x96107485504503c6324f9d723659438347725c00a5fa1273535ed535838d7d50",
      "transactionType": "CALL",
      "contractName": null,
      "contractAddress": "0x033ea50deaa8b064958fc40e34f994c154d27fff",
      "function": "updateAssetMaxSupply(address,uint256)",
      "arguments": [
        "0x058aB338562B32A6bcc40641208C487Bb323B570",
        "11000000000000000000000"
      ],
      "transaction": {
        "from": "0xf7c7ddd2ed3ea7b745786951713f4ffef428adef",
        "to": "0x033ea50deaa8b064958fc40e34f994c154d27fff",
        "gas": "0xf5ae",
        "value": "0x0",
        "input": "0x98282a61000000000000000000000000058ab338562b32a6bcc40641208c487bb323b5700000000000000000000000000000000000000000000002544faa778090e00000",
        "nonce": "0x1528",
        "chainId": "0x14a34"
      },
      "additionalContracts": [],
      "isFixedGasLimit": false
    },
    {
      "hash": "0x685a12def5189d287cd12f40960a7000019bb68ab8afbf977534822b183b366b",
      "transactionType": "CALL",
      "contractName": null,
      "contractAddress": "0x033ea50deaa8b064958fc40e34f994c154d27fff",
      "function": "updateAssetMaxSupply(address,uint256)",
      "arguments": [
        "0x06d9c5F15433934810b8632F034b66Fe823B9d75",
        "20000000000000000000000"
      ],
      "transaction": {
        "from": "0xf7c7ddd2ed3ea7b745786951713f4ffef428adef",
        "to": "0x033ea50deaa8b064958fc40e34f994c154d27fff",
        "gas": "0xf5ae",
        "value": "0x0",
        "input": "0x98282a6100000000000000000000000006d9c5f15433934810b8632f034b66fe823b9d7500000000000000000000000000000000000000000000043c33c1937564800000",
        "nonce": "0x1529",
        "chainId": "0x14a34"
      },
      "additionalContracts": [],
      "isFixedGasLimit": false
    },
    {
      "hash": "0x2598836c8b89f294fbc66b1d19d782753bf15d002d3e19fd2e5f24be584cf1ac",
      "transactionType": "CALL",
      "contractName": null,
      "contractAddress": "0x033ea50deaa8b064958fc40e34f994c154d27fff",
      "function": "updateAssetMaxSupply(address,uint256)",
      "arguments": [
        "0x8013f8c8dC7b73CC49eA5D36A45FCAacAd42a634",
        "445000000000000000000000"
      ],
      "transaction": {
        "from": "0xf7c7ddd2ed3ea7b745786951713f4ffef428adef",
        "to": "0x033ea50deaa8b064958fc40e34f994c154d27fff",
        "gas": "0xf5ae",
        "value": "0x0",
        "input": "0x98282a610000000000000000000000008013f8c8dc7b73cc49ea5d36a45fcaacad42a634000000000000000000000000000000000000000000005e3b7f9310f3fc200000",
        "nonce": "0x152a",
        "chainId": "0x14a34"
      },
      "additionalContracts": [],
      "isFixedGasLimit": false
    },
    {
      "hash": "0x82f062cb64ac7318ef9ed3fcc2fe5f630a5222a64977c56c2c66b2896955cbc5",
      "transactionType": "CALL",
      "contractName": null,
      "contractAddress": "0x033ea50deaa8b064958fc40e34f994c154d27fff",
      "function": "updateAssetMaxSupply(address,uint256)",
      "arguments": [
        "0x3C335e06063f6c02f31132b1f8a651C0bDE8218D",
        "3740000000000000000000000"
      ],
      "transaction": {
        "from": "0xf7c7ddd2ed3ea7b745786951713f4ffef428adef",
        "to": "0x033ea50deaa8b064958fc40e34f994c154d27fff",
        "gas": "0x10434",
        "value": "0x0",
        "input": "0x98282a610000000000000000000000003c335e06063f6c02f31132b1f8a651c0bde8218d0000000000000000000000000000000000000000000317f9ce66b6c069800000",
        "nonce": "0x152b",
        "chainId": "0x14a34"
      },
      "additionalContracts": [],
      "isFixedGasLimit": false
    },
    {
      "hash": "0x93e4758560ec22c55aba3361da744fc75f79d4acc00129c2e223124a1fba3c25",
      "transactionType": "CALL",
      "contractName": null,
      "contractAddress": "0x033ea50deaa8b064958fc40e34f994c154d27fff",
      "function": "updateAssetMaxSupply(address,uint256)",
      "arguments": [
        "0x37d32890F63D6aeC1F6C2Bfc4885A1B905C147D0",
        "50000000000000000000000"
      ],
      "transaction": {
        "from": "0xf7c7ddd2ed3ea7b745786951713f4ffef428adef",
        "to": "0x033ea50deaa8b064958fc40e34f994c154d27fff",
        "gas": "0xf5ae",
        "value": "0x0",
        "input": "0x98282a6100000000000000000000000037d32890f63d6aec1f6c2bfc4885a1b905c147d0000000000000000000000000000000000000000000000a968163f0a57b400000",
        "nonce": "0x152c",
        "chainId": "0x14a34"
      },
      "additionalContracts": [],
      "isFixedGasLimit": false
    },
    {
      "hash": "0x59f8091235831c0c8b7438cb06a7b0307a5bcb1e7e9814752af67f69091b874f",
      "transactionType": "CALL",
      "contractName": null,
      "contractAddress": "0x033ea50deaa8b064958fc40e34f994c154d27fff",
      "function": "updateAssetMaxSupply(address,uint256)",
      "arguments": [
        "0x3D5f5004ef3Bd1bcB03F578784757a5a67795F29",
        "54000000000000000000000"
      ],
      "transaction": {
        "from": "0xf7c7ddd2ed3ea7b745786951713f4ffef428adef",
        "to": "0x033ea50deaa8b064958fc40e34f994c154d27fff",
        "gas": "0xf5ae",
        "value": "0x0",
        "input": "0x98282a610000000000000000000000003d5f5004ef3bd1bcb03f578784757a5a67795f29000000000000000000000000000000000000000000000b6f588aa7bcf5c00000",
        "nonce": "0x152d",
        "chainId": "0x14a34"
      },
      "additionalContracts": [],
      "isFixedGasLimit": false
    },
    {
      "hash": "0x40b998e8f19424345c0154501bf10e920d4c0ff0f7a38354074b8b97642e76a4",
      "transactionType": "CALL",
      "contractName": null,
      "contractAddress": "0x033ea50deaa8b064958fc40e34f994c154d27fff",
      "function": "updateAssetMaxSupply(address,uint256)",
      "arguments": [
        "0x114ED53a68230fFf4F1F4277e3d946eef90A0334",
        "1800000000000000000000"
      ],
      "transaction": {
        "from": "0xf7c7ddd2ed3ea7b745786951713f4ffef428adef",
        "to": "0x033ea50deaa8b064958fc40e34f994c154d27fff",
        "gas": "0x10410",
        "value": "0x0",
        "input": "0x98282a61000000000000000000000000114ed53a68230fff4f1f4277e3d946eef90a033400000000000000000000000000000000000000000000006194049f30f7200000",
        "nonce": "0x152e",
        "chainId": "0x14a34"
      },
      "additionalContracts": [],
      "isFixedGasLimit": false
    },
    {
      "hash": "0xea3be2dc36b6499e1a5ab02370a6946fc93c0af72dbca23dbefc5ba64455d85b",
      "transactionType": "CALL",
      "contractName": null,
      "contractAddress": "0x033ea50deaa8b064958fc40e34f994c154d27fff",
      "function": "updateAssetMaxSupply(address,uint256)",
      "arguments": [
        "0x27fAA3E80f9D791eE3dA9D6A8F5407Fa1BD2D28f",
        "135000000000000000000000"
      ],
      "transaction": {
        "from": "0xf7c7ddd2ed3ea7b745786951713f4ffef428adef",
        "to": "0x033ea50deaa8b064958fc40e34f994c154d27fff",
        "gas": "0xf5ae",
        "value": "0x0",
        "input": "0x98282a6100000000000000000000000027faa3e80f9d791ee3da9d6a8f5407fa1bd2d28f000000000000000000000000000000000000000000001c965d5aa35866600000",
        "nonce": "0x152f",
        "chainId": "0x14a34"
      },
      "additionalContracts": [],
      "isFixedGasLimit": false
    },
    {
      "hash": "0x535185ee542d41dac6722688a27570df10753a13e6e0fc1ffdd8a0008d049f91",
      "transactionType": "CALL",
      "contractName": null,
      "contractAddress": "0x033ea50deaa8b064958fc40e34f994c154d27fff",
      "function": "updateAssetMaxSupply(address,uint256)",
      "arguments": [
        "0x2bA7c85A45767443f44274331f20299755B17C2f",
        "4400000000000000000000"
      ],
      "transaction": {
        "from": "0xf7c7ddd2ed3ea7b745786951713f4ffef428adef",
        "to": "0x033ea50deaa8b064958fc40e34f994c154d27fff",
        "gas": "0x10410",
        "value": "0x0",
        "input": "0x98282a610000000000000000000000002ba7c85a45767443f44274331f20299755b17c2f0000000000000000000000000000000000000000000000ee86442fcd06c00000",
        "nonce": "0x1530",
        "chainId": "0x14a34"
      },
      "additionalContracts": [],
      "isFixedGasLimit": false
    },
    {
      "hash": "0x5ddb6341c15072b8ba58763a526e725df06b6dc0bfc9487e20c72ba72dc7b66c",
      "transactionType": "CALL",
      "contractName": null,
      "contractAddress": "0x033ea50deaa8b064958fc40e34f994c154d27fff",
      "function": "updateAssetMaxSupply(address,uint256)",
      "arguments": [
        "0xb9936ac3eE6b30C82587dAf7F2fF417758aaCe78",
        "3900000000000000000000"
      ],
      "transaction": {
        "from": "0xf7c7ddd2ed3ea7b745786951713f4ffef428adef",
        "to": "0x033ea50deaa8b064958fc40e34f994c154d27fff",
        "gas": "0x10410",
        "value": "0x0",
        "input": "0x98282a61000000000000000000000000b9936ac3ee6b30c82587daf7f2ff417758aace780000000000000000000000000000000000000000000000d36b5f58ea17700000",
        "nonce": "0x1531",
        "chainId": "0x14a34"
      },
      "additionalContracts": [],
      "isFixedGasLimit": false
    }
  ],
  "receipts": [
    {
      "status": "0x1",
      "cumulativeGasUsed": "0x25a2da",
      "logs": [
        {
          "address": "0x033ea50deaa8b064958fc40e34f994c154d27fff",
          "topics": [
            "0x575871bc0b98c7891a21b46fe2ef187e4719714907cbb9b7a21ba7cf14746623",
            "0x000000000000000000000000430ad0bf065d3c677d833646e629d69eb99b7afa"
          ],
          "data": "0x000000000000000000000000000000000000000000000002b5e3af16b1880000",
          "blockHash": "0xb42492c20d2485da585118a15bad1c0c58f884e503bdb4522a0cf9ed420861e0",
          "blockNumber": "0x2087b3a",
          "blockTimestamp": "0x69245554",
          "transactionHash": "0x1ce576554edcce8f8b0041937fbc8d4309e4d50c6d71c4df2c08987b7c36a35e",
          "transactionIndex": "0x8",
          "logIndex": "0x40",
          "removed": false
        }
      ],
      "logsBloom": "0x00000000000000000000000000000000000000000040000000000000000000000000080000000000000000000000000000000000000020000000000000000000000000000000000000000000000000000000000000000000000000000000000000000000000000000000000000000000000000000000000000000000000000000000000000000000000000000000000000000000000000000000000000000000000000000000040000000000000000008000000080000000000000000000000000000000000000000000000000000000000000000002000000000000000000000000000000000000000000000000000000000000000000000000000000000012",
      "type": "0x2",
      "transactionHash": "0x1ce576554edcce8f8b0041937fbc8d4309e4d50c6d71c4df2c08987b7c36a35e",
      "transactionIndex": "0x8",
      "blockHash": "0xb42492c20d2485da585118a15bad1c0c58f884e503bdb4522a0cf9ed420861e0",
      "blockNumber": "0x2087b3a",
      "gasUsed": "0xb1d3",
      "effectiveGasPrice": "0x124f80",
      "blobGasUsed": "0x79e0",
      "from": "0xf7c7ddd2ed3ea7b745786951713f4ffef428adef",
      "to": "0x033ea50deaa8b064958fc40e34f994c154d27fff",
      "contractAddress": null,
      "daFootprintGasScalar": "0x138",
      "l1BaseFeeScalar": "0x44d",
      "l1BlobBaseFee": "0x1",
      "l1BlobBaseFeeScalar": "0xa118b",
      "l1Fee": "0x55",
      "l1GasPrice": "0xb",
      "l1GasUsed": "0x640"
    },
    {
      "status": "0x1",
      "cumulativeGasUsed": "0x2654ad",
      "logs": [
        {
          "address": "0x033ea50deaa8b064958fc40e34f994c154d27fff",
          "topics": [
            "0x575871bc0b98c7891a21b46fe2ef187e4719714907cbb9b7a21ba7cf14746623",
            "0x0000000000000000000000004f24bdfe9f375e8ba9aca6247daaa8624cc4a02e"
          ],
          "data": "0x00000000000000000000000000000000000000000000005150ae84a8cdf00000",
          "blockHash": "0xb42492c20d2485da585118a15bad1c0c58f884e503bdb4522a0cf9ed420861e0",
          "blockNumber": "0x2087b3a",
          "blockTimestamp": "0x69245554",
          "transactionHash": "0x353ec19f9cde95a6c2ffdd499d99e4bdbd08a0fd12ff7d43c494ea2e31b23f79",
          "transactionIndex": "0x9",
          "logIndex": "0x41",
          "removed": false
        }
      ],
      "logsBloom": "0x00000000000000000000000000000000000000000000000000000000000000000000080000000000000000000000000000000000000020000000000000000000000000000000000000000000000000000000000000000000000000000000000000000000000000000000000000000000000000000000000000000000000000000000000000000000000000000000000000000000000000000000000400000000000000000000040000000002000000008000000080000000000000000400000000000000000000000000000000000000000000000002000000000000000000000000000000000000000000000000000000000000000000000000000000000000",
      "type": "0x2",
      "transactionHash": "0x353ec19f9cde95a6c2ffdd499d99e4bdbd08a0fd12ff7d43c494ea2e31b23f79",
      "transactionIndex": "0x9",
      "blockHash": "0xb42492c20d2485da585118a15bad1c0c58f884e503bdb4522a0cf9ed420861e0",
      "blockNumber": "0x2087b3a",
      "gasUsed": "0xb1d3",
      "effectiveGasPrice": "0x124f80",
      "blobGasUsed": "0x79e0",
      "from": "0xf7c7ddd2ed3ea7b745786951713f4ffef428adef",
      "to": "0x033ea50deaa8b064958fc40e34f994c154d27fff",
      "contractAddress": null,
      "daFootprintGasScalar": "0x138",
      "l1BaseFeeScalar": "0x44d",
      "l1BlobBaseFee": "0x1",
      "l1BlobBaseFeeScalar": "0xa118b",
      "l1Fee": "0x55",
      "l1GasPrice": "0xb",
      "l1GasUsed": "0x640"
    },
    {
      "status": "0x1",
      "cumulativeGasUsed": "0x27068c",
      "logs": [
        {
          "address": "0x033ea50deaa8b064958fc40e34f994c154d27fff",
          "topics": [
            "0x575871bc0b98c7891a21b46fe2ef187e4719714907cbb9b7a21ba7cf14746623",
            "0x0000000000000000000000006bde934737abd8e5cbbf37d2adb726cef6cd7a22"
          ],
          "data": "0x000000000000000000000000000000000000000000000690836c0af5f5600000",
          "blockHash": "0xb42492c20d2485da585118a15bad1c0c58f884e503bdb4522a0cf9ed420861e0",
          "blockNumber": "0x2087b3a",
          "blockTimestamp": "0x69245554",
          "transactionHash": "0xe5d0c435355b8434e63a7a3b725da65f98692c8471292ac37b162bc617d80cb9",
          "transactionIndex": "0xa",
          "logIndex": "0x42",
          "removed": false
        }
      ],
      "logsBloom": "0x00000000000000000000000000000000000000000000000000000000000000000000080000000000000000000000000000000000000020000000000000000000000000010000000000000000000000000000000000000000000000000000000000000000002000000000000000000000000000000000000000000000000000000000000000000000000000000000000000000000000000400000000000000000000000000000040000000000000000008000000080000000000000000000000000000000000000000000000000000000000000000002000000000000000000000000000000000000000000000000000000000000000000000000000000000000",
      "type": "0x2",
      "transactionHash": "0xe5d0c435355b8434e63a7a3b725da65f98692c8471292ac37b162bc617d80cb9",
      "transactionIndex": "0xa",
      "blockHash": "0xb42492c20d2485da585118a15bad1c0c58f884e503bdb4522a0cf9ed420861e0",
      "blockNumber": "0x2087b3a",
      "gasUsed": "0xb1df",
      "effectiveGasPrice": "0x124f80",
      "blobGasUsed": "0x79e0",
      "from": "0xf7c7ddd2ed3ea7b745786951713f4ffef428adef",
      "to": "0x033ea50deaa8b064958fc40e34f994c154d27fff",
      "contractAddress": null,
      "daFootprintGasScalar": "0x138",
      "l1BaseFeeScalar": "0x44d",
      "l1BlobBaseFee": "0x1",
      "l1BlobBaseFeeScalar": "0xa118b",
      "l1Fee": "0x55",
      "l1GasPrice": "0xb",
      "l1GasUsed": "0x640"
    },
    {
      "status": "0x1",
      "cumulativeGasUsed": "0x27b86b",
      "logs": [
        {
          "address": "0x033ea50deaa8b064958fc40e34f994c154d27fff",
          "topics": [
            "0x575871bc0b98c7891a21b46fe2ef187e4719714907cbb9b7a21ba7cf14746623",
            "0x00000000000000000000000024aab2a5c9ab642162e230f29b2057f66a24c03a"
          ],
          "data": "0x00000000000000000000000000000000000000000000032d26d12e980b600000",
          "blockHash": "0xb42492c20d2485da585118a15bad1c0c58f884e503bdb4522a0cf9ed420861e0",
          "blockNumber": "0x2087b3a",
          "blockTimestamp": "0x69245554",
          "transactionHash": "0x50b0373570347eee10dbfed290ad6d5cc1ab0344a3666d97e193c8db5a06d629",
          "transactionIndex": "0xb",
          "logIndex": "0x43",
          "removed": false
        }
      ],
      "logsBloom": "0x00000000000000000000000000000000000000000000000000000000000000000000080000000000000000000000000000000000000020000000000000000000800000000000000000000000000000000000000000000000000000000000000000000000000000000000000000000000000000000000000000000000000000000000000000000000000000000080000000000000000000000000000000000000000000000000040000000100000000008000000080000000000000000000000000000000000000000000000000000000000000000002000000000000000000000000000000000000000000000000000000000000000000000000000000000000",
      "type": "0x2",
      "transactionHash": "0x50b0373570347eee10dbfed290ad6d5cc1ab0344a3666d97e193c8db5a06d629",
      "transactionIndex": "0xb",
      "blockHash": "0xb42492c20d2485da585118a15bad1c0c58f884e503bdb4522a0cf9ed420861e0",
      "blockNumber": "0x2087b3a",
      "gasUsed": "0xb1df",
      "effectiveGasPrice": "0x124f80",
      "blobGasUsed": "0x79e0",
      "from": "0xf7c7ddd2ed3ea7b745786951713f4ffef428adef",
      "to": "0x033ea50deaa8b064958fc40e34f994c154d27fff",
      "contractAddress": null,
      "daFootprintGasScalar": "0x138",
      "l1BaseFeeScalar": "0x44d",
      "l1BlobBaseFee": "0x1",
      "l1BlobBaseFeeScalar": "0xa118b",
      "l1Fee": "0x55",
      "l1GasPrice": "0xb",
      "l1GasUsed": "0x640"
    },
    {
      "status": "0x1",
      "cumulativeGasUsed": "0x286a4a",
      "logs": [
        {
          "address": "0x033ea50deaa8b064958fc40e34f994c154d27fff",
          "topics": [
            "0x575871bc0b98c7891a21b46fe2ef187e4719714907cbb9b7a21ba7cf14746623",
            "0x0000000000000000000000004972567d733dc15419fde35c81a2a6cbba21436d"
          ],
          "data": "0x0000000000000000000000000000000000000000000002f6f10780d22cc00000",
          "blockHash": "0xb42492c20d2485da585118a15bad1c0c58f884e503bdb4522a0cf9ed420861e0",
          "blockNumber": "0x2087b3a",
          "blockTimestamp": "0x69245554",
          "transactionHash": "0x5853425606d507b28fafb564b5e8e069218f2369db475f6518f606a4dee6f617",
          "transactionIndex": "0xc",
          "logIndex": "0x44",
          "removed": false
        }
      ],
      "logsBloom": "0x00000000000000000000000200000000000000000000000000000000000000000000080000000000000000000400000000000000000020000000000000000000000000000000000000000000000000000000000000000000000400000000000000000000000000000000000000000000000000000000000000000000000000000000000000000000000000000000000000000000000000000000000000000000000000000000040000000000000000008000000080000000000000000000000000000000000000000000000000000000000000000002000000000000000000000000000000000000000000000000000000000000000000000000000000000000",
      "type": "0x2",
      "transactionHash": "0x5853425606d507b28fafb564b5e8e069218f2369db475f6518f606a4dee6f617",
      "transactionIndex": "0xc",
      "blockHash": "0xb42492c20d2485da585118a15bad1c0c58f884e503bdb4522a0cf9ed420861e0",
      "blockNumber": "0x2087b3a",
      "gasUsed": "0xb1df",
      "effectiveGasPrice": "0x124f80",
      "blobGasUsed": "0x79e0",
      "from": "0xf7c7ddd2ed3ea7b745786951713f4ffef428adef",
      "to": "0x033ea50deaa8b064958fc40e34f994c154d27fff",
      "contractAddress": null,
      "daFootprintGasScalar": "0x138",
      "l1BaseFeeScalar": "0x44d",
      "l1BlobBaseFee": "0x1",
      "l1BlobBaseFeeScalar": "0xa118b",
      "l1Fee": "0x55",
      "l1GasPrice": "0xb",
      "l1GasUsed": "0x640"
    },
    {
      "status": "0x1",
      "cumulativeGasUsed": "0x291c1d",
      "logs": [
        {
          "address": "0x033ea50deaa8b064958fc40e34f994c154d27fff",
          "topics": [
            "0x575871bc0b98c7891a21b46fe2ef187e4719714907cbb9b7a21ba7cf14746623",
            "0x0000000000000000000000009093fb36f7f9d29d295a2e83ccc113aa5065a52f"
          ],
          "data": "0x0000000000000000000000000000000000000000000000b8507a820728200000",
          "blockHash": "0xb42492c20d2485da585118a15bad1c0c58f884e503bdb4522a0cf9ed420861e0",
          "blockNumber": "0x2087b3a",
          "blockTimestamp": "0x69245554",
          "transactionHash": "0x0814efa8f6b3d52ee889932f12785d26e171decb99a5eb6e47b90ce8ee3a5392",
          "transactionIndex": "0xd",
          "logIndex": "0x45",
          "removed": false
        }
      ],
      "logsBloom": "0x00000000000000000000000000000000000000004000000000000000000000000000080000000000000000000000000000000000000020000000000000000000000000000000000000000000000000000000000000000000000000000000000000000000000000000000000000000000000000000000000000000000000000000000000000000000000000000000000000000000010000000000000000000000000000000000040000000000000000008000000080000000000000000000000000000000000000000000000000000000004000000002000000000000000000000000000000000000000000000000000000000000000000000000000000000000",
      "type": "0x2",
      "transactionHash": "0x0814efa8f6b3d52ee889932f12785d26e171decb99a5eb6e47b90ce8ee3a5392",
      "transactionIndex": "0xd",
      "blockHash": "0xb42492c20d2485da585118a15bad1c0c58f884e503bdb4522a0cf9ed420861e0",
      "blockNumber": "0x2087b3a",
      "gasUsed": "0xb1d3",
      "effectiveGasPrice": "0x124f80",
      "blobGasUsed": "0x79e0",
      "from": "0xf7c7ddd2ed3ea7b745786951713f4ffef428adef",
      "to": "0x033ea50deaa8b064958fc40e34f994c154d27fff",
      "contractAddress": null,
      "daFootprintGasScalar": "0x138",
      "l1BaseFeeScalar": "0x44d",
      "l1BlobBaseFee": "0x1",
      "l1BlobBaseFeeScalar": "0xa118b",
      "l1Fee": "0x55",
      "l1GasPrice": "0xb",
      "l1GasUsed": "0x640"
    },
    {
      "status": "0x1",
      "cumulativeGasUsed": "0x29cdf0",
      "logs": [
        {
          "address": "0x033ea50deaa8b064958fc40e34f994c154d27fff",
          "topics": [
            "0x575871bc0b98c7891a21b46fe2ef187e4719714907cbb9b7a21ba7cf14746623",
            "0x00000000000000000000000021743096381b0469e9ed414f1fbb71014e122145"
          ],
          "data": "0x0000000000000000000000000000000000000000000001b1ae4d6e2ef5000000",
          "blockHash": "0xb42492c20d2485da585118a15bad1c0c58f884e503bdb4522a0cf9ed420861e0",
          "blockNumber": "0x2087b3a",
          "blockTimestamp": "0x69245554",
          "transactionHash": "0x46229512a2ae9d560296d4adec363764414694498656752b3fc794349c49cfff",
          "transactionIndex": "0xe",
          "logIndex": "0x46",
          "removed": false
        }
      ],
      "logsBloom": "0x00000000000000000000000000000000000000000000000020000000000000000000080000000000000000000000000000000000000020000000000000000000000000000000000000000000000000000000000004000000000000000000000000000000000000000000000000000000000000000000000000000000000000000000000000000000000000000000000000000000000000000000000000000000000000000000040000000000000000008000000080000000000000000000000000000000000002000000000000000000000000000002000000000000000000000000000000000000000000000000000000000000000000000000000000000000",
      "type": "0x2",
      "transactionHash": "0x46229512a2ae9d560296d4adec363764414694498656752b3fc794349c49cfff",
      "transactionIndex": "0xe",
      "blockHash": "0xb42492c20d2485da585118a15bad1c0c58f884e503bdb4522a0cf9ed420861e0",
      "blockNumber": "0x2087b3a",
      "gasUsed": "0xb1d3",
      "effectiveGasPrice": "0x124f80",
      "blobGasUsed": "0x79e0",
      "from": "0xf7c7ddd2ed3ea7b745786951713f4ffef428adef",
      "to": "0x033ea50deaa8b064958fc40e34f994c154d27fff",
      "contractAddress": null,
      "daFootprintGasScalar": "0x138",
      "l1BaseFeeScalar": "0x44d",
      "l1BlobBaseFee": "0x1",
      "l1BlobBaseFeeScalar": "0xa118b",
      "l1Fee": "0x55",
      "l1GasPrice": "0xb",
      "l1GasUsed": "0x640"
    },
    {
      "status": "0x1",
      "cumulativeGasUsed": "0x49de6e",
      "logs": [
        {
          "address": "0x033ea50deaa8b064958fc40e34f994c154d27fff",
          "topics": [
            "0x575871bc0b98c7891a21b46fe2ef187e4719714907cbb9b7a21ba7cf14746623",
            "0x000000000000000000000000ce8b6ebe3636baeb14e4d0295c8cd0c21e84685b"
          ],
          "data": "0x0000000000000000000000000000000000000000000002086ac3510526000000",
          "blockHash": "0xb42492c20d2485da585118a15bad1c0c58f884e503bdb4522a0cf9ed420861e0",
          "blockNumber": "0x2087b3a",
          "blockTimestamp": "0x69245554",
          "transactionHash": "0x5cb55785d08b6ca9b14a7f34a348ab8a2fc9f705a3bb111828f606dfe62e4b4a",
          "transactionIndex": "0x13",
          "logIndex": "0xc0",
          "removed": false
        }
      ],
      "logsBloom": "0x00000000000000000000000000000000000000000000000000000000000000000000080000000000000000000000000000000000000020000000000000000000000000000000000000000000000000000000000000000000000200000000000000000000000000000000002000000000000000000000000000000000000000000000000000000000000000000000000000000000000000000000000000000000000000000000040000000000000000008000200080000000000000000000000000000000000000000000000000000000000000000002000000000000000000000000000000000000000000000000000000000000000000000000000000000000",
      "type": "0x2",
      "transactionHash": "0x5cb55785d08b6ca9b14a7f34a348ab8a2fc9f705a3bb111828f606dfe62e4b4a",
      "transactionIndex": "0x13",
      "blockHash": "0xb42492c20d2485da585118a15bad1c0c58f884e503bdb4522a0cf9ed420861e0",
      "blockNumber": "0x2087b3a",
      "gasUsed": "0xb1d3",
      "effectiveGasPrice": "0x124f80",
      "blobGasUsed": "0x79e0",
      "from": "0xf7c7ddd2ed3ea7b745786951713f4ffef428adef",
      "to": "0x033ea50deaa8b064958fc40e34f994c154d27fff",
      "contractAddress": null,
      "daFootprintGasScalar": "0x138",
      "l1BaseFeeScalar": "0x44d",
      "l1BlobBaseFee": "0x1",
      "l1BlobBaseFeeScalar": "0xa118b",
      "l1Fee": "0x55",
      "l1GasPrice": "0xb",
      "l1GasUsed": "0x640"
    },
    {
      "status": "0x1",
      "cumulativeGasUsed": "0x4c5c06",
      "logs": [
        {
          "address": "0x033ea50deaa8b064958fc40e34f994c154d27fff",
          "topics": [
            "0x575871bc0b98c7891a21b46fe2ef187e4719714907cbb9b7a21ba7cf14746623",
            "0x00000000000000000000000039d9d2593f8bb52bfe12bd3733c87e4978f242be"
          ],
          "data": "0x0000000000000000000000000000000000000000000004ded51e9cc700600000",
          "blockHash": "0xb42492c20d2485da585118a15bad1c0c58f884e503bdb4522a0cf9ed420861e0",
          "blockNumber": "0x2087b3a",
          "blockTimestamp": "0x69245554",
          "transactionHash": "0x888dda4c60d46cab403e773757d983a452875349257eeed2eac09ac8cd3bfc84",
          "transactionIndex": "0x15",
          "logIndex": "0xc5",
          "removed": false
        }
      ],
      "logsBloom": "0x00000000000000000000000000000000000000000000000000000000000000000000080000000000000000000000000000000000000020000000000000000000000000000000000000000000000000000000000000000000000000000000000000000000000000000000000000000000000001000000000000000000000000000000000000000000000000000000000000000000200000000000000000000000000000000000040000000000000000808000000080000000000000000000000000000000000000000000000000000000000000000002000000000000000000000000000000000000000000000000000000000000000000000000000000000000",
      "type": "0x2",
      "transactionHash": "0x888dda4c60d46cab403e773757d983a452875349257eeed2eac09ac8cd3bfc84",
      "transactionIndex": "0x15",
      "blockHash": "0xb42492c20d2485da585118a15bad1c0c58f884e503bdb4522a0cf9ed420861e0",
      "blockNumber": "0x2087b3a",
      "gasUsed": "0xb1d3",
      "effectiveGasPrice": "0x124f80",
      "blobGasUsed": "0x79e0",
      "from": "0xf7c7ddd2ed3ea7b745786951713f4ffef428adef",
      "to": "0x033ea50deaa8b064958fc40e34f994c154d27fff",
      "contractAddress": null,
      "daFootprintGasScalar": "0x138",
      "l1BaseFeeScalar": "0x44d",
      "l1BlobBaseFee": "0x1",
      "l1BlobBaseFeeScalar": "0xa118b",
      "l1Fee": "0x55",
      "l1GasPrice": "0xb",
      "l1GasUsed": "0x640"
    },
    {
      "status": "0x1",
      "cumulativeGasUsed": "0x4d0dd9",
      "logs": [
        {
          "address": "0x033ea50deaa8b064958fc40e34f994c154d27fff",
          "topics": [
            "0x575871bc0b98c7891a21b46fe2ef187e4719714907cbb9b7a21ba7cf14746623",
            "0x0000000000000000000000002f677b84aebe104d5f559e3f2a4d6463c4a14b36"
          ],
          "data": "0x0000000000000000000000000000000000000000000004ded51e9cc700600000",
          "blockHash": "0xb42492c20d2485da585118a15bad1c0c58f884e503bdb4522a0cf9ed420861e0",
          "blockNumber": "0x2087b3a",
          "blockTimestamp": "0x69245554",
          "transactionHash": "0x1146e022323d2a5604e410371d2620475ecd8262e95417536e420db6569837af",
          "transactionIndex": "0x16",
          "logIndex": "0xc6",
          "removed": false
        }
      ],
      "logsBloom": "0x00000000000000000000000000000000000000000020000000000000000000000000080000000000000000000000000000000000000020000000000000000000000000000080000000000000000000000000000000000000000000000000000000000000000000000000000000000000000000000000000000000000000000000000000000000000000000000000000000000000000000000000000000000000000000000000040000000000000000008000000080000000000000000000000000000000000000000000000000000000000000000002000000000000000000100000000000000000000000000000000000000000000000000000000000000000",
      "type": "0x2",
      "transactionHash": "0x1146e022323d2a5604e410371d2620475ecd8262e95417536e420db6569837af",
      "transactionIndex": "0x16",
      "blockHash": "0xb42492c20d2485da585118a15bad1c0c58f884e503bdb4522a0cf9ed420861e0",
      "blockNumber": "0x2087b3a",
      "gasUsed": "0xb1d3",
      "effectiveGasPrice": "0x124f80",
      "blobGasUsed": "0x79e0",
      "from": "0xf7c7ddd2ed3ea7b745786951713f4ffef428adef",
      "to": "0x033ea50deaa8b064958fc40e34f994c154d27fff",
      "contractAddress": null,
      "daFootprintGasScalar": "0x138",
      "l1BaseFeeScalar": "0x44d",
      "l1BlobBaseFee": "0x1",
      "l1BlobBaseFeeScalar": "0xa118b",
      "l1Fee": "0x55",
      "l1GasPrice": "0xb",
      "l1GasUsed": "0x640"
    },
    {
      "status": "0x1",
      "cumulativeGasUsed": "0x4dbfac",
      "logs": [
        {
          "address": "0x033ea50deaa8b064958fc40e34f994c154d27fff",
          "topics": [
            "0x575871bc0b98c7891a21b46fe2ef187e4719714907cbb9b7a21ba7cf14746623",
            "0x000000000000000000000000733b737320f0bd3fe347f02257f77e7a7807bc3e"
          ],
          "data": "0x0000000000000000000000000000000000000000000005150ae84a8cdf000000",
          "blockHash": "0xb42492c20d2485da585118a15bad1c0c58f884e503bdb4522a0cf9ed420861e0",
          "blockNumber": "0x2087b3a",
          "blockTimestamp": "0x69245554",
          "transactionHash": "0xb5adbbbeaf26eda91b2bc82ec1a353383f91f9562de7bfcc5928c3dcfdb28cce",
          "transactionIndex": "0x17",
          "logIndex": "0xc7",
          "removed": false
        }
      ],
      "logsBloom": "0x00000000000000000000000000000000000000000000000000000000000000000000080000000000000000000000000000000000000020000000000000000000000000000000000010000000000000000000000000000000000000000000000000000000000000000000000000000000000000000000000000000000000000000000000000000000000000000000000000000000000000000000000000000000000000000000040000080000000000008002000080000000000000000000000000000000000000000000000000000000000000000002000000000000000000000000000000000000000000000000000000000000000000000000000000000000",
      "type": "0x2",
      "transactionHash": "0xb5adbbbeaf26eda91b2bc82ec1a353383f91f9562de7bfcc5928c3dcfdb28cce",
      "transactionIndex": "0x17",
      "blockHash": "0xb42492c20d2485da585118a15bad1c0c58f884e503bdb4522a0cf9ed420861e0",
      "blockNumber": "0x2087b3a",
      "gasUsed": "0xb1d3",
      "effectiveGasPrice": "0x124f80",
      "blobGasUsed": "0x79e0",
      "from": "0xf7c7ddd2ed3ea7b745786951713f4ffef428adef",
      "to": "0x033ea50deaa8b064958fc40e34f994c154d27fff",
      "contractAddress": null,
      "daFootprintGasScalar": "0x138",
      "l1BaseFeeScalar": "0x44d",
      "l1BlobBaseFee": "0x1",
      "l1BlobBaseFeeScalar": "0xa118b",
      "l1Fee": "0x55",
      "l1GasPrice": "0xb",
      "l1GasUsed": "0x640"
    },
    {
      "status": "0x1",
      "cumulativeGasUsed": "0x4e717f",
      "logs": [
        {
          "address": "0x033ea50deaa8b064958fc40e34f994c154d27fff",
          "topics": [
            "0x575871bc0b98c7891a21b46fe2ef187e4719714907cbb9b7a21ba7cf14746623",
            "0x000000000000000000000000a185a6f1dc798a57d42c9cd13b93e72718682321"
          ],
          "data": "0x00000000000000000000000000000000000000000000015af1d78b58c4000000",
          "blockHash": "0xb42492c20d2485da585118a15bad1c0c58f884e503bdb4522a0cf9ed420861e0",
          "blockNumber": "0x2087b3a",
          "blockTimestamp": "0x69245554",
          "transactionHash": "0x76f787b257b59ab8df8b69baa4ff31789a71df1f4ee5b7387f121ebb103cbdd0",
          "transactionIndex": "0x18",
          "logIndex": "0xc8",
          "removed": false
        }
      ],
      "logsBloom": "0x00000000000000000000000000000000000000000000000000000000000000000000080000000000000000000200000000000000000020000000000000000000000000000000000000000000000000100000000000000000000000000000000000000000000000000000000000000000000000000000000000000000000000000000000000000000000000000000000000000000000400000000000000000000000000000000040000000000000000008000000080000000000000000000000000000000000000000000000000000000000000000002000000000000000000000000000000000000000000000000000000000000000000000000000000000000",
      "type": "0x2",
      "transactionHash": "0x76f787b257b59ab8df8b69baa4ff31789a71df1f4ee5b7387f121ebb103cbdd0",
      "transactionIndex": "0x18",
      "blockHash": "0xb42492c20d2485da585118a15bad1c0c58f884e503bdb4522a0cf9ed420861e0",
      "blockNumber": "0x2087b3a",
      "gasUsed": "0xb1d3",
      "effectiveGasPrice": "0x124f80",
      "blobGasUsed": "0x79e0",
      "from": "0xf7c7ddd2ed3ea7b745786951713f4ffef428adef",
      "to": "0x033ea50deaa8b064958fc40e34f994c154d27fff",
      "contractAddress": null,
      "daFootprintGasScalar": "0x138",
      "l1BaseFeeScalar": "0x44d",
      "l1BlobBaseFee": "0x1",
      "l1BlobBaseFeeScalar": "0xa118b",
      "l1Fee": "0x55",
      "l1GasPrice": "0xb",
      "l1GasUsed": "0x640"
    },
    {
      "status": "0x1",
      "cumulativeGasUsed": "0x4f235e",
      "logs": [
        {
          "address": "0x033ea50deaa8b064958fc40e34f994c154d27fff",
          "topics": [
            "0x575871bc0b98c7891a21b46fe2ef187e4719714907cbb9b7a21ba7cf14746623",
            "0x0000000000000000000000008db4f2ad2c4b07a6c5d5bbe0784df5db0e072706"
          ],
          "data": "0x0000000000000000000000000000000000000000000012d8b31d69ca65a00000",
          "blockHash": "0xb42492c20d2485da585118a15bad1c0c58f884e503bdb4522a0cf9ed420861e0",
          "blockNumber": "0x2087b3a",
          "blockTimestamp": "0x69245554",
          "transactionHash": "0x511d336092616d63eb8a5786221587ab0b722fe7c27fa53caa8dd9397716e607",
          "transactionIndex": "0x19",
          "logIndex": "0xc9",
          "removed": false
        }
      ],
      "logsBloom": "0x00000000000000000000004000000000000000008000000000000000000000000000080000000000000000000000000000000000000020000000000000000000000000000000000000000000000000000000000000000000000000000000000000000000400000000000000000000000000000000000000000000000000000000000000000000000000000000000000000000000000000000000000000000000000000000000040000000000000000008000000080000000000000000000000000000000000000000000000000000000000000000002000000000000000000000000000000000000000000000000000000000000000000000000000000000000",
      "type": "0x2",
      "transactionHash": "0x511d336092616d63eb8a5786221587ab0b722fe7c27fa53caa8dd9397716e607",
      "transactionIndex": "0x19",
      "blockHash": "0xb42492c20d2485da585118a15bad1c0c58f884e503bdb4522a0cf9ed420861e0",
      "blockNumber": "0x2087b3a",
      "gasUsed": "0xb1df",
      "effectiveGasPrice": "0x124f80",
      "blobGasUsed": "0x79e0",
      "from": "0xf7c7ddd2ed3ea7b745786951713f4ffef428adef",
      "to": "0x033ea50deaa8b064958fc40e34f994c154d27fff",
      "contractAddress": null,
      "daFootprintGasScalar": "0x138",
      "l1BaseFeeScalar": "0x44d",
      "l1BlobBaseFee": "0x1",
      "l1BlobBaseFeeScalar": "0xa118b",
      "l1Fee": "0x55",
      "l1GasPrice": "0xb",
      "l1GasUsed": "0x640"
    },
    {
      "status": "0x1",
      "cumulativeGasUsed": "0x4fd531",
      "logs": [
        {
          "address": "0x033ea50deaa8b064958fc40e34f994c154d27fff",
          "topics": [
            "0x575871bc0b98c7891a21b46fe2ef187e4719714907cbb9b7a21ba7cf14746623",
            "0x00000000000000000000000057d086092ecd0f5653a9956019c0e0fa584a246a"
          ],
          "data": "0x0000000000000000000000000000000000000000000021e19e0c9bab24000000",
          "blockHash": "0xb42492c20d2485da585118a15bad1c0c58f884e503bdb4522a0cf9ed420861e0",
          "blockNumber": "0x2087b3a",
          "blockTimestamp": "0x69245554",
          "transactionHash": "0xa4a178b91a63f72af0e78b3c38209a90ef2624601ecbb1581dc5890ce56a53f3",
          "transactionIndex": "0x1a",
          "logIndex": "0xca",
          "removed": false
        }
      ],
      "logsBloom": "0x00000000000000000000000000000000000000000000000000000000000000000000080000000000000080000000000000000000000020000000000000000000000000000100000000000000000000000000000000000000000000000000000000000000000000000000000000000000000000000000000000000000000000000000000000000000000000000000000000000000000000000000000000000000000000000000040080000000000000008000000080000000000000000000000000000000000000000000000000000000000000000002000000000000000000000000000000000000000000000000000000000000000000000000000000000000",
      "type": "0x2",
      "transactionHash": "0xa4a178b91a63f72af0e78b3c38209a90ef2624601ecbb1581dc5890ce56a53f3",
      "transactionIndex": "0x1a",
      "blockHash": "0xb42492c20d2485da585118a15bad1c0c58f884e503bdb4522a0cf9ed420861e0",
      "blockNumber": "0x2087b3a",
      "gasUsed": "0xb1d3",
      "effectiveGasPrice": "0x124f80",
      "blobGasUsed": "0x79e0",
      "from": "0xf7c7ddd2ed3ea7b745786951713f4ffef428adef",
      "to": "0x033ea50deaa8b064958fc40e34f994c154d27fff",
      "contractAddress": null,
      "daFootprintGasScalar": "0x138",
      "l1BaseFeeScalar": "0x44d",
      "l1BlobBaseFee": "0x1",
      "l1BlobBaseFeeScalar": "0xa118b",
      "l1Fee": "0x55",
      "l1GasPrice": "0xb",
      "l1GasUsed": "0x640"
    },
    {
      "status": "0x1",
      "cumulativeGasUsed": "0x5127c0",
      "logs": [
        {
          "address": "0x033ea50deaa8b064958fc40e34f994c154d27fff",
          "topics": [
            "0x575871bc0b98c7891a21b46fe2ef187e4719714907cbb9b7a21ba7cf14746623",
            "0x000000000000000000000000ba9aa9fdbae1040d9d74612a899df2455957aa22"
          ],
          "data": "0x0000000000000000000000000000000000000000000003635c9adc5dea000000",
          "blockHash": "0xb42492c20d2485da585118a15bad1c0c58f884e503bdb4522a0cf9ed420861e0",
          "blockNumber": "0x2087b3a",
          "blockTimestamp": "0x69245554",
          "transactionHash": "0x6ce8032594f8f414c930762c63ccfc3645b897e6bd1989693d07339a59ad19d5",
          "transactionIndex": "0x1c",
          "logIndex": "0xcc",
          "removed": false
        }
      ],
      "logsBloom": "0x00000000000000000000000000000000000000000000000000000000000000000000080000000000000000400000000000000000000020000000000000000000000000000000000000000000000000000000000000000000000000000004000000000000000000000000000000000000000000000000000000000000000000000000000000000000000000000000000000000000000000000000000000000010000000000000040000000000000000008000000080000000000000000000000000000000000000000000000000000000000000000002000000000000000000000000000000000000000000000000000000000000000000000000000000000000",
      "type": "0x2",
      "transactionHash": "0x6ce8032594f8f414c930762c63ccfc3645b897e6bd1989693d07339a59ad19d5",
      "transactionIndex": "0x1c",
      "blockHash": "0xb42492c20d2485da585118a15bad1c0c58f884e503bdb4522a0cf9ed420861e0",
      "blockNumber": "0x2087b3a",
      "gasUsed": "0xb1d3",
      "effectiveGasPrice": "0x124f80",
      "blobGasUsed": "0x79e0",
      "from": "0xf7c7ddd2ed3ea7b745786951713f4ffef428adef",
      "to": "0x033ea50deaa8b064958fc40e34f994c154d27fff",
      "contractAddress": null,
      "daFootprintGasScalar": "0x138",
      "l1BaseFeeScalar": "0x44d",
      "l1BlobBaseFee": "0x1",
      "l1BlobBaseFeeScalar": "0xa118b",
      "l1Fee": "0x55",
      "l1GasPrice": "0xb",
      "l1GasUsed": "0x640"
    },
    {
      "status": "0x1",
      "cumulativeGasUsed": "0x54a30e",
      "logs": [
        {
          "address": "0x033ea50deaa8b064958fc40e34f994c154d27fff",
          "topics": [
            "0x575871bc0b98c7891a21b46fe2ef187e4719714907cbb9b7a21ba7cf14746623",
            "0x00000000000000000000000084d82024e8b7d504ca33f237c64b7f218eee607f"
          ],
          "data": "0x000000000000000000000000000000000000000000002a5a058fc295ed000000",
          "blockHash": "0xb42492c20d2485da585118a15bad1c0c58f884e503bdb4522a0cf9ed420861e0",
          "blockNumber": "0x2087b3a",
          "blockTimestamp": "0x69245554",
          "transactionHash": "0xb23561e2cc20cf453469626f8ccc227d7b4b9377ed91799404c9da7cec5a281d",
          "transactionIndex": "0x1e",
          "logIndex": "0xce",
          "removed": false
        }
      ],
      "logsBloom": "0x00000000000000000000000000000000000000000000000000000000000000000000080000000000000000000000000000000000000020000000000000000000000000000000000000000000000000000000000000000000000000000000000000000000000000000000000000000004000000000000000000000000000000000000000000000000000000000000000000000000000000000000000000000000000000000000040000000004000000008000000080000000000000000000000000000000000000000000000000000000000000000002000000000000000000000000000000000000000000000000000000000400000000000000000000000000",
      "type": "0x2",
      "transactionHash": "0xb23561e2cc20cf453469626f8ccc227d7b4b9377ed91799404c9da7cec5a281d",
      "transactionIndex": "0x1e",
      "blockHash": "0xb42492c20d2485da585118a15bad1c0c58f884e503bdb4522a0cf9ed420861e0",
      "blockNumber": "0x2087b3a",
      "gasUsed": "0xb1d3",
      "effectiveGasPrice": "0x124f80",
      "blobGasUsed": "0x79e0",
      "from": "0xf7c7ddd2ed3ea7b745786951713f4ffef428adef",
      "to": "0x033ea50deaa8b064958fc40e34f994c154d27fff",
      "contractAddress": null,
      "daFootprintGasScalar": "0x138",
      "l1BaseFeeScalar": "0x44d",
      "l1BlobBaseFee": "0x1",
      "l1BlobBaseFeeScalar": "0xa118b",
      "l1Fee": "0x55",
      "l1GasPrice": "0xb",
      "l1GasUsed": "0x640"
    },
    {
      "status": "0x1",
      "cumulativeGasUsed": "0x5554ed",
      "logs": [
        {
          "address": "0x033ea50deaa8b064958fc40e34f994c154d27fff",
          "topics": [
            "0x575871bc0b98c7891a21b46fe2ef187e4719714907cbb9b7a21ba7cf14746623",
            "0x0000000000000000000000001317bd6371749e911c96f01d0305a9e23ef3abfe"
          ],
          "data": "0x00000000000000000000000000000000000000000000043c33c1937564800000",
          "blockHash": "0xb42492c20d2485da585118a15bad1c0c58f884e503bdb4522a0cf9ed420861e0",
          "blockNumber": "0x2087b3a",
          "blockTimestamp": "0x69245554",
          "transactionHash": "0xb131b75eb9617019b1f756c3045908a7c035e6639fb0ef0ef1eb7b6ab6800dda",
          "transactionIndex": "0x1f",
          "logIndex": "0xcf",
          "removed": false
        }
      ],
      "logsBloom": "0x00000000000000000000000000000000000000000000000000000010000000000000080000000000000000000000000000000000000020000000000000000000000000000000000000000000000000000000000000001000000000000000000000000000000000000000000000000000000000000000000000000000000000004000000000000000000000000000000000000000000000000000000000000000000000000000040000000000000000008000000080000000000000000000000000000000000000000000000000000000000000000002000000000000000000000000000000000000000000000000000000000000000000000000000000000000",
      "type": "0x2",
      "transactionHash": "0xb131b75eb9617019b1f756c3045908a7c035e6639fb0ef0ef1eb7b6ab6800dda",
      "transactionIndex": "0x1f",
      "blockHash": "0xb42492c20d2485da585118a15bad1c0c58f884e503bdb4522a0cf9ed420861e0",
      "blockNumber": "0x2087b3a",
      "gasUsed": "0xb1df",
      "effectiveGasPrice": "0x124f80",
      "blobGasUsed": "0x79e0",
      "from": "0xf7c7ddd2ed3ea7b745786951713f4ffef428adef",
      "to": "0x033ea50deaa8b064958fc40e34f994c154d27fff",
      "contractAddress": null,
      "daFootprintGasScalar": "0x138",
      "l1BaseFeeScalar": "0x44d",
      "l1BlobBaseFee": "0x1",
      "l1BlobBaseFeeScalar": "0xa118b",
      "l1Fee": "0x55",
      "l1GasPrice": "0xb",
      "l1GasUsed": "0x640"
    },
    {
      "status": "0x1",
      "cumulativeGasUsed": "0x5606cc",
      "logs": [
        {
          "address": "0x033ea50deaa8b064958fc40e34f994c154d27fff",
          "topics": [
            "0x575871bc0b98c7891a21b46fe2ef187e4719714907cbb9b7a21ba7cf14746623",
            "0x000000000000000000000000def987ab8663288e4d50124781bf2ad12681db50"
          ],
          "data": "0x00000000000000000000000000000000000000000000152d02c7e14af6800000",
          "blockHash": "0xb42492c20d2485da585118a15bad1c0c58f884e503bdb4522a0cf9ed420861e0",
          "blockNumber": "0x2087b3a",
          "blockTimestamp": "0x69245554",
          "transactionHash": "0x03bb91fa9bd37318142ea060ec4afb7d0a78694248a46dbe55a4425218a13f42",
          "transactionIndex": "0x20",
          "logIndex": "0xd0",
          "removed": false
        }
      ],
      "logsBloom": "0x00000008000000000000000000000000000000000000000000000000000000000000080000000000000000000000000000000000000020000000000000000000000000000000000000000000000000000000000000000000000000000000000000000000000000000000000000000000000000000000000000000000000000000000000000000000000000000000000000000000000000000000000000000000000000000000040000000000040000008000000080000000000000000000000000000000000000000000000000000000000000000002000000000000000000000000000000000000000000000000000000000000000000000000000000000020",
      "type": "0x2",
      "transactionHash": "0x03bb91fa9bd37318142ea060ec4afb7d0a78694248a46dbe55a4425218a13f42",
      "transactionIndex": "0x20",
      "blockHash": "0xb42492c20d2485da585118a15bad1c0c58f884e503bdb4522a0cf9ed420861e0",
      "blockNumber": "0x2087b3a",
      "gasUsed": "0xb1df",
      "effectiveGasPrice": "0x124f80",
      "blobGasUsed": "0x79e0",
      "from": "0xf7c7ddd2ed3ea7b745786951713f4ffef428adef",
      "to": "0x033ea50deaa8b064958fc40e34f994c154d27fff",
      "contractAddress": null,
      "daFootprintGasScalar": "0x138",
      "l1BaseFeeScalar": "0x44d",
      "l1BlobBaseFee": "0x1",
      "l1BlobBaseFeeScalar": "0xa118b",
      "l1Fee": "0x55",
      "l1GasPrice": "0xb",
      "l1GasUsed": "0x640"
    },
    {
      "status": "0x1",
      "cumulativeGasUsed": "0x56b8ab",
      "logs": [
        {
          "address": "0x033ea50deaa8b064958fc40e34f994c154d27fff",
          "topics": [
            "0x575871bc0b98c7891a21b46fe2ef187e4719714907cbb9b7a21ba7cf14746623",
            "0x0000000000000000000000005fe0ed58e69a16a897943ebad7c88c3aa65d6bfc"
          ],
          "data": "0x0000000000000000000000000000000000000000000001d234f9a33f47600000",
          "blockHash": "0xb42492c20d2485da585118a15bad1c0c58f884e503bdb4522a0cf9ed420861e0",
          "blockNumber": "0x2087b3a",
          "blockTimestamp": "0x69245554",
          "transactionHash": "0x0b9b1edb81fe231f6d3b74b35be74e8b95f44ccf787b0559d962bfe9a485bdc6",
          "transactionIndex": "0x21",
          "logIndex": "0xd1",
          "removed": false
        }
      ],
      "logsBloom": "0x00000000000000000000000000000000000000000000000000000000000000000000080000000000000000000000000000000000000020000000000000000004000000000000000000000000000000000000000000000200000000000000000000000000000000000000000000000000000000000000000000000000000000000000000000000000000000000000000000000000000000000000000000000000000000000000040000000000000020008000000080000000000000000000000000000000000000000000000000000000000000000002000000000000000000000000000000000000000000000000000000000000000000000000000000000000",
      "type": "0x2",
      "transactionHash": "0x0b9b1edb81fe231f6d3b74b35be74e8b95f44ccf787b0559d962bfe9a485bdc6",
      "transactionIndex": "0x21",
      "blockHash": "0xb42492c20d2485da585118a15bad1c0c58f884e503bdb4522a0cf9ed420861e0",
      "blockNumber": "0x2087b3a",
      "gasUsed": "0xb1df",
      "effectiveGasPrice": "0x124f80",
      "blobGasUsed": "0x79e0",
      "from": "0xf7c7ddd2ed3ea7b745786951713f4ffef428adef",
      "to": "0x033ea50deaa8b064958fc40e34f994c154d27fff",
      "contractAddress": null,
      "daFootprintGasScalar": "0x138",
      "l1BaseFeeScalar": "0x44d",
      "l1BlobBaseFee": "0x1",
      "l1BlobBaseFeeScalar": "0xa118b",
      "l1Fee": "0x55",
      "l1GasPrice": "0xb",
      "l1GasUsed": "0x640"
    },
    {
      "status": "0x1",
      "cumulativeGasUsed": "0x576a7e",
      "logs": [
        {
          "address": "0x033ea50deaa8b064958fc40e34f994c154d27fff",
          "topics": [
            "0x575871bc0b98c7891a21b46fe2ef187e4719714907cbb9b7a21ba7cf14746623",
            "0x000000000000000000000000a8411ea314e74afcb6e2b990e7c708e28ad585ea"
          ],
          "data": "0x0000000000000000000000000000000000000000000003635c9adc5dea000000",
          "blockHash": "0xb42492c20d2485da585118a15bad1c0c58f884e503bdb4522a0cf9ed420861e0",
          "blockNumber": "0x2087b3a",
          "blockTimestamp": "0x69245554",
          "transactionHash": "0xa6c0e49d7016837fa0282467d0760cf5f5472114d87281cc42b6855187eba5be",
          "transactionIndex": "0x22",
          "logIndex": "0xd2",
          "removed": false
        }
      ],
      "logsBloom": "0x00000000000000000000000000000000000000000000000000000000000000000000080000000000000000000000000000000000000020000000000000000000000000000000000000000020000000000000000000000000000000000000000000000000000000000000000000000000000000000000000000000000000000000000000000000000000000000000000000000000000000000000000000000000000000000000040000000000000000008000000080000000000000000000000000000000000000000000000000000000000000000002000000000000000000000000000000000000000000000200000000000000000000800000000000000000",
      "type": "0x2",
      "transactionHash": "0xa6c0e49d7016837fa0282467d0760cf5f5472114d87281cc42b6855187eba5be",
      "transactionIndex": "0x22",
      "blockHash": "0xb42492c20d2485da585118a15bad1c0c58f884e503bdb4522a0cf9ed420861e0",
      "blockNumber": "0x2087b3a",
      "gasUsed": "0xb1d3",
      "effectiveGasPrice": "0x124f80",
      "blobGasUsed": "0x79e0",
      "from": "0xf7c7ddd2ed3ea7b745786951713f4ffef428adef",
      "to": "0x033ea50deaa8b064958fc40e34f994c154d27fff",
      "contractAddress": null,
      "daFootprintGasScalar": "0x138",
      "l1BaseFeeScalar": "0x44d",
      "l1BlobBaseFee": "0x1",
      "l1BlobBaseFeeScalar": "0xa118b",
      "l1Fee": "0x55",
      "l1GasPrice": "0xb",
      "l1GasUsed": "0x640"
    },
    {
      "status": "0x1",
      "cumulativeGasUsed": "0x581c51",
      "logs": [
        {
          "address": "0x033ea50deaa8b064958fc40e34f994c154d27fff",
          "topics": [
            "0x575871bc0b98c7891a21b46fe2ef187e4719714907cbb9b7a21ba7cf14746623",
            "0x000000000000000000000000556edf4de518210219d6c978f30aafb55eb6906d"
          ],
          "data": "0x000000000000000000000000000000000000000000000878678326eac9000000",
          "blockHash": "0xb42492c20d2485da585118a15bad1c0c58f884e503bdb4522a0cf9ed420861e0",
          "blockNumber": "0x2087b3a",
          "blockTimestamp": "0x69245554",
          "transactionHash": "0x7338d4a7f69283f6280621add3eea682bdac62e598984aaeb392eff0e9c39f20",
          "transactionIndex": "0x23",
          "logIndex": "0xd3",
          "removed": false
        }
      ],
      "logsBloom": "0x00000000000000000000000000000000000000000000000000000000000000000000080000000000000000000000000000000000000020000000000000000000000000000000000020000000000000000000000000000000000000000000000000000000000000000000000000000000000000000000000000000000000000000000000000000000000000000000000000000000000000000000000000000000000000000000040020000000000000008000000080000000000000000000000000000000000000000000000000000000000000000002000000000000000000000000000000000000000000000000000000000000000000000000000000000004",
      "type": "0x2",
      "transactionHash": "0x7338d4a7f69283f6280621add3eea682bdac62e598984aaeb392eff0e9c39f20",
      "transactionIndex": "0x23",
      "blockHash": "0xb42492c20d2485da585118a15bad1c0c58f884e503bdb4522a0cf9ed420861e0",
      "blockNumber": "0x2087b3a",
      "gasUsed": "0xb1d3",
      "effectiveGasPrice": "0x124f80",
      "blobGasUsed": "0x79e0",
      "from": "0xf7c7ddd2ed3ea7b745786951713f4ffef428adef",
      "to": "0x033ea50deaa8b064958fc40e34f994c154d27fff",
      "contractAddress": null,
      "daFootprintGasScalar": "0x138",
      "l1BaseFeeScalar": "0x44d",
      "l1BlobBaseFee": "0x1",
      "l1BlobBaseFeeScalar": "0xa118b",
      "l1Fee": "0x55",
      "l1GasPrice": "0xb",
      "l1GasUsed": "0x640"
    },
    {
      "status": "0x1",
      "cumulativeGasUsed": "0x725a8d",
      "logs": [
        {
          "address": "0x033ea50deaa8b064958fc40e34f994c154d27fff",
          "topics": [
            "0x575871bc0b98c7891a21b46fe2ef187e4719714907cbb9b7a21ba7cf14746623",
            "0x000000000000000000000000dabd1e1e6a6b772fa424f5f72e49cb89aa47dd14"
          ],
          "data": "0x00000000000000000000000000000000000000000000043c33c1937564800000",
          "blockHash": "0xb42492c20d2485da585118a15bad1c0c58f884e503bdb4522a0cf9ed420861e0",
          "blockNumber": "0x2087b3a",
          "blockTimestamp": "0x69245554",
          "transactionHash": "0x968f308562a303783e5ee2cd786f1660ab227e835934cb5e37c67d2b683e1178",
          "transactionIndex": "0x27",
          "logIndex": "0xd9",
          "removed": false
        }
      ],
      "logsBloom": "0x00000000000000000000000000000000000000000000000000000000000000000000088000000000000000000000000000000000000020000000000000000000000000000000000000000000000000000000000000000000000000000000000000000000000000200000000000000000000000000000000000000000000000000000000000000000000000000000000000000000000000000000000000000000000000000000040000000000000000008000000080000000000000000000000000000000000000000000000000000000000000000002000000000000000000000100000000000000000000000000000000000000000000000000000000000000",
      "type": "0x2",
      "transactionHash": "0x968f308562a303783e5ee2cd786f1660ab227e835934cb5e37c67d2b683e1178",
      "transactionIndex": "0x27",
      "blockHash": "0xb42492c20d2485da585118a15bad1c0c58f884e503bdb4522a0cf9ed420861e0",
      "blockNumber": "0x2087b3a",
      "gasUsed": "0xb1df",
      "effectiveGasPrice": "0x124f80",
      "blobGasUsed": "0x79e0",
      "from": "0xf7c7ddd2ed3ea7b745786951713f4ffef428adef",
      "to": "0x033ea50deaa8b064958fc40e34f994c154d27fff",
      "contractAddress": null,
      "daFootprintGasScalar": "0x138",
      "l1BaseFeeScalar": "0x44d",
      "l1BlobBaseFee": "0x1",
      "l1BlobBaseFeeScalar": "0xa118b",
      "l1Fee": "0x55",
      "l1GasPrice": "0xb",
      "l1GasUsed": "0x640"
    },
    {
      "status": "0x1",
      "cumulativeGasUsed": "0x76a40b",
      "logs": [
        {
          "address": "0x033ea50deaa8b064958fc40e34f994c154d27fff",
          "topics": [
            "0x575871bc0b98c7891a21b46fe2ef187e4719714907cbb9b7a21ba7cf14746623",
            "0x0000000000000000000000006f6ba9a74160bb02f2ea43f58a24bd90ccd30f2f"
          ],
          "data": "0x000000000000000000000000000000000000000000000a968163f0a57b400000",
          "blockHash": "0xb42492c20d2485da585118a15bad1c0c58f884e503bdb4522a0cf9ed420861e0",
          "blockNumber": "0x2087b3a",
          "blockTimestamp": "0x69245554",
          "transactionHash": "0x93e3b6e4fa85bf90d02fe56089fa7e5f5099dbc79353f5f86cce4d67bd1a0832",
          "transactionIndex": "0x29",
          "logIndex": "0xdd",
          "removed": false
        }
      ],
      "logsBloom": "0x00000000000000000000000000000000000080000000000000000000000000000000080000000000000000000000000000000000000020000000000000000000000000000000000000000000080000000000000000000000000000000000000000000000000000000000000000000000000000000000000000000000000000000000000000000000000000000000000000000000000000000000000000000000000000000000040000000000000000008000000080000000000000000000000000000000000000000000100000000000000000000002000000000000000000000000000000000000000000000000000000000000000000000000000000000000",
      "type": "0x2",
      "transactionHash": "0x93e3b6e4fa85bf90d02fe56089fa7e5f5099dbc79353f5f86cce4d67bd1a0832",
      "transactionIndex": "0x29",
      "blockHash": "0xb42492c20d2485da585118a15bad1c0c58f884e503bdb4522a0cf9ed420861e0",
      "blockNumber": "0x2087b3a",
      "gasUsed": "0xb1df",
      "effectiveGasPrice": "0x124f80",
      "blobGasUsed": "0x79e0",
      "from": "0xf7c7ddd2ed3ea7b745786951713f4ffef428adef",
      "to": "0x033ea50deaa8b064958fc40e34f994c154d27fff",
      "contractAddress": null,
      "daFootprintGasScalar": "0x138",
      "l1BaseFeeScalar": "0x44d",
      "l1BlobBaseFee": "0x1",
      "l1BlobBaseFeeScalar": "0xa118b",
      "l1Fee": "0x55",
      "l1GasPrice": "0xb",
      "l1GasUsed": "0x640"
    },
    {
      "status": "0x1",
      "cumulativeGasUsed": "0x7755ea",
      "logs": [
        {
          "address": "0x033ea50deaa8b064958fc40e34f994c154d27fff",
          "topics": [
            "0x575871bc0b98c7891a21b46fe2ef187e4719714907cbb9b7a21ba7cf14746623",
            "0x00000000000000000000000057475ec3590a24a0b791372545280252610f254b"
          ],
          "data": "0x0000000000000000000000000000000000000000000001a16af753a6cbd00000",
          "blockHash": "0xb42492c20d2485da585118a15bad1c0c58f884e503bdb4522a0cf9ed420861e0",
          "blockNumber": "0x2087b3a",
          "blockTimestamp": "0x69245554",
          "transactionHash": "0x81d88ef207348310fd353d86eccacc40d74bbb56f7157d4077a238065262cf00",
          "transactionIndex": "0x2a",
          "logIndex": "0xde",
          "removed": false
        }
      ],
      "logsBloom": "0x00000000000000000000000000000000000000000000000000000000000000000000080000000000000000000000000000000000000020000000000000000000000000000000000000000000000000000000000000000000000000000000000000000400000000000000000000000000000000000000000000000000000000000000000000000000000000000000000000000000000000000000000000000000000000000000040000000001000000008000000080000000000000000000000000000000000000000000000000000000000000000002000010000000000000000000000000000000000000000000000000000000000000000000000000000000",
      "type": "0x2",
      "transactionHash": "0x81d88ef207348310fd353d86eccacc40d74bbb56f7157d4077a238065262cf00",
      "transactionIndex": "0x2a",
      "blockHash": "0xb42492c20d2485da585118a15bad1c0c58f884e503bdb4522a0cf9ed420861e0",
      "blockNumber": "0x2087b3a",
      "gasUsed": "0xb1df",
      "effectiveGasPrice": "0x124f80",
      "blobGasUsed": "0x79e0",
      "from": "0xf7c7ddd2ed3ea7b745786951713f4ffef428adef",
      "to": "0x033ea50deaa8b064958fc40e34f994c154d27fff",
      "contractAddress": null,
      "daFootprintGasScalar": "0x138",
      "l1BaseFeeScalar": "0x44d",
      "l1BlobBaseFee": "0x1",
      "l1BlobBaseFeeScalar": "0xa118b",
      "l1Fee": "0x55",
      "l1GasPrice": "0xb",
      "l1GasUsed": "0x640"
    },
    {
      "status": "0x1",
      "cumulativeGasUsed": "0x7807c9",
      "logs": [
        {
          "address": "0x033ea50deaa8b064958fc40e34f994c154d27fff",
          "topics": [
            "0x575871bc0b98c7891a21b46fe2ef187e4719714907cbb9b7a21ba7cf14746623",
            "0x00000000000000000000000036ee8b10caed9afc24654b8a082a8a8eb081f8b4"
          ],
          "data": "0x0000000000000000000000000000000000000000000001ed4fde7a2236b00000",
          "blockHash": "0xb42492c20d2485da585118a15bad1c0c58f884e503bdb4522a0cf9ed420861e0",
          "blockNumber": "0x2087b3a",
          "blockTimestamp": "0x69245554",
          "transactionHash": "0x6389f43a450d1b55fd738cf3ecf8c878077aa3050493c418bbc3904a8854bf52",
          "transactionIndex": "0x2b",
          "logIndex": "0xdf",
          "removed": false
        }
      ],
      "logsBloom": "0x00000000000200000000000000000000000000000000000000000000000000000000080000000000000000000000000000000000000020000000000000000000000000000000000000000000000000000000000000000000000002000000000000000000000000000000000000000000000000000000000000000000000000000000001000000000000000000000000000000000000000000000000000000000000000000000040000000000000000008000000080000000000000000000000000000000000000000000000000000000000000000002000000000000000000000000000000000000000000000000000000000000000000000000000000000000",
      "type": "0x2",
      "transactionHash": "0x6389f43a450d1b55fd738cf3ecf8c878077aa3050493c418bbc3904a8854bf52",
      "transactionIndex": "0x2b",
      "blockHash": "0xb42492c20d2485da585118a15bad1c0c58f884e503bdb4522a0cf9ed420861e0",
      "blockNumber": "0x2087b3a",
      "gasUsed": "0xb1df",
      "effectiveGasPrice": "0x124f80",
      "blobGasUsed": "0x79e0",
      "from": "0xf7c7ddd2ed3ea7b745786951713f4ffef428adef",
      "to": "0x033ea50deaa8b064958fc40e34f994c154d27fff",
      "contractAddress": null,
      "daFootprintGasScalar": "0x138",
      "l1BaseFeeScalar": "0x44d",
      "l1BlobBaseFee": "0x1",
      "l1BlobBaseFeeScalar": "0xa118b",
      "l1Fee": "0x55",
      "l1GasPrice": "0xb",
      "l1GasUsed": "0x640"
    },
    {
      "status": "0x1",
      "cumulativeGasUsed": "0x8e7009",
      "logs": [
        {
          "address": "0x033ea50deaa8b064958fc40e34f994c154d27fff",
          "topics": [
            "0x575871bc0b98c7891a21b46fe2ef187e4719714907cbb9b7a21ba7cf14746623",
            "0x000000000000000000000000058ab338562b32a6bcc40641208c487bb323b570"
          ],
          "data": "0x0000000000000000000000000000000000000000000002544faa778090e00000",
          "blockHash": "0xb42492c20d2485da585118a15bad1c0c58f884e503bdb4522a0cf9ed420861e0",
          "blockNumber": "0x2087b3a",
          "blockTimestamp": "0x69245554",
          "transactionHash": "0x96107485504503c6324f9d723659438347725c00a5fa1273535ed535838d7d50",
          "transactionIndex": "0x2d",
          "logIndex": "0x10e",
          "removed": false
        }
      ],
      "logsBloom": "0x00000000000000000000000000000000000000000000000080000000000000000000080000000008000000000000000000000000000020000000000000000000000000000000000000000000000000000000000000000000000000000000000000000000000000000000000000000000000000000000000000000000000000000000000000000000000000000000000000000000000000000000000000000000000000000000040000000000000000008000000080000000000000000000000000000000000000080000000000000000000000000002000000000000000000000000000000000000000000000000000000000000000000000000000000000000",
      "type": "0x2",
      "transactionHash": "0x96107485504503c6324f9d723659438347725c00a5fa1273535ed535838d7d50",
      "transactionIndex": "0x2d",
      "blockHash": "0xb42492c20d2485da585118a15bad1c0c58f884e503bdb4522a0cf9ed420861e0",
      "blockNumber": "0x2087b3a",
      "gasUsed": "0xb1df",
      "effectiveGasPrice": "0x124f80",
      "blobGasUsed": "0x79e0",
      "from": "0xf7c7ddd2ed3ea7b745786951713f4ffef428adef",
      "to": "0x033ea50deaa8b064958fc40e34f994c154d27fff",
      "contractAddress": null,
      "daFootprintGasScalar": "0x138",
      "l1BaseFeeScalar": "0x44d",
      "l1BlobBaseFee": "0x1",
      "l1BlobBaseFeeScalar": "0xa118b",
      "l1Fee": "0x55",
      "l1GasPrice": "0xb",
      "l1GasUsed": "0x640"
    },
    {
      "status": "0x1",
      "cumulativeGasUsed": "0x8f21e8",
      "logs": [
        {
          "address": "0x033ea50deaa8b064958fc40e34f994c154d27fff",
          "topics": [
            "0x575871bc0b98c7891a21b46fe2ef187e4719714907cbb9b7a21ba7cf14746623",
            "0x00000000000000000000000006d9c5f15433934810b8632f034b66fe823b9d75"
          ],
          "data": "0x00000000000000000000000000000000000000000000043c33c1937564800000",
          "blockHash": "0xb42492c20d2485da585118a15bad1c0c58f884e503bdb4522a0cf9ed420861e0",
          "blockNumber": "0x2087b3a",
          "blockTimestamp": "0x69245554",
          "transactionHash": "0x685a12def5189d287cd12f40960a7000019bb68ab8afbf977534822b183b366b",
          "transactionIndex": "0x2e",
          "logIndex": "0x10f",
          "removed": false
        }
      ],
      "logsBloom": "0x00000000000000000000000000000000000000000000000000000000000000000000080000000000000000000000000000000000000020000000000000000000000000000000000000000000000000000000000000000000000000000000000000000000000000000000000000004000000000000000000000000000000000000000000000000800000000000000000000000000000000004000000000000000000000000000040000000000000000008000000080000000000000000000000000000000000000000000000000000000000000000002000000000000000000000000000000000000000000000000000000000000000000000000000000000000",
      "type": "0x2",
      "transactionHash": "0x685a12def5189d287cd12f40960a7000019bb68ab8afbf977534822b183b366b",
      "transactionIndex": "0x2e",
      "blockHash": "0xb42492c20d2485da585118a15bad1c0c58f884e503bdb4522a0cf9ed420861e0",
      "blockNumber": "0x2087b3a",
      "gasUsed": "0xb1df",
      "effectiveGasPrice": "0x124f80",
      "blobGasUsed": "0x79e0",
      "from": "0xf7c7ddd2ed3ea7b745786951713f4ffef428adef",
      "to": "0x033ea50deaa8b064958fc40e34f994c154d27fff",
      "contractAddress": null,
      "daFootprintGasScalar": "0x138",
      "l1BaseFeeScalar": "0x44d",
      "l1BlobBaseFee": "0x1",
      "l1BlobBaseFeeScalar": "0xa118b",
      "l1Fee": "0x55",
      "l1GasPrice": "0xb",
      "l1GasUsed": "0x640"
    },
    {
      "status": "0x1",
      "cumulativeGasUsed": "0x8fd3c7",
      "logs": [
        {
          "address": "0x033ea50deaa8b064958fc40e34f994c154d27fff",
          "topics": [
            "0x575871bc0b98c7891a21b46fe2ef187e4719714907cbb9b7a21ba7cf14746623",
            "0x0000000000000000000000008013f8c8dc7b73cc49ea5d36a45fcaacad42a634"
          ],
          "data": "0x000000000000000000000000000000000000000000005e3b7f9310f3fc200000",
          "blockHash": "0xb42492c20d2485da585118a15bad1c0c58f884e503bdb4522a0cf9ed420861e0",
          "blockNumber": "0x2087b3a",
          "blockTimestamp": "0x69245554",
          "transactionHash": "0x2598836c8b89f294fbc66b1d19d782753bf15d002d3e19fd2e5f24be584cf1ac",
          "transactionIndex": "0x2f",
          "logIndex": "0x110",
          "removed": false
        }
      ],
      "logsBloom": "0x00000000000000000000000000000000000000000000000000000000000000000000080000000002000000000000000000000000000020000000000000000000000000000000000000000000000000000000000000000000000000000000000000000000000000000000000000000000000000000000000000000000000000000000000000000000000000000000010000000000000000000000000000000000000000000000040000000000000000008000000080000000000000000000000000000000000000000000000000000000000000000002000000000000000000000000000000000001000000000000000000000000000000000000000000000000",
      "type": "0x2",
      "transactionHash": "0x2598836c8b89f294fbc66b1d19d782753bf15d002d3e19fd2e5f24be584cf1ac",
      "transactionIndex": "0x2f",
      "blockHash": "0xb42492c20d2485da585118a15bad1c0c58f884e503bdb4522a0cf9ed420861e0",
      "blockNumber": "0x2087b3a",
      "gasUsed": "0xb1df",
      "effectiveGasPrice": "0x124f80",
      "blobGasUsed": "0x79e0",
      "from": "0xf7c7ddd2ed3ea7b745786951713f4ffef428adef",
      "to": "0x033ea50deaa8b064958fc40e34f994c154d27fff",
      "contractAddress": null,
      "daFootprintGasScalar": "0x138",
      "l1BaseFeeScalar": "0x44d",
      "l1BlobBaseFee": "0x1",
      "l1BlobBaseFeeScalar": "0xa118b",
      "l1Fee": "0x55",
      "l1GasPrice": "0xb",
      "l1GasUsed": "0x640"
    },
    {
      "status": "0x1",
      "cumulativeGasUsed": "0x9085b2",
      "logs": [
        {
          "address": "0x033ea50deaa8b064958fc40e34f994c154d27fff",
          "topics": [
            "0x575871bc0b98c7891a21b46fe2ef187e4719714907cbb9b7a21ba7cf14746623",
            "0x0000000000000000000000003c335e06063f6c02f31132b1f8a651c0bde8218d"
          ],
          "data": "0x0000000000000000000000000000000000000000000317f9ce66b6c069800000",
          "blockHash": "0xb42492c20d2485da585118a15bad1c0c58f884e503bdb4522a0cf9ed420861e0",
          "blockNumber": "0x2087b3a",
          "blockTimestamp": "0x69245554",
          "transactionHash": "0x82f062cb64ac7318ef9ed3fcc2fe5f630a5222a64977c56c2c66b2896955cbc5",
          "transactionIndex": "0x30",
          "logIndex": "0x111",
          "removed": false
        }
      ],
      "logsBloom": "0x00000000000000000000000000000000000000000000000000000000000000000000080000000000000000000000000000000000000020000000000000000000000000000000000000000000000000000000000000000000000000000000000000000000000000000000000000000000000000000000000000000000000000000000000000000000000000000000000000000000000000000000000000000000000000000000040000000100008000008000000080000000000000000000000000000000000000000000000000000000000000000002000000000000000000000000000000000000000000000000000000000040000000000000000000000000",
      "type": "0x2",
      "transactionHash": "0x82f062cb64ac7318ef9ed3fcc2fe5f630a5222a64977c56c2c66b2896955cbc5",
      "transactionIndex": "0x30",
      "blockHash": "0xb42492c20d2485da585118a15bad1c0c58f884e503bdb4522a0cf9ed420861e0",
      "blockNumber": "0x2087b3a",
      "gasUsed": "0xb1eb",
      "effectiveGasPrice": "0x124f80",
      "blobGasUsed": "0x79e0",
      "from": "0xf7c7ddd2ed3ea7b745786951713f4ffef428adef",
      "to": "0x033ea50deaa8b064958fc40e34f994c154d27fff",
      "contractAddress": null,
      "daFootprintGasScalar": "0x138",
      "l1BaseFeeScalar": "0x44d",
      "l1BlobBaseFee": "0x1",
      "l1BlobBaseFeeScalar": "0xa118b",
      "l1Fee": "0x55",
      "l1GasPrice": "0xb",
      "l1GasUsed": "0x640"
    },
    {
      "status": "0x1",
      "cumulativeGasUsed": "0x913791",
      "logs": [
        {
          "address": "0x033ea50deaa8b064958fc40e34f994c154d27fff",
          "topics": [
            "0x575871bc0b98c7891a21b46fe2ef187e4719714907cbb9b7a21ba7cf14746623",
            "0x00000000000000000000000037d32890f63d6aec1f6c2bfc4885a1b905c147d0"
          ],
          "data": "0x000000000000000000000000000000000000000000000a968163f0a57b400000",
          "blockHash": "0xb42492c20d2485da585118a15bad1c0c58f884e503bdb4522a0cf9ed420861e0",
          "blockNumber": "0x2087b3a",
          "blockTimestamp": "0x69245554",
          "transactionHash": "0x93e4758560ec22c55aba3361da744fc75f79d4acc00129c2e223124a1fba3c25",
          "transactionIndex": "0x31",
          "logIndex": "0x112",
          "removed": false
        }
      ],
      "logsBloom": "0x00000000000000000000000000000000000000000000000000000000000000000010080000000000000000000000000000000000000020000000000000000000000000000000000000000000000000000000000000000000000000080000000000000200000000000000000000000000000000000000000000000000000000000000000000000000000000000000000000000000000000000000000000000000000000000000040000000000000000008000000080000000000000000000000000000000000000000000000000000000000000000002000000000000000000000000000000000000000000000000000000000000000000000000000000000000",
      "type": "0x2",
      "transactionHash": "0x93e4758560ec22c55aba3361da744fc75f79d4acc00129c2e223124a1fba3c25",
      "transactionIndex": "0x31",
      "blockHash": "0xb42492c20d2485da585118a15bad1c0c58f884e503bdb4522a0cf9ed420861e0",
      "blockNumber": "0x2087b3a",
      "gasUsed": "0xb1df",
      "effectiveGasPrice": "0x124f80",
      "blobGasUsed": "0x79e0",
      "from": "0xf7c7ddd2ed3ea7b745786951713f4ffef428adef",
      "to": "0x033ea50deaa8b064958fc40e34f994c154d27fff",
      "contractAddress": null,
      "daFootprintGasScalar": "0x138",
      "l1BaseFeeScalar": "0x44d",
      "l1BlobBaseFee": "0x1",
      "l1BlobBaseFeeScalar": "0xa118b",
      "l1Fee": "0x55",
      "l1GasPrice": "0xb",
      "l1GasUsed": "0x640"
    },
    {
      "status": "0x1",
      "cumulativeGasUsed": "0x91e970",
      "logs": [
        {
          "address": "0x033ea50deaa8b064958fc40e34f994c154d27fff",
          "topics": [
            "0x575871bc0b98c7891a21b46fe2ef187e4719714907cbb9b7a21ba7cf14746623",
            "0x0000000000000000000000003d5f5004ef3bd1bcb03f578784757a5a67795f29"
          ],
          "data": "0x000000000000000000000000000000000000000000000b6f588aa7bcf5c00000",
          "blockHash": "0xb42492c20d2485da585118a15bad1c0c58f884e503bdb4522a0cf9ed420861e0",
          "blockNumber": "0x2087b3a",
          "blockTimestamp": "0x69245554",
          "transactionHash": "0x59f8091235831c0c8b7438cb06a7b0307a5bcb1e7e9814752af67f69091b874f",
          "transactionIndex": "0x32",
          "logIndex": "0x113",
          "removed": false
        }
      ],
      "logsBloom": "0x00000000000000000000000000000000000000000000000000000000000000000000080000000000000000010000000000000000000020000000000000000000000000000008000000000000000000000000000000000000000000000000000000000000000000000000000000000000000000000000000000000000000000000000000000000000000000000000000000000000000000000000000000000000000000000000040000000000000000008000000080000000000000000000000000000000000000000000000000000000000000000002000000000000000000000000000200000000000000000000000000000000000000000000000000000000",
      "type": "0x2",
      "transactionHash": "0x59f8091235831c0c8b7438cb06a7b0307a5bcb1e7e9814752af67f69091b874f",
      "transactionIndex": "0x32",
      "blockHash": "0xb42492c20d2485da585118a15bad1c0c58f884e503bdb4522a0cf9ed420861e0",
      "blockNumber": "0x2087b3a",
      "gasUsed": "0xb1df",
      "effectiveGasPrice": "0x124f80",
      "blobGasUsed": "0x79e0",
      "from": "0xf7c7ddd2ed3ea7b745786951713f4ffef428adef",
      "to": "0x033ea50deaa8b064958fc40e34f994c154d27fff",
      "contractAddress": null,
      "daFootprintGasScalar": "0x138",
      "l1BaseFeeScalar": "0x44d",
      "l1BlobBaseFee": "0x1",
      "l1BlobBaseFeeScalar": "0xa118b",
      "l1Fee": "0x55",
      "l1GasPrice": "0xb",
      "l1GasUsed": "0x640"
    },
    {
      "status": "0x1",
      "cumulativeGasUsed": "0x929b43",
      "logs": [
        {
          "address": "0x033ea50deaa8b064958fc40e34f994c154d27fff",
          "topics": [
            "0x575871bc0b98c7891a21b46fe2ef187e4719714907cbb9b7a21ba7cf14746623",
            "0x000000000000000000000000114ed53a68230fff4f1f4277e3d946eef90a0334"
          ],
          "data": "0x00000000000000000000000000000000000000000000006194049f30f7200000",
          "blockHash": "0xb42492c20d2485da585118a15bad1c0c58f884e503bdb4522a0cf9ed420861e0",
          "blockNumber": "0x2087b3a",
          "blockTimestamp": "0x69245554",
          "transactionHash": "0x40b998e8f19424345c0154501bf10e920d4c0ff0f7a38354074b8b97642e76a4",
          "transactionIndex": "0x33",
          "logIndex": "0x114",
          "removed": false
        }
      ],
      "logsBloom": "0x00000000000000000000000000000000000000000000000000000000000000000000080000000000000000000000000000000000000020000000000000000000000000000000000000000000000100000000000000000000000000000000000000000000000000000000000000000001000000000000000000000000000000000000000000000000000000000000000000002000000000000000000000000000000000000000040000000000000000008000000080000000000000000000000000000000000000000000000000000000000000000002000000000000000000000000000000000000000000000000000000000000000000000000000000000000",
      "type": "0x2",
      "transactionHash": "0x40b998e8f19424345c0154501bf10e920d4c0ff0f7a38354074b8b97642e76a4",
      "transactionIndex": "0x33",
      "blockHash": "0xb42492c20d2485da585118a15bad1c0c58f884e503bdb4522a0cf9ed420861e0",
      "blockNumber": "0x2087b3a",
      "gasUsed": "0xb1d3",
      "effectiveGasPrice": "0x124f80",
      "blobGasUsed": "0x79e0",
      "from": "0xf7c7ddd2ed3ea7b745786951713f4ffef428adef",
      "to": "0x033ea50deaa8b064958fc40e34f994c154d27fff",
      "contractAddress": null,
      "daFootprintGasScalar": "0x138",
      "l1BaseFeeScalar": "0x44d",
      "l1BlobBaseFee": "0x1",
      "l1BlobBaseFeeScalar": "0xa118b",
      "l1Fee": "0x55",
      "l1GasPrice": "0xb",
      "l1GasUsed": "0x640"
    },
    {
      "status": "0x1",
      "cumulativeGasUsed": "0x934d22",
      "logs": [
        {
          "address": "0x033ea50deaa8b064958fc40e34f994c154d27fff",
          "topics": [
            "0x575871bc0b98c7891a21b46fe2ef187e4719714907cbb9b7a21ba7cf14746623",
            "0x00000000000000000000000027faa3e80f9d791ee3da9d6a8f5407fa1bd2d28f"
          ],
          "data": "0x000000000000000000000000000000000000000000001c965d5aa35866600000",
          "blockHash": "0xb42492c20d2485da585118a15bad1c0c58f884e503bdb4522a0cf9ed420861e0",
          "blockNumber": "0x2087b3a",
          "blockTimestamp": "0x69245554",
          "transactionHash": "0xea3be2dc36b6499e1a5ab02370a6946fc93c0af72dbca23dbefc5ba64455d85b",
          "transactionIndex": "0x34",
          "logIndex": "0x115",
          "removed": false
        }
      ],
      "logsBloom": "0x00000000000000000000000000000000000000000000000000000000000000008000080000000000000000000000000000000000000020000000000000000000000000000000000000000000000000000000000000000000000000000000000000000000000000000000000000000000000000000000000000000040000000000000000000000000000000000000000000000000000000000000000000000000000000000000040010000000000000008000000080000000000000000000000000000000000000000000000000000000000000000002000000000000000000000000000000000000000000000000000000000000000000000000000000000000",
      "type": "0x2",
      "transactionHash": "0xea3be2dc36b6499e1a5ab02370a6946fc93c0af72dbca23dbefc5ba64455d85b",
      "transactionIndex": "0x34",
      "blockHash": "0xb42492c20d2485da585118a15bad1c0c58f884e503bdb4522a0cf9ed420861e0",
      "blockNumber": "0x2087b3a",
      "gasUsed": "0xb1df",
      "effectiveGasPrice": "0x124f80",
      "blobGasUsed": "0x79e0",
      "from": "0xf7c7ddd2ed3ea7b745786951713f4ffef428adef",
      "to": "0x033ea50deaa8b064958fc40e34f994c154d27fff",
      "contractAddress": null,
      "daFootprintGasScalar": "0x138",
      "l1BaseFeeScalar": "0x44d",
      "l1BlobBaseFee": "0x1",
      "l1BlobBaseFeeScalar": "0xa118b",
      "l1Fee": "0x55",
      "l1GasPrice": "0xb",
      "l1GasUsed": "0x640"
    },
    {
      "status": "0x1",
      "cumulativeGasUsed": "0x93fef5",
      "logs": [
        {
          "address": "0x033ea50deaa8b064958fc40e34f994c154d27fff",
          "topics": [
            "0x575871bc0b98c7891a21b46fe2ef187e4719714907cbb9b7a21ba7cf14746623",
            "0x0000000000000000000000002ba7c85a45767443f44274331f20299755b17c2f"
          ],
          "data": "0x0000000000000000000000000000000000000000000000ee86442fcd06c00000",
          "blockHash": "0xb42492c20d2485da585118a15bad1c0c58f884e503bdb4522a0cf9ed420861e0",
          "blockNumber": "0x2087b3a",
          "blockTimestamp": "0x69245554",
          "transactionHash": "0x535185ee542d41dac6722688a27570df10753a13e6e0fc1ffdd8a0008d049f91",
          "transactionIndex": "0x35",
          "logIndex": "0x116",
          "removed": false
        }
      ],
      "logsBloom": "0x00000000000000000000000000000000000000000000000000000000000000000000080000000000000000000000000000000000000020000000000000000000000000000000000000200000000000000000000000000000000000000000000000000000000000000000000000000000000000000000000000000000000000000000000000000000000000000000000000000000000000000000000000000000000000000000040000000000000000008000000080000000000000000000000000000000000000000000000000000000008000000002000000000000000000200000000000000000000000000000000000000000000000000000000000000000",
      "type": "0x2",
      "transactionHash": "0x535185ee542d41dac6722688a27570df10753a13e6e0fc1ffdd8a0008d049f91",
      "transactionIndex": "0x35",
      "blockHash": "0xb42492c20d2485da585118a15bad1c0c58f884e503bdb4522a0cf9ed420861e0",
      "blockNumber": "0x2087b3a",
      "gasUsed": "0xb1d3",
      "effectiveGasPrice": "0x124f80",
      "blobGasUsed": "0x79e0",
      "from": "0xf7c7ddd2ed3ea7b745786951713f4ffef428adef",
      "to": "0x033ea50deaa8b064958fc40e34f994c154d27fff",
      "contractAddress": null,
      "daFootprintGasScalar": "0x138",
      "l1BaseFeeScalar": "0x44d",
      "l1BlobBaseFee": "0x1",
      "l1BlobBaseFeeScalar": "0xa118b",
      "l1Fee": "0x55",
      "l1GasPrice": "0xb",
      "l1GasUsed": "0x640"
    },
    {
      "status": "0x1",
      "cumulativeGasUsed": "0x94b0c8",
      "logs": [
        {
          "address": "0x033ea50deaa8b064958fc40e34f994c154d27fff",
          "topics": [
            "0x575871bc0b98c7891a21b46fe2ef187e4719714907cbb9b7a21ba7cf14746623",
            "0x000000000000000000000000b9936ac3ee6b30c82587daf7f2ff417758aace78"
          ],
          "data": "0x0000000000000000000000000000000000000000000000d36b5f58ea17700000",
          "blockHash": "0xb42492c20d2485da585118a15bad1c0c58f884e503bdb4522a0cf9ed420861e0",
          "blockNumber": "0x2087b3a",
          "blockTimestamp": "0x69245554",
          "transactionHash": "0x5ddb6341c15072b8ba58763a526e725df06b6dc0bfc9487e20c72ba72dc7b66c",
          "transactionIndex": "0x36",
          "logIndex": "0x117",
          "removed": false
        }
      ],
      "logsBloom": "0x00000000000000000000000000000000000000000000000000000400000000000000080000000000000000000000000000000000000020000000000000000000000000000000000000000000000000000000000000000000000000000000000000000000000000000000000000000000000000000000000000000000000000000004000000000000000000000000000000000000000000000000000000000000000000000000040000000000000000008000000080000000000000000000000000000000000000000000000000000000000000000002000008000000000000000000000000000000000000000000000000000000000000000000000000000000",
      "type": "0x2",
      "transactionHash": "0x5ddb6341c15072b8ba58763a526e725df06b6dc0bfc9487e20c72ba72dc7b66c",
      "transactionIndex": "0x36",
      "blockHash": "0xb42492c20d2485da585118a15bad1c0c58f884e503bdb4522a0cf9ed420861e0",
      "blockNumber": "0x2087b3a",
      "gasUsed": "0xb1d3",
      "effectiveGasPrice": "0x124f80",
      "blobGasUsed": "0x79e0",
      "from": "0xf7c7ddd2ed3ea7b745786951713f4ffef428adef",
      "to": "0x033ea50deaa8b064958fc40e34f994c154d27fff",
      "contractAddress": null,
      "daFootprintGasScalar": "0x138",
      "l1BaseFeeScalar": "0x44d",
      "l1BlobBaseFee": "0x1",
      "l1BlobBaseFeeScalar": "0xa118b",
      "l1Fee": "0x55",
      "l1GasPrice": "0xb",
      "l1GasUsed": "0x640"
    }
  ],
  "libraries": [],
  "pending": [],
  "returns": {},
  "timestamp": 1763988821612,
  "chain": 84532,
  "commit": "bfd6b01"
}