{
  "transactions": [
    {
      "hash": "0x8f53427e0845731e73e300e4aae02f9d32190e2b02ae8a03a5f389ce1553e6f4",
      "transactionType": "CALL",
      "contractName": null,
      "contractAddress": "0xf32b34dfc110bf618a0ff148afbad8c3915c45ab",
      "function": "mint(address,uint256)",
      "arguments": [
        "0xf7c7DDD2eD3EA7B745786951713f4FfeF428adef",
        "200000000"
      ],
      "transaction": {
        "from": "0xf7c7ddd2ed3ea7b745786951713f4ffef428adef",
        "to": "0xf32b34dfc110bf618a0ff148afbad8c3915c45ab",
        "gas": "0xb6b2",
        "value": "0x0",
        "input": "0x40c10f19000000000000000000000000f7c7ddd2ed3ea7b745786951713f4ffef428adef000000000000000000000000000000000000000000000000000000000bebc200",
        "nonce": "0x14a3",
        "chainId": "0x14a34"
      },
      "additionalContracts": [],
      "isFixedGasLimit": false
    },
    {
      "hash": "0x9ac5956149af0787fab3d9841eff8d33b9b9e45a7c9e5adb27e7092b6de33ec5",
      "transactionType": "CALL",
      "contractName": null,
      "contractAddress": "0xf32b34dfc110bf618a0ff148afbad8c3915c45ab",
      "function": "transfer(address,uint256)",
      "arguments": [
        "0x492E6456D9528771018DeB9E87ef7750EF184104",
        "200000000"
      ],
      "transaction": {
        "from": "0xf7c7ddd2ed3ea7b745786951713f4ffef428adef",
        "to": "0xf32b34dfc110bf618a0ff148afbad8c3915c45ab",
        "gas": "0x11482",
        "value": "0x0",
        "input": "0xa9059cbb000000000000000000000000492e6456d9528771018deb9e87ef7750ef184104000000000000000000000000000000000000000000000000000000000bebc200",
        "nonce": "0x14a4",
        "chainId": "0x14a34"
      },
      "additionalContracts": [],
      "isFixedGasLimit": false
    },
    {
      "hash": "0xfad8371eb037d56390e8efd6647a69e639499e481de359bb3bda017128d55ee6",
      "transactionType": "CALL",
      "contractName": null,
      "contractAddress": "0x492e6456d9528771018deb9e87ef7750ef184104",
      "function": "execute(bytes,bytes[],uint256)",
      "arguments": [
        "0x1004",
        "[0x000000000000000000000000000000000000000000000000000000000000004000000000000000000000000000000000000000000000000000000000000000800000000000000000000000000000000000000000000000000000000000000003060b0f00000000000000000000000000000000000000000000000000000000000000000000000000000000000000000000000000000000000000000000000003000000000000000000000000000000000000000000000000000000000000006000000000000000000000000000000000000000000000000000000000000001e000000000000000000000000000000000000000000000000000000000000002600000000000000000000000000000000000000000000000000000000000000160000000000000000000000000000000000000000000000000000000000000002000000000000000000000000050108c7ccdfdf341baec1c1f4a94b42a764628ef000000000000000000000000f32b34dfc110bf618a0ff148afbad8c3915c45ab0000000000000000000000000000000000000000000000000000000000000000000000000000000000000000000000000000000000000000000000000000003c000000000000000000000000033ea50deaa8b064958fc40e34f994c154d27fff0000000000000000000000000000000000000000000000000000000000000000000000000000000000000000000000000000000000000000000000000bebc2000000000000000000000000000000000000000000000000000000000000000000000000000000000000000000000000000000000000000000000000000000012000000000000000000000000000000000000000000000000000000000000000000000000000000000000000000000000000000000000000000000000000000060000000000000000000000000f32b34dfc110bf618a0ff148afbad8c3915c45ab000000000000000000000000000000000000000000000000000000000bebc2000000000000000000000000000000000000000000000000000000000000000000000000000000000000000000000000000000000000000000000000000000004000000000000000000000000050108c7ccdfdf341baec1c1f4a94b42a764628ef0000000000000000000000000000000000000000000000000000000000000000, 0x00000000000000000000000050108c7ccdfdf341baec1c1f4a94b42a764628ef000000000000000000000000f7c7ddd2ed3ea7b745786951713f4ffef428adef0000000000000000000000000000000000000000000000000000000000000000]",
        "1763867788"
      ],
      "transaction": {
        "from": "0xf7c7ddd2ed3ea7b745786951713f4ffef428adef",
        "to": "0x492e6456d9528771018deb9e87ef7750ef184104",
        "gas": "0x6b617",
        "value": "0x0",
        "input": "0x3593564c000000000000000000000000000000000000000000000000000000000000006000000000000000000000000000000000000000000000000000000000000000a00000000000000000000000000000000000000000000000000000000069227c8c000000000000000000000000000000000000000000000000000000000000000210040000000000000000000000000000000000000000000000000000000000000000000000000000000000000000000000000000000000000000000000000002000000000000000000000000000000000000000000000000000000000000004000000000000000000000000000000000000000000000000000000000000003c00000000000000000000000000000000000000000000000000000000000000360000000000000000000000000000000000000000000000000000000000000004000000000000000000000000000000000000000000000000000000000000000800000000000000000000000000000000000000000000000000000000000000003060b0f00000000000000000000000000000000000000000000000000000000000000000000000000000000000000000000000000000000000000000000000003000000000000000000000000000000000000000000000000000000000000006000000000000000000000000000000000000000000000000000000000000001e000000000000000000000000000000000000000000000000000000000000002600000000000000000000000000000000000000000000000000000000000000160000000000000000000000000000000000000000000000000000000000000002000000000000000000000000050108c7ccdfdf341baec1c1f4a94b42a764628ef000000000000000000000000f32b34dfc110bf618a0ff148afbad8c3915c45ab0000000000000000000000000000000000000000000000000000000000000000000000000000000000000000000000000000000000000000000000000000003c000000000000000000000000033ea50deaa8b064958fc40e34f994c154d27fff0000000000000000000000000000000000000000000000000000000000000000000000000000000000000000000000000000000000000000000000000bebc2000000000000000000000000000000000000000000000000000000000000000000000000000000000000000000000000000000000000000000000000000000012000000000000000000000000000000000000000000000000000000000000000000000000000000000000000000000000000000000000000000000000000000060000000000000000000000000f32b34dfc110bf618a0ff148afbad8c3915c45ab000000000000000000000000000000000000000000000000000000000bebc2000000000000000000000000000000000000000000000000000000000000000000000000000000000000000000000000000000000000000000000000000000004000000000000000000000000050108c7ccdfdf341baec1c1f4a94b42a764628ef0000000000000000000000000000000000000000000000000000000000000000000000000000000000000000000000000000000000000000000000000000006000000000000000000000000050108c7ccdfdf341baec1c1f4a94b42a764628ef000000000000000000000000f7c7ddd2ed3ea7b745786951713f4ffef428adef0000000000000000000000000000000000000000000000000000000000000000",
        "nonce": "0x14a5",
        "chainId": "0x14a34"
      },
      "additionalContracts": [],
      "isFixedGasLimit": false
    },
    {
      "hash": "0x2119d87da4bdbe32aed24db865885d4bdf5952bf4720f37020fa9a2426e45649",
      "transactionType": "CALL",
      "contractName": null,
      "contractAddress": "0x50108c7ccdfdf341baec1c1f4a94b42a764628ef",
      "function": "transfer(address,uint256)",
      "arguments": [
        "0x492E6456D9528771018DeB9E87ef7750EF184104",
        "100000000000000000000"
      ],
      "transaction": {
        "from": "0xf7c7ddd2ed3ea7b745786951713f4ffef428adef",
        "to": "0x50108c7ccdfdf341baec1c1f4a94b42a764628ef",
        "gas": "0x27589",
        "value": "0x0",
        "input": "0xa9059cbb000000000000000000000000492e6456d9528771018deb9e87ef7750ef1841040000000000000000000000000000000000000000000000056bc75e2d63100000",
        "nonce": "0x14a6",
        "chainId": "0x14a34"
      },
      "additionalContracts": [],
      "isFixedGasLimit": false
    },
    {
      "hash": "0x60ffa28d2a52b25c2530d4f7a5d8f733d982ef45d1c1b35e9738f7aace37e93b",
      "transactionType": "CALL",
      "contractName": null,
      "contractAddress": "0x492e6456d9528771018deb9e87ef7750ef184104",
      "function": "execute(bytes,bytes[],uint256)",
      "arguments": [
        "0x1004",
        "[0x000000000000000000000000000000000000000000000000000000000000004000000000000000000000000000000000000000000000000000000000000000800000000000000000000000000000000000000000000000000000000000000003060b0f00000000000000000000000000000000000000000000000000000000000000000000000000000000000000000000000000000000000000000000000003000000000000000000000000000000000000000000000000000000000000006000000000000000000000000000000000000000000000000000000000000001e00000000000000000000000000000000000000000000000000000000000000260000000000000000000000000000000000000000000000000000000000000016000000000000000000000000000000000000000000000000000000000000000200000000000000000000000004f24bdfe9f375e8ba9aca6247daaa8624cc4a02e00000000000000000000000050108c7ccdfdf341baec1c1f4a94b42a764628ef00000000000000000000000000000000000000000000000000000000000000000000000000000000000000000000000000000000000000000000000000000001000000000000000000000000033ea50deaa8b064958fc40e34f994c154d27fff00000000000000000000000000000000000000000000000000000000000000000000000000000000000000000000000000000000000000056bc75e2d63100000000000000000000000000000000000000000000000000000000000000000000000000000000000000000000000000000000000000000000000000000000001200000000000000000000000000000000000000000000000000000000000000000000000000000000000000000000000000000000000000000000000000000006000000000000000000000000050108c7ccdfdf341baec1c1f4a94b42a764628ef0000000000000000000000000000000000000000000000056bc75e2d63100000000000000000000000000000000000000000000000000000000000000000000000000000000000000000000000000000000000000000000000000000000000400000000000000000000000004f24bdfe9f375e8ba9aca6247daaa8624cc4a02e0000000000000000000000000000000000000000000000000000000000000000, 0x0000000000000000000000004f24bdfe9f375e8ba9aca6247daaa8624cc4a02e000000000000000000000000f7c7ddd2ed3ea7b745786951713f4ffef428adef0000000000000000000000000000000000000000000000000000000000000000]",
        "1763867788"
      ],
      "transaction": {
        "from": "0xf7c7ddd2ed3ea7b745786951713f4ffef428adef",
        "to": "0x492e6456d9528771018deb9e87ef7750ef184104",
        "gas": "0xcd603",
        "value": "0x0",
        "input": "0x3593564c000000000000000000000000000000000000000000000000000000000000006000000000000000000000000000000000000000000000000000000000000000a00000000000000000000000000000000000000000000000000000000069227c8c000000000000000000000000000000000000000000000000000000000000000210040000000000000000000000000000000000000000000000000000000000000000000000000000000000000000000000000000000000000000000000000002000000000000000000000000000000000000000000000000000000000000004000000000000000000000000000000000000000000000000000000000000003c00000000000000000000000000000000000000000000000000000000000000360000000000000000000000000000000000000000000000000000000000000004000000000000000000000000000000000000000000000000000000000000000800000000000000000000000000000000000000000000000000000000000000003060b0f00000000000000000000000000000000000000000000000000000000000000000000000000000000000000000000000000000000000000000000000003000000000000000000000000000000000000000000000000000000000000006000000000000000000000000000000000000000000000000000000000000001e00000000000000000000000000000000000000000000000000000000000000260000000000000000000000000000000000000000000000000000000000000016000000000000000000000000000000000000000000000000000000000000000200000000000000000000000004f24bdfe9f375e8ba9aca6247daaa8624cc4a02e00000000000000000000000050108c7ccdfdf341baec1c1f4a94b42a764628ef00000000000000000000000000000000000000000000000000000000000000000000000000000000000000000000000000000000000000000000000000000001000000000000000000000000033ea50deaa8b064958fc40e34f994c154d27fff00000000000000000000000000000000000000000000000000000000000000000000000000000000000000000000000000000000000000056bc75e2d63100000000000000000000000000000000000000000000000000000000000000000000000000000000000000000000000000000000000000000000000000000000001200000000000000000000000000000000000000000000000000000000000000000000000000000000000000000000000000000000000000000000000000000006000000000000000000000000050108c7ccdfdf341baec1c1f4a94b42a764628ef0000000000000000000000000000000000000000000000056bc75e2d63100000000000000000000000000000000000000000000000000000000000000000000000000000000000000000000000000000000000000000000000000000000000400000000000000000000000004f24bdfe9f375e8ba9aca6247daaa8624cc4a02e000000000000000000000000000000000000000000000000000000000000000000000000000000000000000000000000000000000000000000000000000000600000000000000000000000004f24bdfe9f375e8ba9aca6247daaa8624cc4a02e000000000000000000000000f7c7ddd2ed3ea7b745786951713f4ffef428adef0000000000000000000000000000000000000000000000000000000000000000",
        "nonce": "0x14a7",
        "chainId": "0x14a34"
      },
      "additionalContracts": [],
      "isFixedGasLimit": false
    }
  ],
  "receipts": [
    {
      "status": "0x1",
      "cumulativeGasUsed": "0x7c9f7a",
      "logs": [
        {
          "address": "0xf32b34dfc110bf618a0ff148afbad8c3915c45ab",
          "topics": [
            "0xddf252ad1be2c89b69c2b068fc378daa952ba7f163c4a11628f55a4df523b3ef",
            "0x0000000000000000000000000000000000000000000000000000000000000000",
            "0x000000000000000000000000f7c7ddd2ed3ea7b745786951713f4ffef428adef"
          ],
          "data": "0x000000000000000000000000000000000000000000000000000000000bebc200",
          "blockHash": "0x53ddf94edb46467980dcc4875152cb68e2dc6fc2b7216940db438ce4a7e3b610",
          "blockNumber": "0x2078e52",
          "blockTimestamp": "0x69227b84",
          "transactionHash": "0x8f53427e0845731e73e300e4aae02f9d32190e2b02ae8a03a5f389ce1553e6f4",
          "transactionIndex": "0x1d",
          "logIndex": "0xba",
          "removed": false
        }
      ],
      "logsBloom": "0x00000000000000000000000000000000000000000000000000000000000000000000000000000000000000000000000000000000000000000000000000008400000000000000000000000008000000000000000000000000000000000000000000000000020000000000000000000800000000000000000000000010000000000000000000000000000000000000000000000000000000000000000000000000000000000000000000000000000000000000000010000000000000000000000000000002000000000000000000000200000000000000000000010000000020000000000000000000000000000000000000000000000000000000000001000000",
      "type": "0x2",
      "transactionHash": "0x8f53427e0845731e73e300e4aae02f9d32190e2b02ae8a03a5f389ce1553e6f4",
      "transactionIndex": "0x1d",
      "blockHash": "0x53ddf94edb46467980dcc4875152cb68e2dc6fc2b7216940db438ce4a7e3b610",
      "blockNumber": "0x2078e52",
      "gasUsed": "0x8445",
      "effectiveGasPrice": "0x279256b",
      "blobGasUsed": "0x79e0",
      "from": "0xf7c7ddd2ed3ea7b745786951713f4ffef428adef",
      "to": "0xf32b34dfc110bf618a0ff148afbad8c3915c45ab",
      "contractAddress": null,
      "daFootprintGasScalar": "0x138",
      "l1BaseFeeScalar": "0x44d",
      "l1BlobBaseFee": "0x1",
      "l1BlobBaseFeeScalar": "0xa118b",
      "l1Fee": "0xe1",
      "l1GasPrice": "0xb",
      "l1GasUsed": "0x640"
    },
    {
      "status": "0x1",
      "cumulativeGasUsed": "0x7d67aa",
      "logs": [
        {
          "address": "0xf32b34dfc110bf618a0ff148afbad8c3915c45ab",
          "topics": [
            "0xddf252ad1be2c89b69c2b068fc378daa952ba7f163c4a11628f55a4df523b3ef",
            "0x000000000000000000000000f7c7ddd2ed3ea7b745786951713f4ffef428adef",
            "0x000000000000000000000000492e6456d9528771018deb9e87ef7750ef184104"
          ],
          "data": "0x000000000000000000000000000000000000000000000000000000000bebc200",
          "blockHash": "0x53ddf94edb46467980dcc4875152cb68e2dc6fc2b7216940db438ce4a7e3b610",
          "blockNumber": "0x2078e52",
          "blockTimestamp": "0x69227b84",
          "transactionHash": "0x9ac5956149af0787fab3d9841eff8d33b9b9e45a7c9e5adb27e7092b6de33ec5",
          "transactionIndex": "0x1e",
          "logIndex": "0xbb",
          "removed": false
        }
      ],
      "logsBloom": "0x00000000000400000000000000000000000000000000000000000000000000000000000000000000000000000000000000000000000000000000000000008400000000000000000000000008000000000000000000000000000000000000000000000000000000000002000000000000000000000000000000000010000000000000000000000000000000000000000000000000000000000000000000000000000000000000000000000000000000000000000010000000000000000000000000000002000000000000000000000200000000000000000000010000000000000000020000000000000000000000000000000000000000000000000001000000",
      "type": "0x2",
      "transactionHash": "0x9ac5956149af0787fab3d9841eff8d33b9b9e45a7c9e5adb27e7092b6de33ec5",
      "transactionIndex": "0x1e",
      "blockHash": "0x53ddf94edb46467980dcc4875152cb68e2dc6fc2b7216940db438ce4a7e3b610",
      "blockNumber": "0x2078e52",
      "gasUsed": "0xc830",
      "effectiveGasPrice": "0x279256b",
      "blobGasUsed": "0x79e0",
      "from": "0xf7c7ddd2ed3ea7b745786951713f4ffef428adef",
      "to": "0xf32b34dfc110bf618a0ff148afbad8c3915c45ab",
      "contractAddress": null,
      "daFootprintGasScalar": "0x138",
      "l1BaseFeeScalar": "0x44d",
      "l1BlobBaseFee": "0x1",
      "l1BlobBaseFeeScalar": "0xa118b",
      "l1Fee": "0xe1",
      "l1GasPrice": "0xb",
      "l1GasUsed": "0x640"
    },
    {
      "status": "0x1",
      "cumulativeGasUsed": "0x824389",
      "logs": [
        {
          "address": "0x05e73354cfdd6745c338b50bcfdfa3aa6fa03408",
          "topics": [
            "0x1b3d7edb2e9c0b0e7c525b20aaaef0f5940d2ed71663c7d39266ecafac728859",
            "0x0000000000000000000000000000000000000000000000000000000000000000",
            "0x000000000000000000000000033ea50deaa8b064958fc40e34f994c154d27fff",
            "0x000000000000000000000000f32b34dfc110bf618a0ff148afbad8c3915c45ab"
          ],
          "data": "0x000000000000000000000000033ea50deaa8b064958fc40e34f994c154d27fff000000000000000000000000000000000000000000000000000000000be8b4c0",
          "blockHash": "0x53ddf94edb46467980dcc4875152cb68e2dc6fc2b7216940db438ce4a7e3b610",
          "blockNumber": "0x2078e52",
          "blockTimestamp": "0x69227b84",
          "transactionHash": "0xfad8371eb037d56390e8efd6647a69e639499e481de359bb3bda017128d55ee6",
          "transactionIndex": "0x1f",
          "logIndex": "0xbc",
          "removed": false
        },
        {
          "address": "0xf32b34dfc110bf618a0ff148afbad8c3915c45ab",
          "topics": [
            "0xddf252ad1be2c89b69c2b068fc378daa952ba7f163c4a11628f55a4df523b3ef",
            "0x00000000000000000000000005e73354cfdd6745c338b50bcfdfa3aa6fa03408",
            "0x000000000000000000000000033ea50deaa8b064958fc40e34f994c154d27fff"
          ],
          "data": "0x0000000000000000000000000000000000000000000000000000000000030d40",
          "blockHash": "0x53ddf94edb46467980dcc4875152cb68e2dc6fc2b7216940db438ce4a7e3b610",
          "blockNumber": "0x2078e52",
          "blockTimestamp": "0x69227b84",
          "transactionHash": "0xfad8371eb037d56390e8efd6647a69e639499e481de359bb3bda017128d55ee6",
          "transactionIndex": "0x1f",
          "logIndex": "0xbd",
          "removed": false
        },
        {
          "address": "0x05e73354cfdd6745c338b50bcfdfa3aa6fa03408",
          "topics": [
            "0x1b3d7edb2e9c0b0e7c525b20aaaef0f5940d2ed71663c7d39266ecafac728859",
            "0x000000000000000000000000033ea50deaa8b064958fc40e34f994c154d27fff",
            "0x0000000000000000000000000000000000000000000000000000000000000000",
            "0x00000000000000000000000050108c7ccdfdf341baec1c1f4a94b42a764628ef"
          ],
          "data": "0x000000000000000000000000033ea50deaa8b064958fc40e34f994c154d27fff00000000000000000000000000000000000000000000000ad4c7d7192331e01e",
          "blockHash": "0x53ddf94edb46467980dcc4875152cb68e2dc6fc2b7216940db438ce4a7e3b610",
          "blockNumber": "0x2078e52",
          "blockTimestamp": "0x69227b84",
          "transactionHash": "0xfad8371eb037d56390e8efd6647a69e639499e481de359bb3bda017128d55ee6",
          "transactionIndex": "0x1f",
          "logIndex": "0xbe",
          "removed": false
        },
        {
          "address": "0xf32b34dfc110bf618a0ff148afbad8c3915c45ab",
          "topics": [
            "0xddf252ad1be2c89b69c2b068fc378daa952ba7f163c4a11628f55a4df523b3ef",
            "0x000000000000000000000000033ea50deaa8b064958fc40e34f994c154d27fff",
            "0x000000000000000000000000f35a5a74ac460b700279d4118f950710abb73213"
          ],
          "data": "0x0000000000000000000000000000000000000000000000000000000000009c40",
          "blockHash": "0x53ddf94edb46467980dcc4875152cb68e2dc6fc2b7216940db438ce4a7e3b610",
          "blockNumber": "0x2078e52",
          "blockTimestamp": "0x69227b84",
          "transactionHash": "0xfad8371eb037d56390e8efd6647a69e639499e481de359bb3bda017128d55ee6",
          "transactionIndex": "0x1f",
          "logIndex": "0xbf",
          "removed": false
        },
        {
          "address": "0x033ea50deaa8b064958fc40e34f994c154d27fff",
          "topics": [
            "0x429b831978c2f674eac39121890305de7ab83854eb64b6ad8b1df4f49d98f241",
            "0x9bc634f664de6bb7e2c4fbecc623a81455676b7b8edea987396c19bca5cf6668",
            "0x000000000000000000000000492e6456d9528771018deb9e87ef7750ef184104"
          ],
          "data": "0xfffffffffffffffffffffffffffffffffffffffffffffff52b3828e6dcce1fe2000000000000000000000000000000000000000000000000000000000bebc20000000000000000000000000000000000000000000001a77962d5c2c21ece1fe2000000000000000000000000000000000000000000000000000001d1b53545c00000000000000000000000000000000000000000000000000000000000030d40",
          "blockHash": "0x53ddf94edb46467980dcc4875152cb68e2dc6fc2b7216940db438ce4a7e3b610",
          "blockNumber": "0x2078e52",
          "blockTimestamp": "0x69227b84",
          "transactionHash": "0xfad8371eb037d56390e8efd6647a69e639499e481de359bb3bda017128d55ee6",
          "transactionIndex": "0x1f",
          "logIndex": "0xc0",
          "removed": false
        },
        {
          "address": "0x05e73354cfdd6745c338b50bcfdfa3aa6fa03408",
          "topics": [
            "0x40e9cecb9f5f1f1c5b9c97dec2917b7ee92e57ba5563708daca94dd84ad7112f",
            "0x9bc634f664de6bb7e2c4fbecc623a81455676b7b8edea987396c19bca5cf6668",
            "0x000000000000000000000000492e6456d9528771018deb9e87ef7750ef184104"
          ],
          "data": "0x000000000000000000000000000000000000000000000000000000000000000000000000000000000000000000000000000000000000000000000000000000000000000000000000000000000000000000000001000000000000000000000000000000000000000000000000000000000000000000000000000000000000000000000000000000000000000000000000000000000000000000000000000000000000000000000000000000000000000000000000000000000000000000000000",
          "blockHash": "0x53ddf94edb46467980dcc4875152cb68e2dc6fc2b7216940db438ce4a7e3b610",
          "blockNumber": "0x2078e52",
          "blockTimestamp": "0x69227b84",
          "transactionHash": "0xfad8371eb037d56390e8efd6647a69e639499e481de359bb3bda017128d55ee6",
          "transactionIndex": "0x1f",
          "logIndex": "0xc1",
          "removed": false
        },
        {
          "address": "0xf32b34dfc110bf618a0ff148afbad8c3915c45ab",
          "topics": [
            "0xddf252ad1be2c89b69c2b068fc378daa952ba7f163c4a11628f55a4df523b3ef",
            "0x000000000000000000000000492e6456d9528771018deb9e87ef7750ef184104",
            "0x00000000000000000000000005e73354cfdd6745c338b50bcfdfa3aa6fa03408"
          ],
          "data": "0x000000000000000000000000000000000000000000000000000000000bebc200",
          "blockHash": "0x53ddf94edb46467980dcc4875152cb68e2dc6fc2b7216940db438ce4a7e3b610",
          "blockNumber": "0x2078e52",
          "blockTimestamp": "0x69227b84",
          "transactionHash": "0xfad8371eb037d56390e8efd6647a69e639499e481de359bb3bda017128d55ee6",
          "transactionIndex": "0x1f",
          "logIndex": "0xc2",
          "removed": false
        },
        {
          "address": "0x50108c7ccdfdf341baec1c1f4a94b42a764628ef",
          "topics": [
            "0xddf252ad1be2c89b69c2b068fc378daa952ba7f163c4a11628f55a4df523b3ef",
            "0x00000000000000000000000005e73354cfdd6745c338b50bcfdfa3aa6fa03408",
            "0x000000000000000000000000f7c7ddd2ed3ea7b745786951713f4ffef428adef"
          ],
          "data": "0x00000000000000000000000000000000000000000000000ad4c7d7192331e01e",
          "blockHash": "0x53ddf94edb46467980dcc4875152cb68e2dc6fc2b7216940db438ce4a7e3b610",
          "blockNumber": "0x2078e52",
          "blockTimestamp": "0x69227b84",
          "transactionHash": "0xfad8371eb037d56390e8efd6647a69e639499e481de359bb3bda017128d55ee6",
          "transactionIndex": "0x1f",
          "logIndex": "0xc3",
          "removed": false
        }
      ],
      "logsBloom": "0x000000000004000000000000000000800201000000000000000000000008000000000001000000000000000000000000000000000400200000000000000084000010000080100000000000080000040000000000001000200000000000100000000000000200200000020000000008000000000000000000000000100000000010000000040000000000000000000040000000a0000000000000000000000000000000000000001000000000000020008100000010000000000000000040000000000002021002001004000000000200000000000002000000010000000020000000220000000000004000800800000000000000000000000000000005000000",
      "type": "0x2",
      "transactionHash": "0xfad8371eb037d56390e8efd6647a69e639499e481de359bb3bda017128d55ee6",
      "transactionIndex": "0x1f",
      "blockHash": "0x53ddf94edb46467980dcc4875152cb68e2dc6fc2b7216940db438ce4a7e3b610",
      "blockNumber": "0x2078e52",
      "gasUsed": "0x4dbdf",
      "effectiveGasPrice": "0x279256b",
      "blobGasUsed": "0x15408",
      "from": "0xf7c7ddd2ed3ea7b745786951713f4ffef428adef",
      "to": "0x492e6456d9528771018deb9e87ef7750ef184104",
      "contractAddress": null,
      "daFootprintGasScalar": "0x138",
      "l1BaseFeeScalar": "0x44d",
      "l1BlobBaseFee": "0x1",
      "l1BlobBaseFeeScalar": "0xa118b",
      "l1Fee": "0xe1",
      "l1GasPrice": "0xb",
      "l1GasUsed": "0x1177"
    },
    {
      "status": "0x1",
      "cumulativeGasUsed": "0x840b4f",
      "logs": [
        {
          "address": "0x50108c7ccdfdf341baec1c1f4a94b42a764628ef",
          "topics": [
            "0xddf252ad1be2c89b69c2b068fc378daa952ba7f163c4a11628f55a4df523b3ef",
            "0x000000000000000000000000f7c7ddd2ed3ea7b745786951713f4ffef428adef",
            "0x000000000000000000000000492e6456d9528771018deb9e87ef7750ef184104"
          ],
          "data": "0x0000000000000000000000000000000000000000000000056bc75e2d63100000",
          "blockHash": "0x53ddf94edb46467980dcc4875152cb68e2dc6fc2b7216940db438ce4a7e3b610",
          "blockNumber": "0x2078e52",
          "blockTimestamp": "0x69227b84",
          "transactionHash": "0x2119d87da4bdbe32aed24db865885d4bdf5952bf4720f37020fa9a2426e45649",
          "transactionIndex": "0x20",
          "logIndex": "0xc4",
          "removed": false
        }
      ],
      "logsBloom": "0x00000000000400000000000000000000000000000000000000000000000000000000000000000000000000000000000000000000000000000000000000008000001000000000000000000008000000000000000000000000000000000010000000000000000020000002000000000000000000000000000000000010000000000000000000000000000000000000000000000000000000000000000000000000000000000000000000000000000000000000000000000000000000000000000000000002000000000000000000000200000000000000000000000000000000000000020000000000000000000000000000000000000000000000000001000000",
      "type": "0x2",
      "transactionHash": "0x2119d87da4bdbe32aed24db865885d4bdf5952bf4720f37020fa9a2426e45649",
      "transactionIndex": "0x20",
      "blockHash": "0x53ddf94edb46467980dcc4875152cb68e2dc6fc2b7216940db438ce4a7e3b610",
      "blockNumber": "0x2078e52",
      "gasUsed": "0x1c7c6",
      "effectiveGasPrice": "0x279256b",
      "blobGasUsed": "0x79e0",
      "from": "0xf7c7ddd2ed3ea7b745786951713f4ffef428adef",
      "to": "0x50108c7ccdfdf341baec1c1f4a94b42a764628ef",
      "contractAddress": null,
      "daFootprintGasScalar": "0x138",
      "l1BaseFeeScalar": "0x44d",
      "l1BlobBaseFee": "0x1",
      "l1BlobBaseFeeScalar": "0xa118b",
      "l1Fee": "0xe1",
      "l1GasPrice": "0xb",
      "l1GasUsed": "0x640"
    },
    {
      "status": "0x1",
      "cumulativeGasUsed": "0x8cd228",
      "logs": [
        {
          "address": "0x05e73354cfdd6745c338b50bcfdfa3aa6fa03408",
          "topics": [
            "0x1b3d7edb2e9c0b0e7c525b20aaaef0f5940d2ed71663c7d39266ecafac728859",
            "0x0000000000000000000000000000000000000000000000000000000000000000",
            "0x000000000000000000000000033ea50deaa8b064958fc40e34f994c154d27fff",
            "0x00000000000000000000000050108c7ccdfdf341baec1c1f4a94b42a764628ef"
          ],
          "data": "0x000000000000000000000000033ea50deaa8b064958fc40e34f994c154d27fff0000000000000000000000000000000000000000000000056900d33ca7fc0000",
          "blockHash": "0x53ddf94edb46467980dcc4875152cb68e2dc6fc2b7216940db438ce4a7e3b610",
          "blockNumber": "0x2078e52",
          "blockTimestamp": "0x69227b84",
          "transactionHash": "0x60ffa28d2a52b25c2530d4f7a5d8f733d982ef45d1c1b35e9738f7aace37e93b",
          "transactionIndex": "0x21",
          "logIndex": "0xc5",
          "removed": false
        },
        {
          "address": "0x05e73354cfdd6745c338b50bcfdfa3aa6fa03408",
          "topics": [
            "0x1b3d7edb2e9c0b0e7c525b20aaaef0f5940d2ed71663c7d39266ecafac728859",
            "0x0000000000000000000000000000000000000000000000000000000000000000",
            "0x000000000000000000000000f35a5a74ac460b700279d4118f950710abb73213",
            "0x00000000000000000000000050108c7ccdfdf341baec1c1f4a94b42a764628ef"
          ],
          "data": "0x000000000000000000000000033ea50deaa8b064958fc40e34f994c154d27fff00000000000000000000000000000000000000000000000002c68af0bb140000",
          "blockHash": "0x53ddf94edb46467980dcc4875152cb68e2dc6fc2b7216940db438ce4a7e3b610",
          "blockNumber": "0x2078e52",
          "blockTimestamp": "0x69227b84",
          "transactionHash": "0x60ffa28d2a52b25c2530d4f7a5d8f733d982ef45d1c1b35e9738f7aace37e93b",
          "transactionIndex": "0x21",
          "logIndex": "0xc6",
          "removed": false
        },
        {
          "address": "0x4f24bdfe9f375e8ba9aca6247daaa8624cc4a02e",
          "topics": [
            "0xddf252ad1be2c89b69c2b068fc378daa952ba7f163c4a11628f55a4df523b3ef",
            "0x0000000000000000000000000000000000000000000000000000000000000000",
            "0x000000000000000000000000033ea50deaa8b064958fc40e34f994c154d27fff"
          ],
          "data": "0x000000000000000000000000000000000000000000000000007dbf9107a3da70",
          "blockHash": "0x53ddf94edb46467980dcc4875152cb68e2dc6fc2b7216940db438ce4a7e3b610",
          "blockNumber": "0x2078e52",
          "blockTimestamp": "0x69227b84",
          "transactionHash": "0x60ffa28d2a52b25c2530d4f7a5d8f733d982ef45d1c1b35e9738f7aace37e93b",
          "transactionIndex": "0x21",
          "logIndex": "0xc7",
          "removed": false
        },
        {
          "address": "0x4f24bdfe9f375e8ba9aca6247daaa8624cc4a02e",
          "topics": [
            "0xddf252ad1be2c89b69c2b068fc378daa952ba7f163c4a11628f55a4df523b3ef",
            "0x000000000000000000000000033ea50deaa8b064958fc40e34f994c154d27fff",
            "0x00000000000000000000000005e73354cfdd6745c338b50bcfdfa3aa6fa03408"
          ],
          "data": "0x000000000000000000000000000000000000000000000000007dbf9107a3da70",
          "blockHash": "0x53ddf94edb46467980dcc4875152cb68e2dc6fc2b7216940db438ce4a7e3b610",
          "blockNumber": "0x2078e52",
          "blockTimestamp": "0x69227b84",
          "transactionHash": "0x60ffa28d2a52b25c2530d4f7a5d8f733d982ef45d1c1b35e9738f7aace37e93b",
          "transactionIndex": "0x21",
          "logIndex": "0xc8",
          "removed": false
        },
        {
          "address": "0x033ea50deaa8b064958fc40e34f994c154d27fff",
          "topics": [
            "0xed36a678572feb917ba4071710551d6203c453baf6b67cd3e989875f635637f5",
            "0x585202fb8a6d7699da65dea67836b521181059e6863f0bde5534a37d90e0825d",
            "0x000000000000000000000000492e6456d9528771018deb9e87ef7750ef184104",
            "0x00000000000000000000000050108c7ccdfdf341baec1c1f4a94b42a764628ef"
          ],
          "data": "0x0000000000000000000000004f24bdfe9f375e8ba9aca6247daaa8624cc4a02e0000000000000000000000000000000000000000000000056bc75e2d631000000000000000000000000000000000000000000000000000056900d33ca7fc0000000000000000000000000000000000000000000000000000007dbf9107a3da7000000000000000000000000000000000000000000000000002c68af0bb1400000000000000000000000000000000000000000000000000000000000000000001",
          "blockHash": "0x53ddf94edb46467980dcc4875152cb68e2dc6fc2b7216940db438ce4a7e3b610",
          "blockNumber": "0x2078e52",
          "blockTimestamp": "0x69227b84",
          "transactionHash": "0x60ffa28d2a52b25c2530d4f7a5d8f733d982ef45d1c1b35e9738f7aace37e93b",
          "transactionIndex": "0x21",
          "logIndex": "0xc9",
          "removed": false
        },
        {
          "address": "0x05e73354cfdd6745c338b50bcfdfa3aa6fa03408",
          "topics": [
            "0x40e9cecb9f5f1f1c5b9c97dec2917b7ee92e57ba5563708daca94dd84ad7112f",
            "0x585202fb8a6d7699da65dea67836b521181059e6863f0bde5534a37d90e0825d",
            "0x000000000000000000000000492e6456d9528771018deb9e87ef7750ef184104"
          ],
          "data": "0x000000000000000000000000000000000000000000000000000000000000000000000000000000000000000000000000000000000000000000000000000000000000000000000000000000000000000000000001000000000000000000000000000000000000000000000000000000000000000000000000000000000000000000000000000000000000000000000000000000000000000000000000000000000000000000000000000000000000000000000000000000000000000000000000",
          "blockHash": "0x53ddf94edb46467980dcc4875152cb68e2dc6fc2b7216940db438ce4a7e3b610",
          "blockNumber": "0x2078e52",
          "blockTimestamp": "0x69227b84",
          "transactionHash": "0x60ffa28d2a52b25c2530d4f7a5d8f733d982ef45d1c1b35e9738f7aace37e93b",
          "transactionIndex": "0x21",
          "logIndex": "0xca",
          "removed": false
        },
        {
          "address": "0x50108c7ccdfdf341baec1c1f4a94b42a764628ef",
          "topics": [
            "0xddf252ad1be2c89b69c2b068fc378daa952ba7f163c4a11628f55a4df523b3ef",
            "0x000000000000000000000000492e6456d9528771018deb9e87ef7750ef184104",
            "0x00000000000000000000000005e73354cfdd6745c338b50bcfdfa3aa6fa03408"
          ],
          "data": "0x0000000000000000000000000000000000000000000000056bc75e2d63100000",
          "blockHash": "0x53ddf94edb46467980dcc4875152cb68e2dc6fc2b7216940db438ce4a7e3b610",
          "blockNumber": "0x2078e52",
          "blockTimestamp": "0x69227b84",
          "transactionHash": "0x60ffa28d2a52b25c2530d4f7a5d8f733d982ef45d1c1b35e9738f7aace37e93b",
          "transactionIndex": "0x21",
          "logIndex": "0xcb",
          "removed": false
        },
        {
          "address": "0x4f24bdfe9f375e8ba9aca6247daaa8624cc4a02e",
          "topics": [
            "0xddf252ad1be2c89b69c2b068fc378daa952ba7f163c4a11628f55a4df523b3ef",
            "0x00000000000000000000000005e73354cfdd6745c338b50bcfdfa3aa6fa03408",
            "0x000000000000000000000000f7c7ddd2ed3ea7b745786951713f4ffef428adef"
          ],
          "data": "0x000000000000000000000000000000000000000000000000007dbf9107a3da70",
          "blockHash": "0x53ddf94edb46467980dcc4875152cb68e2dc6fc2b7216940db438ce4a7e3b610",
          "blockNumber": "0x2078e52",
          "blockTimestamp": "0x69227b84",
          "transactionHash": "0x60ffa28d2a52b25c2530d4f7a5d8f733d982ef45d1c1b35e9738f7aace37e93b",
          "transactionIndex": "0x21",
          "logIndex": "0xcc",
          "removed": false
        },
        {
          "address": "0x4f24bdfe9f375e8ba9aca6247daaa8624cc4a02e",
          "topics": [
            "0x0b6312439eaf2bad16eeaa45082692e2f8235ffe7346a91e7bcbc11da1c26b5c",
            "0x000000000000000000000000f7c7ddd2ed3ea7b745786951713f4ffef428adef"
          ],
          "data": "0x000000000000000000000000000000000000000000000000007dbf9107a3da7000000000000000000000000000000000000000000000000000000041a62b142d",
          "blockHash": "0x53ddf94edb46467980dcc4875152cb68e2dc6fc2b7216940db438ce4a7e3b610",
          "blockNumber": "0x2078e52",
          "blockTimestamp": "0x69227b84",
          "transactionHash": "0x60ffa28d2a52b25c2530d4f7a5d8f733d982ef45d1c1b35e9738f7aace37e93b",
          "transactionIndex": "0x21",
          "logIndex": "0xcd",
          "removed": false
        }
      ],
      "logsBloom": "0x010000000004000000000000000000000201000000000000000000020000000080000009000000000000000000000000000000008400200000000000000080000010000080104000000000080000040000000000001000200000000000100000000000000200200000020000000008000000000000000000000000100000000010800000040000000000000000000000000000a0004000020000000000000000000000000000000000000000000020008000000000000000080000000000000000000002021000000000000000000200000000000002000000000000000020000000220000000000004000800800000000000000000000000000200005000000",
      "type": "0x2",
      "transactionHash": "0x60ffa28d2a52b25c2530d4f7a5d8f733d982ef45d1c1b35e9738f7aace37e93b",
      "transactionIndex": "0x21",
      "blockHash": "0x53ddf94edb46467980dcc4875152cb68e2dc6fc2b7216940db438ce4a7e3b610",
      "blockNumber": "0x2078e52",
      "gasUsed": "0x8c6d9",
      "effectiveGasPrice": "0x279256b",
      "blobGasUsed": "0x15540",
      "from": "0xf7c7ddd2ed3ea7b745786951713f4ffef428adef",
      "to": "0x492e6456d9528771018deb9e87ef7750ef184104",
      "contractAddress": null,
      "daFootprintGasScalar": "0x138",
      "l1BaseFeeScalar": "0x44d",
      "l1BlobBaseFee": "0x1",
      "l1BlobBaseFeeScalar": "0xa118b",
      "l1Fee": "0xe1",
      "l1GasPrice": "0xb",
      "l1GasUsed": "0x1184"
    }
  ],
  "libraries": [],
  "pending": [],
  "returns": {},
  "timestamp": 1763867523633,
  "chain": 84532,
  "commit": "4866f73"
}