{
  "transactions": [
    {
      "hash": "0x03b6082007c704c46df3980e760e2e3dbbd8c5d26c09487d957c79053409f7b4",
      "transactionType": "CALL",
      "contractName": null,
      "contractAddress": "0x033ea50deaa8b064958fc40e34f994c154d27fff",
      "function": "configureLendingPair(address,address,address,address,uint256,uint256,uint256,uint256,uint256,uint256,uint256,uint256,bool,uint256)",
      "arguments": [
        "0x733b737320F0bd3fE347F02257F77E7A7807bC3E",
        "0x119000192D6C783d355aC50320670F8140D051d0",
        "0x0000000000000000000000000000000000000000",
        "0x0000000000000000000000000000000000000000",
        "7500",
        "8000",
        "500",
        "500",
        "350",
        "12000000000000000000000",
        "12000000000000000000000",
        "1000000000000000000",
        "false",
        "0"
      ],
      "transaction": {
        "from": "0xf7c7ddd2ed3ea7b745786951713f4ffef428adef",
        "to": "0x033ea50deaa8b064958fc40e34f994c154d27fff",
        "gas": "0x9c837",
        "value": "0x0",
        "input": "0x47f39ab5000000000000000000000000733b737320f0bd3fe347f02257f77e7a7807bc3e000000000000000000000000119000192d6c783d355ac50320670f8140d051d0000000000000000000000000000000000000000000000000000000000000000000000000000000000000000000000000000000000000000000000000000000000000000000000000000000000000000000000000000000000000000000001d4c0000000000000000000000000000000000000000000000000000000000001f4000000000000000000000000000000000000000000000000000000000000001f400000000000000000000000000000000000000000000000000000000000001f4000000000000000000000000000000000000000000000000000000000000015e00000000000000000000000000000000000000000000028a857425466f80000000000000000000000000000000000000000000000000028a857425466f8000000000000000000000000000000000000000000000000000000de0b6b3a764000000000000000000000000000000000000000000000000000000000000000000000000000000000000000000000000000000000000000000000000000000000000",
        "nonce": "0x1532",
        "chainId": "0x14a34"
      },
      "additionalContracts": [],
      "isFixedGasLimit": false
    },
    {
      "hash": "0xfa8ebeffcd8bfcc2f4e99349e76930cdb01ab072c5dbe18b0d7b9e9feca79be0",
      "transactionType": "CALL",
      "contractName": null,
      "contractAddress": "0x033ea50deaa8b064958fc40e34f994c154d27fff",
      "function": "configureLendingPair(address,address,address,address,uint256,uint256,uint256,uint256,uint256,uint256,uint256,uint256,bool,uint256)",
      "arguments": [
        "0x733b737320F0bd3fE347F02257F77E7A7807bC3E",
        "0x47A94537Cd5169dD0D7E8B86B65372794C9Ff8e8",
        "0x0000000000000000000000000000000000000000",
        "0x0000000000000000000000000000000000000000",
        "7000",
        "7500",
        "500",
        "500",
        "400",
        "12000000000000000000000",
        "12000000000000000000000",
        "10000000000000000",
        "false",
        "0"
      ],
      "transaction": {
        "from": "0xf7c7ddd2ed3ea7b745786951713f4ffef428adef",
        "to": "0x033ea50deaa8b064958fc40e34f994c154d27fff",
        "gas": "0x8e0d3",
        "value": "0x0",
        "input": "0x47f39ab5000000000000000000000000733b737320f0bd3fe347f02257f77e7a7807bc3e00000000000000000000000047a94537cd5169dd0d7e8b86b65372794c9ff8e8000000000000000000000000000000000000000000000000000000000000000000000000000000000000000000000000000000000000000000000000000000000000000000000000000000000000000000000000000000000000000000001b580000000000000000000000000000000000000000000000000000000000001d4c00000000000000000000000000000000000000000000000000000000000001f400000000000000000000000000000000000000000000000000000000000001f4000000000000000000000000000000000000000000000000000000000000019000000000000000000000000000000000000000000000028a857425466f80000000000000000000000000000000000000000000000000028a857425466f800000000000000000000000000000000000000000000000000000002386f26fc1000000000000000000000000000000000000000000000000000000000000000000000000000000000000000000000000000000000000000000000000000000000000",
        "nonce": "0x1533",
        "chainId": "0x14a34"
      },
      "additionalContracts": [],
      "isFixedGasLimit": false
    },
    {
      "hash": "0xa7c0e8a000188af3100b61465f3df1034be1a10dc7fdbaeb038779de83499177",
      "transactionType": "CALL",
      "contractName": null,
      "contractAddress": "0x033ea50deaa8b064958fc40e34f994c154d27fff",
      "function": "configureLendingPair(address,address,address,address,uint256,uint256,uint256,uint256,uint256,uint256,uint256,uint256,bool,uint256)",
      "arguments": [
        "0xa185A6f1Dc798a57D42c9CD13b93e72718682321",
        "0x119000192D6C783d355aC50320670F8140D051d0",
        "0x0000000000000000000000000000000000000000",
        "0x0000000000000000000000000000000000000000",
        "7500",
        "8000",
        "500",
        "500",
        "350",
        "3200000000000000000000",
        "3200000000000000000000",
        "1000000000000000000",
        "false",
        "0"
      ],
      "transaction": {
        "from": "0xf7c7ddd2ed3ea7b745786951713f4ffef428adef",
        "to": "0x033ea50deaa8b064958fc40e34f994c154d27fff",
        "gas": "0x9c7f1",
        "value": "0x0",
        "input": "0x47f39ab5000000000000000000000000a185a6f1dc798a57d42c9cd13b93e72718682321000000000000000000000000119000192d6c783d355ac50320670f8140d051d0000000000000000000000000000000000000000000000000000000000000000000000000000000000000000000000000000000000000000000000000000000000000000000000000000000000000000000000000000000000000000000001d4c0000000000000000000000000000000000000000000000000000000000001f4000000000000000000000000000000000000000000000000000000000000001f400000000000000000000000000000000000000000000000000000000000001f4000000000000000000000000000000000000000000000000000000000000015e0000000000000000000000000000000000000000000000ad78ebc5ac620000000000000000000000000000000000000000000000000000ad78ebc5ac620000000000000000000000000000000000000000000000000000000de0b6b3a764000000000000000000000000000000000000000000000000000000000000000000000000000000000000000000000000000000000000000000000000000000000000",
        "nonce": "0x1534",
        "chainId": "0x14a34"
      },
      "additionalContracts": [],
      "isFixedGasLimit": false
    },
    {
      "hash": "0xa3a0f716348628d382baaa0605fc519de49a7f1241d54148139c627b56739b00",
      "transactionType": "CALL",
      "contractName": null,
      "contractAddress": "0x033ea50deaa8b064958fc40e34f994c154d27fff",
      "function": "configureLendingPair(address,address,address,address,uint256,uint256,uint256,uint256,uint256,uint256,uint256,uint256,bool,uint256)",
      "arguments": [
        "0xa185A6f1Dc798a57D42c9CD13b93e72718682321",
        "0x47A94537Cd5169dD0D7E8B86B65372794C9Ff8e8",
        "0x0000000000000000000000000000000000000000",
        "0x0000000000000000000000000000000000000000",
        "7000",
        "7500",
        "500",
        "500",
        "400",
        "3200000000000000000000",
        "3200000000000000000000",
        "10000000000000000",
        "false",
        "0"
      ],
      "transaction": {
        "from": "0xf7c7ddd2ed3ea7b745786951713f4ffef428adef",
        "to": "0x033ea50deaa8b064958fc40e34f994c154d27fff",
        "gas": "0x8e091",
        "value": "0x0",
        "input": "0x47f39ab5000000000000000000000000a185a6f1dc798a57d42c9cd13b93e7271868232100000000000000000000000047a94537cd5169dd0d7e8b86b65372794c9ff8e8000000000000000000000000000000000000000000000000000000000000000000000000000000000000000000000000000000000000000000000000000000000000000000000000000000000000000000000000000000000000000000001b580000000000000000000000000000000000000000000000000000000000001d4c00000000000000000000000000000000000000000000000000000000000001f400000000000000000000000000000000000000000000000000000000000001f400000000000000000000000000000000000000000000000000000000000001900000000000000000000000000000000000000000000000ad78ebc5ac620000000000000000000000000000000000000000000000000000ad78ebc5ac62000000000000000000000000000000000000000000000000000000002386f26fc1000000000000000000000000000000000000000000000000000000000000000000000000000000000000000000000000000000000000000000000000000000000000",
        "nonce": "0x1535",
        "chainId": "0x14a34"
      },
      "additionalContracts": [],
      "isFixedGasLimit": false
    },
    {
      "hash": "0x053b89d8c1d0147b1f86269046f89af78d7d799a3cd9c46e2fff68ba9983a5b8",
      "transactionType": "CALL",
      "contractName": null,
      "contractAddress": "0x033ea50deaa8b064958fc40e34f994c154d27fff",
      "function": "configureLendingPair(address,address,address,address,uint256,uint256,uint256,uint256,uint256,uint256,uint256,uint256,bool,uint256)",
      "arguments": [
        "0x8Db4f2aD2c4B07a6c5D5bBe0784Df5DB0E072706",
        "0x119000192D6C783d355aC50320670F8140D051d0",
        "0x0000000000000000000000000000000000000000",
        "0x0000000000000000000000000000000000000000",
        "7500",
        "8000",
        "500",
        "500",
        "350",
        "44500000000000000000000",
        "44500000000000000000000",
        "1000000000000000000",
        "false",
        "0"
      ],
      "transaction": {
        "from": "0xf7c7ddd2ed3ea7b745786951713f4ffef428adef",
        "to": "0x033ea50deaa8b064958fc40e34f994c154d27fff",
        "gas": "0x9c837",
        "value": "0x0",
        "input": "0x47f39ab50000000000000000000000008db4f2ad2c4b07a6c5d5bbe0784df5db0e072706000000000000000000000000119000192d6c783d355ac50320670f8140d051d0000000000000000000000000000000000000000000000000000000000000000000000000000000000000000000000000000000000000000000000000000000000000000000000000000000000000000000000000000000000000000000001d4c0000000000000000000000000000000000000000000000000000000000001f4000000000000000000000000000000000000000000000000000000000000001f400000000000000000000000000000000000000000000000000000000000001f4000000000000000000000000000000000000000000000000000000000000015e00000000000000000000000000000000000000000000096c598eb4e532d0000000000000000000000000000000000000000000000000096c598eb4e532d000000000000000000000000000000000000000000000000000000de0b6b3a764000000000000000000000000000000000000000000000000000000000000000000000000000000000000000000000000000000000000000000000000000000000000",
        "nonce": "0x1536",
        "chainId": "0x14a34"
      },
      "additionalContracts": [],
      "isFixedGasLimit": false
    },
    {
      "hash": "0x0a91fd37fb0b389c46cc284f756015f0816e05a33443d14f62d05a1fc407cd36",
      "transactionType": "CALL",
      "contractName": null,
      "contractAddress": "0x033ea50deaa8b064958fc40e34f994c154d27fff",
      "function": "configureLendingPair(address,address,address,address,uint256,uint256,uint256,uint256,uint256,uint256,uint256,uint256,bool,uint256)",
      "arguments": [
        "0x8Db4f2aD2c4B07a6c5D5bBe0784Df5DB0E072706",
        "0x47A94537Cd5169dD0D7E8B86B65372794C9Ff8e8",
        "0x0000000000000000000000000000000000000000",
        "0x0000000000000000000000000000000000000000",
        "7000",
        "7500",
        "500",
        "500",
        "400",
        "44500000000000000000000",
        "44500000000000000000000",
        "10000000000000000",
        "false",
        "0"
      ],
      "transaction": {
        "from": "0xf7c7ddd2ed3ea7b745786951713f4ffef428adef",
        "to": "0x033ea50deaa8b064958fc40e34f994c154d27fff",
        "gas": "0x8e0d3",
        "value": "0x0",
        "input": "0x47f39ab50000000000000000000000008db4f2ad2c4b07a6c5d5bbe0784df5db0e07270600000000000000000000000047a94537cd5169dd0d7e8b86b65372794c9ff8e8000000000000000000000000000000000000000000000000000000000000000000000000000000000000000000000000000000000000000000000000000000000000000000000000000000000000000000000000000000000000000000001b580000000000000000000000000000000000000000000000000000000000001d4c00000000000000000000000000000000000000000000000000000000000001f400000000000000000000000000000000000000000000000000000000000001f4000000000000000000000000000000000000000000000000000000000000019000000000000000000000000000000000000000000000096c598eb4e532d0000000000000000000000000000000000000000000000000096c598eb4e532d00000000000000000000000000000000000000000000000000000002386f26fc1000000000000000000000000000000000000000000000000000000000000000000000000000000000000000000000000000000000000000000000000000000000000",
        "nonce": "0x1537",
        "chainId": "0x14a34"
      },
      "additionalContracts": [],
      "isFixedGasLimit": false
    },
    {
      "hash": "0xd592e2a314b42a24139d36645e420e869de668fa3f23ca2ce3c4a6e2606765e7",
      "transactionType": "CALL",
      "contractName": null,
      "contractAddress": "0x033ea50deaa8b064958fc40e34f994c154d27fff",
      "function": "configureLendingPair(address,address,address,address,uint256,uint256,uint256,uint256,uint256,uint256,uint256,uint256,bool,uint256)",
      "arguments": [
        "0x57d086092eCD0F5653a9956019C0E0fA584A246A",
        "0x119000192D6C783d355aC50320670F8140D051d0",
        "0x0000000000000000000000000000000000000000",
        "0x0000000000000000000000000000000000000000",
        "7500",
        "8000",
        "500",
        "500",
        "350",
        "80000000000000000000000",
        "80000000000000000000000",
        "1000000000000000000",
        "false",
        "0"
      ],
      "transaction": {
        "from": "0xf7c7ddd2ed3ea7b745786951713f4ffef428adef",
        "to": "0x033ea50deaa8b064958fc40e34f994c154d27fff",
        "gas": "0x9c814",
        "value": "0x0",
        "input": "0x47f39ab500000000000000000000000057d086092ecd0f5653a9956019c0e0fa584a246a000000000000000000000000119000192d6c783d355ac50320670f8140d051d0000000000000000000000000000000000000000000000000000000000000000000000000000000000000000000000000000000000000000000000000000000000000000000000000000000000000000000000000000000000000000000001d4c0000000000000000000000000000000000000000000000000000000000001f4000000000000000000000000000000000000000000000000000000000000001f400000000000000000000000000000000000000000000000000000000000001f4000000000000000000000000000000000000000000000000000000000000015e0000000000000000000000000000000000000000000010f0cf064dd5920000000000000000000000000000000000000000000000000010f0cf064dd5920000000000000000000000000000000000000000000000000000000de0b6b3a764000000000000000000000000000000000000000000000000000000000000000000000000000000000000000000000000000000000000000000000000000000000000",
        "nonce": "0x1538",
        "chainId": "0x14a34"
      },
      "additionalContracts": [],
      "isFixedGasLimit": false
    },
    {
      "hash": "0xc6784e722ef5e4521f7d861c8e202914c83a7721a6f4c89ef3dd51b42fcee81d",
      "transactionType": "CALL",
      "contractName": null,
      "contractAddress": "0x033ea50deaa8b064958fc40e34f994c154d27fff",
      "function": "configureLendingPair(address,address,address,address,uint256,uint256,uint256,uint256,uint256,uint256,uint256,uint256,bool,uint256)",
      "arguments": [
        "0x57d086092eCD0F5653a9956019C0E0fA584A246A",
        "0x47A94537Cd5169dD0D7E8B86B65372794C9Ff8e8",
        "0x0000000000000000000000000000000000000000",
        "0x0000000000000000000000000000000000000000",
        "7000",
        "7500",
        "500",
        "500",
        "400",
        "80000000000000000000000",
        "80000000000000000000000",
        "10000000000000000",
        "false",
        "0"
      ],
      "transaction": {
        "from": "0xf7c7ddd2ed3ea7b745786951713f4ffef428adef",
        "to": "0x033ea50deaa8b064958fc40e34f994c154d27fff",
        "gas": "0x8e0b3",
        "value": "0x0",
        "input": "0x47f39ab500000000000000000000000057d086092ecd0f5653a9956019c0e0fa584a246a00000000000000000000000047a94537cd5169dd0d7e8b86b65372794c9ff8e8000000000000000000000000000000000000000000000000000000000000000000000000000000000000000000000000000000000000000000000000000000000000000000000000000000000000000000000000000000000000000000001b580000000000000000000000000000000000000000000000000000000000001d4c00000000000000000000000000000000000000000000000000000000000001f400000000000000000000000000000000000000000000000000000000000001f400000000000000000000000000000000000000000000000000000000000001900000000000000000000000000000000000000000000010f0cf064dd5920000000000000000000000000000000000000000000000000010f0cf064dd592000000000000000000000000000000000000000000000000000000002386f26fc1000000000000000000000000000000000000000000000000000000000000000000000000000000000000000000000000000000000000000000000000000000000000",
        "nonce": "0x1539",
        "chainId": "0x14a34"
      },
      "additionalContracts": [],
      "isFixedGasLimit": false
    },
    {
      "hash": "0xed419d09065524e03e7a59acdd4203d96983be4acf527cbe4e30c4a20121ce12",
      "transactionType": "CALL",
      "contractName": null,
      "contractAddress": "0x033ea50deaa8b064958fc40e34f994c154d27fff",
      "function": "configureLendingPair(address,address,address,address,uint256,uint256,uint256,uint256,uint256,uint256,uint256,uint256,bool,uint256)",
      "arguments": [
        "0xbA9aa9fDBAE1040D9D74612A899dF2455957aA22",
        "0x119000192D6C783d355aC50320670F8140D051d0",
        "0x0000000000000000000000000000000000000000",
        "0x0000000000000000000000000000000000000000",
        "7500",
        "8000",
        "500",
        "500",
        "350",
        "8000000000000000000000",
        "8000000000000000000000",
        "1000000000000000000",
        "false",
        "0"
      ],
      "transaction": {
        "from": "0xf7c7ddd2ed3ea7b745786951713f4ffef428adef",
        "to": "0x033ea50deaa8b064958fc40e34f994c154d27fff",
        "gas": "0x9c814",
        "value": "0x0",
        "input": "0x47f39ab5000000000000000000000000ba9aa9fdbae1040d9d74612a899df2455957aa22000000000000000000000000119000192d6c783d355ac50320670f8140d051d0000000000000000000000000000000000000000000000000000000000000000000000000000000000000000000000000000000000000000000000000000000000000000000000000000000000000000000000000000000000000000000001d4c0000000000000000000000000000000000000000000000000000000000001f4000000000000000000000000000000000000000000000000000000000000001f400000000000000000000000000000000000000000000000000000000000001f4000000000000000000000000000000000000000000000000000000000000015e0000000000000000000000000000000000000000000001b1ae4d6e2ef50000000000000000000000000000000000000000000000000001b1ae4d6e2ef50000000000000000000000000000000000000000000000000000000de0b6b3a764000000000000000000000000000000000000000000000000000000000000000000000000000000000000000000000000000000000000000000000000000000000000",
        "nonce": "0x153a",
        "chainId": "0x14a34"
      },
      "additionalContracts": [],
      "isFixedGasLimit": false
    },
    {
      "hash": "0x6e8b3f0401cac510931f4be462035885eacdd905d17918eff6d1192a8270c546",
      "transactionType": "CALL",
      "contractName": null,
      "contractAddress": "0x033ea50deaa8b064958fc40e34f994c154d27fff",
      "function": "configureLendingPair(address,address,address,address,uint256,uint256,uint256,uint256,uint256,uint256,uint256,uint256,bool,uint256)",
      "arguments": [
        "0xbA9aa9fDBAE1040D9D74612A899dF2455957aA22",
        "0x47A94537Cd5169dD0D7E8B86B65372794C9Ff8e8",
        "0x0000000000000000000000000000000000000000",
        "0x0000000000000000000000000000000000000000",
        "7000",
        "7500",
        "500",
        "500",
        "400",
        "8000000000000000000000",
        "8000000000000000000000",
        "10000000000000000",
        "false",
        "0"
      ],
      "transaction": {
        "from": "0xf7c7ddd2ed3ea7b745786951713f4ffef428adef",
        "to": "0x033ea50deaa8b064958fc40e34f994c154d27fff",
        "gas": "0x8e0b3",
        "value": "0x0",
        "input": "0x47f39ab5000000000000000000000000ba9aa9fdbae1040d9d74612a899df2455957aa2200000000000000000000000047a94537cd5169dd0d7e8b86b65372794c9ff8e8000000000000000000000000000000000000000000000000000000000000000000000000000000000000000000000000000000000000000000000000000000000000000000000000000000000000000000000000000000000000000000001b580000000000000000000000000000000000000000000000000000000000001d4c00000000000000000000000000000000000000000000000000000000000001f400000000000000000000000000000000000000000000000000000000000001f400000000000000000000000000000000000000000000000000000000000001900000000000000000000000000000000000000000000001b1ae4d6e2ef50000000000000000000000000000000000000000000000000001b1ae4d6e2ef5000000000000000000000000000000000000000000000000000000002386f26fc1000000000000000000000000000000000000000000000000000000000000000000000000000000000000000000000000000000000000000000000000000000000000",
        "nonce": "0x153b",
        "chainId": "0x14a34"
      },
      "additionalContracts": [],
      "isFixedGasLimit": false
    },
    {
      "hash": "0x6555dc13c69c90490221a44cd8e7dda74d120b1b866f27129323cadb91c5f9dd",
      "transactionType": "CALL",
      "contractName": null,
      "contractAddress": "0x033ea50deaa8b064958fc40e34f994c154d27fff",
      "function": "configureLendingPair(address,address,address,address,uint256,uint256,uint256,uint256,uint256,uint256,uint256,uint256,bool,uint256)",
      "arguments": [
        "0x84D82024e8B7D504Ca33f237C64B7f218eee607f",
        "0x119000192D6C783d355aC50320670F8140D051d0",
        "0x0000000000000000000000000000000000000000",
        "0x0000000000000000000000000000000000000000",
        "7500",
        "8000",
        "500",
        "500",
        "350",
        "100000000000000000000000",
        "100000000000000000000000",
        "1000000000000000000",
        "false",
        "0"
      ],
      "transaction": {
        "from": "0xf7c7ddd2ed3ea7b745786951713f4ffef428adef",
        "to": "0x033ea50deaa8b064958fc40e34f994c154d27fff",
        "gas": "0x9c837",
        "value": "0x0",
        "input": "0x47f39ab500000000000000000000000084d82024e8b7d504ca33f237c64b7f218eee607f000000000000000000000000119000192d6c783d355ac50320670f8140d051d0000000000000000000000000000000000000000000000000000000000000000000000000000000000000000000000000000000000000000000000000000000000000000000000000000000000000000000000000000000000000000000001d4c0000000000000000000000000000000000000000000000000000000000001f4000000000000000000000000000000000000000000000000000000000000001f400000000000000000000000000000000000000000000000000000000000001f4000000000000000000000000000000000000000000000000000000000000015e00000000000000000000000000000000000000000000152d02c7e14af680000000000000000000000000000000000000000000000000152d02c7e14af68000000000000000000000000000000000000000000000000000000de0b6b3a764000000000000000000000000000000000000000000000000000000000000000000000000000000000000000000000000000000000000000000000000000000000000",
        "nonce": "0x153c",
        "chainId": "0x14a34"
      },
      "additionalContracts": [],
      "isFixedGasLimit": false
    },
    {
      "hash": "0xf8c2e9f8aa04e83254f71d2bb1c5229137d5f51eaea08e6a21233833d0485940",
      "transactionType": "CALL",
      "contractName": null,
      "contractAddress": "0x033ea50deaa8b064958fc40e34f994c154d27fff",
      "function": "configureLendingPair(address,address,address,address,uint256,uint256,uint256,uint256,uint256,uint256,uint256,uint256,bool,uint256)",
      "arguments": [
        "0x84D82024e8B7D504Ca33f237C64B7f218eee607f",
        "0x47A94537Cd5169dD0D7E8B86B65372794C9Ff8e8",
        "0x0000000000000000000000000000000000000000",
        "0x0000000000000000000000000000000000000000",
        "7000",
        "7500",
        "500",
        "500",
        "400",
        "100000000000000000000000",
        "100000000000000000000000",
        "10000000000000000",
        "false",
        "0"
      ],
      "transaction": {
        "from": "0xf7c7ddd2ed3ea7b745786951713f4ffef428adef",
        "to": "0x033ea50deaa8b064958fc40e34f994c154d27fff",
        "gas": "0x8e0d3",
        "value": "0x0",
        "input": "0x47f39ab500000000000000000000000084d82024e8b7d504ca33f237c64b7f218eee607f00000000000000000000000047a94537cd5169dd0d7e8b86b65372794c9ff8e8000000000000000000000000000000000000000000000000000000000000000000000000000000000000000000000000000000000000000000000000000000000000000000000000000000000000000000000000000000000000000000001b580000000000000000000000000000000000000000000000000000000000001d4c00000000000000000000000000000000000000000000000000000000000001f400000000000000000000000000000000000000000000000000000000000001f4000000000000000000000000000000000000000000000000000000000000019000000000000000000000000000000000000000000000152d02c7e14af680000000000000000000000000000000000000000000000000152d02c7e14af6800000000000000000000000000000000000000000000000000000002386f26fc1000000000000000000000000000000000000000000000000000000000000000000000000000000000000000000000000000000000000000000000000000000000000",
        "nonce": "0x153d",
        "chainId": "0x14a34"
      },
      "additionalContracts": [],
      "isFixedGasLimit": false
    },
    {
      "hash": "0x1e4e3b9ec67c6e3c19285ad6aa9b746c517cf7d65af7e3d94142a5905bde07e4",
      "transactionType": "CALL",
      "contractName": null,
      "contractAddress": "0x033ea50deaa8b064958fc40e34f994c154d27fff",
      "function": "configureLendingPair(address,address,address,address,uint256,uint256,uint256,uint256,uint256,uint256,uint256,uint256,bool,uint256)",
      "arguments": [
        "0x1317BD6371749e911c96F01d0305A9E23Ef3ABfe",
        "0x119000192D6C783d355aC50320670F8140D051d0",
        "0x0000000000000000000000000000000000000000",
        "0x0000000000000000000000000000000000000000",
        "7500",
        "8000",
        "500",
        "500",
        "350",
        "10000000000000000000000",
        "10000000000000000000000",
        "1000000000000000000",
        "false",
        "0"
      ],
      "transaction": {
        "from": "0xf7c7ddd2ed3ea7b745786951713f4ffef428adef",
        "to": "0x033ea50deaa8b064958fc40e34f994c154d27fff",
        "gas": "0x9c837",
        "value": "0x0",
        "input": "0x47f39ab50000000000000000000000001317bd6371749e911c96f01d0305a9e23ef3abfe000000000000000000000000119000192d6c783d355ac50320670f8140d051d0000000000000000000000000000000000000000000000000000000000000000000000000000000000000000000000000000000000000000000000000000000000000000000000000000000000000000000000000000000000000000000001d4c0000000000000000000000000000000000000000000000000000000000001f4000000000000000000000000000000000000000000000000000000000000001f400000000000000000000000000000000000000000000000000000000000001f4000000000000000000000000000000000000000000000000000000000000015e00000000000000000000000000000000000000000000021e19e0c9bab240000000000000000000000000000000000000000000000000021e19e0c9bab24000000000000000000000000000000000000000000000000000000de0b6b3a764000000000000000000000000000000000000000000000000000000000000000000000000000000000000000000000000000000000000000000000000000000000000",
        "nonce": "0x153e",
        "chainId": "0x14a34"
      },
      "additionalContracts": [],
      "isFixedGasLimit": false
    },
    {
      "hash": "0x7e798f7da29c84f0ae600b03cc290728172e4e13c51a58769219c850f4627cbb",
      "transactionType": "CALL",
      "contractName": null,
      "contractAddress": "0x033ea50deaa8b064958fc40e34f994c154d27fff",
      "function": "configureLendingPair(address,address,address,address,uint256,uint256,uint256,uint256,uint256,uint256,uint256,uint256,bool,uint256)",
      "arguments": [
        "0x1317BD6371749e911c96F01d0305A9E23Ef3ABfe",
        "0x47A94537Cd5169dD0D7E8B86B65372794C9Ff8e8",
        "0x0000000000000000000000000000000000000000",
        "0x0000000000000000000000000000000000000000",
        "7000",
        "7500",
        "500",
        "500",
        "400",
        "10000000000000000000000",
        "10000000000000000000000",
        "10000000000000000",
        "false",
        "0"
      ],
      "transaction": {
        "from": "0xf7c7ddd2ed3ea7b745786951713f4ffef428adef",
        "to": "0x033ea50deaa8b064958fc40e34f994c154d27fff",
        "gas": "0x8e0d3",
        "value": "0x0",
        "input": "0x47f39ab50000000000000000000000001317bd6371749e911c96f01d0305a9e23ef3abfe00000000000000000000000047a94537cd5169dd0d7e8b86b65372794c9ff8e8000000000000000000000000000000000000000000000000000000000000000000000000000000000000000000000000000000000000000000000000000000000000000000000000000000000000000000000000000000000000000000001b580000000000000000000000000000000000000000000000000000000000001d4c00000000000000000000000000000000000000000000000000000000000001f400000000000000000000000000000000000000000000000000000000000001f4000000000000000000000000000000000000000000000000000000000000019000000000000000000000000000000000000000000000021e19e0c9bab240000000000000000000000000000000000000000000000000021e19e0c9bab2400000000000000000000000000000000000000000000000000000002386f26fc1000000000000000000000000000000000000000000000000000000000000000000000000000000000000000000000000000000000000000000000000000000000000",
        "nonce": "0x153f",
        "chainId": "0x14a34"
      },
      "additionalContracts": [],
      "isFixedGasLimit": false
    },
    {
      "hash": "0xbc21ad92148fcaed22d30015ebf62b1aba443f04b198b94028911317d1c17ee3",
      "transactionType": "CALL",
      "contractName": null,
      "contractAddress": "0x033ea50deaa8b064958fc40e34f994c154d27fff",
      "function": "configureLendingPair(address,address,address,address,uint256,uint256,uint256,uint256,uint256,uint256,uint256,uint256,bool,uint256)",
      "arguments": [
        "0xDef987Ab8663288e4D50124781Bf2aD12681db50",
        "0x119000192D6C783d355aC50320670F8140D051d0",
        "0x0000000000000000000000000000000000000000",
        "0x0000000000000000000000000000000000000000",
        "7500",
        "8000",
        "500",
        "500",
        "350",
        "50000000000000000000000",
        "50000000000000000000000",
        "1000000000000000000",
        "false",
        "0"
      ],
      "transaction": {
        "from": "0xf7c7ddd2ed3ea7b745786951713f4ffef428adef",
        "to": "0x033ea50deaa8b064958fc40e34f994c154d27fff",
        "gas": "0x9c837",
        "value": "0x0",
        "input": "0x47f39ab5000000000000000000000000def987ab8663288e4d50124781bf2ad12681db50000000000000000000000000119000192d6c783d355ac50320670f8140d051d0000000000000000000000000000000000000000000000000000000000000000000000000000000000000000000000000000000000000000000000000000000000000000000000000000000000000000000000000000000000000000000001d4c0000000000000000000000000000000000000000000000000000000000001f4000000000000000000000000000000000000000000000000000000000000001f400000000000000000000000000000000000000000000000000000000000001f4000000000000000000000000000000000000000000000000000000000000015e000000000000000000000000000000000000000000000a968163f0a57b400000000000000000000000000000000000000000000000000a968163f0a57b4000000000000000000000000000000000000000000000000000000de0b6b3a764000000000000000000000000000000000000000000000000000000000000000000000000000000000000000000000000000000000000000000000000000000000000",
        "nonce": "0x1540",
        "chainId": "0x14a34"
      },
      "additionalContracts": [],
      "isFixedGasLimit": false
    },
    {
      "hash": "0xcb65882645a710a5ff049ccabf5fd1903c9b7fbb4819044bfafec057cac1678a",
      "transactionType": "CALL",
      "contractName": null,
      "contractAddress": "0x033ea50deaa8b064958fc40e34f994c154d27fff",
      "function": "configureLendingPair(address,address,address,address,uint256,uint256,uint256,uint256,uint256,uint256,uint256,uint256,bool,uint256)",
      "arguments": [
        "0xDef987Ab8663288e4D50124781Bf2aD12681db50",
        "0x47A94537Cd5169dD0D7E8B86B65372794C9Ff8e8",
        "0x0000000000000000000000000000000000000000",
        "0x0000000000000000000000000000000000000000",
        "7000",
        "7500",
        "500",
        "500",
        "400",
        "50000000000000000000000",
        "50000000000000000000000",
        "10000000000000000",
        "false",
        "0"
      ],
      "transaction": {
        "from": "0xf7c7ddd2ed3ea7b745786951713f4ffef428adef",
        "to": "0x033ea50deaa8b064958fc40e34f994c154d27fff",
        "gas": "0x8e0d3",
        "value": "0x0",
        "input": "0x47f39ab5000000000000000000000000def987ab8663288e4d50124781bf2ad12681db5000000000000000000000000047a94537cd5169dd0d7e8b86b65372794c9ff8e8000000000000000000000000000000000000000000000000000000000000000000000000000000000000000000000000000000000000000000000000000000000000000000000000000000000000000000000000000000000000000000001b580000000000000000000000000000000000000000000000000000000000001d4c00000000000000000000000000000000000000000000000000000000000001f400000000000000000000000000000000000000000000000000000000000001f40000000000000000000000000000000000000000000000000000000000000190000000000000000000000000000000000000000000000a968163f0a57b400000000000000000000000000000000000000000000000000a968163f0a57b400000000000000000000000000000000000000000000000000000002386f26fc1000000000000000000000000000000000000000000000000000000000000000000000000000000000000000000000000000000000000000000000000000000000000",
        "nonce": "0x1541",
        "chainId": "0x14a34"
      },
      "additionalContracts": [],
      "isFixedGasLimit": false
    },
    {
      "hash": "0x494a07219b61f510883be5190f400a715a63c6e625850bd0f1ddc89076816b0c",
      "transactionType": "CALL",
      "contractName": null,
      "contractAddress": "0x033ea50deaa8b064958fc40e34f994c154d27fff",
      "function": "configureLendingPair(address,address,address,address,uint256,uint256,uint256,uint256,uint256,uint256,uint256,uint256,bool,uint256)",
      "arguments": [
        "0x5fe0Ed58e69A16A897943ebad7C88C3aA65D6bFc",
        "0x119000192D6C783d355aC50320670F8140D051d0",
        "0x0000000000000000000000000000000000000000",
        "0x0000000000000000000000000000000000000000",
        "7500",
        "8000",
        "500",
        "500",
        "350",
        "4300000000000000000000",
        "4300000000000000000000",
        "1000000000000000000",
        "false",
        "0"
      ],
      "transaction": {
        "from": "0xf7c7ddd2ed3ea7b745786951713f4ffef428adef",
        "to": "0x033ea50deaa8b064958fc40e34f994c154d27fff",
        "gas": "0x9c814",
        "value": "0x0",
        "input": "0x47f39ab50000000000000000000000005fe0ed58e69a16a897943ebad7c88c3aa65d6bfc000000000000000000000000119000192d6c783d355ac50320670f8140d051d0000000000000000000000000000000000000000000000000000000000000000000000000000000000000000000000000000000000000000000000000000000000000000000000000000000000000000000000000000000000000000000001d4c0000000000000000000000000000000000000000000000000000000000001f4000000000000000000000000000000000000000000000000000000000000001f400000000000000000000000000000000000000000000000000000000000001f4000000000000000000000000000000000000000000000000000000000000015e0000000000000000000000000000000000000000000000e91a7cd19fa3b000000000000000000000000000000000000000000000000000e91a7cd19fa3b000000000000000000000000000000000000000000000000000000de0b6b3a764000000000000000000000000000000000000000000000000000000000000000000000000000000000000000000000000000000000000000000000000000000000000",
        "nonce": "0x1542",
        "chainId": "0x14a34"
      },
      "additionalContracts": [],
      "isFixedGasLimit": false
    },
    {
      "hash": "0x3d34dda0559fbb6ffdcecf4e7e2c8387e9d5ddec698c462604367c92176be30d",
      "transactionType": "CALL",
      "contractName": null,
      "contractAddress": "0x033ea50deaa8b064958fc40e34f994c154d27fff",
      "function": "configureLendingPair(address,address,address,address,uint256,uint256,uint256,uint256,uint256,uint256,uint256,uint256,bool,uint256)",
      "arguments": [
        "0x5fe0Ed58e69A16A897943ebad7C88C3aA65D6bFc",
        "0x47A94537Cd5169dD0D7E8B86B65372794C9Ff8e8",
        "0x0000000000000000000000000000000000000000",
        "0x0000000000000000000000000000000000000000",
        "7000",
        "7500",
        "500",
        "500",
        "400",
        "4300000000000000000000",
        "4300000000000000000000",
        "10000000000000000",
        "false",
        "0"
      ],
      "transaction": {
        "from": "0xf7c7ddd2ed3ea7b745786951713f4ffef428adef",
        "to": "0x033ea50deaa8b064958fc40e34f994c154d27fff",
        "gas": "0x8e0b3",
        "value": "0x0",
        "input": "0x47f39ab50000000000000000000000005fe0ed58e69a16a897943ebad7c88c3aa65d6bfc00000000000000000000000047a94537cd5169dd0d7e8b86b65372794c9ff8e8000000000000000000000000000000000000000000000000000000000000000000000000000000000000000000000000000000000000000000000000000000000000000000000000000000000000000000000000000000000000000000001b580000000000000000000000000000000000000000000000000000000000001d4c00000000000000000000000000000000000000000000000000000000000001f400000000000000000000000000000000000000000000000000000000000001f400000000000000000000000000000000000000000000000000000000000001900000000000000000000000000000000000000000000000e91a7cd19fa3b000000000000000000000000000000000000000000000000000e91a7cd19fa3b00000000000000000000000000000000000000000000000000000002386f26fc1000000000000000000000000000000000000000000000000000000000000000000000000000000000000000000000000000000000000000000000000000000000000",
        "nonce": "0x1543",
        "chainId": "0x14a34"
      },
      "additionalContracts": [],
      "isFixedGasLimit": false
    },
    {
      "hash": "0x8380daa12489be3d355defff3cc617bcc101841820f3e520a4e85cf659136671",
      "transactionType": "CALL",
      "contractName": null,
      "contractAddress": "0x033ea50deaa8b064958fc40e34f994c154d27fff",
      "function": "configureLendingPair(address,address,address,address,uint256,uint256,uint256,uint256,uint256,uint256,uint256,uint256,bool,uint256)",
      "arguments": [
        "0xA8411Ea314e74AFCB6e2B990e7c708E28Ad585Ea",
        "0x119000192D6C783d355aC50320670F8140D051d0",
        "0x0000000000000000000000000000000000000000",
        "0x0000000000000000000000000000000000000000",
        "7500",
        "8000",
        "500",
        "500",
        "350",
        "8000000000000000000000",
        "8000000000000000000000",
        "1000000000000000000",
        "false",
        "0"
      ],
      "transaction": {
        "from": "0xf7c7ddd2ed3ea7b745786951713f4ffef428adef",
        "to": "0x033ea50deaa8b064958fc40e34f994c154d27fff",
        "gas": "0x9c814",
        "value": "0x0",
        "input": "0x47f39ab5000000000000000000000000a8411ea314e74afcb6e2b990e7c708e28ad585ea000000000000000000000000119000192d6c783d355ac50320670f8140d051d0000000000000000000000000000000000000000000000000000000000000000000000000000000000000000000000000000000000000000000000000000000000000000000000000000000000000000000000000000000000000000000001d4c0000000000000000000000000000000000000000000000000000000000001f4000000000000000000000000000000000000000000000000000000000000001f400000000000000000000000000000000000000000000000000000000000001f4000000000000000000000000000000000000000000000000000000000000015e0000000000000000000000000000000000000000000001b1ae4d6e2ef50000000000000000000000000000000000000000000000000001b1ae4d6e2ef50000000000000000000000000000000000000000000000000000000de0b6b3a764000000000000000000000000000000000000000000000000000000000000000000000000000000000000000000000000000000000000000000000000000000000000",
        "nonce": "0x1544",
        "chainId": "0x14a34"
      },
      "additionalContracts": [],
      "isFixedGasLimit": false
    },
    {
      "hash": "0x770970c1e6c910d68734886f413576a7a16d637f060fda475329203775d47285",
      "transactionType": "CALL",
      "contractName": null,
      "contractAddress": "0x033ea50deaa8b064958fc40e34f994c154d27fff",
      "function": "configureLendingPair(address,address,address,address,uint256,uint256,uint256,uint256,uint256,uint256,uint256,uint256,bool,uint256)",
      "arguments": [
        "0xA8411Ea314e74AFCB6e2B990e7c708E28Ad585Ea",
        "0x47A94537Cd5169dD0D7E8B86B65372794C9Ff8e8",
        "0x0000000000000000000000000000000000000000",
        "0x0000000000000000000000000000000000000000",
        "7000",
        "7500",
        "500",
        "500",
        "400",
        "8000000000000000000000",
        "8000000000000000000000",
        "10000000000000000",
        "false",
        "0"
      ],
      "transaction": {
        "from": "0xf7c7ddd2ed3ea7b745786951713f4ffef428adef",
        "to": "0x033ea50deaa8b064958fc40e34f994c154d27fff",
        "gas": "0x8e0b3",
        "value": "0x0",
        "input": "0x47f39ab5000000000000000000000000a8411ea314e74afcb6e2b990e7c708e28ad585ea00000000000000000000000047a94537cd5169dd0d7e8b86b65372794c9ff8e8000000000000000000000000000000000000000000000000000000000000000000000000000000000000000000000000000000000000000000000000000000000000000000000000000000000000000000000000000000000000000000001b580000000000000000000000000000000000000000000000000000000000001d4c00000000000000000000000000000000000000000000000000000000000001f400000000000000000000000000000000000000000000000000000000000001f400000000000000000000000000000000000000000000000000000000000001900000000000000000000000000000000000000000000001b1ae4d6e2ef50000000000000000000000000000000000000000000000000001b1ae4d6e2ef5000000000000000000000000000000000000000000000000000000002386f26fc1000000000000000000000000000000000000000000000000000000000000000000000000000000000000000000000000000000000000000000000000000000000000",
        "nonce": "0x1545",
        "chainId": "0x14a34"
      },
      "additionalContracts": [],
      "isFixedGasLimit": false
    },
    {
      "hash": "0x04711b7b8b5fdfe644b3ef8aac65d0e8038cf7e67f51da02122a725b71f4e7a8",
      "transactionType": "CALL",
      "contractName": null,
      "contractAddress": "0x033ea50deaa8b064958fc40e34f994c154d27fff",
      "function": "configureLendingPair(address,address,address,address,uint256,uint256,uint256,uint256,uint256,uint256,uint256,uint256,bool,uint256)",
      "arguments": [
        "0x556edf4dE518210219d6c978f30aaFb55eb6906D",
        "0x119000192D6C783d355aC50320670F8140D051d0",
        "0x0000000000000000000000000000000000000000",
        "0x0000000000000000000000000000000000000000",
        "7500",
        "8000",
        "500",
        "500",
        "350",
        "20000000000000000000000",
        "20000000000000000000000",
        "1000000000000000000",
        "false",
        "0"
      ],
      "transaction": {
        "from": "0xf7c7ddd2ed3ea7b745786951713f4ffef428adef",
        "to": "0x033ea50deaa8b064958fc40e34f994c154d27fff",
        "gas": "0x9c837",
        "value": "0x0",
        "input": "0x47f39ab5000000000000000000000000556edf4de518210219d6c978f30aafb55eb6906d000000000000000000000000119000192d6c783d355ac50320670f8140d051d0000000000000000000000000000000000000000000000000000000000000000000000000000000000000000000000000000000000000000000000000000000000000000000000000000000000000000000000000000000000000000000001d4c0000000000000000000000000000000000000000000000000000000000001f4000000000000000000000000000000000000000000000000000000000000001f400000000000000000000000000000000000000000000000000000000000001f4000000000000000000000000000000000000000000000000000000000000015e00000000000000000000000000000000000000000000043c33c193756480000000000000000000000000000000000000000000000000043c33c19375648000000000000000000000000000000000000000000000000000000de0b6b3a764000000000000000000000000000000000000000000000000000000000000000000000000000000000000000000000000000000000000000000000000000000000000",
        "nonce": "0x1546",
        "chainId": "0x14a34"
      },
      "additionalContracts": [],
      "isFixedGasLimit": false
    },
    {
      "hash": "0x433ac9aff5d2b592b2147f65463ac7bad590914ee939a9e85c8f2390e4c53758",
      "transactionType": "CALL",
      "contractName": null,
      "contractAddress": "0x033ea50deaa8b064958fc40e34f994c154d27fff",
      "function": "configureLendingPair(address,address,address,address,uint256,uint256,uint256,uint256,uint256,uint256,uint256,uint256,bool,uint256)",
      "arguments": [
        "0x556edf4dE518210219d6c978f30aaFb55eb6906D",
        "0x47A94537Cd5169dD0D7E8B86B65372794C9Ff8e8",
        "0x0000000000000000000000000000000000000000",
        "0x0000000000000000000000000000000000000000",
        "7000",
        "7500",
        "500",
        "500",
        "400",
        "20000000000000000000000",
        "20000000000000000000000",
        "10000000000000000",
        "false",
        "0"
      ],
      "transaction": {
        "from": "0xf7c7ddd2ed3ea7b745786951713f4ffef428adef",
        "to": "0x033ea50deaa8b064958fc40e34f994c154d27fff",
        "gas": "0x8e0d3",
        "value": "0x0",
        "input": "0x47f39ab5000000000000000000000000556edf4de518210219d6c978f30aafb55eb6906d00000000000000000000000047a94537cd5169dd0d7e8b86b65372794c9ff8e8000000000000000000000000000000000000000000000000000000000000000000000000000000000000000000000000000000000000000000000000000000000000000000000000000000000000000000000000000000000000000000001b580000000000000000000000000000000000000000000000000000000000001d4c00000000000000000000000000000000000000000000000000000000000001f400000000000000000000000000000000000000000000000000000000000001f4000000000000000000000000000000000000000000000000000000000000019000000000000000000000000000000000000000000000043c33c193756480000000000000000000000000000000000000000000000000043c33c1937564800000000000000000000000000000000000000000000000000000002386f26fc1000000000000000000000000000000000000000000000000000000000000000000000000000000000000000000000000000000000000000000000000000000000000",
        "nonce": "0x1547",
        "chainId": "0x14a34"
      },
      "additionalContracts": [],
      "isFixedGasLimit": false
    },
    {
      "hash": "0xe11d086e59ca012355d7388eb4369543910a7adced90acb7bc06c7ca5743fb0b",
      "transactionType": "CALL",
      "contractName": null,
      "contractAddress": "0x033ea50deaa8b064958fc40e34f994c154d27fff",
      "function": "configureLendingPair(address,address,address,address,uint256,uint256,uint256,uint256,uint256,uint256,uint256,uint256,bool,uint256)",
      "arguments": [
        "0xDaBD1E1E6A6b772Fa424f5F72E49Cb89aA47DD14",
        "0x119000192D6C783d355aC50320670F8140D051d0",
        "0x0000000000000000000000000000000000000000",
        "0x0000000000000000000000000000000000000000",
        "7500",
        "8000",
        "500",
        "500",
        "350",
        "10000000000000000000000",
        "10000000000000000000000",
        "1000000000000000000",
        "false",
        "0"
      ],
      "transaction": {
        "from": "0xf7c7ddd2ed3ea7b745786951713f4ffef428adef",
        "to": "0x033ea50deaa8b064958fc40e34f994c154d27fff",
        "gas": "0x9c837",
        "value": "0x0",
        "input": "0x47f39ab5000000000000000000000000dabd1e1e6a6b772fa424f5f72e49cb89aa47dd14000000000000000000000000119000192d6c783d355ac50320670f8140d051d0000000000000000000000000000000000000000000000000000000000000000000000000000000000000000000000000000000000000000000000000000000000000000000000000000000000000000000000000000000000000000000001d4c0000000000000000000000000000000000000000000000000000000000001f4000000000000000000000000000000000000000000000000000000000000001f400000000000000000000000000000000000000000000000000000000000001f4000000000000000000000000000000000000000000000000000000000000015e00000000000000000000000000000000000000000000021e19e0c9bab240000000000000000000000000000000000000000000000000021e19e0c9bab24000000000000000000000000000000000000000000000000000000de0b6b3a764000000000000000000000000000000000000000000000000000000000000000000000000000000000000000000000000000000000000000000000000000000000000",
        "nonce": "0x1548",
        "chainId": "0x14a34"
      },
      "additionalContracts": [],
      "isFixedGasLimit": false
    },
    {
      "hash": "0x3d5a87a2be41d3faae6ba721578a7032f86d8bcf86ff09241691ddb968e6aa8d",
      "transactionType": "CALL",
      "contractName": null,
      "contractAddress": "0x033ea50deaa8b064958fc40e34f994c154d27fff",
      "function": "configureLendingPair(address,address,address,address,uint256,uint256,uint256,uint256,uint256,uint256,uint256,uint256,bool,uint256)",
      "arguments": [
        "0xDaBD1E1E6A6b772Fa424f5F72E49Cb89aA47DD14",
        "0x47A94537Cd5169dD0D7E8B86B65372794C9Ff8e8",
        "0x0000000000000000000000000000000000000000",
        "0x0000000000000000000000000000000000000000",
        "7000",
        "7500",
        "500",
        "500",
        "400",
        "10000000000000000000000",
        "10000000000000000000000",
        "10000000000000000",
        "false",
        "0"
      ],
      "transaction": {
        "from": "0xf7c7ddd2ed3ea7b745786951713f4ffef428adef",
        "to": "0x033ea50deaa8b064958fc40e34f994c154d27fff",
        "gas": "0x8e0d3",
        "value": "0x0",
        "input": "0x47f39ab5000000000000000000000000dabd1e1e6a6b772fa424f5f72e49cb89aa47dd1400000000000000000000000047a94537cd5169dd0d7e8b86b65372794c9ff8e8000000000000000000000000000000000000000000000000000000000000000000000000000000000000000000000000000000000000000000000000000000000000000000000000000000000000000000000000000000000000000000001b580000000000000000000000000000000000000000000000000000000000001d4c00000000000000000000000000000000000000000000000000000000000001f400000000000000000000000000000000000000000000000000000000000001f4000000000000000000000000000000000000000000000000000000000000019000000000000000000000000000000000000000000000021e19e0c9bab240000000000000000000000000000000000000000000000000021e19e0c9bab2400000000000000000000000000000000000000000000000000000002386f26fc1000000000000000000000000000000000000000000000000000000000000000000000000000000000000000000000000000000000000000000000000000000000000",
        "nonce": "0x1549",
        "chainId": "0x14a34"
      },
      "additionalContracts": [],
      "isFixedGasLimit": false
    },
    {
      "hash": "0x0b53b0088063f73ef189881d25e3a9996c0b5003e325696adc14e47ee3b8ee1b",
      "transactionType": "CALL",
      "contractName": null,
      "contractAddress": "0x033ea50deaa8b064958fc40e34f994c154d27fff",
      "function": "configureLendingPair(address,address,address,address,uint256,uint256,uint256,uint256,uint256,uint256,uint256,uint256,bool,uint256)",
      "arguments": [
        "0x6f6BA9a74160BB02F2EA43F58A24bD90CCd30f2F",
        "0x119000192D6C783d355aC50320670F8140D051d0",
        "0x0000000000000000000000000000000000000000",
        "0x0000000000000000000000000000000000000000",
        "7500",
        "8000",
        "500",
        "500",
        "350",
        "25000000000000000000000",
        "25000000000000000000000",
        "1000000000000000000",
        "false",
        "0"
      ],
      "transaction": {
        "from": "0xf7c7ddd2ed3ea7b745786951713f4ffef428adef",
        "to": "0x033ea50deaa8b064958fc40e34f994c154d27fff",
        "gas": "0x9c837",
        "value": "0x0",
        "input": "0x47f39ab50000000000000000000000006f6ba9a74160bb02f2ea43f58a24bd90ccd30f2f000000000000000000000000119000192d6c783d355ac50320670f8140d051d0000000000000000000000000000000000000000000000000000000000000000000000000000000000000000000000000000000000000000000000000000000000000000000000000000000000000000000000000000000000000000000001d4c0000000000000000000000000000000000000000000000000000000000001f4000000000000000000000000000000000000000000000000000000000000001f400000000000000000000000000000000000000000000000000000000000001f4000000000000000000000000000000000000000000000000000000000000015e00000000000000000000000000000000000000000000054b40b1f852bda0000000000000000000000000000000000000000000000000054b40b1f852bda000000000000000000000000000000000000000000000000000000de0b6b3a764000000000000000000000000000000000000000000000000000000000000000000000000000000000000000000000000000000000000000000000000000000000000",
        "nonce": "0x154a",
        "chainId": "0x14a34"
      },
      "additionalContracts": [],
      "isFixedGasLimit": false
    },
    {
      "hash": "0x0be90436cd17d2598cd78a731c58a60dd26f0a65f06bcbec5a9448cbe693b362",
      "transactionType": "CALL",
      "contractName": null,
      "contractAddress": "0x033ea50deaa8b064958fc40e34f994c154d27fff",
      "function": "configureLendingPair(address,address,address,address,uint256,uint256,uint256,uint256,uint256,uint256,uint256,uint256,bool,uint256)",
      "arguments": [
        "0x6f6BA9a74160BB02F2EA43F58A24bD90CCd30f2F",
        "0x47A94537Cd5169dD0D7E8B86B65372794C9Ff8e8",
        "0x0000000000000000000000000000000000000000",
        "0x0000000000000000000000000000000000000000",
        "7000",
        "7500",
        "500",
        "500",
        "400",
        "25000000000000000000000",
        "25000000000000000000000",
        "10000000000000000",
        "false",
        "0"
      ],
      "transaction": {
        "from": "0xf7c7ddd2ed3ea7b745786951713f4ffef428adef",
        "to": "0x033ea50deaa8b064958fc40e34f994c154d27fff",
        "gas": "0x8e0d3",
        "value": "0x0",
        "input": "0x47f39ab50000000000000000000000006f6ba9a74160bb02f2ea43f58a24bd90ccd30f2f00000000000000000000000047a94537cd5169dd0d7e8b86b65372794c9ff8e8000000000000000000000000000000000000000000000000000000000000000000000000000000000000000000000000000000000000000000000000000000000000000000000000000000000000000000000000000000000000000000001b580000000000000000000000000000000000000000000000000000000000001d4c00000000000000000000000000000000000000000000000000000000000001f400000000000000000000000000000000000000000000000000000000000001f4000000000000000000000000000000000000000000000000000000000000019000000000000000000000000000000000000000000000054b40b1f852bda0000000000000000000000000000000000000000000000000054b40b1f852bda00000000000000000000000000000000000000000000000000000002386f26fc1000000000000000000000000000000000000000000000000000000000000000000000000000000000000000000000000000000000000000000000000000000000000",
        "nonce": "0x154b",
        "chainId": "0x14a34"
      },
      "additionalContracts": [],
      "isFixedGasLimit": false
    },
    {
      "hash": "0x025524dfc06886722dc17cdb1ea68418f04a9959372c25280e56fdba3b92f144",
      "transactionType": "CALL",
      "contractName": null,
      "contractAddress": "0x033ea50deaa8b064958fc40e34f994c154d27fff",
      "function": "configureLendingPair(address,address,address,address,uint256,uint256,uint256,uint256,uint256,uint256,uint256,uint256,bool,uint256)",
      "arguments": [
        "0x058aB338562B32A6bcc40641208C487Bb323B570",
        "0x119000192D6C783d355aC50320670F8140D051d0",
        "0x0000000000000000000000000000000000000000",
        "0x0000000000000000000000000000000000000000",
        "7500",
        "8000",
        "500",
        "500",
        "350",
        "5500000000000000000000",
        "5500000000000000000000",
        "1000000000000000000",
        "false",
        "0"
      ],
      "transaction": {
        "from": "0xf7c7ddd2ed3ea7b745786951713f4ffef428adef",
        "to": "0x033ea50deaa8b064958fc40e34f994c154d27fff",
        "gas": "0x9c837",
        "value": "0x0",
        "input": "0x47f39ab5000000000000000000000000058ab338562b32a6bcc40641208c487bb323b570000000000000000000000000119000192d6c783d355ac50320670f8140d051d0000000000000000000000000000000000000000000000000000000000000000000000000000000000000000000000000000000000000000000000000000000000000000000000000000000000000000000000000000000000000000000001d4c0000000000000000000000000000000000000000000000000000000000001f4000000000000000000000000000000000000000000000000000000000000001f400000000000000000000000000000000000000000000000000000000000001f4000000000000000000000000000000000000000000000000000000000000015e00000000000000000000000000000000000000000000012a27d53bc04870000000000000000000000000000000000000000000000000012a27d53bc0487000000000000000000000000000000000000000000000000000000de0b6b3a764000000000000000000000000000000000000000000000000000000000000000000000000000000000000000000000000000000000000000000000000000000000000",
        "nonce": "0x154c",
        "chainId": "0x14a34"
      },
      "additionalContracts": [],
      "isFixedGasLimit": false
    },
    {
      "hash": "0x80f723d5af07c1c4fc52c822386d33fab196f24a3319970df30b4a589342f5ba",
      "transactionType": "CALL",
      "contractName": null,
      "contractAddress": "0x033ea50deaa8b064958fc40e34f994c154d27fff",
      "function": "configureLendingPair(address,address,address,address,uint256,uint256,uint256,uint256,uint256,uint256,uint256,uint256,bool,uint256)",
      "arguments": [
        "0x058aB338562B32A6bcc40641208C487Bb323B570",
        "0x47A94537Cd5169dD0D7E8B86B65372794C9Ff8e8",
        "0x0000000000000000000000000000000000000000",
        "0x0000000000000000000000000000000000000000",
        "7000",
        "7500",
        "500",
        "500",
        "400",
        "5500000000000000000000",
        "5500000000000000000000",
        "10000000000000000",
        "false",
        "0"
      ],
      "transaction": {
        "from": "0xf7c7ddd2ed3ea7b745786951713f4ffef428adef",
        "to": "0x033ea50deaa8b064958fc40e34f994c154d27fff",
        "gas": "0x8e0d3",
        "value": "0x0",
        "input": "0x47f39ab5000000000000000000000000058ab338562b32a6bcc40641208c487bb323b57000000000000000000000000047a94537cd5169dd0d7e8b86b65372794c9ff8e8000000000000000000000000000000000000000000000000000000000000000000000000000000000000000000000000000000000000000000000000000000000000000000000000000000000000000000000000000000000000000000001b580000000000000000000000000000000000000000000000000000000000001d4c00000000000000000000000000000000000000000000000000000000000001f400000000000000000000000000000000000000000000000000000000000001f4000000000000000000000000000000000000000000000000000000000000019000000000000000000000000000000000000000000000012a27d53bc04870000000000000000000000000000000000000000000000000012a27d53bc048700000000000000000000000000000000000000000000000000000002386f26fc1000000000000000000000000000000000000000000000000000000000000000000000000000000000000000000000000000000000000000000000000000000000000",
        "nonce": "0x154d",
        "chainId": "0x14a34"
      },
      "additionalContracts": [],
      "isFixedGasLimit": false
    },
    {
      "hash": "0xe2362c05fb09f3f07499e7a72a18fcf7370241b899595852331786c1a0dc6b0e",
      "transactionType": "CALL",
      "contractName": null,
      "contractAddress": "0x033ea50deaa8b064958fc40e34f994c154d27fff",
      "function": "configureLendingPair(address,address,address,address,uint256,uint256,uint256,uint256,uint256,uint256,uint256,uint256,bool,uint256)",
      "arguments": [
        "0x06d9c5F15433934810b8632F034b66Fe823B9d75",
        "0x119000192D6C783d355aC50320670F8140D051d0",
        "0x0000000000000000000000000000000000000000",
        "0x0000000000000000000000000000000000000000",
        "7500",
        "8000",
        "500",
        "500",
        "350",
        "10000000000000000000000",
        "10000000000000000000000",
        "1000000000000000000",
        "false",
        "0"
      ],
      "transaction": {
        "from": "0xf7c7ddd2ed3ea7b745786951713f4ffef428adef",
        "to": "0x033ea50deaa8b064958fc40e34f994c154d27fff",
        "gas": "0x9c837",
        "value": "0x0",
        "input": "0x47f39ab500000000000000000000000006d9c5f15433934810b8632f034b66fe823b9d75000000000000000000000000119000192d6c783d355ac50320670f8140d051d0000000000000000000000000000000000000000000000000000000000000000000000000000000000000000000000000000000000000000000000000000000000000000000000000000000000000000000000000000000000000000000001d4c0000000000000000000000000000000000000000000000000000000000001f4000000000000000000000000000000000000000000000000000000000000001f400000000000000000000000000000000000000000000000000000000000001f4000000000000000000000000000000000000000000000000000000000000015e00000000000000000000000000000000000000000000021e19e0c9bab240000000000000000000000000000000000000000000000000021e19e0c9bab24000000000000000000000000000000000000000000000000000000de0b6b3a764000000000000000000000000000000000000000000000000000000000000000000000000000000000000000000000000000000000000000000000000000000000000",
        "nonce": "0x154e",
        "chainId": "0x14a34"
      },
      "additionalContracts": [],
      "isFixedGasLimit": false
    },
    {
      "hash": "0x1e1f3297a60ec489f0d7d52e7afd05e305b9d4e14a7660e4b39c220e241f81cd",
      "transactionType": "CALL",
      "contractName": null,
      "contractAddress": "0x033ea50deaa8b064958fc40e34f994c154d27fff",
      "function": "configureLendingPair(address,address,address,address,uint256,uint256,uint256,uint256,uint256,uint256,uint256,uint256,bool,uint256)",
      "arguments": [
        "0x06d9c5F15433934810b8632F034b66Fe823B9d75",
        "0x47A94537Cd5169dD0D7E8B86B65372794C9Ff8e8",
        "0x0000000000000000000000000000000000000000",
        "0x0000000000000000000000000000000000000000",
        "7000",
        "7500",
        "500",
        "500",
        "400",
        "10000000000000000000000",
        "10000000000000000000000",
        "10000000000000000",
        "false",
        "0"
      ],
      "transaction": {
        "from": "0xf7c7ddd2ed3ea7b745786951713f4ffef428adef",
        "to": "0x033ea50deaa8b064958fc40e34f994c154d27fff",
        "gas": "0x8e0d3",
        "value": "0x0",
        "input": "0x47f39ab500000000000000000000000006d9c5f15433934810b8632f034b66fe823b9d7500000000000000000000000047a94537cd5169dd0d7e8b86b65372794c9ff8e8000000000000000000000000000000000000000000000000000000000000000000000000000000000000000000000000000000000000000000000000000000000000000000000000000000000000000000000000000000000000000000001b580000000000000000000000000000000000000000000000000000000000001d4c00000000000000000000000000000000000000000000000000000000000001f400000000000000000000000000000000000000000000000000000000000001f4000000000000000000000000000000000000000000000000000000000000019000000000000000000000000000000000000000000000021e19e0c9bab240000000000000000000000000000000000000000000000000021e19e0c9bab2400000000000000000000000000000000000000000000000000000002386f26fc1000000000000000000000000000000000000000000000000000000000000000000000000000000000000000000000000000000000000000000000000000000000000",
        "nonce": "0x154f",
        "chainId": "0x14a34"
      },
      "additionalContracts": [],
      "isFixedGasLimit": false
    },
    {
      "hash": "0xb3e279b81bdf05d04620285285b802f286d381438546e68db707f8b07578bdb9",
      "transactionType": "CALL",
      "contractName": null,
      "contractAddress": "0x033ea50deaa8b064958fc40e34f994c154d27fff",
      "function": "configureLendingPair(address,address,address,address,uint256,uint256,uint256,uint256,uint256,uint256,uint256,uint256,bool,uint256)",
      "arguments": [
        "0x37d32890F63D6aeC1F6C2Bfc4885A1B905C147D0",
        "0x119000192D6C783d355aC50320670F8140D051d0",
        "0x0000000000000000000000000000000000000000",
        "0x0000000000000000000000000000000000000000",
        "7500",
        "8000",
        "500",
        "500",
        "350",
        "25000000000000000000000",
        "25000000000000000000000",
        "1000000000000000000",
        "false",
        "0"
      ],
      "transaction": {
        "from": "0xf7c7ddd2ed3ea7b745786951713f4ffef428adef",
        "to": "0x033ea50deaa8b064958fc40e34f994c154d27fff",
        "gas": "0x9c837",
        "value": "0x0",
        "input": "0x47f39ab500000000000000000000000037d32890f63d6aec1f6c2bfc4885a1b905c147d0000000000000000000000000119000192d6c783d355ac50320670f8140d051d0000000000000000000000000000000000000000000000000000000000000000000000000000000000000000000000000000000000000000000000000000000000000000000000000000000000000000000000000000000000000000000001d4c0000000000000000000000000000000000000000000000000000000000001f4000000000000000000000000000000000000000000000000000000000000001f400000000000000000000000000000000000000000000000000000000000001f4000000000000000000000000000000000000000000000000000000000000015e00000000000000000000000000000000000000000000054b40b1f852bda0000000000000000000000000000000000000000000000000054b40b1f852bda000000000000000000000000000000000000000000000000000000de0b6b3a764000000000000000000000000000000000000000000000000000000000000000000000000000000000000000000000000000000000000000000000000000000000000",
        "nonce": "0x1550",
        "chainId": "0x14a34"
      },
      "additionalContracts": [],
      "isFixedGasLimit": false
    },
    {
      "hash": "0x21a15f0731675fea8ac63f93bb5f0701579eca73ea31da3d96f230aefbce22c4",
      "transactionType": "CALL",
      "contractName": null,
      "contractAddress": "0x033ea50deaa8b064958fc40e34f994c154d27fff",
      "function": "configureLendingPair(address,address,address,address,uint256,uint256,uint256,uint256,uint256,uint256,uint256,uint256,bool,uint256)",
      "arguments": [
        "0x37d32890F63D6aeC1F6C2Bfc4885A1B905C147D0",
        "0x47A94537Cd5169dD0D7E8B86B65372794C9Ff8e8",
        "0x0000000000000000000000000000000000000000",
        "0x0000000000000000000000000000000000000000",
        "7000",
        "7500",
        "500",
        "500",
        "400",
        "25000000000000000000000",
        "25000000000000000000000",
        "10000000000000000",
        "false",
        "0"
      ],
      "transaction": {
        "from": "0xf7c7ddd2ed3ea7b745786951713f4ffef428adef",
        "to": "0x033ea50deaa8b064958fc40e34f994c154d27fff",
        "gas": "0x8e0d3",
        "value": "0x0",
        "input": "0x47f39ab500000000000000000000000037d32890f63d6aec1f6c2bfc4885a1b905c147d000000000000000000000000047a94537cd5169dd0d7e8b86b65372794c9ff8e8000000000000000000000000000000000000000000000000000000000000000000000000000000000000000000000000000000000000000000000000000000000000000000000000000000000000000000000000000000000000000000001b580000000000000000000000000000000000000000000000000000000000001d4c00000000000000000000000000000000000000000000000000000000000001f400000000000000000000000000000000000000000000000000000000000001f4000000000000000000000000000000000000000000000000000000000000019000000000000000000000000000000000000000000000054b40b1f852bda0000000000000000000000000000000000000000000000000054b40b1f852bda00000000000000000000000000000000000000000000000000000002386f26fc1000000000000000000000000000000000000000000000000000000000000000000000000000000000000000000000000000000000000000000000000000000000000",
        "nonce": "0x1551",
        "chainId": "0x14a34"
      },
      "additionalContracts": [],
      "isFixedGasLimit": false
    },
    {
      "hash": "0xa4ebab0b94b6a4fdf13162281ae90e8272fa44f0a2cab1a2264222a6bf953c5d",
      "transactionType": "CALL",
      "contractName": null,
      "contractAddress": "0x033ea50deaa8b064958fc40e34f994c154d27fff",
      "function": "configureLendingPair(address,address,address,address,uint256,uint256,uint256,uint256,uint256,uint256,uint256,uint256,bool,uint256)",
      "arguments": [
        "0x3D5f5004ef3Bd1bcB03F578784757a5a67795F29",
        "0x119000192D6C783d355aC50320670F8140D051d0",
        "0x0000000000000000000000000000000000000000",
        "0x0000000000000000000000000000000000000000",
        "7500",
        "8000",
        "500",
        "500",
        "350",
        "27000000000000000000000",
        "27000000000000000000000",
        "1000000000000000000",
        "false",
        "0"
      ],
      "transaction": {
        "from": "0xf7c7ddd2ed3ea7b745786951713f4ffef428adef",
        "to": "0x033ea50deaa8b064958fc40e34f994c154d27fff",
        "gas": "0x9c837",
        "value": "0x0",
        "input": "0x47f39ab50000000000000000000000003d5f5004ef3bd1bcb03f578784757a5a67795f29000000000000000000000000119000192d6c783d355ac50320670f8140d051d0000000000000000000000000000000000000000000000000000000000000000000000000000000000000000000000000000000000000000000000000000000000000000000000000000000000000000000000000000000000000000000001d4c0000000000000000000000000000000000000000000000000000000000001f4000000000000000000000000000000000000000000000000000000000000001f400000000000000000000000000000000000000000000000000000000000001f4000000000000000000000000000000000000000000000000000000000000015e0000000000000000000000000000000000000000000005b7ac4553de7ae000000000000000000000000000000000000000000000000005b7ac4553de7ae000000000000000000000000000000000000000000000000000000de0b6b3a764000000000000000000000000000000000000000000000000000000000000000000000000000000000000000000000000000000000000000000000000000000000000",
        "nonce": "0x1552",
        "chainId": "0x14a34"
      },
      "additionalContracts": [],
      "isFixedGasLimit": false
    },
    {
      "hash": "0x014a07a8b88a77db5fef6fda347c5a640cceb47efc358bf523c1d8eec7c8a5d0",
      "transactionType": "CALL",
      "contractName": null,
      "contractAddress": "0x033ea50deaa8b064958fc40e34f994c154d27fff",
      "function": "configureLendingPair(address,address,address,address,uint256,uint256,uint256,uint256,uint256,uint256,uint256,uint256,bool,uint256)",
      "arguments": [
        "0x3D5f5004ef3Bd1bcB03F578784757a5a67795F29",
        "0x47A94537Cd5169dD0D7E8B86B65372794C9Ff8e8",
        "0x0000000000000000000000000000000000000000",
        "0x0000000000000000000000000000000000000000",
        "7000",
        "7500",
        "500",
        "500",
        "400",
        "27000000000000000000000",
        "27000000000000000000000",
        "10000000000000000",
        "false",
        "0"
      ],
      "transaction": {
        "from": "0xf7c7ddd2ed3ea7b745786951713f4ffef428adef",
        "to": "0x033ea50deaa8b064958fc40e34f994c154d27fff",
        "gas": "0x8e0d3",
        "value": "0x0",
        "input": "0x47f39ab50000000000000000000000003d5f5004ef3bd1bcb03f578784757a5a67795f2900000000000000000000000047a94537cd5169dd0d7e8b86b65372794c9ff8e8000000000000000000000000000000000000000000000000000000000000000000000000000000000000000000000000000000000000000000000000000000000000000000000000000000000000000000000000000000000000000000001b580000000000000000000000000000000000000000000000000000000000001d4c00000000000000000000000000000000000000000000000000000000000001f400000000000000000000000000000000000000000000000000000000000001f400000000000000000000000000000000000000000000000000000000000001900000000000000000000000000000000000000000000005b7ac4553de7ae000000000000000000000000000000000000000000000000005b7ac4553de7ae00000000000000000000000000000000000000000000000000000002386f26fc1000000000000000000000000000000000000000000000000000000000000000000000000000000000000000000000000000000000000000000000000000000000000",
        "nonce": "0x1553",
        "chainId": "0x14a34"
      },
      "additionalContracts": [],
      "isFixedGasLimit": false
    },
    {
      "hash": "0x8e1143f935cab5109c264743644e8601e0c62dd23cbc1d2518ebb476d3a036ae",
      "transactionType": "CALL",
      "contractName": null,
      "contractAddress": "0x033ea50deaa8b064958fc40e34f994c154d27fff",
      "function": "configureLendingPair(address,address,address,address,uint256,uint256,uint256,uint256,uint256,uint256,uint256,uint256,bool,uint256)",
      "arguments": [
        "0x27fAA3E80f9D791eE3dA9D6A8F5407Fa1BD2D28f",
        "0x119000192D6C783d355aC50320670F8140D051d0",
        "0x0000000000000000000000000000000000000000",
        "0x0000000000000000000000000000000000000000",
        "7500",
        "8000",
        "500",
        "500",
        "350",
        "67500000000000000000000",
        "67500000000000000000000",
        "1000000000000000000",
        "false",
        "0"
      ],
      "transaction": {
        "from": "0xf7c7ddd2ed3ea7b745786951713f4ffef428adef",
        "to": "0x033ea50deaa8b064958fc40e34f994c154d27fff",
        "gas": "0x9c837",
        "value": "0x0",
        "input": "0x47f39ab500000000000000000000000027faa3e80f9d791ee3da9d6a8f5407fa1bd2d28f000000000000000000000000119000192d6c783d355ac50320670f8140d051d0000000000000000000000000000000000000000000000000000000000000000000000000000000000000000000000000000000000000000000000000000000000000000000000000000000000000000000000000000000000000000000001d4c0000000000000000000000000000000000000000000000000000000000001f4000000000000000000000000000000000000000000000000000000000000001f400000000000000000000000000000000000000000000000000000000000001f4000000000000000000000000000000000000000000000000000000000000015e000000000000000000000000000000000000000000000e4b2ead51ac33300000000000000000000000000000000000000000000000000e4b2ead51ac333000000000000000000000000000000000000000000000000000000de0b6b3a764000000000000000000000000000000000000000000000000000000000000000000000000000000000000000000000000000000000000000000000000000000000000",
        "nonce": "0x1554",
        "chainId": "0x14a34"
      },
      "additionalContracts": [],
      "isFixedGasLimit": false
    },
    {
      "hash": "0x7d4bdb200b39c984bd192b5091b7e29d574a1ba6317431d6fa0b4f748073558e",
      "transactionType": "CALL",
      "contractName": null,
      "contractAddress": "0x033ea50deaa8b064958fc40e34f994c154d27fff",
      "function": "configureLendingPair(address,address,address,address,uint256,uint256,uint256,uint256,uint256,uint256,uint256,uint256,bool,uint256)",
      "arguments": [
        "0x27fAA3E80f9D791eE3dA9D6A8F5407Fa1BD2D28f",
        "0x47A94537Cd5169dD0D7E8B86B65372794C9Ff8e8",
        "0x0000000000000000000000000000000000000000",
        "0x0000000000000000000000000000000000000000",
        "7000",
        "7500",
        "500",
        "500",
        "400",
        "67500000000000000000000",
        "67500000000000000000000",
        "10000000000000000",
        "false",
        "0"
      ],
      "transaction": {
        "from": "0xf7c7ddd2ed3ea7b745786951713f4ffef428adef",
        "to": "0x033ea50deaa8b064958fc40e34f994c154d27fff",
        "gas": "0x8e0d3",
        "value": "0x0",
        "input": "0x47f39ab500000000000000000000000027faa3e80f9d791ee3da9d6a8f5407fa1bd2d28f00000000000000000000000047a94537cd5169dd0d7e8b86b65372794c9ff8e8000000000000000000000000000000000000000000000000000000000000000000000000000000000000000000000000000000000000000000000000000000000000000000000000000000000000000000000000000000000000000000001b580000000000000000000000000000000000000000000000000000000000001d4c00000000000000000000000000000000000000000000000000000000000001f400000000000000000000000000000000000000000000000000000000000001f40000000000000000000000000000000000000000000000000000000000000190000000000000000000000000000000000000000000000e4b2ead51ac33300000000000000000000000000000000000000000000000000e4b2ead51ac33300000000000000000000000000000000000000000000000000000002386f26fc1000000000000000000000000000000000000000000000000000000000000000000000000000000000000000000000000000000000000000000000000000000000000",
        "nonce": "0x1555",
        "chainId": "0x14a34"
      },
      "additionalContracts": [],
      "isFixedGasLimit": false
    },
    {
      "hash": "0x1c43b1cb0e6343aeffba044bc9ffa42cafd2b106f3c21c14cd1322ede87d2242",
      "transactionType": "CALL",
      "contractName": null,
      "contractAddress": "0x033ea50deaa8b064958fc40e34f994c154d27fff",
      "function": "configureLendingPair(address,address,address,address,uint256,uint256,uint256,uint256,uint256,uint256,uint256,uint256,bool,uint256)",
      "arguments": [
        "0x2bA7c85A45767443f44274331f20299755B17C2f",
        "0x119000192D6C783d355aC50320670F8140D051d0",
        "0x0000000000000000000000000000000000000000",
        "0x0000000000000000000000000000000000000000",
        "7500",
        "8000",
        "500",
        "500",
        "350",
        "2200000000000000000000",
        "2200000000000000000000",
        "1000000000000000000",
        "false",
        "0"
      ],
      "transaction": {
        "from": "0xf7c7ddd2ed3ea7b745786951713f4ffef428adef",
        "to": "0x033ea50deaa8b064958fc40e34f994c154d27fff",
        "gas": "0x9c814",
        "value": "0x0",
        "input": "0x47f39ab50000000000000000000000002ba7c85a45767443f44274331f20299755b17c2f000000000000000000000000119000192d6c783d355ac50320670f8140d051d0000000000000000000000000000000000000000000000000000000000000000000000000000000000000000000000000000000000000000000000000000000000000000000000000000000000000000000000000000000000000000000001d4c0000000000000000000000000000000000000000000000000000000000001f4000000000000000000000000000000000000000000000000000000000000001f400000000000000000000000000000000000000000000000000000000000001f4000000000000000000000000000000000000000000000000000000000000015e000000000000000000000000000000000000000000000077432217e683600000000000000000000000000000000000000000000000000077432217e6836000000000000000000000000000000000000000000000000000000de0b6b3a764000000000000000000000000000000000000000000000000000000000000000000000000000000000000000000000000000000000000000000000000000000000000",
        "nonce": "0x1556",
        "chainId": "0x14a34"
      },
      "additionalContracts": [],
      "isFixedGasLimit": false
    },
    {
      "hash": "0x07b31222425cf43ce0e5e646dac954001639694fc7bf0019d7eab32c4eab627c",
      "transactionType": "CALL",
      "contractName": null,
      "contractAddress": "0x033ea50deaa8b064958fc40e34f994c154d27fff",
      "function": "configureLendingPair(address,address,address,address,uint256,uint256,uint256,uint256,uint256,uint256,uint256,uint256,bool,uint256)",
      "arguments": [
        "0x2bA7c85A45767443f44274331f20299755B17C2f",
        "0x47A94537Cd5169dD0D7E8B86B65372794C9Ff8e8",
        "0x0000000000000000000000000000000000000000",
        "0x0000000000000000000000000000000000000000",
        "7000",
        "7500",
        "500",
        "500",
        "400",
        "2200000000000000000000",
        "2200000000000000000000",
        "10000000000000000",
        "false",
        "0"
      ],
      "transaction": {
        "from": "0xf7c7ddd2ed3ea7b745786951713f4ffef428adef",
        "to": "0x033ea50deaa8b064958fc40e34f994c154d27fff",
        "gas": "0x8e0b3",
        "value": "0x0",
        "input": "0x47f39ab50000000000000000000000002ba7c85a45767443f44274331f20299755b17c2f00000000000000000000000047a94537cd5169dd0d7e8b86b65372794c9ff8e8000000000000000000000000000000000000000000000000000000000000000000000000000000000000000000000000000000000000000000000000000000000000000000000000000000000000000000000000000000000000000000001b580000000000000000000000000000000000000000000000000000000000001d4c00000000000000000000000000000000000000000000000000000000000001f400000000000000000000000000000000000000000000000000000000000001f40000000000000000000000000000000000000000000000000000000000000190000000000000000000000000000000000000000000000077432217e683600000000000000000000000000000000000000000000000000077432217e683600000000000000000000000000000000000000000000000000000002386f26fc1000000000000000000000000000000000000000000000000000000000000000000000000000000000000000000000000000000000000000000000000000000000000",
        "nonce": "0x1557",
        "chainId": "0x14a34"
      },
      "additionalContracts": [],
      "isFixedGasLimit": false
    },
    {
      "hash": "0x5803c6f8e685e9a8fcac5b18b7366ff900bd3027550a19b2aa35a7a1185111fc",
      "transactionType": "CALL",
      "contractName": null,
      "contractAddress": "0x033ea50deaa8b064958fc40e34f994c154d27fff",
      "function": "configureLendingPair(address,address,address,address,uint256,uint256,uint256,uint256,uint256,uint256,uint256,uint256,bool,uint256)",
      "arguments": [
        "0xb9936ac3eE6b30C82587dAf7F2fF417758aaCe78",
        "0x119000192D6C783d355aC50320670F8140D051d0",
        "0x0000000000000000000000000000000000000000",
        "0x0000000000000000000000000000000000000000",
        "7500",
        "8000",
        "500",
        "500",
        "350",
        "1950000000000000000000",
        "1950000000000000000000",
        "1000000000000000000",
        "false",
        "0"
      ],
      "transaction": {
        "from": "0xf7c7ddd2ed3ea7b745786951713f4ffef428adef",
        "to": "0x033ea50deaa8b064958fc40e34f994c154d27fff",
        "gas": "0x9c814",
        "value": "0x0",
        "input": "0x47f39ab5000000000000000000000000b9936ac3ee6b30c82587daf7f2ff417758aace78000000000000000000000000119000192d6c783d355ac50320670f8140d051d0000000000000000000000000000000000000000000000000000000000000000000000000000000000000000000000000000000000000000000000000000000000000000000000000000000000000000000000000000000000000000000001d4c0000000000000000000000000000000000000000000000000000000000001f4000000000000000000000000000000000000000000000000000000000000001f400000000000000000000000000000000000000000000000000000000000001f4000000000000000000000000000000000000000000000000000000000000015e000000000000000000000000000000000000000000000069b5afac750bb80000000000000000000000000000000000000000000000000069b5afac750bb800000000000000000000000000000000000000000000000000000de0b6b3a764000000000000000000000000000000000000000000000000000000000000000000000000000000000000000000000000000000000000000000000000000000000000",
        "nonce": "0x1558",
        "chainId": "0x14a34"
      },
      "additionalContracts": [],
      "isFixedGasLimit": false
    },
    {
      "hash": "0xb07eadb452939d8389a8673671235df530160f2ad82ed5757b04f89775be5301",
      "transactionType": "CALL",
      "contractName": null,
      "contractAddress": "0x033ea50deaa8b064958fc40e34f994c154d27fff",
      "function": "configureLendingPair(address,address,address,address,uint256,uint256,uint256,uint256,uint256,uint256,uint256,uint256,bool,uint256)",
      "arguments": [
        "0xb9936ac3eE6b30C82587dAf7F2fF417758aaCe78",
        "0x47A94537Cd5169dD0D7E8B86B65372794C9Ff8e8",
        "0x0000000000000000000000000000000000000000",
        "0x0000000000000000000000000000000000000000",
        "7000",
        "7500",
        "500",
        "500",
        "400",
        "1950000000000000000000",
        "1950000000000000000000",
        "10000000000000000",
        "false",
        "0"
      ],
      "transaction": {
        "from": "0xf7c7ddd2ed3ea7b745786951713f4ffef428adef",
        "to": "0x033ea50deaa8b064958fc40e34f994c154d27fff",
        "gas": "0x8e0b3",
        "value": "0x0",
        "input": "0x47f39ab5000000000000000000000000b9936ac3ee6b30c82587daf7f2ff417758aace7800000000000000000000000047a94537cd5169dd0d7e8b86b65372794c9ff8e8000000000000000000000000000000000000000000000000000000000000000000000000000000000000000000000000000000000000000000000000000000000000000000000000000000000000000000000000000000000000000000001b580000000000000000000000000000000000000000000000000000000000001d4c00000000000000000000000000000000000000000000000000000000000001f400000000000000000000000000000000000000000000000000000000000001f40000000000000000000000000000000000000000000000000000000000000190000000000000000000000000000000000000000000000069b5afac750bb80000000000000000000000000000000000000000000000000069b5afac750bb80000000000000000000000000000000000000000000000000000002386f26fc1000000000000000000000000000000000000000000000000000000000000000000000000000000000000000000000000000000000000000000000000000000000000",
        "nonce": "0x1559",
        "chainId": "0x14a34"
      },
      "additionalContracts": [],
      "isFixedGasLimit": false
    }
  ],
  "receipts": [
    {
      "status": "0x1",
      "cumulativeGasUsed": "0x807410",
      "logs": [
        {
          "address": "0x033ea50deaa8b064958fc40e34f994c154d27fff",
          "topics": [
            "0xf3bd8c45b58d535d7baa133b54fed923287038c1a5079bf4b73b28cd5ca9fe5e",
            "0x000000000000000000000000733b737320f0bd3fe347f02257f77e7a7807bc3e",
            "0x000000000000000000000000119000192d6c783d355ac50320670f8140d051d0",
            "0xe60b555a6432c7d3f953ceb9a116605a2111d24413c878a65ed179fc0598a81b"
          ],
          "data": "0x0000000000000000000000000000000000000000000000000000000000001d4c0000000000000000000000000000000000000000000000000000000000001f40",
          "blockHash": "0x0ced9a7f1ac9d6e2c9ed6e2cf97a79a4483c01e11f17b22f0ebc71a09873811e",
          "blockNumber": "0x2088499",
          "blockTimestamp": "0x69246812",
          "transactionHash": "0x03b6082007c704c46df3980e760e2e3dbbd8c5d26c09487d957c79053409f7b4",
          "transactionIndex": "0xa",
          "logIndex": "0x54",
          "removed": false
        }
      ],
      "logsBloom": "0x0000000000000000000000000000000000000000040000000000000000000000000000000000000000004000000000000100000000002000000000000000000000000000000a000010000040000000000000000000000000000020000000000000000000000000000000000000000000000000000000000000000000000000000000000000000000000000000000000000000001000000000000000000000000000000000000000000080000000000008002000000000000000000000000000000000000000000000000000000000000000000000022000000000000000000000000000000000000000000000000000000000000000000000000000000000000",
      "type": "0x2",
      "transactionHash": "0x03b6082007c704c46df3980e760e2e3dbbd8c5d26c09487d957c79053409f7b4",
      "transactionIndex": "0xa",
      "blockHash": "0x0ced9a7f1ac9d6e2c9ed6e2cf97a79a4483c01e11f17b22f0ebc71a09873811e",
      "blockNumber": "0x2088499",
      "gasUsed": "0x6b049",
      "effectiveGasPrice": "0x124f80",
      "blobGasUsed": "0xb808",
      "from": "0xf7c7ddd2ed3ea7b745786951713f4ffef428adef",
      "to": "0x033ea50deaa8b064958fc40e34f994c154d27fff",
      "contractAddress": null,
      "daFootprintGasScalar": "0x138",
      "l1BaseFeeScalar": "0x44d",
      "l1BlobBaseFee": "0x1",
      "l1BlobBaseFeeScalar": "0xa118b",
      "l1Fee": "0x106a1",
      "l1GasPrice": "0x1b",
      "l1GasUsed": "0x977"
    },
    {
      "status": "0x1",
      "cumulativeGasUsed": "0x86e18d",
      "logs": [
        {
          "address": "0x033ea50deaa8b064958fc40e34f994c154d27fff",
          "topics": [
            "0xf3bd8c45b58d535d7baa133b54fed923287038c1a5079bf4b73b28cd5ca9fe5e",
            "0x000000000000000000000000733b737320f0bd3fe347f02257f77e7a7807bc3e",
            "0x00000000000000000000000047a94537cd5169dd0d7e8b86b65372794c9ff8e8",
            "0xfce95fa46cfafac2941b3a8ea6478f00d8d0a85df40e39a790b95a2a33a3ff10"
          ],
          "data": "0x0000000000000000000000000000000000000000000000000000000000001b580000000000000000000000000000000000000000000000000000000000001d4c",
          "blockHash": "0x0ced9a7f1ac9d6e2c9ed6e2cf97a79a4483c01e11f17b22f0ebc71a09873811e",
          "blockNumber": "0x2088499",
          "blockTimestamp": "0x69246812",
          "transactionHash": "0xfa8ebeffcd8bfcc2f4e99349e76930cdb01ab072c5dbe18b0d7b9e9feca79be0",
          "transactionIndex": "0xb",
          "logIndex": "0x55",
          "removed": false
        }
      ],
      "logsBloom": "0x00000000000000000000000000000000000000000400000000000000000000000000000000000000000040000000000000000000000020000800000020000000000000000008000010000000000000000000000000000000040000000000000000000000000000000000000000000000000008000000000000020000000000000000000000000000000000000000000000000000000000000000000000000000000000000000000000080000000000008002000000000000000000000000000000000000000000000000000000000000000000000002000000000000000000000000000000000000000000000000000000000000000000000000000000200000",
      "type": "0x2",
      "transactionHash": "0xfa8ebeffcd8bfcc2f4e99349e76930cdb01ab072c5dbe18b0d7b9e9feca79be0",
      "transactionIndex": "0xb",
      "blockHash": "0x0ced9a7f1ac9d6e2c9ed6e2cf97a79a4483c01e11f17b22f0ebc71a09873811e",
      "blockNumber": "0x2088499",
      "gasUsed": "0x66d7d",
      "effectiveGasPrice": "0x124f80",
      "blobGasUsed": "0xb6d0",
      "from": "0xf7c7ddd2ed3ea7b745786951713f4ffef428adef",
      "to": "0x033ea50deaa8b064958fc40e34f994c154d27fff",
      "contractAddress": null,
      "daFootprintGasScalar": "0x138",
      "l1BaseFeeScalar": "0x44d",
      "l1BlobBaseFee": "0x1",
      "l1BlobBaseFeeScalar": "0xa118b",
      "l1Fee": "0x106a1",
      "l1GasPrice": "0x1b",
      "l1GasUsed": "0x96a"
    },
    {
      "status": "0x1",
      "cumulativeGasUsed": "0x8d91a6",
      "logs": [
        {
          "address": "0x033ea50deaa8b064958fc40e34f994c154d27fff",
          "topics": [
            "0xf3bd8c45b58d535d7baa133b54fed923287038c1a5079bf4b73b28cd5ca9fe5e",
            "0x000000000000000000000000a185a6f1dc798a57d42c9cd13b93e72718682321",
            "0x000000000000000000000000119000192d6c783d355ac50320670f8140d051d0",
            "0x6e701aa5f55a651d07883e71ac31c991d32adbd27a444a29a4e895655d47e163"
          ],
          "data": "0x0000000000000000000000000000000000000000000000000000000000001d4c0000000000000000000000000000000000000000000000000000000000001f40",
          "blockHash": "0x0ced9a7f1ac9d6e2c9ed6e2cf97a79a4483c01e11f17b22f0ebc71a09873811e",
          "blockNumber": "0x2088499",
          "blockTimestamp": "0x69246812",
          "transactionHash": "0xa7c0e8a000188af3100b61465f3df1034be1a10dc7fdbaeb038779de83499177",
          "transactionIndex": "0xc",
          "logIndex": "0x56",
          "removed": false
        }
      ],
      "logsBloom": "0x0000000000000000000000000000000000000000040000000000000000000000000000000000000000004000020000000000000000002000000000000000000000000000000a000000000040000000180000000000000000000000000000000000000000000000000000000000000000000000000000000000000000000200000000000000000000000000000000000000000000000400000000000000000000000000000000000000000000000000008000000000000000000000000000000000000000000000000000000000000000000000000022000000000000000000000000000000000000000000000000000000000000000000000000000000000000",
      "type": "0x2",
      "transactionHash": "0xa7c0e8a000188af3100b61465f3df1034be1a10dc7fdbaeb038779de83499177",
      "transactionIndex": "0xc",
      "blockHash": "0x0ced9a7f1ac9d6e2c9ed6e2cf97a79a4483c01e11f17b22f0ebc71a09873811e",
      "blockNumber": "0x2088499",
      "gasUsed": "0x6b019",
      "effectiveGasPrice": "0x124f80",
      "blobGasUsed": "0xb6d0",
      "from": "0xf7c7ddd2ed3ea7b745786951713f4ffef428adef",
      "to": "0x033ea50deaa8b064958fc40e34f994c154d27fff",
      "contractAddress": null,
      "daFootprintGasScalar": "0x138",
      "l1BaseFeeScalar": "0x44d",
      "l1BlobBaseFee": "0x1",
      "l1BlobBaseFeeScalar": "0xa118b",
      "l1Fee": "0x106a1",
      "l1GasPrice": "0x1b",
      "l1GasUsed": "0x96a"
    },
    {
      "status": "0x1",
      "cumulativeGasUsed": "0x93fef3",
      "logs": [
        {
          "address": "0x033ea50deaa8b064958fc40e34f994c154d27fff",
          "topics": [
            "0xf3bd8c45b58d535d7baa133b54fed923287038c1a5079bf4b73b28cd5ca9fe5e",
            "0x000000000000000000000000a185a6f1dc798a57d42c9cd13b93e72718682321",
            "0x00000000000000000000000047a94537cd5169dd0d7e8b86b65372794c9ff8e8",
            "0x0888b5c3135a30fc704722cce84c0b417ea5273d49aefb59895c6bc755bb384b"
          ],
          "data": "0x0000000000000000000000000000000000000000000000000000000000001b580000000000000000000000000000000000000000000000000000000000001d4c",
          "blockHash": "0x0ced9a7f1ac9d6e2c9ed6e2cf97a79a4483c01e11f17b22f0ebc71a09873811e",
          "blockNumber": "0x2088499",
          "blockTimestamp": "0x69246812",
          "transactionHash": "0xa3a0f716348628d382baaa0605fc519de49a7f1241d54148139c627b56739b00",
          "transactionIndex": "0xd",
          "logIndex": "0x57",
          "removed": false
        }
      ],
      "logsBloom": "0x00000000000000000000000000000000000000000400000000000000000000000000000000000000000040000200000000000000000020000000000000000000000000000008000000000000000000100000000000000000040000000000000000000000000000000000000000000000000000000001000000020000000000000000000000000000000000000000000000000000000400000000000000000000000000000000000000000000000000008000000000000000000000000000000000020000000000000000000000000000000000000002000000000000000000000000000000000000000000000000000000000000000000000008000000200000",
      "type": "0x2",
      "transactionHash": "0xa3a0f716348628d382baaa0605fc519de49a7f1241d54148139c627b56739b00",
      "transactionIndex": "0xd",
      "blockHash": "0x0ced9a7f1ac9d6e2c9ed6e2cf97a79a4483c01e11f17b22f0ebc71a09873811e",
      "blockNumber": "0x2088499",
      "gasUsed": "0x66d4d",
      "effectiveGasPrice": "0x124f80",
      "blobGasUsed": "0xb6d0",
      "from": "0xf7c7ddd2ed3ea7b745786951713f4ffef428adef",
      "to": "0x033ea50deaa8b064958fc40e34f994c154d27fff",
      "contractAddress": null,
      "daFootprintGasScalar": "0x138",
      "l1BaseFeeScalar": "0x44d",
      "l1BlobBaseFee": "0x1",
      "l1BlobBaseFeeScalar": "0xa118b",
      "l1Fee": "0x106a1",
      "l1GasPrice": "0x1b",
      "l1GasUsed": "0x96a"
    },
    {
      "status": "0x1",
      "cumulativeGasUsed": "0x9aaf3c",
      "logs": [
        {
          "address": "0x033ea50deaa8b064958fc40e34f994c154d27fff",
          "topics": [
            "0xf3bd8c45b58d535d7baa133b54fed923287038c1a5079bf4b73b28cd5ca9fe5e",
            "0x0000000000000000000000008db4f2ad2c4b07a6c5d5bbe0784df5db0e072706",
            "0x000000000000000000000000119000192d6c783d355ac50320670f8140d051d0",
            "0x24e37257f7e8efc4b9c3428ffc5b6a11b5ab2443e72e441e7925c643916e0d8d"
          ],
          "data": "0x0000000000000000000000000000000000000000000000000000000000001d4c0000000000000000000000000000000000000000000000000000000000001f40",
          "blockHash": "0x0ced9a7f1ac9d6e2c9ed6e2cf97a79a4483c01e11f17b22f0ebc71a09873811e",
          "blockNumber": "0x2088499",
          "blockTimestamp": "0x69246812",
          "transactionHash": "0x053b89d8c1d0147b1f86269046f89af78d7d799a3cd9c46e2fff68ba9983a5b8",
          "transactionIndex": "0xe",
          "logIndex": "0x58",
          "removed": false
        }
      ],
      "logsBloom": "0x0000000000000000000000400000000000000000840000000000000000000000000000000000000000004000000000000000000000002000000000000000000000000000000a000000000040000000080000000000000000000000000000000000000000400000000000000000000000000000000000000000000000000000000000000000000000000000000000000000000000000000000000000000000000400000000000000000000000000000008000000000000000000000000000000000000000000000000000000000000000000000000022000000000000000000000000000000000000000008000000000000000000000000000000000000000000",
      "type": "0x2",
      "transactionHash": "0x053b89d8c1d0147b1f86269046f89af78d7d799a3cd9c46e2fff68ba9983a5b8",
      "transactionIndex": "0xe",
      "blockHash": "0x0ced9a7f1ac9d6e2c9ed6e2cf97a79a4483c01e11f17b22f0ebc71a09873811e",
      "blockNumber": "0x2088499",
      "gasUsed": "0x6b049",
      "effectiveGasPrice": "0x124f80",
      "blobGasUsed": "0xb6d0",
      "from": "0xf7c7ddd2ed3ea7b745786951713f4ffef428adef",
      "to": "0x033ea50deaa8b064958fc40e34f994c154d27fff",
      "contractAddress": null,
      "daFootprintGasScalar": "0x138",
      "l1BaseFeeScalar": "0x44d",
      "l1BlobBaseFee": "0x1",
      "l1BlobBaseFeeScalar": "0xa118b",
      "l1Fee": "0x106a1",
      "l1GasPrice": "0x1b",
      "l1GasUsed": "0x96a"
    },
    {
      "status": "0x1",
      "cumulativeGasUsed": "0xa11cb9",
      "logs": [
        {
          "address": "0x033ea50deaa8b064958fc40e34f994c154d27fff",
          "topics": [
            "0xf3bd8c45b58d535d7baa133b54fed923287038c1a5079bf4b73b28cd5ca9fe5e",
            "0x0000000000000000000000008db4f2ad2c4b07a6c5d5bbe0784df5db0e072706",
            "0x00000000000000000000000047a94537cd5169dd0d7e8b86b65372794c9ff8e8",
            "0x242af17e8c6c95c09a816725394af1c30dee3220c62d568ab5f963cf7032853a"
          ],
          "data": "0x0000000000000000000000000000000000000000000000000000000000001b580000000000000000000000000000000000000000000000000000000000001d4c",
          "blockHash": "0x0ced9a7f1ac9d6e2c9ed6e2cf97a79a4483c01e11f17b22f0ebc71a09873811e",
          "blockNumber": "0x2088499",
          "blockTimestamp": "0x69246812",
          "transactionHash": "0x0a91fd37fb0b389c46cc284f756015f0816e05a33443d14f62d05a1fc407cd36",
          "transactionIndex": "0xf",
          "logIndex": "0x59",
          "removed": false
        }
      ],
      "logsBloom": "0x00000000000000000000004000000000000000008400000000000000000000000000000000000000000040000000000000000000000020000000000000000000000000000008000000000000000000000000000000000000040000000000000000000000400000000000000000000000000000000000000000020000000000000000000000000000000000000000000000000000000000000000000000000000000000000000000000000000000000008000000000000000000000000000000000000000000000000000000000000000000000000002000000000000000000000000000000000000080000000000000020000000000000000010000000200000",
      "type": "0x2",
      "transactionHash": "0x0a91fd37fb0b389c46cc284f756015f0816e05a33443d14f62d05a1fc407cd36",
      "transactionIndex": "0xf",
      "blockHash": "0x0ced9a7f1ac9d6e2c9ed6e2cf97a79a4483c01e11f17b22f0ebc71a09873811e",
      "blockNumber": "0x2088499",
      "gasUsed": "0x66d7d",
      "effectiveGasPrice": "0x124f80",
      "blobGasUsed": "0xb6d0",
      "from": "0xf7c7ddd2ed3ea7b745786951713f4ffef428adef",
      "to": "0x033ea50deaa8b064958fc40e34f994c154d27fff",
      "contractAddress": null,
      "daFootprintGasScalar": "0x138",
      "l1BaseFeeScalar": "0x44d",
      "l1BlobBaseFee": "0x1",
      "l1BlobBaseFeeScalar": "0xa118b",
      "l1Fee": "0x106a1",
      "l1GasPrice": "0x1b",
      "l1GasUsed": "0x96a"
    },
    {
      "status": "0x1",
      "cumulativeGasUsed": "0xa7ccea",
      "logs": [
        {
          "address": "0x033ea50deaa8b064958fc40e34f994c154d27fff",
          "topics": [
            "0xf3bd8c45b58d535d7baa133b54fed923287038c1a5079bf4b73b28cd5ca9fe5e",
            "0x00000000000000000000000057d086092ecd0f5653a9956019c0e0fa584a246a",
            "0x000000000000000000000000119000192d6c783d355ac50320670f8140d051d0",
            "0xab6298dea8a870066973b1babde28bdb05befb146549e28b9ba8941054074616"
          ],
          "data": "0x0000000000000000000000000000000000000000000000000000000000001d4c0000000000000000000000000000000000000000000000000000000000001f40",
          "blockHash": "0x0ced9a7f1ac9d6e2c9ed6e2cf97a79a4483c01e11f17b22f0ebc71a09873811e",
          "blockNumber": "0x2088499",
          "blockTimestamp": "0x69246812",
          "transactionHash": "0xd592e2a314b42a24139d36645e420e869de668fa3f23ca2ce3c4a6e2606765e7",
          "transactionIndex": "0x10",
          "logIndex": "0x5a",
          "removed": false
        }
      ],
      "logsBloom": "0x000000000000000000000000100000000000000004000000000000000000000000000000000000000000c000000000000001000000002000000000000000000000000000010a000000000040000000000000000000000000000000000000000000000000000000000000000000000000000000000000000000000000000000000000000000000000000000000000000000000000000000000000000000000000000080000000000080000000000000008000000000000000000000000000000000000000000000000000000000000000000000000022000000000000000000000000000000000000000000000000000000000000000000000000000000000000",
      "type": "0x2",
      "transactionHash": "0xd592e2a314b42a24139d36645e420e869de668fa3f23ca2ce3c4a6e2606765e7",
      "transactionIndex": "0x10",
      "blockHash": "0x0ced9a7f1ac9d6e2c9ed6e2cf97a79a4483c01e11f17b22f0ebc71a09873811e",
      "blockNumber": "0x2088499",
      "gasUsed": "0x6b031",
      "effectiveGasPrice": "0x124f80",
      "blobGasUsed": "0xb940",
      "from": "0xf7c7ddd2ed3ea7b745786951713f4ffef428adef",
      "to": "0x033ea50deaa8b064958fc40e34f994c154d27fff",
      "contractAddress": null,
      "daFootprintGasScalar": "0x138",
      "l1BaseFeeScalar": "0x44d",
      "l1BlobBaseFee": "0x1",
      "l1BlobBaseFeeScalar": "0xa118b",
      "l1Fee": "0x106a1",
      "l1GasPrice": "0x1b",
      "l1GasUsed": "0x985"
    },
    {
      "status": "0x1",
      "cumulativeGasUsed": "0xae3a4f",
      "logs": [
        {
          "address": "0x033ea50deaa8b064958fc40e34f994c154d27fff",
          "topics": [
            "0xf3bd8c45b58d535d7baa133b54fed923287038c1a5079bf4b73b28cd5ca9fe5e",
            "0x00000000000000000000000057d086092ecd0f5653a9956019c0e0fa584a246a",
            "0x00000000000000000000000047a94537cd5169dd0d7e8b86b65372794c9ff8e8",
            "0xb41091fbbee7e6b6daf0eb1c23382be9b09a732935d48fd4cb7ff5586d620ecb"
          ],
          "data": "0x0000000000000000000000000000000000000000000000000000000000001b580000000000000000000000000000000000000000000000000000000000001d4c",
          "blockHash": "0x0de611340a5bf43cfda26591f54b91ab871b80902d0982dec3a1e9c08a915023",
          "blockNumber": "0x2088499",
          "blockTimestamp": "0x69246812",
          "transactionHash": "0xc6784e722ef5e4521f7d861c8e202914c83a7721a6f4c89ef3dd51b42fcee81d",
          "transactionIndex": "0x11",
          "logIndex": "0x5b",
          "removed": false
        }
      ],
      "logsBloom": "0x000000000000000000000000000000000000000004000000000000000000000000000000000000000000c0000000000000000000000020000000280000000000000000000108000000000000000000000000000000000000040000000000000000000000000000000000000000000000000000000000000000020000000000000000000000000000000000000000000000000000000000000000000000000000000000000000000080000000000000008000000000000000000000000000000000000000000000000000000000000000000000000002000000000000000000000000000000000000000000000000000000000000000000000020000000200000",
      "type": "0x2",
      "transactionHash": "0xc6784e722ef5e4521f7d861c8e202914c83a7721a6f4c89ef3dd51b42fcee81d",
      "transactionIndex": "0x11",
      "blockHash": "0x0de611340a5bf43cfda26591f54b91ab871b80902d0982dec3a1e9c08a915023",
      "blockNumber": "0x2088499",
      "gasUsed": "0x66d65",
      "effectiveGasPrice": "0x124f80",
      "blobGasUsed": "0xb808",
      "from": "0xf7c7ddd2ed3ea7b745786951713f4ffef428adef",
      "to": "0x033ea50deaa8b064958fc40e34f994c154d27fff",
      "contractAddress": null,
      "daFootprintGasScalar": "0x138",
      "l1BaseFeeScalar": "0x44d",
      "l1BlobBaseFee": "0x1",
      "l1BlobBaseFeeScalar": "0xa118b",
      "l1Fee": "0xac",
      "l1GasPrice": "0x1b",
      "l1GasUsed": "0x977"
    },
    {
      "status": "0x1",
      "cumulativeGasUsed": "0xb4ea80",
      "logs": [
        {
          "address": "0x033ea50deaa8b064958fc40e34f994c154d27fff",
          "topics": [
            "0xf3bd8c45b58d535d7baa133b54fed923287038c1a5079bf4b73b28cd5ca9fe5e",
            "0x000000000000000000000000ba9aa9fdbae1040d9d74612a899df2455957aa22",
            "0x000000000000000000000000119000192d6c783d355ac50320670f8140d051d0",
            "0x59510a33970ef6eaca0e4c1f7f17e0c836c0862fdc96b443e0f4366f062e2b31"
          ],
          "data": "0x0000000000000000000000000000000000000000000000000000000000001d4c0000000000000000000000000000000000000000000000000000000000001f40",
          "blockHash": "0x0de611340a5bf43cfda26591f54b91ab871b80902d0982dec3a1e9c08a915023",
          "blockNumber": "0x2088499",
          "blockTimestamp": "0x69246812",
          "transactionHash": "0xed419d09065524e03e7a59acdd4203d96983be4acf527cbe4e30c4a20121ce12",
          "transactionIndex": "0x12",
          "logIndex": "0x5c",
          "removed": false
        }
      ],
      "logsBloom": "0x0000000000000000000000000000000000000000040000000000000000000000000000000000000000004040000000000000000000002000000000000000000000000000000a000000000040000000000000000000000000000000000004000000000000000000000000000000002000000000000000000000000000000000000000000000000000000000000004000000000000000000000000000000000010000000000200000000000000000000008000000000000000000000000000000000000000000000000000000000000000000000000022000000000000000000000000000000000000000000000000000000000000000000000000000000000000",
      "type": "0x2",
      "transactionHash": "0xed419d09065524e03e7a59acdd4203d96983be4acf527cbe4e30c4a20121ce12",
      "transactionIndex": "0x12",
      "blockHash": "0x0de611340a5bf43cfda26591f54b91ab871b80902d0982dec3a1e9c08a915023",
      "blockNumber": "0x2088499",
      "gasUsed": "0x6b031",
      "effectiveGasPrice": "0x124f80",
      "blobGasUsed": "0xb940",
      "from": "0xf7c7ddd2ed3ea7b745786951713f4ffef428adef",
      "to": "0x033ea50deaa8b064958fc40e34f994c154d27fff",
      "contractAddress": null,
      "daFootprintGasScalar": "0x138",
      "l1BaseFeeScalar": "0x44d",
      "l1BlobBaseFee": "0x1",
      "l1BlobBaseFeeScalar": "0xa118b",
      "l1Fee": "0xac",
      "l1GasPrice": "0x1b",
      "l1GasUsed": "0x985"
    },
    {
      "status": "0x1",
      "cumulativeGasUsed": "0xbb57e5",
      "logs": [
        {
          "address": "0x033ea50deaa8b064958fc40e34f994c154d27fff",
          "topics": [
            "0xf3bd8c45b58d535d7baa133b54fed923287038c1a5079bf4b73b28cd5ca9fe5e",
            "0x000000000000000000000000ba9aa9fdbae1040d9d74612a899df2455957aa22",
            "0x00000000000000000000000047a94537cd5169dd0d7e8b86b65372794c9ff8e8",
            "0x04de4df1a29f682692a85d091b3517fa296ab58156270ac2bbbb759373490b8a"
          ],
          "data": "0x0000000000000000000000000000000000000000000000000000000000001b580000000000000000000000000000000000000000000000000000000000001d4c",
          "blockHash": "0x0de611340a5bf43cfda26591f54b91ab871b80902d0982dec3a1e9c08a915023",
          "blockNumber": "0x2088499",
          "blockTimestamp": "0x69246812",
          "transactionHash": "0x6e8b3f0401cac510931f4be462035885eacdd905d17918eff6d1192a8270c546",
          "transactionIndex": "0x13",
          "logIndex": "0x5d",
          "removed": false
        }
      ],
      "logsBloom": "0x00000000000000000000000000000000000000000400000000000000000000000000000000000000000040400000000000000000000020000000000000000000000000000008000000000000000000000000000000000000040000000004000000000000000004000000000000000000000000000000000000020000000000000000000000000000000000000000000000000000000000000000000000000010000000000000000000000000000000048000000000000000000000000000000000000000000000000000000000000000000000000002000000000000000000000000000000000000000000000000000000000000000000000000002000200000",
      "type": "0x2",
      "transactionHash": "0x6e8b3f0401cac510931f4be462035885eacdd905d17918eff6d1192a8270c546",
      "transactionIndex": "0x13",
      "blockHash": "0x0de611340a5bf43cfda26591f54b91ab871b80902d0982dec3a1e9c08a915023",
      "blockNumber": "0x2088499",
      "gasUsed": "0x66d65",
      "effectiveGasPrice": "0x124f80",
      "blobGasUsed": "0xb808",
      "from": "0xf7c7ddd2ed3ea7b745786951713f4ffef428adef",
      "to": "0x033ea50deaa8b064958fc40e34f994c154d27fff",
      "contractAddress": null,
      "daFootprintGasScalar": "0x138",
      "l1BaseFeeScalar": "0x44d",
      "l1BlobBaseFee": "0x1",
      "l1BlobBaseFeeScalar": "0xa118b",
      "l1Fee": "0xac",
      "l1GasPrice": "0x1b",
      "l1GasUsed": "0x977"
    },
    {
      "status": "0x1",
      "cumulativeGasUsed": "0xc2082e",
      "logs": [
        {
          "address": "0x033ea50deaa8b064958fc40e34f994c154d27fff",
          "topics": [
            "0xf3bd8c45b58d535d7baa133b54fed923287038c1a5079bf4b73b28cd5ca9fe5e",
            "0x00000000000000000000000084d82024e8b7d504ca33f237c64b7f218eee607f",
            "0x000000000000000000000000119000192d6c783d355ac50320670f8140d051d0",
            "0x03c4bf6bd8a8879f89c906f4451d5445b126a43e002ed4a9f853cf3b8b3112c0"
          ],
          "data": "0x0000000000000000000000000000000000000000000000000000000000001d4c0000000000000000000000000000000000000000000000000000000000001f40",
          "blockHash": "0x0de611340a5bf43cfda26591f54b91ab871b80902d0982dec3a1e9c08a915023",
          "blockNumber": "0x2088499",
          "blockTimestamp": "0x69246812",
          "transactionHash": "0x6555dc13c69c90490221a44cd8e7dda74d120b1b866f27129323cadb91c5f9dd",
          "transactionIndex": "0x14",
          "logIndex": "0x5e",
          "removed": false
        }
      ],
      "logsBloom": "0x0010000000000000000000000000000000000000040000000000000000000000000000000000000000004000000000000000000000002000000000000000000000000000000a000000000040000000000000000000000000000000000000000000000000000000000000000000000004000000000000000800000000000000000000000000000000000000000000000000000000000000000000000000000000000000000000000000000004000000008000000000000000000000000000004000000000000000000000000000000000000000000022000000000000000000000000000000000000000000000000000000000400000000000000000000000000",
      "type": "0x2",
      "transactionHash": "0x6555dc13c69c90490221a44cd8e7dda74d120b1b866f27129323cadb91c5f9dd",
      "transactionIndex": "0x14",
      "blockHash": "0x0de611340a5bf43cfda26591f54b91ab871b80902d0982dec3a1e9c08a915023",
      "blockNumber": "0x2088499",
      "gasUsed": "0x6b049",
      "effectiveGasPrice": "0x124f80",
      "blobGasUsed": "0xb808",
      "from": "0xf7c7ddd2ed3ea7b745786951713f4ffef428adef",
      "to": "0x033ea50deaa8b064958fc40e34f994c154d27fff",
      "contractAddress": null,
      "daFootprintGasScalar": "0x138",
      "l1BaseFeeScalar": "0x44d",
      "l1BlobBaseFee": "0x1",
      "l1BlobBaseFeeScalar": "0xa118b",
      "l1Fee": "0xac",
      "l1GasPrice": "0x1b",
      "l1GasUsed": "0x977"
    },
    {
      "status": "0x1",
      "cumulativeGasUsed": "0xc875ab",
      "logs": [
        {
          "address": "0x033ea50deaa8b064958fc40e34f994c154d27fff",
          "topics": [
            "0xf3bd8c45b58d535d7baa133b54fed923287038c1a5079bf4b73b28cd5ca9fe5e",
            "0x00000000000000000000000084d82024e8b7d504ca33f237c64b7f218eee607f",
            "0x00000000000000000000000047a94537cd5169dd0d7e8b86b65372794c9ff8e8",
            "0x951f543b87039bf2699fce66366d1638c74977b0895c0bed042b1b0ec6bdb0d1"
          ],
          "data": "0x0000000000000000000000000000000000000000000000000000000000001b580000000000000000000000000000000000000000000000000000000000001d4c",
          "blockHash": "0x0de611340a5bf43cfda26591f54b91ab871b80902d0982dec3a1e9c08a915023",
          "blockNumber": "0x2088499",
          "blockTimestamp": "0x69246812",
          "transactionHash": "0xf8c2e9f8aa04e83254f71d2bb1c5229137d5f51eaea08e6a21233833d0485940",
          "transactionIndex": "0x15",
          "logIndex": "0x5f",
          "removed": false
        }
      ],
      "logsBloom": "0x00000000000000000000000000000000000000000400000000000000000000000000000000000000000040000000000000000000001020000000000000000000000000000008000000000000000000000000000000000000040000000040000000000000000000000000000000000004000000000000000000020000000000000000000000000000000000000000000000000000000000000000000000000000000000000000000000000004000000008000000000000000000000000000000000000000000000000000000000000002000000000002000000000000000000000000000000000000000000000000000000000400000000000000000000200000",
      "type": "0x2",
      "transactionHash": "0xf8c2e9f8aa04e83254f71d2bb1c5229137d5f51eaea08e6a21233833d0485940",
      "transactionIndex": "0x15",
      "blockHash": "0x0de611340a5bf43cfda26591f54b91ab871b80902d0982dec3a1e9c08a915023",
      "blockNumber": "0x2088499",
      "gasUsed": "0x66d7d",
      "effectiveGasPrice": "0x124f80",
      "blobGasUsed": "0xb6d0",
      "from": "0xf7c7ddd2ed3ea7b745786951713f4ffef428adef",
      "to": "0x033ea50deaa8b064958fc40e34f994c154d27fff",
      "contractAddress": null,
      "daFootprintGasScalar": "0x138",
      "l1BaseFeeScalar": "0x44d",
      "l1BlobBaseFee": "0x1",
      "l1BlobBaseFeeScalar": "0xa118b",
      "l1Fee": "0xac",
      "l1GasPrice": "0x1b",
      "l1GasUsed": "0x96a"
    },
    {
      "status": "0x1",
      "cumulativeGasUsed": "0xcf25f4",
      "logs": [
        {
          "address": "0x033ea50deaa8b064958fc40e34f994c154d27fff",
          "topics": [
            "0xf3bd8c45b58d535d7baa133b54fed923287038c1a5079bf4b73b28cd5ca9fe5e",
            "0x0000000000000000000000001317bd6371749e911c96f01d0305a9e23ef3abfe",
            "0x000000000000000000000000119000192d6c783d355ac50320670f8140d051d0",
            "0xabf56e57ddfaf0c6c296d6b355d428b03914fd520b6774dd9b2d60fdb2197956"
          ],
          "data": "0x0000000000000000000000000000000000000000000000000000000000001d4c0000000000000000000000000000000000000000000000000000000000001f40",
          "blockHash": "0x0de611340a5bf43cfda26591f54b91ab871b80902d0982dec3a1e9c08a915023",
          "blockNumber": "0x2088499",
          "blockTimestamp": "0x69246812",
          "transactionHash": "0x1e4e3b9ec67c6e3c19285ad6aa9b746c517cf7d65af7e3d94142a5905bde07e4",
          "transactionIndex": "0x16",
          "logIndex": "0x60",
          "removed": false
        }
      ],
      "logsBloom": "0x0000000000000000000000000000000000002000040000000000001000000000000000000000000000004000000000000000000000002000000000000000000000000000000a000000040040000000000000000000001000000000000000000000000000000000000000000000000000000000000000000000000000000000004000000000000000000000000000000000000000000000000000000000000000000000000200000000000000000000008000000000000000000000000000000000000000000000000000000000000000000000000022000000000000000000000000000000000000000000000000000000000000000000000000000000000000",
      "type": "0x2",
      "transactionHash": "0x1e4e3b9ec67c6e3c19285ad6aa9b746c517cf7d65af7e3d94142a5905bde07e4",
      "transactionIndex": "0x16",
      "blockHash": "0x0de611340a5bf43cfda26591f54b91ab871b80902d0982dec3a1e9c08a915023",
      "blockNumber": "0x2088499",
      "gasUsed": "0x6b049",
      "effectiveGasPrice": "0x124f80",
      "blobGasUsed": "0xb6d0",
      "from": "0xf7c7ddd2ed3ea7b745786951713f4ffef428adef",
      "to": "0x033ea50deaa8b064958fc40e34f994c154d27fff",
      "contractAddress": null,
      "daFootprintGasScalar": "0x138",
      "l1BaseFeeScalar": "0x44d",
      "l1BlobBaseFee": "0x1",
      "l1BlobBaseFeeScalar": "0xa118b",
      "l1Fee": "0xac",
      "l1GasPrice": "0x1b",
      "l1GasUsed": "0x96a"
    },
    {
      "status": "0x1",
      "cumulativeGasUsed": "0xd59371",
      "logs": [
        {
          "address": "0x033ea50deaa8b064958fc40e34f994c154d27fff",
          "topics": [
            "0xf3bd8c45b58d535d7baa133b54fed923287038c1a5079bf4b73b28cd5ca9fe5e",
            "0x0000000000000000000000001317bd6371749e911c96f01d0305a9e23ef3abfe",
            "0x00000000000000000000000047a94537cd5169dd0d7e8b86b65372794c9ff8e8",
            "0xf22c4adf5898bcef729975e9d6b29379d7f37b37032c2287c8e5ed7587dde672"
          ],
          "data": "0x0000000000000000000000000000000000000000000000000000000000001b580000000000000000000000000000000000000000000000000000000000001d4c",
          "blockHash": "0x0de611340a5bf43cfda26591f54b91ab871b80902d0982dec3a1e9c08a915023",
          "blockNumber": "0x2088499",
          "blockTimestamp": "0x69246812",
          "transactionHash": "0x7e798f7da29c84f0ae600b03cc290728172e4e13c51a58769219c850f4627cbb",
          "transactionIndex": "0x17",
          "logIndex": "0x61",
          "removed": false
        }
      ],
      "logsBloom": "0x00000000000000000000000000000000000000000400000000000010000000000000000000000000000040000000000000000000000020000000000000000000000000000008000000000000000040000000000000001000040000000000002000000000000000000000000000000000000000000000000200020000000000004000000000000000000000000000000000000000000000000000000000000000000000000000000000000000000000008000000000000000000000000000000000000000000000000000000000000000000000000002000000000000000000000000000000000000000000000000000000000000000000000000000000200000",
      "type": "0x2",
      "transactionHash": "0x7e798f7da29c84f0ae600b03cc290728172e4e13c51a58769219c850f4627cbb",
      "transactionIndex": "0x17",
      "blockHash": "0x0de611340a5bf43cfda26591f54b91ab871b80902d0982dec3a1e9c08a915023",
      "blockNumber": "0x2088499",
      "gasUsed": "0x66d7d",
      "effectiveGasPrice": "0x124f80",
      "blobGasUsed": "0xb6d0",
      "from": "0xf7c7ddd2ed3ea7b745786951713f4ffef428adef",
      "to": "0x033ea50deaa8b064958fc40e34f994c154d27fff",
      "contractAddress": null,
      "daFootprintGasScalar": "0x138",
      "l1BaseFeeScalar": "0x44d",
      "l1BlobBaseFee": "0x1",
      "l1BlobBaseFeeScalar": "0xa118b",
      "l1Fee": "0xac",
      "l1GasPrice": "0x1b",
      "l1GasUsed": "0x96a"
    },
    {
      "status": "0x1",
      "cumulativeGasUsed": "0xf7efb3",
      "logs": [
        {
          "address": "0x033ea50deaa8b064958fc40e34f994c154d27fff",
          "topics": [
            "0xf3bd8c45b58d535d7baa133b54fed923287038c1a5079bf4b73b28cd5ca9fe5e",
            "0x000000000000000000000000def987ab8663288e4d50124781bf2ad12681db50",
            "0x000000000000000000000000119000192d6c783d355ac50320670f8140d051d0",
            "0x391a9c96e2f8b2fca42314f73aab9ef7fb285d7ad66c5c5e0da0a466ef55062f"
          ],
          "data": "0x0000000000000000000000000000000000000000000000000000000000001d4c0000000000000000000000000000000000000000000000000000000000001f40",
          "blockHash": "0x44d2de0da6ee3ca5e68f0f4f845eeec2547ce33cc1382fb519c2f6ee88f78b55",
          "blockNumber": "0x2088499",
          "blockTimestamp": "0x69246812",
          "transactionHash": "0xbc21ad92148fcaed22d30015ebf62b1aba443f04b198b94028911317d1c17ee3",
          "transactionIndex": "0x1d",
          "logIndex": "0x6f",
          "removed": false
        }
      ],
      "logsBloom": "0x0000000800000000000000000000000000000000040000000000000000000000000000000000000000004000000000000000000000002000000000000000000000000000000a000000000040000000000000000000800000000000000000000000000000000000000000000000000000000000000000000000000000000000000000000000000000000000000000000000000000000000000000000000000000000000000000000000000000040000008000000000000000000000000000000000000000000000000000000000100000000000000022000000000000000000000000000000000000000000000000002000000000000000000000000000000020",
      "type": "0x2",
      "transactionHash": "0xbc21ad92148fcaed22d30015ebf62b1aba443f04b198b94028911317d1c17ee3",
      "transactionIndex": "0x1d",
      "blockHash": "0x44d2de0da6ee3ca5e68f0f4f845eeec2547ce33cc1382fb519c2f6ee88f78b55",
      "blockNumber": "0x2088499",
      "gasUsed": "0x6b049",
      "effectiveGasPrice": "0x124f80",
      "blobGasUsed": "0xb6d0",
      "from": "0xf7c7ddd2ed3ea7b745786951713f4ffef428adef",
      "to": "0x033ea50deaa8b064958fc40e34f994c154d27fff",
      "contractAddress": null,
      "daFootprintGasScalar": "0x138",
      "l1BaseFeeScalar": "0x44d",
      "l1BlobBaseFee": "0x1",
      "l1BlobBaseFeeScalar": "0xa118b",
      "l1Fee": "0x71",
      "l1GasPrice": "0x1b",
      "l1GasUsed": "0x96a"
    },
    {
      "status": "0x1",
      "cumulativeGasUsed": "0xfe5d30",
      "logs": [
        {
          "address": "0x033ea50deaa8b064958fc40e34f994c154d27fff",
          "topics": [
            "0xf3bd8c45b58d535d7baa133b54fed923287038c1a5079bf4b73b28cd5ca9fe5e",
            "0x000000000000000000000000def987ab8663288e4d50124781bf2ad12681db50",
            "0x00000000000000000000000047a94537cd5169dd0d7e8b86b65372794c9ff8e8",
            "0x4bf59e68e149bfdebac1e3cef06b6d6fbf5339d288a01d1f1b23a2a760655d74"
          ],
          "data": "0x0000000000000000000000000000000000000000000000000000000000001b580000000000000000000000000000000000000000000000000000000000001d4c",
          "blockHash": "0x44d2de0da6ee3ca5e68f0f4f845eeec2547ce33cc1382fb519c2f6ee88f78b55",
          "blockNumber": "0x2088499",
          "blockTimestamp": "0x69246812",
          "transactionHash": "0xcb65882645a710a5ff049ccabf5fd1903c9b7fbb4819044bfafec057cac1678a",
          "transactionIndex": "0x1e",
          "logIndex": "0x70",
          "removed": false
        }
      ],
      "logsBloom": "0x00000008000001000000000000000000000000000400000000000000000000000000000000000000000040000000000000000000000020000000000000000000000000000008000200000000000000000000000000000000040000000000000000000000000000000000000000000000000000000000000000020000000000000000000000000000000000000000000000000000000000000000000000000000000000000000000000000000040000008000000000000000000000080000000000000000000000000000000000000000000000000002000000000000000000000000000000000000000000000000000000000000000000000000000000200020",
      "type": "0x2",
      "transactionHash": "0xcb65882645a710a5ff049ccabf5fd1903c9b7fbb4819044bfafec057cac1678a",
      "transactionIndex": "0x1e",
      "blockHash": "0x44d2de0da6ee3ca5e68f0f4f845eeec2547ce33cc1382fb519c2f6ee88f78b55",
      "blockNumber": "0x2088499",
      "gasUsed": "0x66d7d",
      "effectiveGasPrice": "0x124f80",
      "blobGasUsed": "0xb6d0",
      "from": "0xf7c7ddd2ed3ea7b745786951713f4ffef428adef",
      "to": "0x033ea50deaa8b064958fc40e34f994c154d27fff",
      "contractAddress": null,
      "daFootprintGasScalar": "0x138",
      "l1BaseFeeScalar": "0x44d",
      "l1BlobBaseFee": "0x1",
      "l1BlobBaseFeeScalar": "0xa118b",
      "l1Fee": "0x71",
      "l1GasPrice": "0x1b",
      "l1GasUsed": "0x96a"
    },
    {
      "status": "0x1",
      "cumulativeGasUsed": "0x1050d61",
      "logs": [
        {
          "address": "0x033ea50deaa8b064958fc40e34f994c154d27fff",
          "topics": [
            "0xf3bd8c45b58d535d7baa133b54fed923287038c1a5079bf4b73b28cd5ca9fe5e",
            "0x0000000000000000000000005fe0ed58e69a16a897943ebad7c88c3aa65d6bfc",
            "0x000000000000000000000000119000192d6c783d355ac50320670f8140d051d0",
            "0x5f272da99bda1e85ca3805b71383c4e0da43913d9267a02b66b376dd42ecd3ad"
          ],
          "data": "0x0000000000000000000000000000000000000000000000000000000000001d4c0000000000000000000000000000000000000000000000000000000000001f40",
          "blockHash": "0x44d2de0da6ee3ca5e68f0f4f845eeec2547ce33cc1382fb519c2f6ee88f78b55",
          "blockNumber": "0x2088499",
          "blockTimestamp": "0x69246812",
          "transactionHash": "0x494a07219b61f510883be5190f400a715a63c6e625850bd0f1ddc89076816b0c",
          "transactionIndex": "0x1f",
          "logIndex": "0x71",
          "removed": false
        }
      ],
      "logsBloom": "0x0000000000200000000000000000000000000000040000000000000000000000000000000000000000004000000000000000000000002000000000000000000400000000000a000000000040000000000000000000000200000000000000000000000000000000000000000000000000000000000000000000008000000000000000000000000000000000000000000000000000010000000000000000000000000000000000000000000000000020008000000000000000000000000000000000000000000000000000000000000000000000000022000000000000000000000000000000000000000000000000000000000000000000000000000000000000",
      "type": "0x2",
      "transactionHash": "0x494a07219b61f510883be5190f400a715a63c6e625850bd0f1ddc89076816b0c",
      "transactionIndex": "0x1f",
      "blockHash": "0x44d2de0da6ee3ca5e68f0f4f845eeec2547ce33cc1382fb519c2f6ee88f78b55",
      "blockNumber": "0x2088499",
      "gasUsed": "0x6b031",
      "effectiveGasPrice": "0x124f80",
      "blobGasUsed": "0xb598",
      "from": "0xf7c7ddd2ed3ea7b745786951713f4ffef428adef",
      "to": "0x033ea50deaa8b064958fc40e34f994c154d27fff",
      "contractAddress": null,
      "daFootprintGasScalar": "0x138",
      "l1BaseFeeScalar": "0x44d",
      "l1BlobBaseFee": "0x1",
      "l1BlobBaseFeeScalar": "0xa118b",
      "l1Fee": "0x71",
      "l1GasPrice": "0x1b",
      "l1GasUsed": "0x95c"
    },
    {
      "status": "0x1",
      "cumulativeGasUsed": "0x10b7ac6",
      "logs": [
        {
          "address": "0x033ea50deaa8b064958fc40e34f994c154d27fff",
          "topics": [
            "0xf3bd8c45b58d535d7baa133b54fed923287038c1a5079bf4b73b28cd5ca9fe5e",
            "0x0000000000000000000000005fe0ed58e69a16a897943ebad7c88c3aa65d6bfc",
            "0x00000000000000000000000047a94537cd5169dd0d7e8b86b65372794c9ff8e8",
            "0xeb98925e9dd7aa6754e60ce30486af9f20ff777d79f5d6c2bbd701b5d6a8ac43"
          ],
          "data": "0x0000000000000000000000000000000000000000000000000000000000001b580000000000000000000000000000000000000000000000000000000000001d4c",
          "blockHash": "0x44d2de0da6ee3ca5e68f0f4f845eeec2547ce33cc1382fb519c2f6ee88f78b55",
          "blockNumber": "0x2088499",
          "blockTimestamp": "0x69246812",
          "transactionHash": "0x3d34dda0559fbb6ffdcecf4e7e2c8387e9d5ddec698c462604367c92176be30d",
          "transactionIndex": "0x20",
          "logIndex": "0x72",
          "removed": false
        }
      ],
      "logsBloom": "0x00000000000000000000000000000000000000000400000000000000000000000000000000000000000040000000000000000000000020000000000000000004000000000008000000000000000000000000000000000200040000000000000000000000000000000000000000000000000000008000000000020000000000000000000000000000000000000000000000000000000000000000000000000000000000000004000000000000000020008000000000000000000000000000000000000000000000000000000000000000000040000002000000000000000000000000000000000000000000000000000000000000000000000000000000200000",
      "type": "0x2",
      "transactionHash": "0x3d34dda0559fbb6ffdcecf4e7e2c8387e9d5ddec698c462604367c92176be30d",
      "transactionIndex": "0x20",
      "blockHash": "0x44d2de0da6ee3ca5e68f0f4f845eeec2547ce33cc1382fb519c2f6ee88f78b55",
      "blockNumber": "0x2088499",
      "gasUsed": "0x66d65",
      "effectiveGasPrice": "0x124f80",
      "blobGasUsed": "0xb598",
      "from": "0xf7c7ddd2ed3ea7b745786951713f4ffef428adef",
      "to": "0x033ea50deaa8b064958fc40e34f994c154d27fff",
      "contractAddress": null,
      "daFootprintGasScalar": "0x138",
      "l1BaseFeeScalar": "0x44d",
      "l1BlobBaseFee": "0x1",
      "l1BlobBaseFeeScalar": "0xa118b",
      "l1Fee": "0x71",
      "l1GasPrice": "0x1b",
      "l1GasUsed": "0x95c"
    },
    {
      "status": "0x1",
      "cumulativeGasUsed": "0x1122af7",
      "logs": [
        {
          "address": "0x033ea50deaa8b064958fc40e34f994c154d27fff",
          "topics": [
            "0xf3bd8c45b58d535d7baa133b54fed923287038c1a5079bf4b73b28cd5ca9fe5e",
            "0x000000000000000000000000a8411ea314e74afcb6e2b990e7c708e28ad585ea",
            "0x000000000000000000000000119000192d6c783d355ac50320670f8140d051d0",
            "0x7ca1471590f581120136e52bea724f86fe96dd1c928fe36e99eca895b079f2b5"
          ],
          "data": "0x0000000000000000000000000000000000000000000000000000000000001d4c0000000000000000000000000000000000000000000000000000000000001f40",
          "blockHash": "0x96bf79a71d2d489ef159eae8e794212db63ac4aad18c2ded99e17fb3ae929f01",
          "blockNumber": "0x2088499",
          "blockTimestamp": "0x69246812",
          "transactionHash": "0x8380daa12489be3d355defff3cc617bcc101841820f3e520a4e85cf659136671",
          "transactionIndex": "0x21",
          "logIndex": "0x73",
          "removed": false
        }
      ],
      "logsBloom": "0x0000000000000000000000000000000000000000040000000000000000000000000000000000000000004000000000000000000000002000000000000000000000000000000a000000000060000000000000000000800000000000000000000000000000000000000000000000000000000000000000000000000000000000000000000000000000000000000000000000000000000000000000000000000000000000020000000000000000000000008000000000000000000000000000000000000000000000000000000000000000000000000022000000000000000000000000000000000000000000000200000000000000000040800000000000000000",
      "type": "0x2",
      "transactionHash": "0x8380daa12489be3d355defff3cc617bcc101841820f3e520a4e85cf659136671",
      "transactionIndex": "0x21",
      "blockHash": "0x96bf79a71d2d489ef159eae8e794212db63ac4aad18c2ded99e17fb3ae929f01",
      "blockNumber": "0x2088499",
      "gasUsed": "0x6b031",
      "effectiveGasPrice": "0x124f80",
      "blobGasUsed": "0xb940",
      "from": "0xf7c7ddd2ed3ea7b745786951713f4ffef428adef",
      "to": "0x033ea50deaa8b064958fc40e34f994c154d27fff",
      "contractAddress": null,
      "daFootprintGasScalar": "0x138",
      "l1BaseFeeScalar": "0x44d",
      "l1BlobBaseFee": "0x1",
      "l1BlobBaseFeeScalar": "0xa118b",
      "l1Fee": "0xac",
      "l1GasPrice": "0x1b",
      "l1GasUsed": "0x985"
    },
    {
      "status": "0x1",
      "cumulativeGasUsed": "0x118985c",
      "logs": [
        {
          "address": "0x033ea50deaa8b064958fc40e34f994c154d27fff",
          "topics": [
            "0xf3bd8c45b58d535d7baa133b54fed923287038c1a5079bf4b73b28cd5ca9fe5e",
            "0x000000000000000000000000a8411ea314e74afcb6e2b990e7c708e28ad585ea",
            "0x00000000000000000000000047a94537cd5169dd0d7e8b86b65372794c9ff8e8",
            "0x08779da628087c9e5d0e44855f86550edc9a48b350825166d17dfcefe3f8213c"
          ],
          "data": "0x0000000000000000000000000000000000000000000000000000000000001b580000000000000000000000000000000000000000000000000000000000001d4c",
          "blockHash": "0x96bf79a71d2d489ef159eae8e794212db63ac4aad18c2ded99e17fb3ae929f01",
          "blockNumber": "0x2088499",
          "blockTimestamp": "0x69246812",
          "transactionHash": "0x770970c1e6c910d68734886f413576a7a16d637f060fda475329203775d47285",
          "transactionIndex": "0x22",
          "logIndex": "0x74",
          "removed": false
        }
      ],
      "logsBloom": "0x00000000000004000000000000000000000000000400000000000200000000000000000000000000000040000000100000000000000020000000000000000000000000000008000000000020000000000000000000000000040000000000000000000000000000000000000000000000000000000000000000020000000000000000000000000000000000000000000000000000000000000000000000000000000000000000000000000000000000008000000000000000000000000000000000000000000000000000000000000000000000000002000000000000000000000000000000000000000000000200000000000000000000800000000000200000",
      "type": "0x2",
      "transactionHash": "0x770970c1e6c910d68734886f413576a7a16d637f060fda475329203775d47285",
      "transactionIndex": "0x22",
      "blockHash": "0x96bf79a71d2d489ef159eae8e794212db63ac4aad18c2ded99e17fb3ae929f01",
      "blockNumber": "0x2088499",
      "gasUsed": "0x66d65",
      "effectiveGasPrice": "0x124f80",
      "blobGasUsed": "0xb808",
      "from": "0xf7c7ddd2ed3ea7b745786951713f4ffef428adef",
      "to": "0x033ea50deaa8b064958fc40e34f994c154d27fff",
      "contractAddress": null,
      "daFootprintGasScalar": "0x138",
      "l1BaseFeeScalar": "0x44d",
      "l1BlobBaseFee": "0x1",
      "l1BlobBaseFeeScalar": "0xa118b",
      "l1Fee": "0xac",
      "l1GasPrice": "0x1b",
      "l1GasUsed": "0x977"
    },
    {
      "status": "0x1",
      "cumulativeGasUsed": "0x11f48a5",
      "logs": [
        {
          "address": "0x033ea50deaa8b064958fc40e34f994c154d27fff",
          "topics": [
            "0xf3bd8c45b58d535d7baa133b54fed923287038c1a5079bf4b73b28cd5ca9fe5e",
            "0x000000000000000000000000556edf4de518210219d6c978f30aafb55eb6906d",
            "0x000000000000000000000000119000192d6c783d355ac50320670f8140d051d0",
            "0x116dd7deba1056f701092cba891a8270341bae0e0b8e4bf071360c2c07faa066"
          ],
          "data": "0x0000000000000000000000000000000000000000000000000000000000001d4c0000000000000000000000000000000000000000000000000000000000001f40",
          "blockHash": "0x96bf79a71d2d489ef159eae8e794212db63ac4aad18c2ded99e17fb3ae929f01",
          "blockNumber": "0x2088499",
          "blockTimestamp": "0x69246812",
          "transactionHash": "0x04711b7b8b5fdfe644b3ef8aac65d0e8038cf7e67f51da02122a725b71f4e7a8",
          "transactionIndex": "0x23",
          "logIndex": "0x75",
          "removed": false
        }
      ],
      "logsBloom": "0x0000000000000000000400000000000000000000040000000000000000000000000000000000000000004000000000000000000000002000000000000000000000000000000a000020000040000000000000000000000000000000004000000000000000000000000000000000000000000000000000000000000000000000000000000000000000000000000000000000000000000000040000000000000000000000000000000020000000000000008000000000000000000000000000000000000000000000000000000000000000000000000022000000000000000000000000000000000000000000000000000000000000000000000000000000000004",
      "type": "0x2",
      "transactionHash": "0x04711b7b8b5fdfe644b3ef8aac65d0e8038cf7e67f51da02122a725b71f4e7a8",
      "transactionIndex": "0x23",
      "blockHash": "0x96bf79a71d2d489ef159eae8e794212db63ac4aad18c2ded99e17fb3ae929f01",
      "blockNumber": "0x2088499",
      "gasUsed": "0x6b049",
      "effectiveGasPrice": "0x124f80",
      "blobGasUsed": "0xb808",
      "from": "0xf7c7ddd2ed3ea7b745786951713f4ffef428adef",
      "to": "0x033ea50deaa8b064958fc40e34f994c154d27fff",
      "contractAddress": null,
      "daFootprintGasScalar": "0x138",
      "l1BaseFeeScalar": "0x44d",
      "l1BlobBaseFee": "0x1",
      "l1BlobBaseFeeScalar": "0xa118b",
      "l1Fee": "0xac",
      "l1GasPrice": "0x1b",
      "l1GasUsed": "0x977"
    },
    {
      "status": "0x1",
      "cumulativeGasUsed": "0x125b622",
      "logs": [
        {
          "address": "0x033ea50deaa8b064958fc40e34f994c154d27fff",
          "topics": [
            "0xf3bd8c45b58d535d7baa133b54fed923287038c1a5079bf4b73b28cd5ca9fe5e",
            "0x000000000000000000000000556edf4de518210219d6c978f30aafb55eb6906d",
            "0x00000000000000000000000047a94537cd5169dd0d7e8b86b65372794c9ff8e8",
            "0x7d309a6afc4e76d972d0b3648b1eae39e9d188ef31314faa2ea2f065e5254ee1"
          ],
          "data": "0x0000000000000000000000000000000000000000000000000000000000001b580000000000000000000000000000000000000000000000000000000000001d4c",
          "blockHash": "0x56e5f9f264bc6c52afe74237eef8bbafd8fe05ce0ba4f7bcf4d7704ef2086e51",
          "blockNumber": "0x2088499",
          "blockTimestamp": "0x69246812",
          "transactionHash": "0x433ac9aff5d2b592b2147f65463ac7bad590914ee939a9e85c8f2390e4c53758",
          "transactionIndex": "0x24",
          "logIndex": "0x76",
          "removed": false
        }
      ],
      "logsBloom": "0x00000000000000000000000000000000000000000400000000000000000000000000000000000000000040000000000000000000000020000000000000000000000000000008000020000000000400000000000000000000040000000000000000000000000000000000000000000000000000000000000000020000000000000000000000000000000000000000000000000000000000000000800000000000000000000000000020000000000000008000000000000000000000000000000000000000000000000000000000000000000000000002000000000000000000000000000000000000000000000000000000000000000004000000000000200004",
      "type": "0x2",
      "transactionHash": "0x433ac9aff5d2b592b2147f65463ac7bad590914ee939a9e85c8f2390e4c53758",
      "transactionIndex": "0x24",
      "blockHash": "0x56e5f9f264bc6c52afe74237eef8bbafd8fe05ce0ba4f7bcf4d7704ef2086e51",
      "blockNumber": "0x2088499",
      "gasUsed": "0x66d7d",
      "effectiveGasPrice": "0x124f80",
      "blobGasUsed": "0xb6d0",
      "from": "0xf7c7ddd2ed3ea7b745786951713f4ffef428adef",
      "to": "0x033ea50deaa8b064958fc40e34f994c154d27fff",
      "contractAddress": null,
      "daFootprintGasScalar": "0x138",
      "l1BaseFeeScalar": "0x44d",
      "l1BlobBaseFee": "0x1",
      "l1BlobBaseFeeScalar": "0xa118b",
      "l1Fee": "0xab",
      "l1GasPrice": "0x1b",
      "l1GasUsed": "0x96a"
    },
    {
      "status": "0x1",
      "cumulativeGasUsed": "0x12c666b",
      "logs": [
        {
          "address": "0x033ea50deaa8b064958fc40e34f994c154d27fff",
          "topics": [
            "0xf3bd8c45b58d535d7baa133b54fed923287038c1a5079bf4b73b28cd5ca9fe5e",
            "0x000000000000000000000000dabd1e1e6a6b772fa424f5f72e49cb89aa47dd14",
            "0x000000000000000000000000119000192d6c783d355ac50320670f8140d051d0",
            "0x8dcdd8ee4099fe7714f8ac1fa6cc56ea901f20b1a82c3161a4e60bc4c0840848"
          ],
          "data": "0x0000000000000000000000000000000000000000000000000000000000001d4c0000000000000000000000000000000000000000000000000000000000001f40",
          "blockHash": "0x56e5f9f264bc6c52afe74237eef8bbafd8fe05ce0ba4f7bcf4d7704ef2086e51",
          "blockNumber": "0x2088499",
          "blockTimestamp": "0x69246812",
          "transactionHash": "0xe11d086e59ca012355d7388eb4369543910a7adced90acb7bc06c7ca5743fb0b",
          "transactionIndex": "0x25",
          "logIndex": "0x77",
          "removed": false
        }
      ],
      "logsBloom": "0x0000000000000000000000000000000000000000040000000000000000000000000000800000000000004000000000000000000000002000000000000000000000000000000a000000000040000000000000000000000000000000000000000000000000000000200000000000000000000000000000000000000000000000000000000010000000000000000000000000000000002000000200000000000000000000000000000000000000000000008000000000000000000000000000000000000000000000000000000000000000000000000022000000000000000000000100000000000000000000000000000000000000000000000000000000000000",
      "type": "0x2",
      "transactionHash": "0xe11d086e59ca012355d7388eb4369543910a7adced90acb7bc06c7ca5743fb0b",
      "transactionIndex": "0x25",
      "blockHash": "0x56e5f9f264bc6c52afe74237eef8bbafd8fe05ce0ba4f7bcf4d7704ef2086e51",
      "blockNumber": "0x2088499",
      "gasUsed": "0x6b049",
      "effectiveGasPrice": "0x124f80",
      "blobGasUsed": "0xb6d0",
      "from": "0xf7c7ddd2ed3ea7b745786951713f4ffef428adef",
      "to": "0x033ea50deaa8b064958fc40e34f994c154d27fff",
      "contractAddress": null,
      "daFootprintGasScalar": "0x138",
      "l1BaseFeeScalar": "0x44d",
      "l1BlobBaseFee": "0x1",
      "l1BlobBaseFeeScalar": "0xa118b",
      "l1Fee": "0xab",
      "l1GasPrice": "0x1b",
      "l1GasUsed": "0x96a"
    },
    {
      "status": "0x1",
      "cumulativeGasUsed": "0x132d3e8",
      "logs": [
        {
          "address": "0x033ea50deaa8b064958fc40e34f994c154d27fff",
          "topics": [
            "0xf3bd8c45b58d535d7baa133b54fed923287038c1a5079bf4b73b28cd5ca9fe5e",
            "0x000000000000000000000000dabd1e1e6a6b772fa424f5f72e49cb89aa47dd14",
            "0x00000000000000000000000047a94537cd5169dd0d7e8b86b65372794c9ff8e8",
            "0x72cab485e643c427affb706b97744e1e619fe0df985f05cfecbe83672ad912ac"
          ],
          "data": "0x0000000000000000000000000000000000000000000000000000000000001b580000000000000000000000000000000000000000000000000000000000001d4c",
          "blockHash": "0x4fa04f13ad3d20b54c0a348b8edfdb4755be8bd9ed0fde65c3fe8d5ec109b5ce",
          "blockNumber": "0x2088499",
          "blockTimestamp": "0x69246812",
          "transactionHash": "0x3d5a87a2be41d3faae6ba721578a7032f86d8bcf86ff09241691ddb968e6aa8d",
          "transactionIndex": "0x26",
          "logIndex": "0x78",
          "removed": false
        }
      ],
      "logsBloom": "0x00000000000000400000000000000000000000000400000000000000000000000000008000000000000040000000000000020000000020000000000000000000000000000008000000000000000000000000000000000000040000000000000000000000000000200000000000000000000000000000000000020000000000000000000000100000000000000000000000000000000000000000000000000000000000000000000000000000000000008000000000000000000000000000000000000000000000000000000000000000000000000002000000000000000000000100000000000000000000000000000000000000000000000000000000200000",
      "type": "0x2",
      "transactionHash": "0x3d5a87a2be41d3faae6ba721578a7032f86d8bcf86ff09241691ddb968e6aa8d",
      "transactionIndex": "0x26",
      "blockHash": "0x4fa04f13ad3d20b54c0a348b8edfdb4755be8bd9ed0fde65c3fe8d5ec109b5ce",
      "blockNumber": "0x2088499",
      "gasUsed": "0x66d7d",
      "effectiveGasPrice": "0x124f80",
      "blobGasUsed": "0xb6d0",
      "from": "0xf7c7ddd2ed3ea7b745786951713f4ffef428adef",
      "to": "0x033ea50deaa8b064958fc40e34f994c154d27fff",
      "contractAddress": null,
      "daFootprintGasScalar": "0x138",
      "l1BaseFeeScalar": "0x44d",
      "l1BlobBaseFee": "0x1",
      "l1BlobBaseFeeScalar": "0xa118b",
      "l1Fee": "0xab",
      "l1GasPrice": "0x1b",
      "l1GasUsed": "0x96a"
    },
    {
      "status": "0x1",
      "cumulativeGasUsed": "0x1398431",
      "logs": [
        {
          "address": "0x033ea50deaa8b064958fc40e34f994c154d27fff",
          "topics": [
            "0xf3bd8c45b58d535d7baa133b54fed923287038c1a5079bf4b73b28cd5ca9fe5e",
            "0x0000000000000000000000006f6ba9a74160bb02f2ea43f58a24bd90ccd30f2f",
            "0x000000000000000000000000119000192d6c783d355ac50320670f8140d051d0",
            "0x955d68915d4222f876694ac9fabd53b4c34b07b37332ec5185ddbc08556565c4"
          ],
          "data": "0x0000000000000000000000000000000000000000000000000000000000001d4c0000000000000000000000000000000000000000000000000000000000001f40",
          "blockHash": "0x4fa04f13ad3d20b54c0a348b8edfdb4755be8bd9ed0fde65c3fe8d5ec109b5ce",
          "blockNumber": "0x2088499",
          "blockTimestamp": "0x69246812",
          "transactionHash": "0x0b53b0088063f73ef189881d25e3a9996c0b5003e325696adc14e47ee3b8ee1b",
          "transactionIndex": "0x27",
          "logIndex": "0x79",
          "removed": false
        }
      ],
      "logsBloom": "0x0000000000000000000000000000000000008000040000000000000000000000000000000000000000004000000000000000000000002000000000000000000000000000000a000000000040080000000000000000000000000000000000000000000000000000000000000000008000000000000000000000000000000000000000000000000100000000000000000000000000000000000000000000000000000000000000000000000000000000008000000000200000000000000000000000000000000000000000100000000000000000000022000000000000000000000000000000000000000000000000000000000000000000000000000000000000",
      "type": "0x2",
      "transactionHash": "0x0b53b0088063f73ef189881d25e3a9996c0b5003e325696adc14e47ee3b8ee1b",
      "transactionIndex": "0x27",
      "blockHash": "0x4fa04f13ad3d20b54c0a348b8edfdb4755be8bd9ed0fde65c3fe8d5ec109b5ce",
      "blockNumber": "0x2088499",
      "gasUsed": "0x6b049",
      "effectiveGasPrice": "0x124f80",
      "blobGasUsed": "0xb808",
      "from": "0xf7c7ddd2ed3ea7b745786951713f4ffef428adef",
      "to": "0x033ea50deaa8b064958fc40e34f994c154d27fff",
      "contractAddress": null,
      "daFootprintGasScalar": "0x138",
      "l1BaseFeeScalar": "0x44d",
      "l1BlobBaseFee": "0x1",
      "l1BlobBaseFeeScalar": "0xa118b",
      "l1Fee": "0xab",
      "l1GasPrice": "0x1b",
      "l1GasUsed": "0x977"
    },
    {
      "status": "0x1",
      "cumulativeGasUsed": "0x13ff1ae",
      "logs": [
        {
          "address": "0x033ea50deaa8b064958fc40e34f994c154d27fff",
          "topics": [
            "0xf3bd8c45b58d535d7baa133b54fed923287038c1a5079bf4b73b28cd5ca9fe5e",
            "0x0000000000000000000000006f6ba9a74160bb02f2ea43f58a24bd90ccd30f2f",
            "0x00000000000000000000000047a94537cd5169dd0d7e8b86b65372794c9ff8e8",
            "0xb74d698318fe37c813e7da0649557f004caa7fb2f0e423237bc158a7fc969295"
          ],
          "data": "0x0000000000000000000000000000000000000000000000000000000000001b580000000000000000000000000000000000000000000000000000000000001d4c",
          "blockHash": "0x4fa04f13ad3d20b54c0a348b8edfdb4755be8bd9ed0fde65c3fe8d5ec109b5ce",
          "blockNumber": "0x2088499",
          "blockTimestamp": "0x69246812",
          "transactionHash": "0x0be90436cd17d2598cd78a731c58a60dd26f0a65f06bcbec5a9448cbe693b362",
          "transactionIndex": "0x28",
          "logIndex": "0x7a",
          "removed": false
        }
      ],
      "logsBloom": "0x00000000000000000000000000000000000080000400000000000000000000000000000000010000000040000000000000000000000020000000000000000000000000000008000000000000080000000000000000000000040000000000000000000000004000000000000000000000000000000000000000020000000000000000000000000000000000000000000000000000000000000000000000000000000000000000000000000000000000008000000000000000000000000000000000000000000000000000100000000000000000000002000000000000000000000000000000000000000000000000000000000000000000000000000800200000",
      "type": "0x2",
      "transactionHash": "0x0be90436cd17d2598cd78a731c58a60dd26f0a65f06bcbec5a9448cbe693b362",
      "transactionIndex": "0x28",
      "blockHash": "0x4fa04f13ad3d20b54c0a348b8edfdb4755be8bd9ed0fde65c3fe8d5ec109b5ce",
      "blockNumber": "0x2088499",
      "gasUsed": "0x66d7d",
      "effectiveGasPrice": "0x124f80",
      "blobGasUsed": "0xb6d0",
      "from": "0xf7c7ddd2ed3ea7b745786951713f4ffef428adef",
      "to": "0x033ea50deaa8b064958fc40e34f994c154d27fff",
      "contractAddress": null,
      "daFootprintGasScalar": "0x138",
      "l1BaseFeeScalar": "0x44d",
      "l1BlobBaseFee": "0x1",
      "l1BlobBaseFeeScalar": "0xa118b",
      "l1Fee": "0xab",
      "l1GasPrice": "0x1b",
      "l1GasUsed": "0x96a"
    },
    {
      "status": "0x1",
      "cumulativeGasUsed": "0x146a1f7",
      "logs": [
        {
          "address": "0x033ea50deaa8b064958fc40e34f994c154d27fff",
          "topics": [
            "0xf3bd8c45b58d535d7baa133b54fed923287038c1a5079bf4b73b28cd5ca9fe5e",
            "0x000000000000000000000000058ab338562b32a6bcc40641208c487bb323b570",
            "0x000000000000000000000000119000192d6c783d355ac50320670f8140d051d0",
            "0x6e48398523d794bce4c51c041e347c2097b847d071db9d2d1e609ebe2b3d2f79"
          ],
          "data": "0x0000000000000000000000000000000000000000000000000000000000001d4c0000000000000000000000000000000000000000000000000000000000001f40",
          "blockHash": "0x4fa04f13ad3d20b54c0a348b8edfdb4755be8bd9ed0fde65c3fe8d5ec109b5ce",
          "blockNumber": "0x2088499",
          "blockTimestamp": "0x69246812",
          "transactionHash": "0x025524dfc06886722dc17cdb1ea68418f04a9959372c25280e56fdba3b92f144",
          "transactionIndex": "0x29",
          "logIndex": "0x7b",
          "removed": false
        }
      ],
      "logsBloom": "0x0000000000000000000000000000000000000000040000208000000000000000000000000000000800004000000000000000000000002000000000000000000000000000000a000000000040000000000000000000000000000000000000000000000000000000000000000000000000000000000000000000000000000000000000000000000000000000000000000000000000000000000000000000000000000000000000000000000000000000008000000000000000000000800000000000800000000000080000000000000000000000000022000000000000000000000000000000000000000000000000000000000000000000000000000000000000",
      "type": "0x2",
      "transactionHash": "0x025524dfc06886722dc17cdb1ea68418f04a9959372c25280e56fdba3b92f144",
      "transactionIndex": "0x29",
      "blockHash": "0x4fa04f13ad3d20b54c0a348b8edfdb4755be8bd9ed0fde65c3fe8d5ec109b5ce",
      "blockNumber": "0x2088499",
      "gasUsed": "0x6b049",
      "effectiveGasPrice": "0x124f80",
      "blobGasUsed": "0xba78",
      "from": "0xf7c7ddd2ed3ea7b745786951713f4ffef428adef",
      "to": "0x033ea50deaa8b064958fc40e34f994c154d27fff",
      "contractAddress": null,
      "daFootprintGasScalar": "0x138",
      "l1BaseFeeScalar": "0x44d",
      "l1BlobBaseFee": "0x1",
      "l1BlobBaseFeeScalar": "0xa118b",
      "l1Fee": "0xab",
      "l1GasPrice": "0x1b",
      "l1GasUsed": "0x992"
    },
    {
      "status": "0x1",
      "cumulativeGasUsed": "0x14d0f74",
      "logs": [
        {
          "address": "0x033ea50deaa8b064958fc40e34f994c154d27fff",
          "topics": [
            "0xf3bd8c45b58d535d7baa133b54fed923287038c1a5079bf4b73b28cd5ca9fe5e",
            "0x000000000000000000000000058ab338562b32a6bcc40641208c487bb323b570",
            "0x00000000000000000000000047a94537cd5169dd0d7e8b86b65372794c9ff8e8",
            "0x18498c7ff5146a936151b3f13ea0fc6f582c45cb3f8c46c29c8a4a7080367718"
          ],
          "data": "0x0000000000000000000000000000000000000000000000000000000000001b580000000000000000000000000000000000000000000000000000000000001d4c",
          "blockHash": "0x4fa04f13ad3d20b54c0a348b8edfdb4755be8bd9ed0fde65c3fe8d5ec109b5ce",
          "blockNumber": "0x2088499",
          "blockTimestamp": "0x69246812",
          "transactionHash": "0x80f723d5af07c1c4fc52c822386d33fab196f24a3319970df30b4a589342f5ba",
          "transactionIndex": "0x2a",
          "logIndex": "0x7c",
          "removed": false
        }
      ],
      "logsBloom": "0x00000000000000000000000000000000000000001400000080000000000000000000000000000008000040000000000000000000000020000000000000000000000000000008000000000000000000000000000000000000040000000000000000000000000000000000000000000000000000000000080000020000000000000000000000000000000000000000000000000000000000000000000000000000000000000000000000000000000000008000000000000000000000000000000000000000000000080000000000000000000000000002000000000000000000000000000000000000000000000010000000000000000000000000000000200000",
      "type": "0x2",
      "transactionHash": "0x80f723d5af07c1c4fc52c822386d33fab196f24a3319970df30b4a589342f5ba",
      "transactionIndex": "0x2a",
      "blockHash": "0x4fa04f13ad3d20b54c0a348b8edfdb4755be8bd9ed0fde65c3fe8d5ec109b5ce",
      "blockNumber": "0x2088499",
      "gasUsed": "0x66d7d",
      "effectiveGasPrice": "0x124f80",
      "blobGasUsed": "0xb940",
      "from": "0xf7c7ddd2ed3ea7b745786951713f4ffef428adef",
      "to": "0x033ea50deaa8b064958fc40e34f994c154d27fff",
      "contractAddress": null,
      "daFootprintGasScalar": "0x138",
      "l1BaseFeeScalar": "0x44d",
      "l1BlobBaseFee": "0x1",
      "l1BlobBaseFeeScalar": "0xa118b",
      "l1Fee": "0xab",
      "l1GasPrice": "0x1b",
      "l1GasUsed": "0x985"
    },
    {
      "status": "0x1",
      "cumulativeGasUsed": "0x15aef07",
      "logs": [
        {
          "address": "0x033ea50deaa8b064958fc40e34f994c154d27fff",
          "topics": [
            "0xf3bd8c45b58d535d7baa133b54fed923287038c1a5079bf4b73b28cd5ca9fe5e",
            "0x00000000000000000000000006d9c5f15433934810b8632f034b66fe823b9d75",
            "0x000000000000000000000000119000192d6c783d355ac50320670f8140d051d0",
            "0x80722c3c26ba7aa92d14a7da62164a1891397547d215180c1c9b9bd6c39b7624"
          ],
          "data": "0x0000000000000000000000000000000000000000000000000000000000001d4c0000000000000000000000000000000000000000000000000000000000001f40",
          "blockHash": "0x42de00fde5562404ae8e8d5e3502cdd1e9058d1204acf15dc77b0421494312d3",
          "blockNumber": "0x2088499",
          "blockTimestamp": "0x69246812",
          "transactionHash": "0xe2362c05fb09f3f07499e7a72a18fcf7370241b899595852331786c1a0dc6b0e",
          "transactionIndex": "0x2d",
          "logIndex": "0x83",
          "removed": false
        }
      ],
      "logsBloom": "0x0000000000000000000000000000000000000000040000000000000000000000000000000020000000004000000000000000000000002000000000000000000000000000000a000000000040000000000000000000000000000000000000000000000000000000000000000000004000000000000000000000002000000000000000000000000800000000000000000000000000000000004000000000000000000000000000000000000000000000008000000000000000000000000000000000000000000000000000000000000000008000000022000000000000000000000000000000000000000000000000000000000000000000000000000000000000",
      "type": "0x2",
      "transactionHash": "0xe2362c05fb09f3f07499e7a72a18fcf7370241b899595852331786c1a0dc6b0e",
      "transactionIndex": "0x2d",
      "blockHash": "0x42de00fde5562404ae8e8d5e3502cdd1e9058d1204acf15dc77b0421494312d3",
      "blockNumber": "0x2088499",
      "gasUsed": "0x6b049",
      "effectiveGasPrice": "0x124f80",
      "blobGasUsed": "0xb6d0",
      "from": "0xf7c7ddd2ed3ea7b745786951713f4ffef428adef",
      "to": "0x033ea50deaa8b064958fc40e34f994c154d27fff",
      "contractAddress": null,
      "daFootprintGasScalar": "0x138",
      "l1BaseFeeScalar": "0x44d",
      "l1BlobBaseFee": "0x1",
      "l1BlobBaseFeeScalar": "0xa118b",
      "l1Fee": "0x71",
      "l1GasPrice": "0x1b",
      "l1GasUsed": "0x96a"
    },
    {
      "status": "0x1",
      "cumulativeGasUsed": "0x1615c84",
      "logs": [
        {
          "address": "0x033ea50deaa8b064958fc40e34f994c154d27fff",
          "topics": [
            "0xf3bd8c45b58d535d7baa133b54fed923287038c1a5079bf4b73b28cd5ca9fe5e",
            "0x00000000000000000000000006d9c5f15433934810b8632f034b66fe823b9d75",
            "0x00000000000000000000000047a94537cd5169dd0d7e8b86b65372794c9ff8e8",
            "0x194cb89f2284d00747350952b8cb5ee0f4fe11bd697650ce8cee82589e0b3600"
          ],
          "data": "0x0000000000000000000000000000000000000000000000000000000000001b580000000000000000000000000000000000000000000000000000000000001d4c",
          "blockHash": "0x56e5f9f264bc6c52afe74237eef8bbafd8fe05ce0ba4f7bcf4d7704ef2086e51",
          "blockNumber": "0x2088499",
          "blockTimestamp": "0x69246812",
          "transactionHash": "0x1e1f3297a60ec489f0d7d52e7afd05e305b9d4e14a7660e4b39c220e241f81cd",
          "transactionIndex": "0x2e",
          "logIndex": "0x84",
          "removed": false
        }
      ],
      "logsBloom": "0x00000000000000000000000000000000000000000400000000000000000000000000000000000000000040000000000000000000000060000000000000000000000000000008000000000000000000000000000000000000040000000000000200000000000000000000000000004000000000000000000000020000000000000000000000000800000000000000000000000000000000004000000000000000000000000000000000000000000000008000000000000000000000000000000000000000000000000000000000000000000000000002000000000000000000000000000000000000000000000000000000000000000000000000000001200000",
      "type": "0x2",
      "transactionHash": "0x1e1f3297a60ec489f0d7d52e7afd05e305b9d4e14a7660e4b39c220e241f81cd",
      "transactionIndex": "0x2e",
      "blockHash": "0x56e5f9f264bc6c52afe74237eef8bbafd8fe05ce0ba4f7bcf4d7704ef2086e51",
      "blockNumber": "0x2088499",
      "gasUsed": "0x66d7d",
      "effectiveGasPrice": "0x124f80",
      "blobGasUsed": "0xb6d0",
      "from": "0xf7c7ddd2ed3ea7b745786951713f4ffef428adef",
      "to": "0x033ea50deaa8b064958fc40e34f994c154d27fff",
      "contractAddress": null,
      "daFootprintGasScalar": "0x138",
      "l1BaseFeeScalar": "0x44d",
      "l1BlobBaseFee": "0x1",
      "l1BlobBaseFeeScalar": "0xa118b",
      "l1Fee": "0xab",
      "l1GasPrice": "0x1b",
      "l1GasUsed": "0x96a"
    },
    {
      "status": "0x1",
      "cumulativeGasUsed": "0x285bad",
      "logs": [
        {
          "address": "0x033ea50deaa8b064958fc40e34f994c154d27fff",
          "topics": [
            "0xf3bd8c45b58d535d7baa133b54fed923287038c1a5079bf4b73b28cd5ca9fe5e",
            "0x00000000000000000000000037d32890f63d6aec1f6c2bfc4885a1b905c147d0",
            "0x000000000000000000000000119000192d6c783d355ac50320670f8140d051d0",
            "0x73cc45327d6c50c7d3fe60b50d2cf14f6a5d05d869d268b68c12a2acfca10575"
          ],
          "data": "0x0000000000000000000000000000000000000000000000000000000000001d4c0000000000000000000000000000000000000000000000000000000000001f40",
          "blockHash": "0xc17f97838eb0d0421e7dc575bf7554293324bd171119cf42cec0c0a363518c1c",
          "blockNumber": "0x208849a",
          "blockTimestamp": "0x69246814",
          "transactionHash": "0xb3e279b81bdf05d04620285285b802f286d381438546e68db707f8b07578bdb9",
          "transactionIndex": "0x7",
          "logIndex": "0x36",
          "removed": false
        }
      ],
      "logsBloom": "0x0000000000000000000000000000000000000000040000000000000000000000001000000000000000004000000000000000000000002000000000000000000000000000010a000200000040000000000000000000000000000000080000000000000200000000000000000000000000000000000000000000000000000000000000000000000000000000000000000000000000000000000000000000000000000000000000000000000000000000008000000000000000000000000000000000000000000000000001000000000000000000000022000000000000000000000000000000000000000000000000000000000000000000000000000000000000",
      "type": "0x2",
      "transactionHash": "0xb3e279b81bdf05d04620285285b802f286d381438546e68db707f8b07578bdb9",
      "transactionIndex": "0x7",
      "blockHash": "0xc17f97838eb0d0421e7dc575bf7554293324bd171119cf42cec0c0a363518c1c",
      "blockNumber": "0x208849a",
      "gasUsed": "0x6b049",
      "effectiveGasPrice": "0x125843",
      "blobGasUsed": "0xb808",
      "from": "0xf7c7ddd2ed3ea7b745786951713f4ffef428adef",
      "to": "0x033ea50deaa8b064958fc40e34f994c154d27fff",
      "contractAddress": null,
      "daFootprintGasScalar": "0x138",
      "l1BaseFeeScalar": "0x44d",
      "l1BlobBaseFee": "0x1",
      "l1BlobBaseFeeScalar": "0xa118b",
      "l1Fee": "0xac",
      "l1GasPrice": "0x1b",
      "l1GasUsed": "0x977"
    },
    {
      "status": "0x1",
      "cumulativeGasUsed": "0x2ec92a",
      "logs": [
        {
          "address": "0x033ea50deaa8b064958fc40e34f994c154d27fff",
          "topics": [
            "0xf3bd8c45b58d535d7baa133b54fed923287038c1a5079bf4b73b28cd5ca9fe5e",
            "0x00000000000000000000000037d32890f63d6aec1f6c2bfc4885a1b905c147d0",
            "0x00000000000000000000000047a94537cd5169dd0d7e8b86b65372794c9ff8e8",
            "0x958bde006f0bf146af5daae95a50f3156e6f7abac0935eff614bba90bcfbdf14"
          ],
          "data": "0x0000000000000000000000000000000000000000000000000000000000001b580000000000000000000000000000000000000000000000000000000000001d4c",
          "blockHash": "0x9a19e97594080b88412297c40e81773b836dbc5657b6a9464cfdf2de3617297b",
          "blockNumber": "0x208849a",
          "blockTimestamp": "0x69246814",
          "transactionHash": "0x21a15f0731675fea8ac63f93bb5f0701579eca73ea31da3d96f230aefbce22c4",
          "transactionIndex": "0x8",
          "logIndex": "0x37",
          "removed": false
        }
      ],
      "logsBloom": "0x00000000000000000000000000000000000000000400000000000000000000000010000000000000000040000000000000000000000020000000000000000000000000000008000000000000000000000000000000000000040000080000000000000200000000000000000000000000000000000000000000020000000000000000000000000000000000000002000000000000000000000000000000000000000000000000000000000000000000008000000000000000000000000000800000000000000000000000000000000000000000000002000000000000000000001000000000000000000000000000000000000000000000000000000000200000",
      "type": "0x2",
      "transactionHash": "0x21a15f0731675fea8ac63f93bb5f0701579eca73ea31da3d96f230aefbce22c4",
      "transactionIndex": "0x8",
      "blockHash": "0x9a19e97594080b88412297c40e81773b836dbc5657b6a9464cfdf2de3617297b",
      "blockNumber": "0x208849a",
      "gasUsed": "0x66d7d",
      "effectiveGasPrice": "0x125843",
      "blobGasUsed": "0xb6d0",
      "from": "0xf7c7ddd2ed3ea7b745786951713f4ffef428adef",
      "to": "0x033ea50deaa8b064958fc40e34f994c154d27fff",
      "contractAddress": null,
      "daFootprintGasScalar": "0x138",
      "l1BaseFeeScalar": "0x44d",
      "l1BlobBaseFee": "0x1",
      "l1BlobBaseFeeScalar": "0xa118b",
      "l1Fee": "0x71",
      "l1GasPrice": "0x1b",
      "l1GasUsed": "0x96a"
    },
    {
      "status": "0x1",
      "cumulativeGasUsed": "0x357973",
      "logs": [
        {
          "address": "0x033ea50deaa8b064958fc40e34f994c154d27fff",
          "topics": [
            "0xf3bd8c45b58d535d7baa133b54fed923287038c1a5079bf4b73b28cd5ca9fe5e",
            "0x0000000000000000000000003d5f5004ef3bd1bcb03f578784757a5a67795f29",
            "0x000000000000000000000000119000192d6c783d355ac50320670f8140d051d0",
            "0x1bbd473fd65318a671a5a3b67adfe7467d788ce950cfa282b16ad55b50819e16"
          ],
          "data": "0x0000000000000000000000000000000000000000000000000000000000001d4c0000000000000000000000000000000000000000000000000000000000001f40",
          "blockHash": "0xc17f97838eb0d0421e7dc575bf7554293324bd171119cf42cec0c0a363518c1c",
          "blockNumber": "0x208849a",
          "blockTimestamp": "0x69246814",
          "transactionHash": "0xa4ebab0b94b6a4fdf13162281ae90e8272fa44f0a2cab1a2264222a6bf953c5d",
          "transactionIndex": "0x9",
          "logIndex": "0x38",
          "removed": false
        }
      ],
      "logsBloom": "0x0000000000000000000000000000000000000000040000000000000000000000000000000000000000004001000000000000000000002000000000000000000000000000000a000000000040000000000000000000000000000000000000000000000000000000000000000000000000000000000000000000000000000000000000000000000000000000000000000000000000000000000000000000000000000000000000000000000000000000008000400000000000000000000000000000000000000000000010000000000000000000000022000000000000000000000000002200000000000000000000000000000000000000000000000000000000",
      "type": "0x2",
      "transactionHash": "0xa4ebab0b94b6a4fdf13162281ae90e8272fa44f0a2cab1a2264222a6bf953c5d",
      "transactionIndex": "0x9",
      "blockHash": "0xc17f97838eb0d0421e7dc575bf7554293324bd171119cf42cec0c0a363518c1c",
      "blockNumber": "0x208849a",
      "gasUsed": "0x6b049",
      "effectiveGasPrice": "0x125843",
      "blobGasUsed": "0xb808",
      "from": "0xf7c7ddd2ed3ea7b745786951713f4ffef428adef",
      "to": "0x033ea50deaa8b064958fc40e34f994c154d27fff",
      "contractAddress": null,
      "daFootprintGasScalar": "0x138",
      "l1BaseFeeScalar": "0x44d",
      "l1BlobBaseFee": "0x1",
      "l1BlobBaseFeeScalar": "0xa118b",
      "l1Fee": "0xac",
      "l1GasPrice": "0x1b",
      "l1GasUsed": "0x977"
    },
    {
      "status": "0x1",
      "cumulativeGasUsed": "0x3be6f0",
      "logs": [
        {
          "address": "0x033ea50deaa8b064958fc40e34f994c154d27fff",
          "topics": [
            "0xf3bd8c45b58d535d7baa133b54fed923287038c1a5079bf4b73b28cd5ca9fe5e",
            "0x0000000000000000000000003d5f5004ef3bd1bcb03f578784757a5a67795f29",
            "0x00000000000000000000000047a94537cd5169dd0d7e8b86b65372794c9ff8e8",
            "0xcc01aef23762d73d78c8a9db587fb5eca2b4163d4d7e7f1fe2acda969d1efc83"
          ],
          "data": "0x0000000000000000000000000000000000000000000000000000000000001b580000000000000000000000000000000000000000000000000000000000001d4c",
          "blockHash": "0x9a19e97594080b88412297c40e81773b836dbc5657b6a9464cfdf2de3617297b",
          "blockNumber": "0x208849a",
          "blockTimestamp": "0x69246814",
          "transactionHash": "0x014a07a8b88a77db5fef6fda347c5a640cceb47efc358bf523c1d8eec7c8a5d0",
          "transactionIndex": "0xa",
          "logIndex": "0x39",
          "removed": false
        }
      ],
      "logsBloom": "0x00000000000000000000000000000000000000000400000000000000000000000000000000000000000040010000000000000000000020000000000000000000000000000008000010000000000800000000000000000000040000000000000000000000000000000000000000000000000000000000000000020000000000000000000000000000000000000000000000000000000000000000000000000000000000000000000000000000000000008000000000000000000000000000000000000000000000000000000000000000000000000002000000000000000000000000010200000000000000000000000000000000000000000000000000200000",
      "type": "0x2",
      "transactionHash": "0x014a07a8b88a77db5fef6fda347c5a640cceb47efc358bf523c1d8eec7c8a5d0",
      "transactionIndex": "0xa",
      "blockHash": "0x9a19e97594080b88412297c40e81773b836dbc5657b6a9464cfdf2de3617297b",
      "blockNumber": "0x208849a",
      "gasUsed": "0x66d7d",
      "effectiveGasPrice": "0x125843",
      "blobGasUsed": "0xb6d0",
      "from": "0xf7c7ddd2ed3ea7b745786951713f4ffef428adef",
      "to": "0x033ea50deaa8b064958fc40e34f994c154d27fff",
      "contractAddress": null,
      "daFootprintGasScalar": "0x138",
      "l1BaseFeeScalar": "0x44d",
      "l1BlobBaseFee": "0x1",
      "l1BlobBaseFeeScalar": "0xa118b",
      "l1Fee": "0x71",
      "l1GasPrice": "0x1b",
      "l1GasUsed": "0x96a"
    },
    {
      "status": "0x1",
      "cumulativeGasUsed": "0x429739",
      "logs": [
        {
          "address": "0x033ea50deaa8b064958fc40e34f994c154d27fff",
          "topics": [
            "0xf3bd8c45b58d535d7baa133b54fed923287038c1a5079bf4b73b28cd5ca9fe5e",
            "0x00000000000000000000000027faa3e80f9d791ee3da9d6a8f5407fa1bd2d28f",
            "0x000000000000000000000000119000192d6c783d355ac50320670f8140d051d0",
            "0x168ca3d31e38d4171e2110c15ad7f4974e04769185fd2339caab6ea6ffebb528"
          ],
          "data": "0x0000000000000000000000000000000000000000000000000000000000001d4c0000000000000000000000000000000000000000000000000000000000001f40",
          "blockHash": "0x9a19e97594080b88412297c40e81773b836dbc5657b6a9464cfdf2de3617297b",
          "blockNumber": "0x208849a",
          "blockTimestamp": "0x69246814",
          "transactionHash": "0x8e1143f935cab5109c264743644e8601e0c62dd23cbc1d2518ebb476d3a036ae",
          "transactionIndex": "0xb",
          "logIndex": "0x3a",
          "removed": false
        }
      ],
      "logsBloom": "0x0000000000000000000000000000000000000000040000000000000000000000800000000000000000004000000000000400000000002000000000000000000000000000000a000000000040000000000000000000000000000000000000000000000000000000001000000000000000000000000000000000000040000000000000000000000000000000000000000000000000000000000000000000000000200000000000000010000000000000008000000000000000000000000000000000000000000000000000000000000000000000000022000000000000000000000000000000000000000000000000000000000000000000000000000000000000",
      "type": "0x2",
      "transactionHash": "0x8e1143f935cab5109c264743644e8601e0c62dd23cbc1d2518ebb476d3a036ae",
      "transactionIndex": "0xb",
      "blockHash": "0x9a19e97594080b88412297c40e81773b836dbc5657b6a9464cfdf2de3617297b",
      "blockNumber": "0x208849a",
      "gasUsed": "0x6b049",
      "effectiveGasPrice": "0x125843",
      "blobGasUsed": "0xb808",
      "from": "0xf7c7ddd2ed3ea7b745786951713f4ffef428adef",
      "to": "0x033ea50deaa8b064958fc40e34f994c154d27fff",
      "contractAddress": null,
      "daFootprintGasScalar": "0x138",
      "l1BaseFeeScalar": "0x44d",
      "l1BlobBaseFee": "0x1",
      "l1BlobBaseFeeScalar": "0xa118b",
      "l1Fee": "0x71",
      "l1GasPrice": "0x1b",
      "l1GasUsed": "0x977"
    },
    {
      "status": "0x1",
      "cumulativeGasUsed": "0x4904b6",
      "logs": [
        {
          "address": "0x033ea50deaa8b064958fc40e34f994c154d27fff",
          "topics": [
            "0xf3bd8c45b58d535d7baa133b54fed923287038c1a5079bf4b73b28cd5ca9fe5e",
            "0x00000000000000000000000027faa3e80f9d791ee3da9d6a8f5407fa1bd2d28f",
            "0x00000000000000000000000047a94537cd5169dd0d7e8b86b65372794c9ff8e8",
            "0x181fb8c121f956c8bd68ca4ced3a203f91c4340f3e6c8c0849cc8c010cefee52"
          ],
          "data": "0x0000000000000000000000000000000000000000000000000000000000001b580000000000000000000000000000000000000000000000000000000000001d4c",
          "blockHash": "0x9a19e97594080b88412297c40e81773b836dbc5657b6a9464cfdf2de3617297b",
          "blockNumber": "0x208849a",
          "blockTimestamp": "0x69246814",
          "transactionHash": "0x7d4bdb200b39c984bd192b5091b7e29d574a1ba6317431d6fa0b4f748073558e",
          "transactionIndex": "0xc",
          "logIndex": "0x3b",
          "removed": false
        }
      ],
      "logsBloom": "0x00000000000000000000000000000000000000000400000000000000000000008000000000000000000040000000000000000000000020000000000000000000000000000008000000000000000000000000000000000000040000000000000000000000000000000000000000000000000000000000000000220040000000000000000800000000000000000000000000000000000000000000000000000000000000000000000010000000000000008000000000000000000000000000000000000000000000000000000000000000000000000002000000000000000000000000000000000000000000000000000000000000000000000080000000200000",
      "type": "0x2",
      "transactionHash": "0x7d4bdb200b39c984bd192b5091b7e29d574a1ba6317431d6fa0b4f748073558e",
      "transactionIndex": "0xc",
      "blockHash": "0x9a19e97594080b88412297c40e81773b836dbc5657b6a9464cfdf2de3617297b",
      "blockNumber": "0x208849a",
      "gasUsed": "0x66d7d",
      "effectiveGasPrice": "0x125843",
      "blobGasUsed": "0xb6d0",
      "from": "0xf7c7ddd2ed3ea7b745786951713f4ffef428adef",
      "to": "0x033ea50deaa8b064958fc40e34f994c154d27fff",
      "contractAddress": null,
      "daFootprintGasScalar": "0x138",
      "l1BaseFeeScalar": "0x44d",
      "l1BlobBaseFee": "0x1",
      "l1BlobBaseFeeScalar": "0xa118b",
      "l1Fee": "0x71",
      "l1GasPrice": "0x1b",
      "l1GasUsed": "0x96a"
    },
    {
      "status": "0x1",
      "cumulativeGasUsed": "0x4fb4e7",
      "logs": [
        {
          "address": "0x033ea50deaa8b064958fc40e34f994c154d27fff",
          "topics": [
            "0xf3bd8c45b58d535d7baa133b54fed923287038c1a5079bf4b73b28cd5ca9fe5e",
            "0x0000000000000000000000002ba7c85a45767443f44274331f20299755b17c2f",
            "0x000000000000000000000000119000192d6c783d355ac50320670f8140d051d0",
            "0x37ee377b4a287ad0d4519a23be2866f18186af057c775a9f11d889870ca907c3"
          ],
          "data": "0x0000000000000000000000000000000000000000000000000000000000001d4c0000000000000000000000000000000000000000000000000000000000001f40",
          "blockHash": "0x9a19e97594080b88412297c40e81773b836dbc5657b6a9464cfdf2de3617297b",
          "blockNumber": "0x208849a",
          "blockTimestamp": "0x69246814",
          "transactionHash": "0x1c43b1cb0e6343aeffba044bc9ffa42cafd2b106f3c21c14cd1322ede87d2242",
          "transactionIndex": "0xd",
          "logIndex": "0x3c",
          "removed": false
        }
      ],
      "logsBloom": "0x0000000000002000000000000000000000000000040000000000000000000000000000000000000000004000000000000000000000002000000000000000000000000000000a000000200040000000000000000000000000000000000000000000000000000000000000000000000000000000000000000000000000000000000000000000000000000000000000000002000000000000000000000000000000000400000000000000000000000000008000000000000000000000000000000000000000000000000000000000000000008000000022000000000000000000200000000000000000000000000000000000000000000000000000000000000000",
      "type": "0x2",
      "transactionHash": "0x1c43b1cb0e6343aeffba044bc9ffa42cafd2b106f3c21c14cd1322ede87d2242",
      "transactionIndex": "0xd",
      "blockHash": "0x9a19e97594080b88412297c40e81773b836dbc5657b6a9464cfdf2de3617297b",
      "blockNumber": "0x208849a",
      "gasUsed": "0x6b031",
      "effectiveGasPrice": "0x125843",
      "blobGasUsed": "0xb598",
      "from": "0xf7c7ddd2ed3ea7b745786951713f4ffef428adef",
      "to": "0x033ea50deaa8b064958fc40e34f994c154d27fff",
      "contractAddress": null,
      "daFootprintGasScalar": "0x138",
      "l1BaseFeeScalar": "0x44d",
      "l1BlobBaseFee": "0x1",
      "l1BlobBaseFeeScalar": "0xa118b",
      "l1Fee": "0x71",
      "l1GasPrice": "0x1b",
      "l1GasUsed": "0x95c"
    },
    {
      "status": "0x1",
      "cumulativeGasUsed": "0x56224c",
      "logs": [
        {
          "address": "0x033ea50deaa8b064958fc40e34f994c154d27fff",
          "topics": [
            "0xf3bd8c45b58d535d7baa133b54fed923287038c1a5079bf4b73b28cd5ca9fe5e",
            "0x0000000000000000000000002ba7c85a45767443f44274331f20299755b17c2f",
            "0x00000000000000000000000047a94537cd5169dd0d7e8b86b65372794c9ff8e8",
            "0x74d28aa005ca0ad4663cdfbd1a42534ad4dc3f5429e8baa0003612d45b96bc6a"
          ],
          "data": "0x0000000000000000000000000000000000000000000000000000000000001b580000000000000000000000000000000000000000000000000000000000001d4c",
          "blockHash": "0xd19d039e47ac769c1e3e53da87641bc5fc1b7d35a76b420ee6e94786df391fed",
          "blockNumber": "0x208849a",
          "blockTimestamp": "0x69246814",
          "transactionHash": "0x07b31222425cf43ce0e5e646dac954001639694fc7bf0019d7eab32c4eab627c",
          "transactionIndex": "0xe",
          "logIndex": "0x3d",
          "removed": false
        }
      ],
      "logsBloom": "0x00000000000000000000000000000000000000000400000000000000400000000000000001000000000040040000000000000000000020000000000000000000000000000008000000200000000000000000000000000000040000000000000000000000000000000000000000000000000000000000000000020000000000000000000000000000000000000000000000000000000000000000000000000000000000000000000000000000000000008000000000000000000000000000000000000000000000000000000000000000008000000002000000000000000000200000000000000000000000000000000000000000000000000000000000200000",
      "type": "0x2",
      "transactionHash": "0x07b31222425cf43ce0e5e646dac954001639694fc7bf0019d7eab32c4eab627c",
      "transactionIndex": "0xe",
      "blockHash": "0xd19d039e47ac769c1e3e53da87641bc5fc1b7d35a76b420ee6e94786df391fed",
      "blockNumber": "0x208849a",
      "gasUsed": "0x66d65",
      "effectiveGasPrice": "0x125843",
      "blobGasUsed": "0xb598",
      "from": "0xf7c7ddd2ed3ea7b745786951713f4ffef428adef",
      "to": "0x033ea50deaa8b064958fc40e34f994c154d27fff",
      "contractAddress": null,
      "daFootprintGasScalar": "0x138",
      "l1BaseFeeScalar": "0x44d",
      "l1BlobBaseFee": "0x1",
      "l1BlobBaseFeeScalar": "0xa118b",
      "l1Fee": "0xaa",
      "l1GasPrice": "0x1b",
      "l1GasUsed": "0x95c"
    },
    {
      "status": "0x1",
      "cumulativeGasUsed": "0x5cd27d",
      "logs": [
        {
          "address": "0x033ea50deaa8b064958fc40e34f994c154d27fff",
          "topics": [
            "0xf3bd8c45b58d535d7baa133b54fed923287038c1a5079bf4b73b28cd5ca9fe5e",
            "0x000000000000000000000000b9936ac3ee6b30c82587daf7f2ff417758aace78",
            "0x000000000000000000000000119000192d6c783d355ac50320670f8140d051d0",
            "0xf6e98b8d22cedccecaebcaf627b4e270d1600aa6892949fb6bee4893069c00d2"
          ],
          "data": "0x0000000000000000000000000000000000000000000000000000000000001d4c0000000000000000000000000000000000000000000000000000000000001f40",
          "blockHash": "0xc17f97838eb0d0421e7dc575bf7554293324bd171119cf42cec0c0a363518c1c",
          "blockNumber": "0x208849a",
          "blockTimestamp": "0x69246814",
          "transactionHash": "0x5803c6f8e685e9a8fcac5b18b7366ff900bd3027550a19b2aa35a7a1185111fc",
          "transactionIndex": "0xf",
          "logIndex": "0x3e",
          "removed": false
        }
      ],
      "logsBloom": "0x0000000000010000000000000000000000000000040000000000040000000000000000000000000000004000000000000000000000002000000000000000000000000000000a000000000040000000000000000000000000000000000000000000000000000000000000000000000000000000000000000000000000000000000004000000000000000000000000000000000000000000000000000000000000000000000000800000000000000000008000000000000000000000000000000000000000000000000000000000000000000000000022000008000000000000000010000000000000000000000000000000000000000000000000000000000000",
      "type": "0x2",
      "transactionHash": "0x5803c6f8e685e9a8fcac5b18b7366ff900bd3027550a19b2aa35a7a1185111fc",
      "transactionIndex": "0xf",
      "blockHash": "0xc17f97838eb0d0421e7dc575bf7554293324bd171119cf42cec0c0a363518c1c",
      "blockNumber": "0x208849a",
      "gasUsed": "0x6b031",
      "effectiveGasPrice": "0x125843",
      "blobGasUsed": "0xb598",
      "from": "0xf7c7ddd2ed3ea7b745786951713f4ffef428adef",
      "to": "0x033ea50deaa8b064958fc40e34f994c154d27fff",
      "contractAddress": null,
      "daFootprintGasScalar": "0x138",
      "l1BaseFeeScalar": "0x44d",
      "l1BlobBaseFee": "0x1",
      "l1BlobBaseFeeScalar": "0xa118b",
      "l1Fee": "0xaa",
      "l1GasPrice": "0x1b",
      "l1GasUsed": "0x95c"
    },
    {
      "status": "0x1",
      "cumulativeGasUsed": "0x633fe2",
      "logs": [
        {
          "address": "0x033ea50deaa8b064958fc40e34f994c154d27fff",
          "topics": [
            "0xf3bd8c45b58d535d7baa133b54fed923287038c1a5079bf4b73b28cd5ca9fe5e",
            "0x000000000000000000000000b9936ac3ee6b30c82587daf7f2ff417758aace78",
            "0x00000000000000000000000047a94537cd5169dd0d7e8b86b65372794c9ff8e8",
            "0x06f1d51589e3ac55e9dcb86029f8886799fb7b041467987d9c63cfa32c5f686d"
          ],
          "data": "0x0000000000000000000000000000000000000000000000000000000000001b580000000000000000000000000000000000000000000000000000000000001d4c",
          "blockHash": "0xc17f97838eb0d0421e7dc575bf7554293324bd171119cf42cec0c0a363518c1c",
          "blockNumber": "0x208849a",
          "blockTimestamp": "0x69246814",
          "transactionHash": "0xb07eadb452939d8389a8673671235df530160f2ad82ed5757b04f89775be5301",
          "transactionIndex": "0x10",
          "logIndex": "0x3f",
          "removed": false
        }
      ],
      "logsBloom": "0x00000000000000000000000000000000000000000400000000000400000000200000000000000000000040000000000000000000000020000000000000000000000000000008000000000000000000000000000000000000040000000000000000000000000000000000000000002000000000000000000000020000000000000004000000000000000000000000000000000000000000000000000000000000000000000000000000000000000000008000000000000000000000000000000000000000000000000000000000000000008000000002000008000000000000000000000000000000000000000000000000000000000000000000000000200000",
      "type": "0x2",
      "transactionHash": "0xb07eadb452939d8389a8673671235df530160f2ad82ed5757b04f89775be5301",
      "transactionIndex": "0x10",
      "blockHash": "0xc17f97838eb0d0421e7dc575bf7554293324bd171119cf42cec0c0a363518c1c",
      "blockNumber": "0x208849a",
      "gasUsed": "0x66d65",
      "effectiveGasPrice": "0x125843",
      "blobGasUsed": "0xb598",
      "from": "0xf7c7ddd2ed3ea7b745786951713f4ffef428adef",
      "to": "0x033ea50deaa8b064958fc40e34f994c154d27fff",
      "contractAddress": null,
      "daFootprintGasScalar": "0x138",
      "l1BaseFeeScalar": "0x44d",
      "l1BlobBaseFee": "0x1",
      "l1BlobBaseFeeScalar": "0xa118b",
      "l1Fee": "0xaa",
      "l1GasPrice": "0x1b",
      "l1GasUsed": "0x95c"
    }
  ],
  "libraries": [],
  "pending": [],
  "returns": {},
  "timestamp": 1763993620968,
  "chain": 84532,
  "commit": "bfd6b01"
}